ARM GAS  C:\Users\INCAS-~1\AppData\Local\Temp\cc10ZzBb.s 			page 1


   1              		.syntax unified
   2              		.cpu cortex-m4
   3              		.fpu softvfp
   4              		.eabi_attribute 20, 1
   5              		.eabi_attribute 21, 1
   6              		.eabi_attribute 23, 3
   7              		.eabi_attribute 24, 1
   8              		.eabi_attribute 25, 1
   9              		.eabi_attribute 26, 1
  10              		.eabi_attribute 30, 2
  11              		.eabi_attribute 34, 1
  12              		.eabi_attribute 18, 4
  13              		.thumb
  14              		.file	"adc_lld.c"
  15              		.text
  16              	.Ltext0:
  17              		.cfi_sections	.debug_frame
  18              		.section	.text.adc_lld_init,"ax",%progbits
  19              		.align	2
  20              		.p2align 4,,15
  21              		.global	adc_lld_init
  22              		.thumb
  23              		.thumb_func
  24              		.type	adc_lld_init, %function
  25              	adc_lld_init:
  26              	.LFB120:
  27              		.file 1 "../../os/hal/platforms/STM32F4xx/adc_lld.c"
  28              		.loc 1 171 0
  29              		.cfi_startproc
  30              		@ args = 0, pretend = 0, frame = 0
  31              		@ frame_needed = 0, uses_anonymous_args = 0
  32 0000 10B5     		push	{r4, lr}
  33              	.LCFI0:
  34              		.cfi_def_cfa_offset 8
  35              		.cfi_offset 4, -8
  36              		.cfi_offset 14, -4
  37              		.loc 1 175 0
  38 0002 40F20004 		movw	r4, #:lower16:.LANCHOR0
  39 0006 C0F20004 		movt	r4, #:upper16:.LANCHOR0
  40 000a 2046     		mov	r0, r4
  41 000c FFF7FEFF 		bl	adcObjectInit
  42              	.LVL0:
  43              		.loc 1 176 0
  44 0010 4FF40052 		mov	r2, #8192
  45 0014 C4F20102 		movt	r2, 16385
  46 0018 A262     		str	r2, [r4, #40]
  47              		.loc 1 178 0
  48 001a 42F61643 		movw	r3, #11286
  49              		.loc 1 177 0
  50 001e 054A     		ldr	r2, .L2
  51              		.loc 1 178 0
  52 0020 C0F20203 		movt	r3, 2
  53              		.loc 1 214 0
  54 0024 1220     		movs	r0, #18
  55 0026 6021     		movs	r1, #96
  56              		.loc 1 177 0
  57 0028 E262     		str	r2, [r4, #44]
ARM GAS  C:\Users\INCAS-~1\AppData\Local\Temp\cc10ZzBb.s 			page 2


  58              		.loc 1 178 0
  59 002a 2363     		str	r3, [r4, #48]
  60              		.loc 1 215 0
  61 002c BDE81040 		pop	{r4, lr}
  62              		.loc 1 214 0
  63 0030 FFF7FEBF 		b	nvicEnableVector
  64              	.LVL1:
  65              	.L3:
  66              		.align	2
  67              	.L2:
  68 0034 90000000 		.word	_stm32_dma_streams+144
  69              		.cfi_endproc
  70              	.LFE120:
  71              		.size	adc_lld_init, .-adc_lld_init
  72 0038 AFF30080 		.section	.text.adc_lld_start,"ax",%progbits
  72      AFF30080 
  73              		.align	2
  74              		.p2align 4,,15
  75              		.global	adc_lld_start
  76              		.thumb
  77              		.thumb_func
  78              		.type	adc_lld_start, %function
  79              	adc_lld_start:
  80              	.LFB121:
  81              		.loc 1 224 0
  82              		.cfi_startproc
  83              		@ args = 0, pretend = 0, frame = 0
  84              		@ frame_needed = 0, uses_anonymous_args = 0
  85              	.LVL2:
  86              		.loc 1 227 0
  87 0000 0378     		ldrb	r3, [r0, #0]	@ zero_extendqisi2
  88 0002 012B     		cmp	r3, #1
  89              		.loc 1 224 0
  90 0004 10B5     		push	{r4, lr}
  91              	.LCFI1:
  92              		.cfi_def_cfa_offset 8
  93              		.cfi_offset 4, -8
  94              		.cfi_offset 14, -4
  95              		.loc 1 224 0
  96 0006 0446     		mov	r4, r0
  97              		.loc 1 227 0
  98 0008 00D0     		beq	.L8
  99 000a 10BD     		pop	{r4, pc}
 100              	.L8:
 101              		.loc 1 229 0
 102 000c 1448     		ldr	r0, .L10
 103              	.LVL3:
 104 000e 8442     		cmp	r4, r0
 105 0010 10D0     		beq	.L9
 106              	.L6:
 107              		.loc 1 269 0
 108 0012 4FF40C52 		mov	r2, #8960
 109 0016 C4F20102 		movt	r2, 16385
 110              		.loc 1 274 0
 111 001a A36A     		ldr	r3, [r4, #40]
 112              		.loc 1 269 0
 113 001c 5068     		ldr	r0, [r2, #4]
ARM GAS  C:\Users\INCAS-~1\AppData\Local\Temp\cc10ZzBb.s 			page 3


 114 001e 00F44000 		and	r0, r0, #12582912
 115 0022 40F48030 		orr	r0, r0, #65536
 116 0026 5060     		str	r0, [r2, #4]
 117              		.loc 1 274 0
 118 0028 0021     		movs	r1, #0
 119              		.loc 1 276 0
 120 002a 0122     		movs	r2, #1
 121              		.loc 1 274 0
 122 002c 5960     		str	r1, [r3, #4]
 123              		.loc 1 275 0
 124 002e 9960     		str	r1, [r3, #8]
 125              		.loc 1 276 0
 126 0030 9A60     		str	r2, [r3, #8]
 127 0032 10BD     		pop	{r4, pc}
 128              	.L9:
 129              	.LBB2:
 130              		.loc 1 231 0
 131 0034 0B4A     		ldr	r2, .L10+4
 132 0036 E06A     		ldr	r0, [r4, #44]
 133 0038 0621     		movs	r1, #6
 134 003a 2346     		mov	r3, r4
 135 003c FFF7FEFF 		bl	dmaStreamAllocate
 136              	.LVL4:
 137              		.loc 1 236 0
 138 0040 E16A     		ldr	r1, [r4, #44]
 139 0042 42F24C02 		movw	r2, #8268
 140 0046 0868     		ldr	r0, [r1, #0]
 141              		.loc 1 237 0
 142 0048 4FF46053 		mov	r3, #14336
 143 004c C4F20203 		movt	r3, 16386
 144              		.loc 1 236 0
 145 0050 C4F20102 		movt	r2, 16385
 146 0054 8260     		str	r2, [r0, #8]
 147              		.loc 1 237 0
 148 0056 596C     		ldr	r1, [r3, #68]
 149 0058 41F48072 		orr	r2, r1, #256
 150 005c 5A64     		str	r2, [r3, #68]
 151 005e D8E7     		b	.L6
 152              	.L11:
 153              		.align	2
 154              	.L10:
 155 0060 00000000 		.word	.LANCHOR0
 156 0064 00000000 		.word	adc_lld_serve_rx_interrupt
 157              	.LBE2:
 158              		.cfi_endproc
 159              	.LFE121:
 160              		.size	adc_lld_start, .-adc_lld_start
 161 0068 AFF30080 		.section	.text.adc_lld_stop,"ax",%progbits
 161      AFF30080 
 162              		.align	2
 163              		.p2align 4,,15
 164              		.global	adc_lld_stop
 165              		.thumb
 166              		.thumb_func
 167              		.type	adc_lld_stop, %function
 168              	adc_lld_stop:
 169              	.LFB122:
ARM GAS  C:\Users\INCAS-~1\AppData\Local\Temp\cc10ZzBb.s 			page 4


 170              		.loc 1 287 0
 171              		.cfi_startproc
 172              		@ args = 0, pretend = 0, frame = 0
 173              		@ frame_needed = 0, uses_anonymous_args = 0
 174              	.LVL5:
 175              		.loc 1 290 0
 176 0000 0378     		ldrb	r3, [r0, #0]	@ zero_extendqisi2
 177 0002 022B     		cmp	r3, #2
 178              		.loc 1 287 0
 179 0004 10B5     		push	{r4, lr}
 180              	.LCFI2:
 181              		.cfi_def_cfa_offset 8
 182              		.cfi_offset 4, -8
 183              		.cfi_offset 14, -4
 184              		.loc 1 287 0
 185 0006 0446     		mov	r4, r0
 186              		.loc 1 290 0
 187 0008 00D0     		beq	.L16
 188              	.LVL6:
 189              	.L12:
 190 000a 10BD     		pop	{r4, pc}
 191              	.LVL7:
 192              	.L16:
 193              		.loc 1 291 0
 194 000c C06A     		ldr	r0, [r0, #44]
 195              	.LVL8:
 196 000e FFF7FEFF 		bl	dmaStreamRelease
 197              	.LVL9:
 198              		.loc 1 296 0
 199 0012 0849     		ldr	r1, .L17
 200              		.loc 1 292 0
 201 0014 A06A     		ldr	r0, [r4, #40]
 202 0016 0022     		movs	r2, #0
 203              		.loc 1 296 0
 204 0018 8C42     		cmp	r4, r1
 205              		.loc 1 292 0
 206 001a 4260     		str	r2, [r0, #4]
 207              		.loc 1 293 0
 208 001c 8260     		str	r2, [r0, #8]
 209              		.loc 1 296 0
 210 001e F4D1     		bne	.L12
 211              		.loc 1 297 0
 212 0020 4FF46053 		mov	r3, #14336
 213 0024 C4F20203 		movt	r3, 16386
 214 0028 586C     		ldr	r0, [r3, #68]
 215 002a 20F48072 		bic	r2, r0, #256
 216 002e 5A64     		str	r2, [r3, #68]
 217 0030 EBE7     		b	.L12
 218              	.L18:
 219 0032 00BF     		.align	2
 220              	.L17:
 221 0034 00000000 		.word	.LANCHOR0
 222              		.cfi_endproc
 223              	.LFE122:
 224              		.size	adc_lld_stop, .-adc_lld_stop
 225 0038 AFF30080 		.section	.text.adc_lld_start_conversion,"ax",%progbits
 225      AFF30080 
ARM GAS  C:\Users\INCAS-~1\AppData\Local\Temp\cc10ZzBb.s 			page 5


 226              		.align	2
 227              		.p2align 4,,15
 228              		.global	adc_lld_start_conversion
 229              		.thumb
 230              		.thumb_func
 231              		.type	adc_lld_start_conversion, %function
 232              	adc_lld_start_conversion:
 233              	.LFB123:
 234              		.loc 1 319 0
 235              		.cfi_startproc
 236              		@ args = 0, pretend = 0, frame = 0
 237              		@ frame_needed = 0, uses_anonymous_args = 0
 238              		@ link register save eliminated.
 239              	.LVL10:
 240              		.loc 1 321 0
 241 0000 0369     		ldr	r3, [r0, #16]
 242              	.LVL11:
 243              		.loc 1 324 0
 244 0002 026B     		ldr	r2, [r0, #48]
 245              	.LVL12:
 246              		.loc 1 325 0
 247 0004 1978     		ldrb	r1, [r3, #0]	@ zero_extendqisi2
 248              		.loc 1 319 0
 249 0006 2DE9F003 		push	{r4, r5, r6, r7, r8, r9}
 250              	.LCFI3:
 251              		.cfi_def_cfa_offset 24
 252              		.cfi_offset 4, -24
 253              		.cfi_offset 5, -20
 254              		.cfi_offset 6, -16
 255              		.cfi_offset 7, -12
 256              		.cfi_offset 8, -8
 257              		.cfi_offset 9, -4
 258              		.loc 1 325 0
 259 000a 09B1     		cbz	r1, .L20
 260              		.loc 1 326 0
 261 000c 42F48072 		orr	r2, r2, #256
 262              	.LVL13:
 263              	.L20:
 264              		.loc 1 328 0
 265 0010 C468     		ldr	r4, [r0, #12]
 266              		.loc 1 333 0
 267 0012 C56A     		ldr	r5, [r0, #44]
 268              		.loc 1 334 0
 269 0014 5E88     		ldrh	r6, [r3, #2]
 270              		.loc 1 333 0
 271 0016 2968     		ldr	r1, [r5, #0]
 272 0018 8768     		ldr	r7, [r0, #8]
 273              		.loc 1 349 0
 274 001a D3F80CC0 		ldr	ip, [r3, #12]
 275              		.loc 1 333 0
 276 001e CF60     		str	r7, [r1, #12]
 277              		.loc 1 328 0
 278 0020 012C     		cmp	r4, #1
 279              		.loc 1 331 0
 280 0022 88BF     		it	hi
 281 0024 42F00802 		orrhi	r2, r2, #8
 282              	.LVL14:
ARM GAS  C:\Users\INCAS-~1\AppData\Local\Temp\cc10ZzBb.s 			page 6


 283              		.loc 1 334 0
 284 0028 04FB06F4 		mul	r4, r4, r6
 285 002c 4C60     		str	r4, [r1, #4]
 286              		.loc 1 336 0
 287 002e 0A60     		str	r2, [r1, #0]
 288              		.loc 1 337 0
 289 0030 D1F80090 		ldr	r9, [r1, #0]
 290              		.loc 1 341 0
 291 0034 D3F81480 		ldr	r8, [r3, #20]
 292              		.loc 1 342 0
 293 0038 9F69     		ldr	r7, [r3, #24]
 294              		.loc 1 343 0
 295 003a DE69     		ldr	r6, [r3, #28]
 296              		.loc 1 344 0
 297 003c 1D6A     		ldr	r5, [r3, #32]
 298              		.loc 1 345 0
 299 003e 5C6A     		ldr	r4, [r3, #36]
 300              		.loc 1 350 0
 301 0040 1B69     		ldr	r3, [r3, #16]
 302              	.LVL15:
 303              		.loc 1 340 0
 304 0042 826A     		ldr	r2, [r0, #40]
 305              	.LVL16:
 306              		.loc 1 337 0
 307 0044 49F00109 		orr	r9, r9, #1
 308 0048 C1F80090 		str	r9, [r1, #0]
 309              		.loc 1 349 0
 310 004c 4CF08060 		orr	r0, ip, #67108864
 311              	.LVL17:
 312              		.loc 1 340 0
 313 0050 0021     		movs	r1, #0
 314              	.LVL18:
 315              		.loc 1 350 0
 316 0052 13F0804F 		tst	r3, #1073741824
 317              		.loc 1 352 0
 318 0056 43F44073 		orr	r3, r3, #768
 319              		.loc 1 349 0
 320 005a 40F48070 		orr	r0, r0, #256
 321              		.loc 1 352 0
 322 005e 14BF     		ite	ne
 323 0060 43F00303 		orrne	r3, r3, #3
 324              		.loc 1 355 0
 325 0064 43F00103 		orreq	r3, r3, #1
 326              		.loc 1 340 0
 327 0068 1160     		str	r1, [r2, #0]
 328              		.loc 1 341 0
 329 006a C2F80C80 		str	r8, [r2, #12]
 330              		.loc 1 342 0
 331 006e 1761     		str	r7, [r2, #16]
 332              		.loc 1 343 0
 333 0070 D662     		str	r6, [r2, #44]
 334              		.loc 1 344 0
 335 0072 1563     		str	r5, [r2, #48]
 336              		.loc 1 345 0
 337 0074 5463     		str	r4, [r2, #52]
 338              		.loc 1 349 0
 339 0076 5060     		str	r0, [r2, #4]
ARM GAS  C:\Users\INCAS-~1\AppData\Local\Temp\cc10ZzBb.s 			page 7


 340              		.loc 1 354 0
 341 0078 9360     		str	r3, [r2, #8]
 342              		.loc 1 356 0
 343 007a BDE8F003 		pop	{r4, r5, r6, r7, r8, r9}
 344 007e 7047     		bx	lr
 345              		.cfi_endproc
 346              	.LFE123:
 347              		.size	adc_lld_start_conversion, .-adc_lld_start_conversion
 348              		.section	.text.adc_lld_stop_conversion,"ax",%progbits
 349              		.align	2
 350              		.p2align 4,,15
 351              		.global	adc_lld_stop_conversion
 352              		.thumb
 353              		.thumb_func
 354              		.type	adc_lld_stop_conversion, %function
 355              	adc_lld_stop_conversion:
 356              	.LFB124:
 357              		.loc 1 365 0
 358              		.cfi_startproc
 359              		@ args = 0, pretend = 0, frame = 0
 360              		@ frame_needed = 0, uses_anonymous_args = 0
 361              		@ link register save eliminated.
 362              	.LVL19:
 363              		.loc 1 367 0
 364 0000 C16A     		ldr	r1, [r0, #44]
 365 0002 0A68     		ldr	r2, [r1, #0]
 366 0004 1368     		ldr	r3, [r2, #0]
 367              		.loc 1 365 0
 368 0006 10B4     		push	{r4}
 369              	.LCFI4:
 370              		.cfi_def_cfa_offset 4
 371              		.cfi_offset 4, -4
 372              		.loc 1 367 0
 373 0008 23F01F04 		bic	r4, r3, #31
 374 000c 1460     		str	r4, [r2, #0]
 375              	.L28:
 376              		.loc 1 367 0 is_stmt 0 discriminator 1
 377 000e 1368     		ldr	r3, [r2, #0]
 378 0010 13F00103 		ands	r3, r3, #1
 379 0014 FBD1     		bne	.L28
 380              		.loc 1 367 0 discriminator 2
 381 0016 0C7A     		ldrb	r4, [r1, #8]	@ zero_extendqisi2
 382              		.loc 1 368 0 is_stmt 1 discriminator 2
 383 0018 826A     		ldr	r2, [r0, #40]
 384              		.loc 1 367 0 discriminator 2
 385 001a 4968     		ldr	r1, [r1, #4]
 386 001c 3D20     		movs	r0, #61
 387              	.LVL20:
 388 001e 00FA04F0 		lsl	r0, r0, r4
 389 0022 0860     		str	r0, [r1, #0]
 390              		.loc 1 368 0 discriminator 2
 391 0024 5360     		str	r3, [r2, #4]
 392              		.loc 1 369 0 discriminator 2
 393 0026 9360     		str	r3, [r2, #8]
 394              		.loc 1 370 0 discriminator 2
 395 0028 0123     		movs	r3, #1
 396 002a 9360     		str	r3, [r2, #8]
ARM GAS  C:\Users\INCAS-~1\AppData\Local\Temp\cc10ZzBb.s 			page 8


 397              		.loc 1 371 0 discriminator 2
 398 002c 10BC     		pop	{r4}
 399 002e 7047     		bx	lr
 400              		.cfi_endproc
 401              	.LFE124:
 402              		.size	adc_lld_stop_conversion, .-adc_lld_stop_conversion
 403              		.section	.text.adc_lld_serve_rx_interrupt,"ax",%progbits
 404              		.align	2
 405              		.p2align 4,,15
 406              		.thumb
 407              		.thumb_func
 408              		.type	adc_lld_serve_rx_interrupt, %function
 409              	adc_lld_serve_rx_interrupt:
 410              	.LFB118:
 411              		.loc 1 76 0
 412              		.cfi_startproc
 413              		@ args = 0, pretend = 0, frame = 0
 414              		@ frame_needed = 0, uses_anonymous_args = 0
 415              	.LVL21:
 416              		.loc 1 79 0
 417 0000 11F00C0F 		tst	r1, #12
 418              		.loc 1 76 0
 419 0004 38B5     		push	{r3, r4, r5, lr}
 420              	.LCFI5:
 421              		.cfi_def_cfa_offset 16
 422              		.cfi_offset 3, -16
 423              		.cfi_offset 4, -12
 424              		.cfi_offset 5, -8
 425              		.cfi_offset 14, -4
 426              		.loc 1 76 0
 427 0006 0D46     		mov	r5, r1
 428 0008 0446     		mov	r4, r0
 429              		.loc 1 79 0
 430 000a 20D1     		bne	.L65
 431              		.loc 1 87 0
 432 000c 0369     		ldr	r3, [r0, #16]
 433 000e 002B     		cmp	r3, #0
 434 0010 3DD0     		beq	.L30
 435              		.loc 1 88 0
 436 0012 CA06     		lsls	r2, r1, #27
 437 0014 05D5     		bpl	.L38
 438              		.loc 1 90 0
 439 0016 5B68     		ldr	r3, [r3, #4]
 440 0018 1BB1     		cbz	r3, .L38
 441              		.loc 1 90 0 is_stmt 0 discriminator 1
 442 001a C268     		ldr	r2, [r0, #12]
 443 001c 8168     		ldr	r1, [r0, #8]
 444              	.LVL22:
 445 001e 5208     		lsrs	r2, r2, #1
 446 0020 9847     		blx	r3
 447              	.LVL23:
 448              	.L38:
 449              		.loc 1 92 0 is_stmt 1
 450 0022 AB06     		lsls	r3, r5, #26
 451 0024 33D5     		bpl	.L30
 452              		.loc 1 94 0
 453 0026 2069     		ldr	r0, [r4, #16]
ARM GAS  C:\Users\INCAS-~1\AppData\Local\Temp\cc10ZzBb.s 			page 9


 454 0028 0178     		ldrb	r1, [r0, #0]	@ zero_extendqisi2
 455 002a 0029     		cmp	r1, #0
 456 002c 34D0     		beq	.L40
 457              		.loc 1 94 0 is_stmt 0 discriminator 1
 458 002e 4568     		ldr	r5, [r0, #4]
 459              	.LVL24:
 460 0030 002D     		cmp	r5, #0
 461 0032 2CD0     		beq	.L30
 462              		.loc 1 94 0 discriminator 3
 463 0034 E268     		ldr	r2, [r4, #12]
 464 0036 012A     		cmp	r2, #1
 465 0038 2AD9     		bls	.L41
 466              	.LBB3:
 467              		.loc 1 94 0 discriminator 4
 468 003a 4088     		ldrh	r0, [r0, #2]
 469 003c A368     		ldr	r3, [r4, #8]
 470 003e 5208     		lsrs	r2, r2, #1
 471              	.LVL25:
 472 0040 00FB02F1 		mul	r1, r0, r2
 473 0044 03EB4101 		add	r1, r3, r1, lsl #1
 474 0048 2046     		mov	r0, r4
 475 004a A847     		blx	r5
 476              	.LVL26:
 477 004c 38BD     		pop	{r3, r4, r5, pc}
 478              	.LVL27:
 479              	.L65:
 480              	.LBE3:
 481              		.loc 1 82 0 is_stmt 1
 482 004e FFF7FEFF 		bl	adc_lld_stop_conversion
 483              	.LVL28:
 484 0052 2269     		ldr	r2, [r4, #16]
 485 0054 9368     		ldr	r3, [r2, #8]
 486 0056 4BB1     		cbz	r3, .L33
 487              		.loc 1 82 0 is_stmt 0 discriminator 1
 488 0058 0520     		movs	r0, #5
 489 005a 0021     		movs	r1, #0
 490 005c 2070     		strb	r0, [r4, #0]
 491 005e 2046     		mov	r0, r4
 492 0060 9847     		blx	r3
 493              	.LVL29:
 494 0062 2178     		ldrb	r1, [r4, #0]	@ zero_extendqisi2
 495 0064 0529     		cmp	r1, #5
 496 0066 01D1     		bne	.L33
 497              		.loc 1 82 0 discriminator 3
 498 0068 0222     		movs	r2, #2
 499 006a 2270     		strb	r2, [r4, #0]
 500              	.L33:
 501              		.loc 1 82 0 discriminator 2
 502 006c 0020     		movs	r0, #0
 503 006e 2061     		str	r0, [r4, #16]
 504              	.LBB4:
 505 0070 2023     		movs	r3, #32
 506              	.LVL30:
 507              	@ 82 "../../os/hal/platforms/STM32F4xx/adc_lld.c" 1
 508 0072 83F31188 		msr     BASEPRI, r3
 509              	@ 0 "" 2
 510              	.LVL31:
ARM GAS  C:\Users\INCAS-~1\AppData\Local\Temp\cc10ZzBb.s 			page 10


 511              		.thumb
 512              	.LBE4:
 513 0076 6369     		ldr	r3, [r4, #20]
 514              	.LVL32:
 515 0078 33B1     		cbz	r3, .L46
 516              	.LVL33:
 517              	.LBB5:
 518              		.loc 1 82 0 discriminator 4
 519 007a 4FF0FF31 		mov	r1, #-1
 520 007e 6061     		str	r0, [r4, #20]
 521 0080 1846     		mov	r0, r3
 522 0082 5962     		str	r1, [r3, #36]
 523 0084 FFF7FEFF 		bl	chSchReadyI
 524              	.LVL34:
 525              	.L46:
 526              	.LBE5:
 527              	.LBB6:
 528              		.loc 1 94 0 is_stmt 1 discriminator 14
 529 0088 0023     		movs	r3, #0
 530              	.LVL35:
 531              	@ 94 "../../os/hal/platforms/STM32F4xx/adc_lld.c" 1
 532 008a 83F31188 		msr     BASEPRI, r3
 533              	@ 0 "" 2
 534              	.LVL36:
 535              		.thumb
 536              	.L30:
 537 008e 38BD     		pop	{r3, r4, r5, pc}
 538              	.LVL37:
 539              	.L41:
 540              	.LBE6:
 541              		.loc 1 94 0 is_stmt 0 discriminator 5
 542 0090 2046     		mov	r0, r4
 543 0092 A168     		ldr	r1, [r4, #8]
 544 0094 A847     		blx	r5
 545              	.LVL38:
 546 0096 38BD     		pop	{r3, r4, r5, pc}
 547              	.LVL39:
 548              	.L40:
 549              		.loc 1 94 0 discriminator 2
 550 0098 2046     		mov	r0, r4
 551 009a FFF7FEFF 		bl	adc_lld_stop_conversion
 552              	.LVL40:
 553 009e 2169     		ldr	r1, [r4, #16]
 554 00a0 4B68     		ldr	r3, [r1, #4]
 555 00a2 33B3     		cbz	r3, .L42
 556              		.loc 1 94 0 discriminator 6
 557 00a4 E268     		ldr	r2, [r4, #12]
 558 00a6 0420     		movs	r0, #4
 559 00a8 012A     		cmp	r2, #1
 560 00aa 2070     		strb	r0, [r4, #0]
 561 00ac 1DD9     		bls	.L43
 562              	.LBB7:
 563              		.loc 1 94 0 discriminator 8
 564 00ae 4D88     		ldrh	r5, [r1, #2]
 565              	.LVL41:
 566 00b0 A168     		ldr	r1, [r4, #8]
 567 00b2 5208     		lsrs	r2, r2, #1
ARM GAS  C:\Users\INCAS-~1\AppData\Local\Temp\cc10ZzBb.s 			page 11


 568              	.LVL42:
 569 00b4 05FB02F5 		mul	r5, r5, r2
 570 00b8 2046     		mov	r0, r4
 571 00ba 01EB4501 		add	r1, r1, r5, lsl #1
 572 00be 9847     		blx	r3
 573              	.LVL43:
 574              	.L44:
 575              	.LBE7:
 576              		.loc 1 94 0 discriminator 10
 577 00c0 2378     		ldrb	r3, [r4, #0]	@ zero_extendqisi2
 578 00c2 042B     		cmp	r3, #4
 579 00c4 0CD0     		beq	.L66
 580              	.L45:
 581              	.LBB8:
 582              		.loc 1 94 0 discriminator 12
 583 00c6 2023     		movs	r3, #32
 584              	@ 94 "../../os/hal/platforms/STM32F4xx/adc_lld.c" 1
 585 00c8 83F31188 		msr     BASEPRI, r3
 586              	@ 0 "" 2
 587              	.LVL44:
 588              		.thumb
 589              	.LBE8:
 590 00cc 6169     		ldr	r1, [r4, #20]
 591 00ce 0029     		cmp	r1, #0
 592 00d0 DAD0     		beq	.L46
 593              	.LVL45:
 594              	.LBB9:
 595              		.loc 1 94 0 discriminator 13
 596 00d2 0023     		movs	r3, #0
 597              	.LVL46:
 598 00d4 6361     		str	r3, [r4, #20]
 599 00d6 0846     		mov	r0, r1
 600 00d8 4B62     		str	r3, [r1, #36]
 601 00da FFF7FEFF 		bl	chSchReadyI
 602              	.LVL47:
 603 00de D3E7     		b	.L46
 604              	.L66:
 605              	.LBE9:
 606              		.loc 1 94 0 discriminator 11
 607 00e0 0222     		movs	r2, #2
 608 00e2 0020     		movs	r0, #0
 609 00e4 2270     		strb	r2, [r4, #0]
 610 00e6 2061     		str	r0, [r4, #16]
 611 00e8 EDE7     		b	.L45
 612              	.LVL48:
 613              	.L43:
 614              		.loc 1 94 0 discriminator 9
 615 00ea 2046     		mov	r0, r4
 616 00ec A168     		ldr	r1, [r4, #8]
 617 00ee 9847     		blx	r3
 618              	.LVL49:
 619 00f0 E6E7     		b	.L44
 620              	.L42:
 621              		.loc 1 94 0 discriminator 7
 622 00f2 0222     		movs	r2, #2
 623 00f4 2270     		strb	r2, [r4, #0]
 624 00f6 2361     		str	r3, [r4, #16]
ARM GAS  C:\Users\INCAS-~1\AppData\Local\Temp\cc10ZzBb.s 			page 12


 625 00f8 E5E7     		b	.L45
 626              		.cfi_endproc
 627              	.LFE118:
 628              		.size	adc_lld_serve_rx_interrupt, .-adc_lld_serve_rx_interrupt
 629 00fa 00BFAFF3 		.section	.text.Vector88,"ax",%progbits
 629      0080
 630              		.align	2
 631              		.p2align 4,,15
 632              		.global	Vector88
 633              		.thumb
 634              		.thumb_func
 635              		.type	Vector88, %function
 636              	Vector88:
 637              	.LFB119:
 638              		.loc 1 111 0 is_stmt 1
 639              		.cfi_startproc
 640              		@ args = 0, pretend = 0, frame = 0
 641              		@ frame_needed = 0, uses_anonymous_args = 0
 642              		.loc 1 117 0
 643 0000 4FF40053 		mov	r3, #8192
 644 0004 C4F20103 		movt	r3, 16385
 645              		.loc 1 118 0
 646 0008 0021     		movs	r1, #0
 647              		.loc 1 117 0
 648 000a 1A68     		ldr	r2, [r3, #0]
 649              	.LVL50:
 650              		.loc 1 111 0
 651 000c 10B5     		push	{r4, lr}
 652              	.LCFI6:
 653              		.cfi_def_cfa_offset 8
 654              		.cfi_offset 4, -8
 655              		.cfi_offset 14, -4
 656              		.loc 1 118 0
 657 000e 1960     		str	r1, [r3, #0]
 658              		.loc 1 121 0
 659 0010 9106     		lsls	r1, r2, #26
 660 0012 25D5     		bpl	.L68
 661              		.loc 1 121 0 is_stmt 0 discriminator 1
 662 0014 164C     		ldr	r4, .L86
 663 0016 E06A     		ldr	r0, [r4, #44]
 664 0018 0368     		ldr	r3, [r0, #0]
 665 001a 5A68     		ldr	r2, [r3, #4]
 666              	.LVL51:
 667 001c 02B3     		cbz	r2, .L68
 668              		.loc 1 124 0 is_stmt 1
 669 001e 2169     		ldr	r1, [r4, #16]
 670 0020 F1B1     		cbz	r1, .L68
 671              		.loc 1 125 0
 672 0022 2046     		mov	r0, r4
 673 0024 FFF7FEFF 		bl	adc_lld_stop_conversion
 674              	.LVL52:
 675 0028 2069     		ldr	r0, [r4, #16]
 676 002a 8368     		ldr	r3, [r0, #8]
 677 002c 3BB1     		cbz	r3, .L70
 678              		.loc 1 125 0 is_stmt 0 discriminator 1
 679 002e 0522     		movs	r2, #5
 680 0030 0121     		movs	r1, #1
ARM GAS  C:\Users\INCAS-~1\AppData\Local\Temp\cc10ZzBb.s 			page 13


 681 0032 2270     		strb	r2, [r4, #0]
 682 0034 2046     		mov	r0, r4
 683 0036 9847     		blx	r3
 684              	.LVL53:
 685 0038 2178     		ldrb	r1, [r4, #0]	@ zero_extendqisi2
 686 003a 0529     		cmp	r1, #5
 687 003c 14D0     		beq	.L85
 688              	.L70:
 689              		.loc 1 125 0 discriminator 2
 690 003e 0022     		movs	r2, #0
 691 0040 2261     		str	r2, [r4, #16]
 692              	.LBB10:
 693 0042 2023     		movs	r3, #32
 694              	.LVL54:
 695              	@ 125 "../../os/hal/platforms/STM32F4xx/adc_lld.c" 1
 696 0044 83F31188 		msr     BASEPRI, r3
 697              	@ 0 "" 2
 698              	.LVL55:
 699              		.thumb
 700              	.LBE10:
 701 0048 6069     		ldr	r0, [r4, #20]
 702 004a 30B1     		cbz	r0, .L72
 703              	.LVL56:
 704              	.LBB11:
 705              		.loc 1 125 0 discriminator 4
 706 004c 4FF0FF33 		mov	r3, #-1
 707              	.LVL57:
 708 0050 0749     		ldr	r1, .L86
 709 0052 4362     		str	r3, [r0, #36]
 710 0054 4A61     		str	r2, [r1, #20]
 711 0056 FFF7FEFF 		bl	chSchReadyI
 712              	.LVL58:
 713              	.L72:
 714              	.LBE11:
 715              	.LBB12:
 716              		.loc 1 125 0 discriminator 5
 717 005a 0023     		movs	r3, #0
 718              	.LVL59:
 719              	@ 125 "../../os/hal/platforms/STM32F4xx/adc_lld.c" 1
 720 005c 83F31188 		msr     BASEPRI, r3
 721              	@ 0 "" 2
 722              	.LVL60:
 723              		.thumb
 724              	.L68:
 725              	.LBE12:
 726              		.loc 1 159 0 is_stmt 1
 727 0060 BDE81040 		pop	{r4, lr}
 728              		.loc 1 158 0
 729 0064 FFF7FEBF 		b	_port_irq_epilogue
 730              	.LVL61:
 731              	.L85:
 732              		.loc 1 125 0 discriminator 3
 733 0068 0220     		movs	r0, #2
 734 006a 2070     		strb	r0, [r4, #0]
 735 006c E7E7     		b	.L70
 736              	.L87:
 737 006e 00BF     		.align	2
ARM GAS  C:\Users\INCAS-~1\AppData\Local\Temp\cc10ZzBb.s 			page 14


 738              	.L86:
 739 0070 00000000 		.word	.LANCHOR0
 740              		.cfi_endproc
 741              	.LFE119:
 742              		.size	Vector88, .-Vector88
 743 0074 AFF30080 		.section	.text.adcSTM32EnableTSVREFE,"ax",%progbits
 743      AFF30080 
 743      AFF30080 
 744              		.align	2
 745              		.p2align 4,,15
 746              		.global	adcSTM32EnableTSVREFE
 747              		.thumb
 748              		.thumb_func
 749              		.type	adcSTM32EnableTSVREFE, %function
 750              	adcSTM32EnableTSVREFE:
 751              	.LFB125:
 752              		.loc 1 379 0
 753              		.cfi_startproc
 754              		@ args = 0, pretend = 0, frame = 0
 755              		@ frame_needed = 0, uses_anonymous_args = 0
 756              		@ link register save eliminated.
 757              		.loc 1 381 0
 758 0000 4FF40C53 		mov	r3, #8960
 759 0004 C4F20103 		movt	r3, 16385
 760 0008 5A68     		ldr	r2, [r3, #4]
 761 000a 42F40000 		orr	r0, r2, #8388608
 762 000e 5860     		str	r0, [r3, #4]
 763 0010 7047     		bx	lr
 764              		.cfi_endproc
 765              	.LFE125:
 766              		.size	adcSTM32EnableTSVREFE, .-adcSTM32EnableTSVREFE
 767              		.section	.text.adcSTM32DisableTSVREFE,"ax",%progbits
 768              		.align	2
 769              		.p2align 4,,15
 770              		.global	adcSTM32DisableTSVREFE
 771              		.thumb
 772              		.thumb_func
 773              		.type	adcSTM32DisableTSVREFE, %function
 774              	adcSTM32DisableTSVREFE:
 775              	.LFB126:
 776              		.loc 1 390 0
 777              		.cfi_startproc
 778              		@ args = 0, pretend = 0, frame = 0
 779              		@ frame_needed = 0, uses_anonymous_args = 0
 780              		@ link register save eliminated.
 781              		.loc 1 392 0
 782 0000 4FF40C53 		mov	r3, #8960
 783 0004 C4F20103 		movt	r3, 16385
 784 0008 5A68     		ldr	r2, [r3, #4]
 785 000a 22F40000 		bic	r0, r2, #8388608
 786 000e 5860     		str	r0, [r3, #4]
 787 0010 7047     		bx	lr
 788              		.cfi_endproc
 789              	.LFE126:
 790              		.size	adcSTM32DisableTSVREFE, .-adcSTM32DisableTSVREFE
 791              		.section	.text.adcSTM32EnableVBATE,"ax",%progbits
 792              		.align	2
ARM GAS  C:\Users\INCAS-~1\AppData\Local\Temp\cc10ZzBb.s 			page 15


 793              		.p2align 4,,15
 794              		.global	adcSTM32EnableVBATE
 795              		.thumb
 796              		.thumb_func
 797              		.type	adcSTM32EnableVBATE, %function
 798              	adcSTM32EnableVBATE:
 799              	.LFB127:
 800              		.loc 1 401 0
 801              		.cfi_startproc
 802              		@ args = 0, pretend = 0, frame = 0
 803              		@ frame_needed = 0, uses_anonymous_args = 0
 804              		@ link register save eliminated.
 805              		.loc 1 403 0
 806 0000 4FF40C53 		mov	r3, #8960
 807 0004 C4F20103 		movt	r3, 16385
 808 0008 5A68     		ldr	r2, [r3, #4]
 809 000a 42F48000 		orr	r0, r2, #4194304
 810 000e 5860     		str	r0, [r3, #4]
 811 0010 7047     		bx	lr
 812              		.cfi_endproc
 813              	.LFE127:
 814              		.size	adcSTM32EnableVBATE, .-adcSTM32EnableVBATE
 815              		.section	.text.adcSTM32DisableVBATE,"ax",%progbits
 816              		.align	2
 817              		.p2align 4,,15
 818              		.global	adcSTM32DisableVBATE
 819              		.thumb
 820              		.thumb_func
 821              		.type	adcSTM32DisableVBATE, %function
 822              	adcSTM32DisableVBATE:
 823              	.LFB128:
 824              		.loc 1 412 0
 825              		.cfi_startproc
 826              		@ args = 0, pretend = 0, frame = 0
 827              		@ frame_needed = 0, uses_anonymous_args = 0
 828              		@ link register save eliminated.
 829              		.loc 1 414 0
 830 0000 4FF40C53 		mov	r3, #8960
 831 0004 C4F20103 		movt	r3, 16385
 832 0008 5A68     		ldr	r2, [r3, #4]
 833 000a 22F48000 		bic	r0, r2, #4194304
 834 000e 5860     		str	r0, [r3, #4]
 835 0010 7047     		bx	lr
 836              		.cfi_endproc
 837              	.LFE128:
 838              		.size	adcSTM32DisableVBATE, .-adcSTM32DisableVBATE
 839              		.global	ADCD1
 840 0012 00BFAFF3 		.section	.bss.ADCD1,"aw",%nobits
 840      0080AFF3 
 840      0080AFF3 
 840      0080
 841              		.align	2
 842              		.set	.LANCHOR0,. + 0
 843              		.type	ADCD1, %object
 844              		.size	ADCD1, 52
 845              	ADCD1:
 846 0000 00000000 		.space	52
ARM GAS  C:\Users\INCAS-~1\AppData\Local\Temp\cc10ZzBb.s 			page 16


 846      00000000 
 846      00000000 
 846      00000000 
 846      00000000 
 847              		.text
 848              	.Letext0:
 849              		.file 2 "c:\\chibistudio\\tools\\gnu tools arm embedded\\4.7 2013q1\\bin\\../lib/gcc/arm-none-eabi
 850              		.file 3 "c:\\chibistudio\\tools\\gnu tools arm embedded\\4.7 2013q1\\bin\\../lib/gcc/arm-none-eabi
 851              		.file 4 "../../os/ports/GCC/ARMCMx/chtypes.h"
 852              		.file 5 "../../os/kernel/include/chlists.h"
 853              		.file 6 "../../os/kernel/include/chthreads.h"
 854              		.file 7 "../../os/ports/GCC/ARMCMx/chcore_v7m.h"
 855              		.file 8 "../../os/kernel/include/chmtx.h"
 856              		.file 9 "../../os/hal/platforms/STM32F4xx/stm32f4xx.h"
 857              		.file 10 "../../os/hal/platforms/STM32F4xx/stm32_dma.h"
 858              		.file 11 "../../os/hal/include/adc.h"
 859              		.file 12 "../../os/hal/platforms/STM32F4xx/adc_lld.h"
 860              		.file 13 "../../os/ports/common/ARMCMx/CMSIS/include/core_cm4.h"
 861              		.file 14 "../../os/ports/common/ARMCMx/nvic.h"
 862              		.file 15 "../../os/kernel/include/chschd.h"
