ARM GAS  C:\Users\INCAS-~1\AppData\Local\Temp\ccGr6Ud7.s 			page 1


   1              		.syntax unified
   2              		.cpu cortex-m4
   3              		.fpu softvfp
   4              		.eabi_attribute 20, 1
   5              		.eabi_attribute 21, 1
   6              		.eabi_attribute 23, 3
   7              		.eabi_attribute 24, 1
   8              		.eabi_attribute 25, 1
   9              		.eabi_attribute 26, 1
  10              		.eabi_attribute 30, 2
  11              		.eabi_attribute 34, 1
  12              		.eabi_attribute 18, 4
  13              		.thumb
  14              		.file	"chevents.c"
  15              		.text
  16              	.Ltext0:
  17              		.cfi_sections	.debug_frame
  18              		.section	.text.chEvtRegisterMask,"ax",%progbits
  19              		.align	2
  20              		.p2align 4,,15
  21              		.global	chEvtRegisterMask
  22              		.thumb
  23              		.thumb_func
  24              		.type	chEvtRegisterMask, %function
  25              	chEvtRegisterMask:
  26              	.LFB7:
  27              		.file 1 "../../os/kernel/src/chevents.c"
  28              		.loc 1 85 0
  29              		.cfi_startproc
  30              		@ args = 0, pretend = 0, frame = 0
  31              		@ frame_needed = 0, uses_anonymous_args = 0
  32              		@ link register save eliminated.
  33              	.LVL0:
  34 0000 30B4     		push	{r4, r5}
  35              	.LCFI0:
  36              		.cfi_def_cfa_offset 8
  37              		.cfi_offset 4, -8
  38              		.cfi_offset 5, -4
  39              	.LBB2:
  40              		.loc 1 89 0
  41 0002 2023     		movs	r3, #32
  42              	.LVL1:
  43              	@ 89 "../../os/kernel/src/chevents.c" 1
  44 0004 83F31188 		msr     BASEPRI, r3
  45              	@ 0 "" 2
  46              	.LVL2:
  47              		.thumb
  48              	.LBE2:
  49              		.loc 1 92 0
  50 0008 40F20003 		movw	r3, #:lower16:rlist
  51              	.LVL3:
  52 000c C0F20003 		movt	r3, #:upper16:rlist
  53              		.loc 1 90 0
  54 0010 0468     		ldr	r4, [r0, #0]
  55              		.loc 1 92 0
  56 0012 9D69     		ldr	r5, [r3, #24]
  57              		.loc 1 90 0
ARM GAS  C:\Users\INCAS-~1\AppData\Local\Temp\ccGr6Ud7.s 			page 2


  58 0014 0C60     		str	r4, [r1, #0]
  59              		.loc 1 94 0
  60 0016 0024     		movs	r4, #0
  61              		.loc 1 91 0
  62 0018 0160     		str	r1, [r0, #0]
  63              	.LBB3:
  64              		.loc 1 95 0
  65 001a 2346     		mov	r3, r4
  66              	.LVL4:
  67              	.LBE3:
  68              		.loc 1 92 0
  69 001c 4D60     		str	r5, [r1, #4]
  70              		.loc 1 93 0
  71 001e 8A60     		str	r2, [r1, #8]
  72              		.loc 1 94 0
  73 0020 CC60     		str	r4, [r1, #12]
  74              	.LBB4:
  75              		.loc 1 95 0
  76              	@ 95 "../../os/kernel/src/chevents.c" 1
  77 0022 83F31188 		msr     BASEPRI, r3
  78              	@ 0 "" 2
  79              	.LVL5:
  80              		.thumb
  81              	.LBE4:
  82              		.loc 1 96 0
  83 0026 30BC     		pop	{r4, r5}
  84 0028 7047     		bx	lr
  85              		.cfi_endproc
  86              	.LFE7:
  87              		.size	chEvtRegisterMask, .-chEvtRegisterMask
  88 002a 00BFAFF3 		.section	.text.chEvtUnregister,"ax",%progbits
  88      0080
  89              		.align	2
  90              		.p2align 4,,15
  91              		.global	chEvtUnregister
  92              		.thumb
  93              		.thumb_func
  94              		.type	chEvtUnregister, %function
  95              	chEvtUnregister:
  96              	.LFB8:
  97              		.loc 1 111 0
  98              		.cfi_startproc
  99              		@ args = 0, pretend = 0, frame = 0
 100              		@ frame_needed = 0, uses_anonymous_args = 0
 101              		@ link register save eliminated.
 102              	.LVL6:
 103              	.LBB5:
 104              		.loc 1 117 0
 105 0000 2023     		movs	r3, #32
 106              	.LVL7:
 107              	@ 117 "../../os/kernel/src/chevents.c" 1
 108 0002 83F31188 		msr     BASEPRI, r3
 109              	@ 0 "" 2
 110              	.LVL8:
 111              		.thumb
 112              	.LBE5:
 113              		.loc 1 116 0
ARM GAS  C:\Users\INCAS-~1\AppData\Local\Temp\ccGr6Ud7.s 			page 3


 114 0006 0246     		mov	r2, r0
 115              		.loc 1 118 0
 116 0008 00E0     		b	.L3
 117              	.LVL9:
 118              	.L6:
 119              		.loc 1 119 0
 120 000a 1A46     		mov	r2, r3
 121              	.LVL10:
 122              	.L3:
 123              		.loc 1 118 0 discriminator 1
 124 000c 1368     		ldr	r3, [r2, #0]
 125              	.LVL11:
 126 000e 8342     		cmp	r3, r0
 127 0010 03D0     		beq	.L4
 128              		.loc 1 119 0
 129 0012 9942     		cmp	r1, r3
 130 0014 F9D1     		bne	.L6
 131              		.loc 1 120 0
 132 0016 0868     		ldr	r0, [r1, #0]
 133              	.LVL12:
 134 0018 1060     		str	r0, [r2, #0]
 135              	.L4:
 136              	.LBB6:
 137              		.loc 1 125 0
 138 001a 0023     		movs	r3, #0
 139              	.LVL13:
 140              	@ 125 "../../os/kernel/src/chevents.c" 1
 141 001c 83F31188 		msr     BASEPRI, r3
 142              	@ 0 "" 2
 143              	.LVL14:
 144              		.thumb
 145 0020 7047     		bx	lr
 146              	.LBE6:
 147              		.cfi_endproc
 148              	.LFE8:
 149              		.size	chEvtUnregister, .-chEvtUnregister
 150 0022 00BFAFF3 		.section	.text.chEvtGetAndClearEvents,"ax",%progbits
 150      0080AFF3 
 150      0080AFF3 
 150      0080
 151              		.align	2
 152              		.p2align 4,,15
 153              		.global	chEvtGetAndClearEvents
 154              		.thumb
 155              		.thumb_func
 156              		.type	chEvtGetAndClearEvents, %function
 157              	chEvtGetAndClearEvents:
 158              	.LFB9:
 159              		.loc 1 136 0
 160              		.cfi_startproc
 161              		@ args = 0, pretend = 0, frame = 0
 162              		@ frame_needed = 0, uses_anonymous_args = 0
 163              		@ link register save eliminated.
 164              	.LVL15:
 165 0000 10B4     		push	{r4}
 166              	.LCFI1:
 167              		.cfi_def_cfa_offset 4
ARM GAS  C:\Users\INCAS-~1\AppData\Local\Temp\ccGr6Ud7.s 			page 4


 168              		.cfi_offset 4, -4
 169              	.LBB7:
 170              		.loc 1 139 0
 171 0002 2023     		movs	r3, #32
 172              	.LVL16:
 173              	@ 139 "../../os/kernel/src/chevents.c" 1
 174 0004 83F31188 		msr     BASEPRI, r3
 175              	@ 0 "" 2
 176              	.LVL17:
 177              		.thumb
 178              	.LBE7:
 179              		.loc 1 141 0
 180 0008 40F20002 		movw	r2, #:lower16:rlist
 181 000c C0F20002 		movt	r2, #:upper16:rlist
 182              	.LBB8:
 183              		.loc 1 144 0
 184 0010 0023     		movs	r3, #0
 185              	.LVL18:
 186              	.LBE8:
 187              		.loc 1 141 0
 188 0012 9169     		ldr	r1, [r2, #24]
 189 0014 8A6B     		ldr	r2, [r1, #56]
 190              	.LVL19:
 191              		.loc 1 142 0
 192 0016 22EA0004 		bic	r4, r2, r0
 193 001a 8C63     		str	r4, [r1, #56]
 194              	.LBB9:
 195              		.loc 1 144 0
 196              	@ 144 "../../os/kernel/src/chevents.c" 1
 197 001c 83F31188 		msr     BASEPRI, r3
 198              	@ 0 "" 2
 199              	.LVL20:
 200              		.thumb
 201              	.LBE9:
 202              		.loc 1 146 0
 203 0020 1040     		ands	r0, r0, r2
 204              	.LVL21:
 205 0022 10BC     		pop	{r4}
 206 0024 7047     		bx	lr
 207              		.cfi_endproc
 208              	.LFE9:
 209              		.size	chEvtGetAndClearEvents, .-chEvtGetAndClearEvents
 210 0026 00BFAFF3 		.section	.text.chEvtAddEvents,"ax",%progbits
 210      0080AFF3 
 210      0080
 211              		.align	2
 212              		.p2align 4,,15
 213              		.global	chEvtAddEvents
 214              		.thumb
 215              		.thumb_func
 216              		.type	chEvtAddEvents, %function
 217              	chEvtAddEvents:
 218              	.LFB10:
 219              		.loc 1 157 0
 220              		.cfi_startproc
 221              		@ args = 0, pretend = 0, frame = 0
 222              		@ frame_needed = 0, uses_anonymous_args = 0
ARM GAS  C:\Users\INCAS-~1\AppData\Local\Temp\ccGr6Ud7.s 			page 5


 223              		@ link register save eliminated.
 224              	.LVL22:
 225              	.LBB10:
 226              		.loc 1 159 0
 227 0000 2023     		movs	r3, #32
 228              	.LVL23:
 229              	@ 159 "../../os/kernel/src/chevents.c" 1
 230 0002 83F31188 		msr     BASEPRI, r3
 231              	@ 0 "" 2
 232              	.LVL24:
 233              		.thumb
 234              	.LBE10:
 235              		.loc 1 161 0
 236 0006 40F20002 		movw	r2, #:lower16:rlist
 237 000a C0F20002 		movt	r2, #:upper16:rlist
 238              	.LBB11:
 239              		.loc 1 163 0
 240 000e 0023     		movs	r3, #0
 241              	.LVL25:
 242              	.LBE11:
 243              		.loc 1 161 0
 244 0010 9269     		ldr	r2, [r2, #24]
 245 0012 916B     		ldr	r1, [r2, #56]
 246 0014 0843     		orrs	r0, r0, r1
 247              	.LVL26:
 248 0016 9063     		str	r0, [r2, #56]
 249              	.LVL27:
 250              	.LBB12:
 251              		.loc 1 163 0
 252              	@ 163 "../../os/kernel/src/chevents.c" 1
 253 0018 83F31188 		msr     BASEPRI, r3
 254              	@ 0 "" 2
 255              	.LVL28:
 256              		.thumb
 257              	.LBE12:
 258              		.loc 1 165 0
 259 001c 7047     		bx	lr
 260              		.cfi_endproc
 261              	.LFE10:
 262              		.size	chEvtAddEvents, .-chEvtAddEvents
 263 001e 00BF     		.section	.text.chEvtGetAndClearFlags,"ax",%progbits
 264              		.align	2
 265              		.p2align 4,,15
 266              		.global	chEvtGetAndClearFlags
 267              		.thumb
 268              		.thumb_func
 269              		.type	chEvtGetAndClearFlags, %function
 270              	chEvtGetAndClearFlags:
 271              	.LFB12:
 272              		.loc 1 209 0
 273              		.cfi_startproc
 274              		@ args = 0, pretend = 0, frame = 0
 275              		@ frame_needed = 0, uses_anonymous_args = 0
 276              		@ link register save eliminated.
 277              	.LVL29:
 278              		.loc 1 209 0
 279 0000 0246     		mov	r2, r0
ARM GAS  C:\Users\INCAS-~1\AppData\Local\Temp\ccGr6Ud7.s 			page 6


 280              	.LBB13:
 281              		.loc 1 212 0
 282 0002 2023     		movs	r3, #32
 283              	.LVL30:
 284              	@ 212 "../../os/kernel/src/chevents.c" 1
 285 0004 83F31188 		msr     BASEPRI, r3
 286              	@ 0 "" 2
 287              	.LVL31:
 288              		.thumb
 289              	.LBE13:
 290              		.loc 1 215 0
 291 0008 0023     		movs	r3, #0
 292              	.LVL32:
 293              		.loc 1 214 0
 294 000a C068     		ldr	r0, [r0, #12]
 295              	.LVL33:
 296              		.loc 1 215 0
 297 000c D360     		str	r3, [r2, #12]
 298              	.LBB14:
 299              		.loc 1 217 0
 300              	@ 217 "../../os/kernel/src/chevents.c" 1
 301 000e 83F31188 		msr     BASEPRI, r3
 302              	@ 0 "" 2
 303              	.LVL34:
 304              		.thumb
 305              	.LBE14:
 306              		.loc 1 219 0
 307 0012 7047     		bx	lr
 308              		.cfi_endproc
 309              	.LFE12:
 310              		.size	chEvtGetAndClearFlags, .-chEvtGetAndClearFlags
 311 0014 AFF30080 		.section	.text.chEvtSignalI,"ax",%progbits
 311      AFF30080 
 311      AFF30080 
 312              		.align	2
 313              		.p2align 4,,15
 314              		.global	chEvtSignalI
 315              		.thumb
 316              		.thumb_func
 317              		.type	chEvtSignalI, %function
 318              	chEvtSignalI:
 319              	.LFB14:
 320              		.loc 1 251 0
 321              		.cfi_startproc
 322              		@ args = 0, pretend = 0, frame = 0
 323              		@ frame_needed = 0, uses_anonymous_args = 0
 324              	.LVL35:
 325 0000 08B5     		push	{r3, lr}
 326              	.LCFI2:
 327              		.cfi_def_cfa_offset 8
 328              		.cfi_offset 3, -8
 329              		.cfi_offset 14, -4
 330              		.loc 1 256 0
 331 0002 826B     		ldr	r2, [r0, #56]
 332              		.loc 1 258 0
 333 0004 037F     		ldrb	r3, [r0, #28]	@ zero_extendqisi2
 334              		.loc 1 256 0
ARM GAS  C:\Users\INCAS-~1\AppData\Local\Temp\ccGr6Ud7.s 			page 7


 335 0006 1143     		orrs	r1, r1, r2
 336              	.LVL36:
 337              		.loc 1 258 0
 338 0008 082B     		cmp	r3, #8
 339              		.loc 1 256 0
 340 000a 8163     		str	r1, [r0, #56]
 341              		.loc 1 258 0
 342 000c 0BD0     		beq	.L15
 343              		.loc 1 259 0
 344 000e 092B     		cmp	r3, #9
 345 0010 00D0     		beq	.L16
 346              	.L11:
 347 0012 08BD     		pop	{r3, pc}
 348              	.L16:
 349              		.loc 1 261 0
 350 0014 426A     		ldr	r2, [r0, #36]
 351 0016 1140     		ands	r1, r1, r2
 352              		.loc 1 260 0
 353 0018 8A42     		cmp	r2, r1
 354 001a FAD1     		bne	.L11
 355              	.L13:
 356              	.LVL37:
 357              	.LBB17:
 358              	.LBB18:
 359              		.loc 1 262 0
 360 001c FFF7FEFF 		bl	chSchReadyI
 361              	.LVL38:
 362 0020 0021     		movs	r1, #0
 363 0022 4162     		str	r1, [r0, #36]
 364 0024 08BD     		pop	{r3, pc}
 365              	.LVL39:
 366              	.L15:
 367              	.LBE18:
 368              	.LBE17:
 369              		.loc 1 259 0 discriminator 1
 370 0026 436A     		ldr	r3, [r0, #36]
 371              		.loc 1 258 0 discriminator 1
 372 0028 1942     		tst	r1, r3
 373 002a F7D1     		bne	.L13
 374 002c 08BD     		pop	{r3, pc}
 375              		.cfi_endproc
 376              	.LFE14:
 377              		.size	chEvtSignalI, .-chEvtSignalI
 378 002e 00BF     		.section	.text.chEvtSignal,"ax",%progbits
 379              		.align	2
 380              		.p2align 4,,15
 381              		.global	chEvtSignal
 382              		.thumb
 383              		.thumb_func
 384              		.type	chEvtSignal, %function
 385              	chEvtSignal:
 386              	.LFB13:
 387              		.loc 1 229 0
 388              		.cfi_startproc
 389              		@ args = 0, pretend = 0, frame = 0
 390              		@ frame_needed = 0, uses_anonymous_args = 0
 391              	.LVL40:
ARM GAS  C:\Users\INCAS-~1\AppData\Local\Temp\ccGr6Ud7.s 			page 8


 392 0000 08B5     		push	{r3, lr}
 393              	.LCFI3:
 394              		.cfi_def_cfa_offset 8
 395              		.cfi_offset 3, -8
 396              		.cfi_offset 14, -4
 397              	.LBB19:
 398              		.loc 1 233 0
 399 0002 2023     		movs	r3, #32
 400              	.LVL41:
 401              	@ 233 "../../os/kernel/src/chevents.c" 1
 402 0004 83F31188 		msr     BASEPRI, r3
 403              	@ 0 "" 2
 404              	.LVL42:
 405              		.thumb
 406              	.LBE19:
 407              		.loc 1 234 0
 408 0008 FFF7FEFF 		bl	chEvtSignalI
 409              	.LVL43:
 410              		.loc 1 235 0
 411 000c FFF7FEFF 		bl	chSchRescheduleS
 412              	.LVL44:
 413              	.LBB20:
 414              		.loc 1 236 0
 415 0010 0023     		movs	r3, #0
 416              	.LVL45:
 417              	@ 236 "../../os/kernel/src/chevents.c" 1
 418 0012 83F31188 		msr     BASEPRI, r3
 419              	@ 0 "" 2
 420              	.LVL46:
 421              		.thumb
 422 0016 08BD     		pop	{r3, pc}
 423              	.LBE20:
 424              		.cfi_endproc
 425              	.LFE13:
 426              		.size	chEvtSignal, .-chEvtSignal
 427 0018 AFF30080 		.section	.text.chEvtBroadcastFlagsI,"ax",%progbits
 427      AFF30080 
 428              		.align	2
 429              		.p2align 4,,15
 430              		.global	chEvtBroadcastFlagsI
 431              		.thumb
 432              		.thumb_func
 433              		.type	chEvtBroadcastFlagsI, %function
 434              	chEvtBroadcastFlagsI:
 435              	.LFB11:
 436              		.loc 1 184 0
 437              		.cfi_startproc
 438              		@ args = 0, pretend = 0, frame = 0
 439              		@ frame_needed = 0, uses_anonymous_args = 0
 440              	.LVL47:
 441 0000 70B5     		push	{r4, r5, r6, lr}
 442              	.LCFI4:
 443              		.cfi_def_cfa_offset 16
 444              		.cfi_offset 4, -16
 445              		.cfi_offset 5, -12
 446              		.cfi_offset 6, -8
 447              		.cfi_offset 14, -4
ARM GAS  C:\Users\INCAS-~1\AppData\Local\Temp\ccGr6Ud7.s 			page 9


 448              		.loc 1 190 0
 449 0002 0468     		ldr	r4, [r0, #0]
 450              	.LVL48:
 451              		.loc 1 191 0
 452 0004 A042     		cmp	r0, r4
 453              		.loc 1 184 0
 454 0006 0546     		mov	r5, r0
 455 0008 0E46     		mov	r6, r1
 456              		.loc 1 191 0
 457 000a 08D0     		beq	.L18
 458              	.LVL49:
 459              	.L22:
 460              		.loc 1 193 0
 461 000c 201D     		adds	r0, r4, #4
 462 000e 0BC8     		ldmia	r0, {r0, r1, r3}
 463              		.loc 1 192 0
 464 0010 3343     		orrs	r3, r3, r6
 465 0012 E360     		str	r3, [r4, #12]
 466              		.loc 1 193 0
 467 0014 FFF7FEFF 		bl	chEvtSignalI
 468              	.LVL50:
 469              		.loc 1 194 0
 470 0018 2468     		ldr	r4, [r4, #0]
 471              	.LVL51:
 472              		.loc 1 191 0
 473 001a A542     		cmp	r5, r4
 474 001c F6D1     		bne	.L22
 475              	.L18:
 476 001e 70BD     		pop	{r4, r5, r6, pc}
 477              		.cfi_endproc
 478              	.LFE11:
 479              		.size	chEvtBroadcastFlagsI, .-chEvtBroadcastFlagsI
 480              		.section	.text.chEvtBroadcastFlags,"ax",%progbits
 481              		.align	2
 482              		.p2align 4,,15
 483              		.global	chEvtBroadcastFlags
 484              		.thumb
 485              		.thumb_func
 486              		.type	chEvtBroadcastFlags, %function
 487              	chEvtBroadcastFlags:
 488              	.LFB15:
 489              		.loc 1 278 0
 490              		.cfi_startproc
 491              		@ args = 0, pretend = 0, frame = 0
 492              		@ frame_needed = 0, uses_anonymous_args = 0
 493              	.LVL52:
 494 0000 08B5     		push	{r3, lr}
 495              	.LCFI5:
 496              		.cfi_def_cfa_offset 8
 497              		.cfi_offset 3, -8
 498              		.cfi_offset 14, -4
 499              	.LBB21:
 500              		.loc 1 280 0
 501 0002 2023     		movs	r3, #32
 502              	.LVL53:
 503              	@ 280 "../../os/kernel/src/chevents.c" 1
 504 0004 83F31188 		msr     BASEPRI, r3
ARM GAS  C:\Users\INCAS-~1\AppData\Local\Temp\ccGr6Ud7.s 			page 10


 505              	@ 0 "" 2
 506              	.LVL54:
 507              		.thumb
 508              	.LBE21:
 509              		.loc 1 281 0
 510 0008 FFF7FEFF 		bl	chEvtBroadcastFlagsI
 511              	.LVL55:
 512              		.loc 1 282 0
 513 000c FFF7FEFF 		bl	chSchRescheduleS
 514              	.LVL56:
 515              	.LBB22:
 516              		.loc 1 283 0
 517 0010 0023     		movs	r3, #0
 518              	.LVL57:
 519              	@ 283 "../../os/kernel/src/chevents.c" 1
 520 0012 83F31188 		msr     BASEPRI, r3
 521              	@ 0 "" 2
 522              	.LVL58:
 523              		.thumb
 524 0016 08BD     		pop	{r3, pc}
 525              	.LBE22:
 526              		.cfi_endproc
 527              	.LFE15:
 528              		.size	chEvtBroadcastFlags, .-chEvtBroadcastFlags
 529 0018 AFF30080 		.section	.text.chEvtGetAndClearFlagsI,"ax",%progbits
 529      AFF30080 
 530              		.align	2
 531              		.p2align 4,,15
 532              		.global	chEvtGetAndClearFlagsI
 533              		.thumb
 534              		.thumb_func
 535              		.type	chEvtGetAndClearFlagsI, %function
 536              	chEvtGetAndClearFlagsI:
 537              	.LFB16:
 538              		.loc 1 297 0
 539              		.cfi_startproc
 540              		@ args = 0, pretend = 0, frame = 0
 541              		@ frame_needed = 0, uses_anonymous_args = 0
 542              		@ link register save eliminated.
 543              	.LVL59:
 544              		.loc 1 297 0
 545 0000 0346     		mov	r3, r0
 546              		.loc 1 301 0
 547 0002 0022     		movs	r2, #0
 548              		.loc 1 300 0
 549 0004 C068     		ldr	r0, [r0, #12]
 550              	.LVL60:
 551              		.loc 1 301 0
 552 0006 DA60     		str	r2, [r3, #12]
 553              		.loc 1 304 0
 554 0008 7047     		bx	lr
 555              		.cfi_endproc
 556              	.LFE16:
 557              		.size	chEvtGetAndClearFlagsI, .-chEvtGetAndClearFlagsI
 558 000a 00BFAFF3 		.section	.text.chEvtDispatch,"ax",%progbits
 558      0080
 559              		.align	2
ARM GAS  C:\Users\INCAS-~1\AppData\Local\Temp\ccGr6Ud7.s 			page 11


 560              		.p2align 4,,15
 561              		.global	chEvtDispatch
 562              		.thumb
 563              		.thumb_func
 564              		.type	chEvtDispatch, %function
 565              	chEvtDispatch:
 566              	.LFB17:
 567              		.loc 1 315 0
 568              		.cfi_startproc
 569              		@ args = 0, pretend = 0, frame = 0
 570              		@ frame_needed = 0, uses_anonymous_args = 0
 571              	.LVL61:
 572 0000 F8B5     		push	{r3, r4, r5, r6, r7, lr}
 573              	.LCFI6:
 574              		.cfi_def_cfa_offset 24
 575              		.cfi_offset 3, -24
 576              		.cfi_offset 4, -20
 577              		.cfi_offset 5, -16
 578              		.cfi_offset 6, -12
 579              		.cfi_offset 7, -8
 580              		.cfi_offset 14, -4
 581              		.loc 1 321 0
 582 0002 0D46     		mov	r5, r1
 583              		.loc 1 315 0
 584 0004 0746     		mov	r7, r0
 585              		.loc 1 321 0
 586 0006 89B1     		cbz	r1, .L26
 587 0008 0024     		movs	r4, #0
 588              		.loc 1 322 0
 589 000a 0126     		movs	r6, #1
 590 000c 01E0     		b	.L27
 591              	.LVL62:
 592              	.L28:
 593              		.loc 1 329 0
 594 000e 0134     		adds	r4, r4, #1
 595              	.LVL63:
 596              		.loc 1 321 0
 597 0010 65B1     		cbz	r5, .L26
 598              	.LVL64:
 599              	.L27:
 600              		.loc 1 322 0
 601 0012 06FA04F3 		lsl	r3, r6, r4
 602 0016 2B42     		tst	r3, r5
 603 0018 F9D0     		beq	.L28
 604              		.loc 1 327 0
 605 001a 57F82420 		ldr	r2, [r7, r4, lsl #2]
 606 001e 2046     		mov	r0, r4
 607              		.loc 1 326 0
 608 0020 25EA0305 		bic	r5, r5, r3
 609              	.LVL65:
 610              		.loc 1 329 0
 611 0024 0134     		adds	r4, r4, #1
 612              		.loc 1 327 0
 613 0026 9047     		blx	r2
 614              	.LVL66:
 615              		.loc 1 321 0
 616 0028 002D     		cmp	r5, #0
ARM GAS  C:\Users\INCAS-~1\AppData\Local\Temp\ccGr6Ud7.s 			page 12


 617 002a F2D1     		bne	.L27
 618              	.LVL67:
 619              	.L26:
 620 002c F8BD     		pop	{r3, r4, r5, r6, r7, pc}
 621              		.cfi_endproc
 622              	.LFE17:
 623              		.size	chEvtDispatch, .-chEvtDispatch
 624 002e 00BF     		.section	.text.chEvtWaitOne,"ax",%progbits
 625              		.align	2
 626              		.p2align 4,,15
 627              		.global	chEvtWaitOne
 628              		.thumb
 629              		.thumb_func
 630              		.type	chEvtWaitOne, %function
 631              	chEvtWaitOne:
 632              	.LFB18:
 633              		.loc 1 350 0
 634              		.cfi_startproc
 635              		@ args = 0, pretend = 0, frame = 0
 636              		@ frame_needed = 0, uses_anonymous_args = 0
 637              	.LVL68:
 638 0000 38B5     		push	{r3, r4, r5, lr}
 639              	.LCFI7:
 640              		.cfi_def_cfa_offset 16
 641              		.cfi_offset 3, -16
 642              		.cfi_offset 4, -12
 643              		.cfi_offset 5, -8
 644              		.cfi_offset 14, -4
 645              		.loc 1 351 0
 646 0002 0D4B     		ldr	r3, .L37
 647              		.loc 1 350 0
 648 0004 0546     		mov	r5, r0
 649              		.loc 1 351 0
 650 0006 9C69     		ldr	r4, [r3, #24]
 651              	.LVL69:
 652              	.LBB23:
 653              		.loc 1 354 0
 654 0008 2023     		movs	r3, #32
 655              	.LVL70:
 656              	@ 354 "../../os/kernel/src/chevents.c" 1
 657 000a 83F31188 		msr     BASEPRI, r3
 658              	@ 0 "" 2
 659              	.LVL71:
 660              		.thumb
 661              	.LBE23:
 662              		.loc 1 356 0
 663 000e A16B     		ldr	r1, [r4, #56]
 664              	.LVL72:
 665 0010 10EA0102 		ands	r2, r0, r1
 666              	.LVL73:
 667 0014 06D1     		bne	.L36
 668              		.loc 1 357 0
 669 0016 6062     		str	r0, [r4, #36]
 670              		.loc 1 358 0
 671 0018 0820     		movs	r0, #8
 672              	.LVL74:
 673 001a FFF7FEFF 		bl	chSchGoSleepS
ARM GAS  C:\Users\INCAS-~1\AppData\Local\Temp\ccGr6Ud7.s 			page 13


 674              	.LVL75:
 675              		.loc 1 359 0
 676 001e A16B     		ldr	r1, [r4, #56]
 677 0020 05EA0102 		and	r2, r5, r1
 678              	.LVL76:
 679              	.L36:
 680              		.loc 1 361 0
 681 0024 5042     		negs	r0, r2
 682 0026 1040     		ands	r0, r0, r2
 683              	.LVL77:
 684              		.loc 1 362 0
 685 0028 21EA0001 		bic	r1, r1, r0
 686 002c A163     		str	r1, [r4, #56]
 687              	.LBB24:
 688              		.loc 1 364 0
 689 002e 0023     		movs	r3, #0
 690              	.LVL78:
 691              	@ 364 "../../os/kernel/src/chevents.c" 1
 692 0030 83F31188 		msr     BASEPRI, r3
 693              	@ 0 "" 2
 694              	.LVL79:
 695              		.thumb
 696              	.LBE24:
 697              		.loc 1 366 0
 698 0034 38BD     		pop	{r3, r4, r5, pc}
 699              	.L38:
 700 0036 00BF     		.align	2
 701              	.L37:
 702 0038 00000000 		.word	rlist
 703              		.cfi_endproc
 704              	.LFE18:
 705              		.size	chEvtWaitOne, .-chEvtWaitOne
 706 003c AFF30080 		.section	.text.chEvtWaitAny,"ax",%progbits
 707              		.align	2
 708              		.p2align 4,,15
 709              		.global	chEvtWaitAny
 710              		.thumb
 711              		.thumb_func
 712              		.type	chEvtWaitAny, %function
 713              	chEvtWaitAny:
 714              	.LFB19:
 715              		.loc 1 379 0
 716              		.cfi_startproc
 717              		@ args = 0, pretend = 0, frame = 0
 718              		@ frame_needed = 0, uses_anonymous_args = 0
 719              	.LVL80:
 720 0000 38B5     		push	{r3, r4, r5, lr}
 721              	.LCFI8:
 722              		.cfi_def_cfa_offset 16
 723              		.cfi_offset 3, -16
 724              		.cfi_offset 4, -12
 725              		.cfi_offset 5, -8
 726              		.cfi_offset 14, -4
 727              		.loc 1 380 0
 728 0002 0B4B     		ldr	r3, .L41
 729              		.loc 1 379 0
 730 0004 0546     		mov	r5, r0
ARM GAS  C:\Users\INCAS-~1\AppData\Local\Temp\ccGr6Ud7.s 			page 14


 731              		.loc 1 380 0
 732 0006 9C69     		ldr	r4, [r3, #24]
 733              	.LVL81:
 734              	.LBB25:
 735              		.loc 1 383 0
 736 0008 2023     		movs	r3, #32
 737              	.LVL82:
 738              	@ 383 "../../os/kernel/src/chevents.c" 1
 739 000a 83F31188 		msr     BASEPRI, r3
 740              	@ 0 "" 2
 741              	.LVL83:
 742              		.thumb
 743              	.LBE25:
 744              		.loc 1 385 0
 745 000e A16B     		ldr	r1, [r4, #56]
 746              	.LVL84:
 747 0010 0840     		ands	r0, r0, r1
 748              	.LVL85:
 749 0012 06D1     		bne	.L40
 750              		.loc 1 387 0
 751 0014 0820     		movs	r0, #8
 752              	.LVL86:
 753              		.loc 1 386 0
 754 0016 6562     		str	r5, [r4, #36]
 755              		.loc 1 387 0
 756 0018 FFF7FEFF 		bl	chSchGoSleepS
 757              	.LVL87:
 758              		.loc 1 388 0
 759 001c A16B     		ldr	r1, [r4, #56]
 760 001e 05EA0100 		and	r0, r5, r1
 761              	.LVL88:
 762              	.L40:
 763              		.loc 1 390 0
 764 0022 21EA0001 		bic	r1, r1, r0
 765 0026 A163     		str	r1, [r4, #56]
 766              	.LBB26:
 767              		.loc 1 392 0
 768 0028 0023     		movs	r3, #0
 769              	.LVL89:
 770              	@ 392 "../../os/kernel/src/chevents.c" 1
 771 002a 83F31188 		msr     BASEPRI, r3
 772              	@ 0 "" 2
 773              	.LVL90:
 774              		.thumb
 775              	.LBE26:
 776              		.loc 1 394 0
 777 002e 38BD     		pop	{r3, r4, r5, pc}
 778              	.L42:
 779              		.align	2
 780              	.L41:
 781 0030 00000000 		.word	rlist
 782              		.cfi_endproc
 783              	.LFE19:
 784              		.size	chEvtWaitAny, .-chEvtWaitAny
 785 0034 AFF30080 		.section	.text.chEvtWaitAll,"ax",%progbits
 785      AFF30080 
 785      AFF30080 
ARM GAS  C:\Users\INCAS-~1\AppData\Local\Temp\ccGr6Ud7.s 			page 15


 786              		.align	2
 787              		.p2align 4,,15
 788              		.global	chEvtWaitAll
 789              		.thumb
 790              		.thumb_func
 791              		.type	chEvtWaitAll, %function
 792              	chEvtWaitAll:
 793              	.LFB20:
 794              		.loc 1 407 0
 795              		.cfi_startproc
 796              		@ args = 0, pretend = 0, frame = 0
 797              		@ frame_needed = 0, uses_anonymous_args = 0
 798              	.LVL91:
 799 0000 38B5     		push	{r3, r4, r5, lr}
 800              	.LCFI9:
 801              		.cfi_def_cfa_offset 16
 802              		.cfi_offset 3, -16
 803              		.cfi_offset 4, -12
 804              		.cfi_offset 5, -8
 805              		.cfi_offset 14, -4
 806              		.loc 1 408 0
 807 0002 0C4B     		ldr	r3, .L45
 808              		.loc 1 407 0
 809 0004 0446     		mov	r4, r0
 810              		.loc 1 408 0
 811 0006 9D69     		ldr	r5, [r3, #24]
 812              	.LVL92:
 813              	.LBB27:
 814              		.loc 1 410 0
 815 0008 2023     		movs	r3, #32
 816              	.LVL93:
 817              	@ 410 "../../os/kernel/src/chevents.c" 1
 818 000a 83F31188 		msr     BASEPRI, r3
 819              	@ 0 "" 2
 820              	.LVL94:
 821              		.thumb
 822              	.LBE27:
 823              		.loc 1 412 0
 824 000e A86B     		ldr	r0, [r5, #56]
 825              	.LVL95:
 826 0010 04EA0002 		and	r2, r4, r0
 827 0014 A242     		cmp	r2, r4
 828 0016 04D0     		beq	.L44
 829              		.loc 1 414 0
 830 0018 0920     		movs	r0, #9
 831              		.loc 1 413 0
 832 001a 6C62     		str	r4, [r5, #36]
 833              		.loc 1 414 0
 834 001c FFF7FEFF 		bl	chSchGoSleepS
 835              	.LVL96:
 836 0020 A86B     		ldr	r0, [r5, #56]
 837              	.LVL97:
 838              	.L44:
 839              		.loc 1 416 0
 840 0022 20EA0400 		bic	r0, r0, r4
 841 0026 A863     		str	r0, [r5, #56]
 842              	.LBB28:
ARM GAS  C:\Users\INCAS-~1\AppData\Local\Temp\ccGr6Ud7.s 			page 16


 843              		.loc 1 418 0
 844 0028 0023     		movs	r3, #0
 845              	.LVL98:
 846              	@ 418 "../../os/kernel/src/chevents.c" 1
 847 002a 83F31188 		msr     BASEPRI, r3
 848              	@ 0 "" 2
 849              	.LVL99:
 850              		.thumb
 851              	.LBE28:
 852              		.loc 1 420 0
 853 002e 2046     		mov	r0, r4
 854 0030 38BD     		pop	{r3, r4, r5, pc}
 855              	.L46:
 856 0032 00BF     		.align	2
 857              	.L45:
 858 0034 00000000 		.word	rlist
 859              		.cfi_endproc
 860              	.LFE20:
 861              		.size	chEvtWaitAll, .-chEvtWaitAll
 862 0038 AFF30080 		.section	.text.chEvtWaitOneTimeout,"ax",%progbits
 862      AFF30080 
 863              		.align	2
 864              		.p2align 4,,15
 865              		.global	chEvtWaitOneTimeout
 866              		.thumb
 867              		.thumb_func
 868              		.type	chEvtWaitOneTimeout, %function
 869              	chEvtWaitOneTimeout:
 870              	.LFB21:
 871              		.loc 1 446 0
 872              		.cfi_startproc
 873              		@ args = 0, pretend = 0, frame = 0
 874              		@ frame_needed = 0, uses_anonymous_args = 0
 875              	.LVL100:
 876              		.loc 1 447 0
 877 0000 114B     		ldr	r3, .L53
 878              		.loc 1 446 0
 879 0002 70B5     		push	{r4, r5, r6, lr}
 880              	.LCFI10:
 881              		.cfi_def_cfa_offset 16
 882              		.cfi_offset 4, -16
 883              		.cfi_offset 5, -12
 884              		.cfi_offset 6, -8
 885              		.cfi_offset 14, -4
 886              		.loc 1 447 0
 887 0004 9E69     		ldr	r6, [r3, #24]
 888              	.LVL101:
 889              		.loc 1 446 0
 890 0006 0546     		mov	r5, r0
 891              	.LBB29:
 892              		.loc 1 450 0
 893 0008 2023     		movs	r3, #32
 894              	.LVL102:
 895              	@ 450 "../../os/kernel/src/chevents.c" 1
 896 000a 83F31188 		msr     BASEPRI, r3
 897              	@ 0 "" 2
 898              	.LVL103:
ARM GAS  C:\Users\INCAS-~1\AppData\Local\Temp\ccGr6Ud7.s 			page 17


 899              		.thumb
 900              	.LBE29:
 901              		.loc 1 452 0
 902 000e B06B     		ldr	r0, [r6, #56]
 903              	.LVL104:
 904 0010 15EA0004 		ands	r4, r5, r0
 905              	.LVL105:
 906 0014 0ED1     		bne	.L48
 907              		.loc 1 453 0
 908 0016 21B9     		cbnz	r1, .L49
 909              	.LVL106:
 910              	.L52:
 911              	.LBB30:
 912              		.loc 1 459 0
 913 0018 2346     		mov	r3, r4
 914              	.LVL107:
 915              	@ 459 "../../os/kernel/src/chevents.c" 1
 916 001a 83F31188 		msr     BASEPRI, r3
 917              	@ 0 "" 2
 918              	.LVL108:
 919              		.thumb
 920              	.LBE30:
 921              		.loc 1 469 0
 922 001e 2046     		mov	r0, r4
 923 0020 70BD     		pop	{r4, r5, r6, pc}
 924              	.LVL109:
 925              	.L49:
 926              		.loc 1 458 0
 927 0022 0820     		movs	r0, #8
 928              		.loc 1 457 0
 929 0024 7562     		str	r5, [r6, #36]
 930              		.loc 1 458 0
 931 0026 FFF7FEFF 		bl	chSchGoSleepTimeoutS
 932              	.LVL110:
 933 002a 0028     		cmp	r0, #0
 934 002c F4DB     		blt	.L52
 935              		.loc 1 462 0
 936 002e B06B     		ldr	r0, [r6, #56]
 937 0030 05EA0004 		and	r4, r5, r0
 938              	.LVL111:
 939              	.L48:
 940              		.loc 1 464 0
 941 0034 6142     		negs	r1, r4
 942 0036 0C40     		ands	r4, r4, r1
 943              	.LVL112:
 944              		.loc 1 465 0
 945 0038 20EA0400 		bic	r0, r0, r4
 946 003c B063     		str	r0, [r6, #56]
 947              	.LBB31:
 948              		.loc 1 467 0
 949 003e 0023     		movs	r3, #0
 950              	.LVL113:
 951              	@ 467 "../../os/kernel/src/chevents.c" 1
 952 0040 83F31188 		msr     BASEPRI, r3
 953              	@ 0 "" 2
 954              	.LVL114:
 955              		.thumb
ARM GAS  C:\Users\INCAS-~1\AppData\Local\Temp\ccGr6Ud7.s 			page 18


 956              	.LBE31:
 957              		.loc 1 469 0
 958 0044 2046     		mov	r0, r4
 959 0046 70BD     		pop	{r4, r5, r6, pc}
 960              	.L54:
 961              		.align	2
 962              	.L53:
 963 0048 00000000 		.word	rlist
 964              		.cfi_endproc
 965              	.LFE21:
 966              		.size	chEvtWaitOneTimeout, .-chEvtWaitOneTimeout
 967 004c AFF30080 		.section	.text.chEvtWaitAnyTimeout,"ax",%progbits
 968              		.align	2
 969              		.p2align 4,,15
 970              		.global	chEvtWaitAnyTimeout
 971              		.thumb
 972              		.thumb_func
 973              		.type	chEvtWaitAnyTimeout, %function
 974              	chEvtWaitAnyTimeout:
 975              	.LFB22:
 976              		.loc 1 489 0
 977              		.cfi_startproc
 978              		@ args = 0, pretend = 0, frame = 0
 979              		@ frame_needed = 0, uses_anonymous_args = 0
 980              	.LVL115:
 981              		.loc 1 490 0
 982 0000 104B     		ldr	r3, .L61
 983              		.loc 1 489 0
 984 0002 70B5     		push	{r4, r5, r6, lr}
 985              	.LCFI11:
 986              		.cfi_def_cfa_offset 16
 987              		.cfi_offset 4, -16
 988              		.cfi_offset 5, -12
 989              		.cfi_offset 6, -8
 990              		.cfi_offset 14, -4
 991              		.loc 1 490 0
 992 0004 9E69     		ldr	r6, [r3, #24]
 993              	.LVL116:
 994              		.loc 1 489 0
 995 0006 0446     		mov	r4, r0
 996              	.LBB32:
 997              		.loc 1 493 0
 998 0008 2023     		movs	r3, #32
 999              	.LVL117:
 1000              	@ 493 "../../os/kernel/src/chevents.c" 1
 1001 000a 83F31188 		msr     BASEPRI, r3
 1002              	@ 0 "" 2
 1003              	.LVL118:
 1004              		.thumb
 1005              	.LBE32:
 1006              		.loc 1 495 0
 1007 000e B26B     		ldr	r2, [r6, #56]
 1008              	.LVL119:
 1009 0010 14EA0205 		ands	r5, r4, r2
 1010              	.LVL120:
 1011 0014 0ED1     		bne	.L56
 1012              		.loc 1 496 0
ARM GAS  C:\Users\INCAS-~1\AppData\Local\Temp\ccGr6Ud7.s 			page 19


 1013 0016 21B9     		cbnz	r1, .L57
 1014              	.LVL121:
 1015              	.L60:
 1016              	.LBB33:
 1017              		.loc 1 502 0
 1018 0018 2B46     		mov	r3, r5
 1019              	.LVL122:
 1020              	@ 502 "../../os/kernel/src/chevents.c" 1
 1021 001a 83F31188 		msr     BASEPRI, r3
 1022              	@ 0 "" 2
 1023              	.LVL123:
 1024              		.thumb
 1025              	.LBE33:
 1026              		.loc 1 511 0
 1027 001e 2846     		mov	r0, r5
 1028 0020 70BD     		pop	{r4, r5, r6, pc}
 1029              	.LVL124:
 1030              	.L57:
 1031              		.loc 1 501 0
 1032 0022 0820     		movs	r0, #8
 1033              	.LVL125:
 1034              		.loc 1 500 0
 1035 0024 7462     		str	r4, [r6, #36]
 1036              		.loc 1 501 0
 1037 0026 FFF7FEFF 		bl	chSchGoSleepTimeoutS
 1038              	.LVL126:
 1039 002a 0028     		cmp	r0, #0
 1040 002c F4DB     		blt	.L60
 1041              		.loc 1 505 0
 1042 002e B26B     		ldr	r2, [r6, #56]
 1043 0030 04EA0205 		and	r5, r4, r2
 1044              	.LVL127:
 1045              	.L56:
 1046              		.loc 1 507 0
 1047 0034 22EA0502 		bic	r2, r2, r5
 1048 0038 B263     		str	r2, [r6, #56]
 1049              	.LBB34:
 1050              		.loc 1 509 0
 1051 003a 0023     		movs	r3, #0
 1052              	.LVL128:
 1053              	@ 509 "../../os/kernel/src/chevents.c" 1
 1054 003c 83F31188 		msr     BASEPRI, r3
 1055              	@ 0 "" 2
 1056              	.LVL129:
 1057              		.thumb
 1058              	.LBE34:
 1059              		.loc 1 511 0
 1060 0040 2846     		mov	r0, r5
 1061 0042 70BD     		pop	{r4, r5, r6, pc}
 1062              	.L62:
 1063              		.align	2
 1064              	.L61:
 1065 0044 00000000 		.word	rlist
 1066              		.cfi_endproc
 1067              	.LFE22:
 1068              		.size	chEvtWaitAnyTimeout, .-chEvtWaitAnyTimeout
 1069 0048 AFF30080 		.section	.text.chEvtWaitAllTimeout,"ax",%progbits
ARM GAS  C:\Users\INCAS-~1\AppData\Local\Temp\ccGr6Ud7.s 			page 20


 1069      AFF30080 
 1070              		.align	2
 1071              		.p2align 4,,15
 1072              		.global	chEvtWaitAllTimeout
 1073              		.thumb
 1074              		.thumb_func
 1075              		.type	chEvtWaitAllTimeout, %function
 1076              	chEvtWaitAllTimeout:
 1077              	.LFB23:
 1078              		.loc 1 530 0
 1079              		.cfi_startproc
 1080              		@ args = 0, pretend = 0, frame = 0
 1081              		@ frame_needed = 0, uses_anonymous_args = 0
 1082              	.LVL130:
 1083 0000 38B5     		push	{r3, r4, r5, lr}
 1084              	.LCFI12:
 1085              		.cfi_def_cfa_offset 16
 1086              		.cfi_offset 3, -16
 1087              		.cfi_offset 4, -12
 1088              		.cfi_offset 5, -8
 1089              		.cfi_offset 14, -4
 1090              		.loc 1 531 0
 1091 0002 134B     		ldr	r3, .L68
 1092              		.loc 1 530 0
 1093 0004 0446     		mov	r4, r0
 1094              		.loc 1 531 0
 1095 0006 9D69     		ldr	r5, [r3, #24]
 1096              	.LVL131:
 1097              	.LBB35:
 1098              		.loc 1 533 0
 1099 0008 2023     		movs	r3, #32
 1100              	.LVL132:
 1101              	@ 533 "../../os/kernel/src/chevents.c" 1
 1102 000a 83F31188 		msr     BASEPRI, r3
 1103              	@ 0 "" 2
 1104              	.LVL133:
 1105              		.thumb
 1106              	.LBE35:
 1107              		.loc 1 535 0
 1108 000e AA6B     		ldr	r2, [r5, #56]
 1109 0010 04EA0203 		and	r3, r4, r2
 1110              	.LVL134:
 1111 0014 A342     		cmp	r3, r4
 1112 0016 0DD0     		beq	.L64
 1113              		.loc 1 536 0
 1114 0018 29B9     		cbnz	r1, .L65
 1115              	.LBB36:
 1116              		.loc 1 537 0
 1117 001a 0B46     		mov	r3, r1
 1118              	.LVL135:
 1119              	@ 537 "../../os/kernel/src/chevents.c" 1
 1120 001c 83F31188 		msr     BASEPRI, r3
 1121              	@ 0 "" 2
 1122              	.LVL136:
 1123              		.thumb
 1124              	.LBE36:
 1125              		.loc 1 538 0
ARM GAS  C:\Users\INCAS-~1\AppData\Local\Temp\ccGr6Ud7.s 			page 21


 1126 0020 0C46     		mov	r4, r1
 1127              		.loc 1 550 0
 1128 0022 2046     		mov	r0, r4
 1129              	.LVL137:
 1130 0024 38BD     		pop	{r3, r4, r5, pc}
 1131              	.LVL138:
 1132              	.L65:
 1133              		.loc 1 541 0
 1134 0026 0920     		movs	r0, #9
 1135              	.LVL139:
 1136              		.loc 1 540 0
 1137 0028 6C62     		str	r4, [r5, #36]
 1138              		.loc 1 541 0
 1139 002a FFF7FEFF 		bl	chSchGoSleepTimeoutS
 1140              	.LVL140:
 1141 002e 0028     		cmp	r0, #0
 1142 0030 08DB     		blt	.L67
 1143 0032 AA6B     		ldr	r2, [r5, #56]
 1144              	.L64:
 1145              		.loc 1 546 0
 1146 0034 22EA0402 		bic	r2, r2, r4
 1147 0038 AA63     		str	r2, [r5, #56]
 1148              	.LBB37:
 1149              		.loc 1 548 0
 1150 003a 0023     		movs	r3, #0
 1151              	.LVL141:
 1152              	@ 548 "../../os/kernel/src/chevents.c" 1
 1153 003c 83F31188 		msr     BASEPRI, r3
 1154              	@ 0 "" 2
 1155              	.LVL142:
 1156              		.thumb
 1157              	.L66:
 1158              	.LBE37:
 1159              		.loc 1 550 0
 1160 0040 2046     		mov	r0, r4
 1161 0042 38BD     		pop	{r3, r4, r5, pc}
 1162              	.LVL143:
 1163              	.L67:
 1164              	.LBB38:
 1165              		.loc 1 542 0
 1166 0044 0023     		movs	r3, #0
 1167              	@ 542 "../../os/kernel/src/chevents.c" 1
 1168 0046 83F31188 		msr     BASEPRI, r3
 1169              	@ 0 "" 2
 1170              	.LVL144:
 1171              		.thumb
 1172              	.LBE38:
 1173              		.loc 1 543 0
 1174 004a 1C46     		mov	r4, r3
 1175              	.LVL145:
 1176 004c F8E7     		b	.L66
 1177              	.L69:
 1178 004e 00BF     		.align	2
 1179              	.L68:
 1180 0050 00000000 		.word	rlist
 1181              		.cfi_endproc
 1182              	.LFE23:
ARM GAS  C:\Users\INCAS-~1\AppData\Local\Temp\ccGr6Ud7.s 			page 22


 1183              		.size	chEvtWaitAllTimeout, .-chEvtWaitAllTimeout
 1184 0054 AFF30080 		.text
 1184      AFF30080 
 1184      AFF30080 
 1185              	.Letext0:
 1186              		.file 2 "c:\\chibistudio\\tools\\gnu tools arm embedded\\4.7 2013q1\\bin\\../lib/gcc/arm-none-eabi
 1187              		.file 3 "../../os/ports/GCC/ARMCMx/chtypes.h"
 1188              		.file 4 "../../os/kernel/include/chlists.h"
 1189              		.file 5 "../../os/kernel/include/chthreads.h"
 1190              		.file 6 "../../os/ports/GCC/ARMCMx/chcore_v7m.h"
 1191              		.file 7 "../../os/kernel/include/chschd.h"
 1192              		.file 8 "../../os/kernel/include/chmtx.h"
 1193              		.file 9 "../../os/kernel/include/chevents.h"
