ARM GAS  C:\Users\INCAS-~1\AppData\Local\Temp\cchRVaEl.s 			page 1


   1              		.syntax unified
   2              		.cpu cortex-m4
   3              		.fpu softvfp
   4              		.eabi_attribute 20, 1
   5              		.eabi_attribute 21, 1
   6              		.eabi_attribute 23, 3
   7              		.eabi_attribute 24, 1
   8              		.eabi_attribute 25, 1
   9              		.eabi_attribute 26, 1
  10              		.eabi_attribute 30, 2
  11              		.eabi_attribute 34, 1
  12              		.eabi_attribute 18, 4
  13              		.thumb
  14              		.file	"ext_lld.c"
  15              		.text
  16              	.Ltext0:
  17              		.cfi_sections	.debug_frame
  18              	.Letext0:
  19              		.file 1 "c:\\chibistudio\\tools\\gnu tools arm embedded\\4.7 2013q1\\bin\\../lib/gcc/arm-none-eabi
  20              		.file 2 "../../os/ports/common/ARMCMx/CMSIS/include/core_cm4.h"
  21              		.section	.debug_info,"",%progbits
  22              	.Ldebug_info0:
  23 0000 93000000 		.4byte	0x93
  24 0004 0200     		.2byte	0x2
  25 0006 00000000 		.4byte	.Ldebug_abbrev0
  26 000a 04       		.byte	0x4
  27 000b 01       		.uleb128 0x1
  28 000c 55000000 		.4byte	.LASF12
  29 0010 01       		.byte	0x1
  30 0011 21000000 		.4byte	.LASF13
  31 0015 0C010000 		.4byte	.LASF14
  32 0019 00000000 		.4byte	.Ldebug_line0
  33 001d 02       		.uleb128 0x2
  34 001e 04       		.byte	0x4
  35 001f 05       		.byte	0x5
  36 0020 696E7400 		.ascii	"int\000"
  37 0024 03       		.uleb128 0x3
  38 0025 04       		.byte	0x4
  39 0026 07       		.byte	0x7
  40 0027 48000000 		.4byte	.LASF0
  41 002b 03       		.uleb128 0x3
  42 002c 01       		.byte	0x1
  43 002d 06       		.byte	0x6
  44 002e 00010000 		.4byte	.LASF1
  45 0032 03       		.uleb128 0x3
  46 0033 01       		.byte	0x1
  47 0034 08       		.byte	0x8
  48 0035 C7000000 		.4byte	.LASF2
  49 0039 03       		.uleb128 0x3
  50 003a 02       		.byte	0x2
  51 003b 05       		.byte	0x5
  52 003c E3000000 		.4byte	.LASF3
  53 0040 03       		.uleb128 0x3
  54 0041 02       		.byte	0x2
  55 0042 07       		.byte	0x7
  56 0043 0E000000 		.4byte	.LASF4
  57 0047 04       		.uleb128 0x4
ARM GAS  C:\Users\INCAS-~1\AppData\Local\Temp\cchRVaEl.s 			page 2


  58 0048 44010000 		.4byte	.LASF15
  59 004c 01       		.byte	0x1
  60 004d 4F       		.byte	0x4f
  61 004e 52000000 		.4byte	0x52
  62 0052 03       		.uleb128 0x3
  63 0053 04       		.byte	0x4
  64 0054 05       		.byte	0x5
  65 0055 DA000000 		.4byte	.LASF5
  66 0059 03       		.uleb128 0x3
  67 005a 04       		.byte	0x4
  68 005b 07       		.byte	0x7
  69 005c 9E000000 		.4byte	.LASF6
  70 0060 03       		.uleb128 0x3
  71 0061 08       		.byte	0x8
  72 0062 05       		.byte	0x5
  73 0063 00000000 		.4byte	.LASF7
  74 0067 03       		.uleb128 0x3
  75 0068 08       		.byte	0x8
  76 0069 07       		.byte	0x7
  77 006a B0000000 		.4byte	.LASF8
  78 006e 03       		.uleb128 0x3
  79 006f 01       		.byte	0x1
  80 0070 02       		.byte	0x2
  81 0071 ED000000 		.4byte	.LASF9
  82 0075 03       		.uleb128 0x3
  83 0076 04       		.byte	0x4
  84 0077 07       		.byte	0x7
  85 0078 4C010000 		.4byte	.LASF10
  86 007c 03       		.uleb128 0x3
  87 007d 01       		.byte	0x1
  88 007e 08       		.byte	0x8
  89 007f D5000000 		.4byte	.LASF11
  90 0083 05       		.uleb128 0x5
  91 0084 47000000 		.4byte	0x47
  92 0088 06       		.uleb128 0x6
  93 0089 F3000000 		.4byte	.LASF16
  94 008d 02       		.byte	0x2
  95 008e 9806     		.2byte	0x698
  96 0090 83000000 		.4byte	0x83
  97 0094 01       		.byte	0x1
  98 0095 01       		.byte	0x1
  99 0096 00       		.byte	0
 100              		.section	.debug_abbrev,"",%progbits
 101              	.Ldebug_abbrev0:
 102 0000 01       		.uleb128 0x1
 103 0001 11       		.uleb128 0x11
 104 0002 01       		.byte	0x1
 105 0003 25       		.uleb128 0x25
 106 0004 0E       		.uleb128 0xe
 107 0005 13       		.uleb128 0x13
 108 0006 0B       		.uleb128 0xb
 109 0007 03       		.uleb128 0x3
 110 0008 0E       		.uleb128 0xe
 111 0009 1B       		.uleb128 0x1b
 112 000a 0E       		.uleb128 0xe
 113 000b 10       		.uleb128 0x10
 114 000c 06       		.uleb128 0x6
ARM GAS  C:\Users\INCAS-~1\AppData\Local\Temp\cchRVaEl.s 			page 3


 115 000d 00       		.byte	0
 116 000e 00       		.byte	0
 117 000f 02       		.uleb128 0x2
 118 0010 24       		.uleb128 0x24
 119 0011 00       		.byte	0
 120 0012 0B       		.uleb128 0xb
 121 0013 0B       		.uleb128 0xb
 122 0014 3E       		.uleb128 0x3e
 123 0015 0B       		.uleb128 0xb
 124 0016 03       		.uleb128 0x3
 125 0017 08       		.uleb128 0x8
 126 0018 00       		.byte	0
 127 0019 00       		.byte	0
 128 001a 03       		.uleb128 0x3
 129 001b 24       		.uleb128 0x24
 130 001c 00       		.byte	0
 131 001d 0B       		.uleb128 0xb
 132 001e 0B       		.uleb128 0xb
 133 001f 3E       		.uleb128 0x3e
 134 0020 0B       		.uleb128 0xb
 135 0021 03       		.uleb128 0x3
 136 0022 0E       		.uleb128 0xe
 137 0023 00       		.byte	0
 138 0024 00       		.byte	0
 139 0025 04       		.uleb128 0x4
 140 0026 16       		.uleb128 0x16
 141 0027 00       		.byte	0
 142 0028 03       		.uleb128 0x3
 143 0029 0E       		.uleb128 0xe
 144 002a 3A       		.uleb128 0x3a
 145 002b 0B       		.uleb128 0xb
 146 002c 3B       		.uleb128 0x3b
 147 002d 0B       		.uleb128 0xb
 148 002e 49       		.uleb128 0x49
 149 002f 13       		.uleb128 0x13
 150 0030 00       		.byte	0
 151 0031 00       		.byte	0
 152 0032 05       		.uleb128 0x5
 153 0033 35       		.uleb128 0x35
 154 0034 00       		.byte	0
 155 0035 49       		.uleb128 0x49
 156 0036 13       		.uleb128 0x13
 157 0037 00       		.byte	0
 158 0038 00       		.byte	0
 159 0039 06       		.uleb128 0x6
 160 003a 34       		.uleb128 0x34
 161 003b 00       		.byte	0
 162 003c 03       		.uleb128 0x3
 163 003d 0E       		.uleb128 0xe
 164 003e 3A       		.uleb128 0x3a
 165 003f 0B       		.uleb128 0xb
 166 0040 3B       		.uleb128 0x3b
 167 0041 05       		.uleb128 0x5
 168 0042 49       		.uleb128 0x49
 169 0043 13       		.uleb128 0x13
 170 0044 3F       		.uleb128 0x3f
 171 0045 0C       		.uleb128 0xc
ARM GAS  C:\Users\INCAS-~1\AppData\Local\Temp\cchRVaEl.s 			page 4


 172 0046 3C       		.uleb128 0x3c
 173 0047 0C       		.uleb128 0xc
 174 0048 00       		.byte	0
 175 0049 00       		.byte	0
 176 004a 00       		.byte	0
 177              		.section	.debug_aranges,"",%progbits
 178 0000 14000000 		.4byte	0x14
 179 0004 0200     		.2byte	0x2
 180 0006 00000000 		.4byte	.Ldebug_info0
 181 000a 04       		.byte	0x4
 182 000b 00       		.byte	0
 183 000c 0000     		.2byte	0
 184 000e 0000     		.2byte	0
 185 0010 00000000 		.4byte	0
 186 0014 00000000 		.4byte	0
 187              		.section	.debug_line,"",%progbits
 188              	.Ldebug_line0:
 189 0000 DA000000 		.section	.debug_str,"MS",%progbits,1
 189      0200D400 
 189      00000201 
 189      FB0E0D00 
 189      01010101 
 190              	.LASF7:
 191 0000 6C6F6E67 		.ascii	"long long int\000"
 191      206C6F6E 
 191      6720696E 
 191      7400
 192              	.LASF4:
 193 000e 73686F72 		.ascii	"short unsigned int\000"
 193      7420756E 
 193      7369676E 
 193      65642069 
 193      6E7400
 194              	.LASF13:
 195 0021 2E2E2F2E 		.ascii	"../../os/hal/platforms/STM32/ext_lld.c\000"
 195      2E2F6F73 
 195      2F68616C 
 195      2F706C61 
 195      74666F72 
 196              	.LASF0:
 197 0048 756E7369 		.ascii	"unsigned int\000"
 197      676E6564 
 197      20696E74 
 197      00
 198              	.LASF12:
 199 0055 474E5520 		.ascii	"GNU C 4.7.3 20130312 (release) [ARM/embedded-4_7-br"
 199      4320342E 
 199      372E3320 
 199      32303133 
 199      30333132 
 200 0088 616E6368 		.ascii	"anch revision 196615]\000"
 200      20726576 
 200      6973696F 
 200      6E203139 
 200      36363135 
 201              	.LASF6:
 202 009e 6C6F6E67 		.ascii	"long unsigned int\000"
ARM GAS  C:\Users\INCAS-~1\AppData\Local\Temp\cchRVaEl.s 			page 5


 202      20756E73 
 202      69676E65 
 202      6420696E 
 202      7400
 203              	.LASF8:
 204 00b0 6C6F6E67 		.ascii	"long long unsigned int\000"
 204      206C6F6E 
 204      6720756E 
 204      7369676E 
 204      65642069 
 205              	.LASF2:
 206 00c7 756E7369 		.ascii	"unsigned char\000"
 206      676E6564 
 206      20636861 
 206      7200
 207              	.LASF11:
 208 00d5 63686172 		.ascii	"char\000"
 208      00
 209              	.LASF5:
 210 00da 6C6F6E67 		.ascii	"long int\000"
 210      20696E74 
 210      00
 211              	.LASF3:
 212 00e3 73686F72 		.ascii	"short int\000"
 212      7420696E 
 212      7400
 213              	.LASF9:
 214 00ed 5F426F6F 		.ascii	"_Bool\000"
 214      6C00
 215              	.LASF16:
 216 00f3 49544D5F 		.ascii	"ITM_RxBuffer\000"
 216      52784275 
 216      66666572 
 216      00
 217              	.LASF1:
 218 0100 7369676E 		.ascii	"signed char\000"
 218      65642063 
 218      68617200 
 219              	.LASF14:
 220 010c 433A5C43 		.ascii	"C:\\ChibiStudio\\chibios\\demos\\ARMCM4-STM32F407-D"
 220      68696269 
 220      53747564 
 220      696F5C63 
 220      68696269 
 221 013b 4953434F 		.ascii	"ISCOVERY\000"
 221      56455259 
 221      00
 222              	.LASF15:
 223 0144 696E7433 		.ascii	"int32_t\000"
 223      325F7400 
 224              	.LASF10:
 225 014c 73697A65 		.ascii	"sizetype\000"
 225      74797065 
 225      00
 226              		.ident	"GCC: (GNU Tools for ARM Embedded Processors) 4.7.3 20130312 (release) [ARM/embedded-4_7-br
ARM GAS  C:\Users\INCAS-~1\AppData\Local\Temp\cchRVaEl.s 			page 6


DEFINED SYMBOLS
                            *ABS*:00000000 ext_lld.c

NO UNDEFINED SYMBOLS
