ARM GAS  C:\Users\INCAS-~1\AppData\Local\Temp\ccSUVw5f.s 			page 1


   1              		.syntax unified
   2              		.cpu cortex-m4
   3              		.fpu softvfp
   4              		.eabi_attribute 20, 1
   5              		.eabi_attribute 21, 1
   6              		.eabi_attribute 23, 3
   7              		.eabi_attribute 24, 1
   8              		.eabi_attribute 25, 1
   9              		.eabi_attribute 26, 1
  10              		.eabi_attribute 30, 2
  11              		.eabi_attribute 34, 1
  12              		.eabi_attribute 18, 4
  13              		.thumb
  14              		.file	"stm32_dma.c"
  15              		.text
  16              	.Ltext0:
  17              		.cfi_sections	.debug_frame
  18              		.section	.text.Vector6C,"ax",%progbits
  19              		.align	2
  20              		.p2align 4,,15
  21              		.global	Vector6C
  22              		.thumb
  23              		.thumb_func
  24              		.type	Vector6C, %function
  25              	Vector6C:
  26              	.LFB118:
  27              		.file 1 "../../os/hal/platforms/STM32F4xx/stm32_dma.c"
  28              		.loc 1 128 0
  29              		.cfi_startproc
  30              		@ args = 0, pretend = 0, frame = 0
  31              		@ frame_needed = 0, uses_anonymous_args = 0
  32              		.loc 1 133 0
  33 0000 4FF4C043 		mov	r3, #24576
  34 0004 C4F20203 		movt	r3, 16386
  35              		.loc 1 135 0
  36 0008 0748     		ldr	r0, .L7
  37              		.loc 1 133 0
  38 000a 1968     		ldr	r1, [r3, #0]
  39              		.loc 1 135 0
  40 000c 0268     		ldr	r2, [r0, #0]
  41              		.loc 1 128 0
  42 000e 10B5     		push	{r4, lr}
  43              	.LCFI0:
  44              		.cfi_def_cfa_offset 8
  45              		.cfi_offset 4, -8
  46              		.cfi_offset 14, -4
  47              		.loc 1 134 0
  48 0010 3D24     		movs	r4, #61
  49              		.loc 1 133 0
  50 0012 01F03D01 		and	r1, r1, #61
  51              	.LVL0:
  52              		.loc 1 134 0
  53 0016 9C60     		str	r4, [r3, #8]
  54              		.loc 1 135 0
  55 0018 0AB1     		cbz	r2, .L2
  56              		.loc 1 136 0
  57 001a 4068     		ldr	r0, [r0, #4]
ARM GAS  C:\Users\INCAS-~1\AppData\Local\Temp\ccSUVw5f.s 			page 2


  58 001c 9047     		blx	r2
  59              	.LVL1:
  60              	.L2:
  61              		.loc 1 139 0
  62 001e BDE81040 		pop	{r4, lr}
  63              		.loc 1 138 0
  64 0022 FFF7FEBF 		b	_port_irq_epilogue
  65              	.LVL2:
  66              	.L8:
  67 0026 00BF     		.align	2
  68              	.L7:
  69 0028 00000000 		.word	.LANCHOR0
  70              		.cfi_endproc
  71              	.LFE118:
  72              		.size	Vector6C, .-Vector6C
  73 002c AFF30080 		.section	.text.Vector70,"ax",%progbits
  74              		.align	2
  75              		.p2align 4,,15
  76              		.global	Vector70
  77              		.thumb
  78              		.thumb_func
  79              		.type	Vector70, %function
  80              	Vector70:
  81              	.LFB119:
  82              		.loc 1 146 0
  83              		.cfi_startproc
  84              		@ args = 0, pretend = 0, frame = 0
  85              		@ frame_needed = 0, uses_anonymous_args = 0
  86              		.loc 1 151 0
  87 0000 4FF4C043 		mov	r3, #24576
  88 0004 C4F20203 		movt	r3, 16386
  89              		.loc 1 153 0
  90 0008 0848     		ldr	r0, .L14
  91              		.loc 1 151 0
  92 000a 1968     		ldr	r1, [r3, #0]
  93              		.loc 1 153 0
  94 000c 8268     		ldr	r2, [r0, #8]
  95              		.loc 1 146 0
  96 000e 10B5     		push	{r4, lr}
  97              	.LCFI1:
  98              		.cfi_def_cfa_offset 8
  99              		.cfi_offset 4, -8
 100              		.cfi_offset 14, -4
 101              		.loc 1 151 0
 102 0010 8C09     		lsrs	r4, r1, #6
 103 0012 04F03D01 		and	r1, r4, #61
 104              	.LVL3:
 105              		.loc 1 152 0
 106 0016 4FF47464 		mov	r4, #3904
 107 001a 9C60     		str	r4, [r3, #8]
 108              		.loc 1 153 0
 109 001c 0AB1     		cbz	r2, .L10
 110              		.loc 1 154 0
 111 001e C068     		ldr	r0, [r0, #12]
 112 0020 9047     		blx	r2
 113              	.LVL4:
 114              	.L10:
ARM GAS  C:\Users\INCAS-~1\AppData\Local\Temp\ccSUVw5f.s 			page 3


 115              		.loc 1 157 0
 116 0022 BDE81040 		pop	{r4, lr}
 117              		.loc 1 156 0
 118 0026 FFF7FEBF 		b	_port_irq_epilogue
 119              	.LVL5:
 120              	.L15:
 121 002a 00BF     		.align	2
 122              	.L14:
 123 002c 00000000 		.word	.LANCHOR0
 124              		.cfi_endproc
 125              	.LFE119:
 126              		.size	Vector70, .-Vector70
 127              		.section	.text.Vector74,"ax",%progbits
 128              		.align	2
 129              		.p2align 4,,15
 130              		.global	Vector74
 131              		.thumb
 132              		.thumb_func
 133              		.type	Vector74, %function
 134              	Vector74:
 135              	.LFB120:
 136              		.loc 1 164 0
 137              		.cfi_startproc
 138              		@ args = 0, pretend = 0, frame = 0
 139              		@ frame_needed = 0, uses_anonymous_args = 0
 140              		.loc 1 169 0
 141 0000 4FF4C043 		mov	r3, #24576
 142 0004 C4F20203 		movt	r3, 16386
 143              		.loc 1 171 0
 144 0008 0848     		ldr	r0, .L21
 145              		.loc 1 169 0
 146 000a 1968     		ldr	r1, [r3, #0]
 147              		.loc 1 171 0
 148 000c 0269     		ldr	r2, [r0, #16]
 149              		.loc 1 164 0
 150 000e 10B5     		push	{r4, lr}
 151              	.LCFI2:
 152              		.cfi_def_cfa_offset 8
 153              		.cfi_offset 4, -8
 154              		.cfi_offset 14, -4
 155              		.loc 1 169 0
 156 0010 0C0C     		lsrs	r4, r1, #16
 157 0012 04F03D01 		and	r1, r4, #61
 158              	.LVL6:
 159              		.loc 1 170 0
 160 0016 4FF47414 		mov	r4, #3997696
 161 001a 9C60     		str	r4, [r3, #8]
 162              		.loc 1 171 0
 163 001c 0AB1     		cbz	r2, .L17
 164              		.loc 1 172 0
 165 001e 4069     		ldr	r0, [r0, #20]
 166 0020 9047     		blx	r2
 167              	.LVL7:
 168              	.L17:
 169              		.loc 1 175 0
 170 0022 BDE81040 		pop	{r4, lr}
 171              		.loc 1 174 0
ARM GAS  C:\Users\INCAS-~1\AppData\Local\Temp\ccSUVw5f.s 			page 4


 172 0026 FFF7FEBF 		b	_port_irq_epilogue
 173              	.LVL8:
 174              	.L22:
 175 002a 00BF     		.align	2
 176              	.L21:
 177 002c 00000000 		.word	.LANCHOR0
 178              		.cfi_endproc
 179              	.LFE120:
 180              		.size	Vector74, .-Vector74
 181              		.section	.text.Vector78,"ax",%progbits
 182              		.align	2
 183              		.p2align 4,,15
 184              		.global	Vector78
 185              		.thumb
 186              		.thumb_func
 187              		.type	Vector78, %function
 188              	Vector78:
 189              	.LFB121:
 190              		.loc 1 182 0
 191              		.cfi_startproc
 192              		@ args = 0, pretend = 0, frame = 0
 193              		@ frame_needed = 0, uses_anonymous_args = 0
 194              		.loc 1 187 0
 195 0000 4FF4C043 		mov	r3, #24576
 196 0004 C4F20203 		movt	r3, 16386
 197              		.loc 1 189 0
 198 0008 0848     		ldr	r0, .L28
 199              		.loc 1 187 0
 200 000a 1968     		ldr	r1, [r3, #0]
 201              		.loc 1 189 0
 202 000c 8269     		ldr	r2, [r0, #24]
 203              		.loc 1 182 0
 204 000e 10B5     		push	{r4, lr}
 205              	.LCFI3:
 206              		.cfi_def_cfa_offset 8
 207              		.cfi_offset 4, -8
 208              		.cfi_offset 14, -4
 209              		.loc 1 187 0
 210 0010 8C0D     		lsrs	r4, r1, #22
 211 0012 04F03D01 		and	r1, r4, #61
 212              	.LVL9:
 213              		.loc 1 188 0
 214 0016 4FF07464 		mov	r4, #255852544
 215 001a 9C60     		str	r4, [r3, #8]
 216              		.loc 1 189 0
 217 001c 0AB1     		cbz	r2, .L24
 218              		.loc 1 190 0
 219 001e C069     		ldr	r0, [r0, #28]
 220 0020 9047     		blx	r2
 221              	.LVL10:
 222              	.L24:
 223              		.loc 1 193 0
 224 0022 BDE81040 		pop	{r4, lr}
 225              		.loc 1 192 0
 226 0026 FFF7FEBF 		b	_port_irq_epilogue
 227              	.LVL11:
 228              	.L29:
ARM GAS  C:\Users\INCAS-~1\AppData\Local\Temp\ccSUVw5f.s 			page 5


 229 002a 00BF     		.align	2
 230              	.L28:
 231 002c 00000000 		.word	.LANCHOR0
 232              		.cfi_endproc
 233              	.LFE121:
 234              		.size	Vector78, .-Vector78
 235              		.section	.text.Vector7C,"ax",%progbits
 236              		.align	2
 237              		.p2align 4,,15
 238              		.global	Vector7C
 239              		.thumb
 240              		.thumb_func
 241              		.type	Vector7C, %function
 242              	Vector7C:
 243              	.LFB122:
 244              		.loc 1 200 0
 245              		.cfi_startproc
 246              		@ args = 0, pretend = 0, frame = 0
 247              		@ frame_needed = 0, uses_anonymous_args = 0
 248              		.loc 1 205 0
 249 0000 4FF4C043 		mov	r3, #24576
 250 0004 C4F20203 		movt	r3, 16386
 251              		.loc 1 207 0
 252 0008 0748     		ldr	r0, .L35
 253              		.loc 1 205 0
 254 000a 5968     		ldr	r1, [r3, #4]
 255              		.loc 1 207 0
 256 000c 026A     		ldr	r2, [r0, #32]
 257              		.loc 1 200 0
 258 000e 10B5     		push	{r4, lr}
 259              	.LCFI4:
 260              		.cfi_def_cfa_offset 8
 261              		.cfi_offset 4, -8
 262              		.cfi_offset 14, -4
 263              		.loc 1 206 0
 264 0010 3D24     		movs	r4, #61
 265              		.loc 1 205 0
 266 0012 01F03D01 		and	r1, r1, #61
 267              	.LVL12:
 268              		.loc 1 206 0
 269 0016 DC60     		str	r4, [r3, #12]
 270              		.loc 1 207 0
 271 0018 0AB1     		cbz	r2, .L31
 272              		.loc 1 208 0
 273 001a 406A     		ldr	r0, [r0, #36]
 274 001c 9047     		blx	r2
 275              	.LVL13:
 276              	.L31:
 277              		.loc 1 211 0
 278 001e BDE81040 		pop	{r4, lr}
 279              		.loc 1 210 0
 280 0022 FFF7FEBF 		b	_port_irq_epilogue
 281              	.LVL14:
 282              	.L36:
 283 0026 00BF     		.align	2
 284              	.L35:
 285 0028 00000000 		.word	.LANCHOR0
ARM GAS  C:\Users\INCAS-~1\AppData\Local\Temp\ccSUVw5f.s 			page 6


 286              		.cfi_endproc
 287              	.LFE122:
 288              		.size	Vector7C, .-Vector7C
 289 002c AFF30080 		.section	.text.Vector80,"ax",%progbits
 290              		.align	2
 291              		.p2align 4,,15
 292              		.global	Vector80
 293              		.thumb
 294              		.thumb_func
 295              		.type	Vector80, %function
 296              	Vector80:
 297              	.LFB123:
 298              		.loc 1 218 0
 299              		.cfi_startproc
 300              		@ args = 0, pretend = 0, frame = 0
 301              		@ frame_needed = 0, uses_anonymous_args = 0
 302              		.loc 1 223 0
 303 0000 4FF4C043 		mov	r3, #24576
 304 0004 C4F20203 		movt	r3, 16386
 305              		.loc 1 225 0
 306 0008 0848     		ldr	r0, .L42
 307              		.loc 1 223 0
 308 000a 5968     		ldr	r1, [r3, #4]
 309              		.loc 1 225 0
 310 000c 826A     		ldr	r2, [r0, #40]
 311              		.loc 1 218 0
 312 000e 10B5     		push	{r4, lr}
 313              	.LCFI5:
 314              		.cfi_def_cfa_offset 8
 315              		.cfi_offset 4, -8
 316              		.cfi_offset 14, -4
 317              		.loc 1 223 0
 318 0010 8C09     		lsrs	r4, r1, #6
 319 0012 04F03D01 		and	r1, r4, #61
 320              	.LVL15:
 321              		.loc 1 224 0
 322 0016 4FF47464 		mov	r4, #3904
 323 001a DC60     		str	r4, [r3, #12]
 324              		.loc 1 225 0
 325 001c 0AB1     		cbz	r2, .L38
 326              		.loc 1 226 0
 327 001e C06A     		ldr	r0, [r0, #44]
 328 0020 9047     		blx	r2
 329              	.LVL16:
 330              	.L38:
 331              		.loc 1 229 0
 332 0022 BDE81040 		pop	{r4, lr}
 333              		.loc 1 228 0
 334 0026 FFF7FEBF 		b	_port_irq_epilogue
 335              	.LVL17:
 336              	.L43:
 337 002a 00BF     		.align	2
 338              	.L42:
 339 002c 00000000 		.word	.LANCHOR0
 340              		.cfi_endproc
 341              	.LFE123:
 342              		.size	Vector80, .-Vector80
ARM GAS  C:\Users\INCAS-~1\AppData\Local\Temp\ccSUVw5f.s 			page 7


 343              		.section	.text.Vector84,"ax",%progbits
 344              		.align	2
 345              		.p2align 4,,15
 346              		.global	Vector84
 347              		.thumb
 348              		.thumb_func
 349              		.type	Vector84, %function
 350              	Vector84:
 351              	.LFB124:
 352              		.loc 1 236 0
 353              		.cfi_startproc
 354              		@ args = 0, pretend = 0, frame = 0
 355              		@ frame_needed = 0, uses_anonymous_args = 0
 356              		.loc 1 241 0
 357 0000 4FF4C043 		mov	r3, #24576
 358 0004 C4F20203 		movt	r3, 16386
 359              		.loc 1 243 0
 360 0008 0848     		ldr	r0, .L49
 361              		.loc 1 241 0
 362 000a 5968     		ldr	r1, [r3, #4]
 363              		.loc 1 243 0
 364 000c 026B     		ldr	r2, [r0, #48]
 365              		.loc 1 236 0
 366 000e 10B5     		push	{r4, lr}
 367              	.LCFI6:
 368              		.cfi_def_cfa_offset 8
 369              		.cfi_offset 4, -8
 370              		.cfi_offset 14, -4
 371              		.loc 1 241 0
 372 0010 0C0C     		lsrs	r4, r1, #16
 373 0012 04F03D01 		and	r1, r4, #61
 374              	.LVL18:
 375              		.loc 1 242 0
 376 0016 4FF47414 		mov	r4, #3997696
 377 001a DC60     		str	r4, [r3, #12]
 378              		.loc 1 243 0
 379 001c 0AB1     		cbz	r2, .L45
 380              		.loc 1 244 0
 381 001e 406B     		ldr	r0, [r0, #52]
 382 0020 9047     		blx	r2
 383              	.LVL19:
 384              	.L45:
 385              		.loc 1 247 0
 386 0022 BDE81040 		pop	{r4, lr}
 387              		.loc 1 246 0
 388 0026 FFF7FEBF 		b	_port_irq_epilogue
 389              	.LVL20:
 390              	.L50:
 391 002a 00BF     		.align	2
 392              	.L49:
 393 002c 00000000 		.word	.LANCHOR0
 394              		.cfi_endproc
 395              	.LFE124:
 396              		.size	Vector84, .-Vector84
 397              		.section	.text.VectorFC,"ax",%progbits
 398              		.align	2
 399              		.p2align 4,,15
ARM GAS  C:\Users\INCAS-~1\AppData\Local\Temp\ccSUVw5f.s 			page 8


 400              		.global	VectorFC
 401              		.thumb
 402              		.thumb_func
 403              		.type	VectorFC, %function
 404              	VectorFC:
 405              	.LFB125:
 406              		.loc 1 254 0
 407              		.cfi_startproc
 408              		@ args = 0, pretend = 0, frame = 0
 409              		@ frame_needed = 0, uses_anonymous_args = 0
 410              		.loc 1 259 0
 411 0000 4FF4C043 		mov	r3, #24576
 412 0004 C4F20203 		movt	r3, 16386
 413              		.loc 1 261 0
 414 0008 0848     		ldr	r0, .L56
 415              		.loc 1 259 0
 416 000a 5968     		ldr	r1, [r3, #4]
 417              		.loc 1 261 0
 418 000c 826B     		ldr	r2, [r0, #56]
 419              		.loc 1 254 0
 420 000e 10B5     		push	{r4, lr}
 421              	.LCFI7:
 422              		.cfi_def_cfa_offset 8
 423              		.cfi_offset 4, -8
 424              		.cfi_offset 14, -4
 425              		.loc 1 259 0
 426 0010 8C0D     		lsrs	r4, r1, #22
 427 0012 04F03D01 		and	r1, r4, #61
 428              	.LVL21:
 429              		.loc 1 260 0
 430 0016 4FF07464 		mov	r4, #255852544
 431 001a DC60     		str	r4, [r3, #12]
 432              		.loc 1 261 0
 433 001c 0AB1     		cbz	r2, .L52
 434              		.loc 1 262 0
 435 001e C06B     		ldr	r0, [r0, #60]
 436 0020 9047     		blx	r2
 437              	.LVL22:
 438              	.L52:
 439              		.loc 1 265 0
 440 0022 BDE81040 		pop	{r4, lr}
 441              		.loc 1 264 0
 442 0026 FFF7FEBF 		b	_port_irq_epilogue
 443              	.LVL23:
 444              	.L57:
 445 002a 00BF     		.align	2
 446              	.L56:
 447 002c 00000000 		.word	.LANCHOR0
 448              		.cfi_endproc
 449              	.LFE125:
 450              		.size	VectorFC, .-VectorFC
 451              		.section	.text.Vector120,"ax",%progbits
 452              		.align	2
 453              		.p2align 4,,15
 454              		.global	Vector120
 455              		.thumb
 456              		.thumb_func
ARM GAS  C:\Users\INCAS-~1\AppData\Local\Temp\ccSUVw5f.s 			page 9


 457              		.type	Vector120, %function
 458              	Vector120:
 459              	.LFB126:
 460              		.loc 1 272 0
 461              		.cfi_startproc
 462              		@ args = 0, pretend = 0, frame = 0
 463              		@ frame_needed = 0, uses_anonymous_args = 0
 464              		.loc 1 277 0
 465 0000 4FF4C843 		mov	r3, #25600
 466 0004 C4F20203 		movt	r3, 16386
 467              		.loc 1 279 0
 468 0008 0748     		ldr	r0, .L63
 469              		.loc 1 277 0
 470 000a 1968     		ldr	r1, [r3, #0]
 471              		.loc 1 279 0
 472 000c 026C     		ldr	r2, [r0, #64]
 473              		.loc 1 272 0
 474 000e 10B5     		push	{r4, lr}
 475              	.LCFI8:
 476              		.cfi_def_cfa_offset 8
 477              		.cfi_offset 4, -8
 478              		.cfi_offset 14, -4
 479              		.loc 1 278 0
 480 0010 3D24     		movs	r4, #61
 481              		.loc 1 277 0
 482 0012 01F03D01 		and	r1, r1, #61
 483              	.LVL24:
 484              		.loc 1 278 0
 485 0016 9C60     		str	r4, [r3, #8]
 486              		.loc 1 279 0
 487 0018 0AB1     		cbz	r2, .L59
 488              		.loc 1 280 0
 489 001a 406C     		ldr	r0, [r0, #68]
 490 001c 9047     		blx	r2
 491              	.LVL25:
 492              	.L59:
 493              		.loc 1 283 0
 494 001e BDE81040 		pop	{r4, lr}
 495              		.loc 1 282 0
 496 0022 FFF7FEBF 		b	_port_irq_epilogue
 497              	.LVL26:
 498              	.L64:
 499 0026 00BF     		.align	2
 500              	.L63:
 501 0028 00000000 		.word	.LANCHOR0
 502              		.cfi_endproc
 503              	.LFE126:
 504              		.size	Vector120, .-Vector120
 505 002c AFF30080 		.section	.text.Vector124,"ax",%progbits
 506              		.align	2
 507              		.p2align 4,,15
 508              		.global	Vector124
 509              		.thumb
 510              		.thumb_func
 511              		.type	Vector124, %function
 512              	Vector124:
 513              	.LFB127:
ARM GAS  C:\Users\INCAS-~1\AppData\Local\Temp\ccSUVw5f.s 			page 10


 514              		.loc 1 290 0
 515              		.cfi_startproc
 516              		@ args = 0, pretend = 0, frame = 0
 517              		@ frame_needed = 0, uses_anonymous_args = 0
 518              		.loc 1 295 0
 519 0000 4FF4C843 		mov	r3, #25600
 520 0004 C4F20203 		movt	r3, 16386
 521              		.loc 1 297 0
 522 0008 0848     		ldr	r0, .L70
 523              		.loc 1 295 0
 524 000a 1968     		ldr	r1, [r3, #0]
 525              		.loc 1 297 0
 526 000c 826C     		ldr	r2, [r0, #72]
 527              		.loc 1 290 0
 528 000e 10B5     		push	{r4, lr}
 529              	.LCFI9:
 530              		.cfi_def_cfa_offset 8
 531              		.cfi_offset 4, -8
 532              		.cfi_offset 14, -4
 533              		.loc 1 295 0
 534 0010 8C09     		lsrs	r4, r1, #6
 535 0012 04F03D01 		and	r1, r4, #61
 536              	.LVL27:
 537              		.loc 1 296 0
 538 0016 4FF47464 		mov	r4, #3904
 539 001a 9C60     		str	r4, [r3, #8]
 540              		.loc 1 297 0
 541 001c 0AB1     		cbz	r2, .L66
 542              		.loc 1 298 0
 543 001e C06C     		ldr	r0, [r0, #76]
 544 0020 9047     		blx	r2
 545              	.LVL28:
 546              	.L66:
 547              		.loc 1 301 0
 548 0022 BDE81040 		pop	{r4, lr}
 549              		.loc 1 300 0
 550 0026 FFF7FEBF 		b	_port_irq_epilogue
 551              	.LVL29:
 552              	.L71:
 553 002a 00BF     		.align	2
 554              	.L70:
 555 002c 00000000 		.word	.LANCHOR0
 556              		.cfi_endproc
 557              	.LFE127:
 558              		.size	Vector124, .-Vector124
 559              		.section	.text.Vector128,"ax",%progbits
 560              		.align	2
 561              		.p2align 4,,15
 562              		.global	Vector128
 563              		.thumb
 564              		.thumb_func
 565              		.type	Vector128, %function
 566              	Vector128:
 567              	.LFB128:
 568              		.loc 1 308 0
 569              		.cfi_startproc
 570              		@ args = 0, pretend = 0, frame = 0
ARM GAS  C:\Users\INCAS-~1\AppData\Local\Temp\ccSUVw5f.s 			page 11


 571              		@ frame_needed = 0, uses_anonymous_args = 0
 572              		.loc 1 313 0
 573 0000 4FF4C843 		mov	r3, #25600
 574 0004 C4F20203 		movt	r3, 16386
 575              		.loc 1 315 0
 576 0008 0848     		ldr	r0, .L77
 577              		.loc 1 313 0
 578 000a 1968     		ldr	r1, [r3, #0]
 579              		.loc 1 315 0
 580 000c 026D     		ldr	r2, [r0, #80]
 581              		.loc 1 308 0
 582 000e 10B5     		push	{r4, lr}
 583              	.LCFI10:
 584              		.cfi_def_cfa_offset 8
 585              		.cfi_offset 4, -8
 586              		.cfi_offset 14, -4
 587              		.loc 1 313 0
 588 0010 0C0C     		lsrs	r4, r1, #16
 589 0012 04F03D01 		and	r1, r4, #61
 590              	.LVL30:
 591              		.loc 1 314 0
 592 0016 4FF47414 		mov	r4, #3997696
 593 001a 9C60     		str	r4, [r3, #8]
 594              		.loc 1 315 0
 595 001c 0AB1     		cbz	r2, .L73
 596              		.loc 1 316 0
 597 001e 406D     		ldr	r0, [r0, #84]
 598 0020 9047     		blx	r2
 599              	.LVL31:
 600              	.L73:
 601              		.loc 1 319 0
 602 0022 BDE81040 		pop	{r4, lr}
 603              		.loc 1 318 0
 604 0026 FFF7FEBF 		b	_port_irq_epilogue
 605              	.LVL32:
 606              	.L78:
 607 002a 00BF     		.align	2
 608              	.L77:
 609 002c 00000000 		.word	.LANCHOR0
 610              		.cfi_endproc
 611              	.LFE128:
 612              		.size	Vector128, .-Vector128
 613              		.section	.text.Vector12C,"ax",%progbits
 614              		.align	2
 615              		.p2align 4,,15
 616              		.global	Vector12C
 617              		.thumb
 618              		.thumb_func
 619              		.type	Vector12C, %function
 620              	Vector12C:
 621              	.LFB129:
 622              		.loc 1 326 0
 623              		.cfi_startproc
 624              		@ args = 0, pretend = 0, frame = 0
 625              		@ frame_needed = 0, uses_anonymous_args = 0
 626              		.loc 1 331 0
 627 0000 4FF4C843 		mov	r3, #25600
ARM GAS  C:\Users\INCAS-~1\AppData\Local\Temp\ccSUVw5f.s 			page 12


 628 0004 C4F20203 		movt	r3, 16386
 629              		.loc 1 333 0
 630 0008 0848     		ldr	r0, .L84
 631              		.loc 1 331 0
 632 000a 1968     		ldr	r1, [r3, #0]
 633              		.loc 1 333 0
 634 000c 826D     		ldr	r2, [r0, #88]
 635              		.loc 1 326 0
 636 000e 10B5     		push	{r4, lr}
 637              	.LCFI11:
 638              		.cfi_def_cfa_offset 8
 639              		.cfi_offset 4, -8
 640              		.cfi_offset 14, -4
 641              		.loc 1 331 0
 642 0010 8C0D     		lsrs	r4, r1, #22
 643 0012 04F03D01 		and	r1, r4, #61
 644              	.LVL33:
 645              		.loc 1 332 0
 646 0016 4FF07464 		mov	r4, #255852544
 647 001a 9C60     		str	r4, [r3, #8]
 648              		.loc 1 333 0
 649 001c 0AB1     		cbz	r2, .L80
 650              		.loc 1 334 0
 651 001e C06D     		ldr	r0, [r0, #92]
 652 0020 9047     		blx	r2
 653              	.LVL34:
 654              	.L80:
 655              		.loc 1 337 0
 656 0022 BDE81040 		pop	{r4, lr}
 657              		.loc 1 336 0
 658 0026 FFF7FEBF 		b	_port_irq_epilogue
 659              	.LVL35:
 660              	.L85:
 661 002a 00BF     		.align	2
 662              	.L84:
 663 002c 00000000 		.word	.LANCHOR0
 664              		.cfi_endproc
 665              	.LFE129:
 666              		.size	Vector12C, .-Vector12C
 667              		.section	.text.Vector130,"ax",%progbits
 668              		.align	2
 669              		.p2align 4,,15
 670              		.global	Vector130
 671              		.thumb
 672              		.thumb_func
 673              		.type	Vector130, %function
 674              	Vector130:
 675              	.LFB130:
 676              		.loc 1 344 0
 677              		.cfi_startproc
 678              		@ args = 0, pretend = 0, frame = 0
 679              		@ frame_needed = 0, uses_anonymous_args = 0
 680              		.loc 1 349 0
 681 0000 4FF4C843 		mov	r3, #25600
 682 0004 C4F20203 		movt	r3, 16386
 683              		.loc 1 351 0
 684 0008 0748     		ldr	r0, .L91
ARM GAS  C:\Users\INCAS-~1\AppData\Local\Temp\ccSUVw5f.s 			page 13


 685              		.loc 1 349 0
 686 000a 5968     		ldr	r1, [r3, #4]
 687              		.loc 1 351 0
 688 000c 026E     		ldr	r2, [r0, #96]
 689              		.loc 1 344 0
 690 000e 10B5     		push	{r4, lr}
 691              	.LCFI12:
 692              		.cfi_def_cfa_offset 8
 693              		.cfi_offset 4, -8
 694              		.cfi_offset 14, -4
 695              		.loc 1 350 0
 696 0010 3D24     		movs	r4, #61
 697              		.loc 1 349 0
 698 0012 01F03D01 		and	r1, r1, #61
 699              	.LVL36:
 700              		.loc 1 350 0
 701 0016 DC60     		str	r4, [r3, #12]
 702              		.loc 1 351 0
 703 0018 0AB1     		cbz	r2, .L87
 704              		.loc 1 352 0
 705 001a 406E     		ldr	r0, [r0, #100]
 706 001c 9047     		blx	r2
 707              	.LVL37:
 708              	.L87:
 709              		.loc 1 355 0
 710 001e BDE81040 		pop	{r4, lr}
 711              		.loc 1 354 0
 712 0022 FFF7FEBF 		b	_port_irq_epilogue
 713              	.LVL38:
 714              	.L92:
 715 0026 00BF     		.align	2
 716              	.L91:
 717 0028 00000000 		.word	.LANCHOR0
 718              		.cfi_endproc
 719              	.LFE130:
 720              		.size	Vector130, .-Vector130
 721 002c AFF30080 		.section	.text.Vector150,"ax",%progbits
 722              		.align	2
 723              		.p2align 4,,15
 724              		.global	Vector150
 725              		.thumb
 726              		.thumb_func
 727              		.type	Vector150, %function
 728              	Vector150:
 729              	.LFB131:
 730              		.loc 1 362 0
 731              		.cfi_startproc
 732              		@ args = 0, pretend = 0, frame = 0
 733              		@ frame_needed = 0, uses_anonymous_args = 0
 734              		.loc 1 367 0
 735 0000 4FF4C843 		mov	r3, #25600
 736 0004 C4F20203 		movt	r3, 16386
 737              		.loc 1 369 0
 738 0008 0848     		ldr	r0, .L98
 739              		.loc 1 367 0
 740 000a 5968     		ldr	r1, [r3, #4]
 741              		.loc 1 369 0
ARM GAS  C:\Users\INCAS-~1\AppData\Local\Temp\ccSUVw5f.s 			page 14


 742 000c 826E     		ldr	r2, [r0, #104]
 743              		.loc 1 362 0
 744 000e 10B5     		push	{r4, lr}
 745              	.LCFI13:
 746              		.cfi_def_cfa_offset 8
 747              		.cfi_offset 4, -8
 748              		.cfi_offset 14, -4
 749              		.loc 1 367 0
 750 0010 8C09     		lsrs	r4, r1, #6
 751 0012 04F03D01 		and	r1, r4, #61
 752              	.LVL39:
 753              		.loc 1 368 0
 754 0016 4FF47464 		mov	r4, #3904
 755 001a DC60     		str	r4, [r3, #12]
 756              		.loc 1 369 0
 757 001c 0AB1     		cbz	r2, .L94
 758              		.loc 1 370 0
 759 001e C06E     		ldr	r0, [r0, #108]
 760 0020 9047     		blx	r2
 761              	.LVL40:
 762              	.L94:
 763              		.loc 1 373 0
 764 0022 BDE81040 		pop	{r4, lr}
 765              		.loc 1 372 0
 766 0026 FFF7FEBF 		b	_port_irq_epilogue
 767              	.LVL41:
 768              	.L99:
 769 002a 00BF     		.align	2
 770              	.L98:
 771 002c 00000000 		.word	.LANCHOR0
 772              		.cfi_endproc
 773              	.LFE131:
 774              		.size	Vector150, .-Vector150
 775              		.section	.text.Vector154,"ax",%progbits
 776              		.align	2
 777              		.p2align 4,,15
 778              		.global	Vector154
 779              		.thumb
 780              		.thumb_func
 781              		.type	Vector154, %function
 782              	Vector154:
 783              	.LFB132:
 784              		.loc 1 380 0
 785              		.cfi_startproc
 786              		@ args = 0, pretend = 0, frame = 0
 787              		@ frame_needed = 0, uses_anonymous_args = 0
 788              		.loc 1 385 0
 789 0000 4FF4C843 		mov	r3, #25600
 790 0004 C4F20203 		movt	r3, 16386
 791              		.loc 1 387 0
 792 0008 0848     		ldr	r0, .L105
 793              		.loc 1 385 0
 794 000a 5968     		ldr	r1, [r3, #4]
 795              		.loc 1 387 0
 796 000c 026F     		ldr	r2, [r0, #112]
 797              		.loc 1 380 0
 798 000e 10B5     		push	{r4, lr}
ARM GAS  C:\Users\INCAS-~1\AppData\Local\Temp\ccSUVw5f.s 			page 15


 799              	.LCFI14:
 800              		.cfi_def_cfa_offset 8
 801              		.cfi_offset 4, -8
 802              		.cfi_offset 14, -4
 803              		.loc 1 385 0
 804 0010 0C0C     		lsrs	r4, r1, #16
 805 0012 04F03D01 		and	r1, r4, #61
 806              	.LVL42:
 807              		.loc 1 386 0
 808 0016 4FF47414 		mov	r4, #3997696
 809 001a DC60     		str	r4, [r3, #12]
 810              		.loc 1 387 0
 811 001c 0AB1     		cbz	r2, .L101
 812              		.loc 1 388 0
 813 001e 406F     		ldr	r0, [r0, #116]
 814 0020 9047     		blx	r2
 815              	.LVL43:
 816              	.L101:
 817              		.loc 1 391 0
 818 0022 BDE81040 		pop	{r4, lr}
 819              		.loc 1 390 0
 820 0026 FFF7FEBF 		b	_port_irq_epilogue
 821              	.LVL44:
 822              	.L106:
 823 002a 00BF     		.align	2
 824              	.L105:
 825 002c 00000000 		.word	.LANCHOR0
 826              		.cfi_endproc
 827              	.LFE132:
 828              		.size	Vector154, .-Vector154
 829              		.section	.text.Vector158,"ax",%progbits
 830              		.align	2
 831              		.p2align 4,,15
 832              		.global	Vector158
 833              		.thumb
 834              		.thumb_func
 835              		.type	Vector158, %function
 836              	Vector158:
 837              	.LFB133:
 838              		.loc 1 398 0
 839              		.cfi_startproc
 840              		@ args = 0, pretend = 0, frame = 0
 841              		@ frame_needed = 0, uses_anonymous_args = 0
 842              		.loc 1 403 0
 843 0000 4FF4C843 		mov	r3, #25600
 844 0004 C4F20203 		movt	r3, 16386
 845              		.loc 1 405 0
 846 0008 0848     		ldr	r0, .L112
 847              		.loc 1 403 0
 848 000a 5968     		ldr	r1, [r3, #4]
 849              		.loc 1 405 0
 850 000c 826F     		ldr	r2, [r0, #120]
 851              		.loc 1 398 0
 852 000e 10B5     		push	{r4, lr}
 853              	.LCFI15:
 854              		.cfi_def_cfa_offset 8
 855              		.cfi_offset 4, -8
ARM GAS  C:\Users\INCAS-~1\AppData\Local\Temp\ccSUVw5f.s 			page 16


 856              		.cfi_offset 14, -4
 857              		.loc 1 403 0
 858 0010 8C0D     		lsrs	r4, r1, #22
 859 0012 04F03D01 		and	r1, r4, #61
 860              	.LVL45:
 861              		.loc 1 404 0
 862 0016 4FF07464 		mov	r4, #255852544
 863 001a DC60     		str	r4, [r3, #12]
 864              		.loc 1 405 0
 865 001c 0AB1     		cbz	r2, .L108
 866              		.loc 1 406 0
 867 001e C06F     		ldr	r0, [r0, #124]
 868 0020 9047     		blx	r2
 869              	.LVL46:
 870              	.L108:
 871              		.loc 1 409 0
 872 0022 BDE81040 		pop	{r4, lr}
 873              		.loc 1 408 0
 874 0026 FFF7FEBF 		b	_port_irq_epilogue
 875              	.LVL47:
 876              	.L113:
 877 002a 00BF     		.align	2
 878              	.L112:
 879 002c 00000000 		.word	.LANCHOR0
 880              		.cfi_endproc
 881              	.LFE133:
 882              		.size	Vector158, .-Vector158
 883              		.section	.text.dmaInit,"ax",%progbits
 884              		.align	2
 885              		.p2align 4,,15
 886              		.global	dmaInit
 887              		.thumb
 888              		.thumb_func
 889              		.type	dmaInit, %function
 890              	dmaInit:
 891              	.LFB134:
 892              		.loc 1 420 0
 893              		.cfi_startproc
 894              		@ args = 0, pretend = 0, frame = 40
 895              		@ frame_needed = 0, uses_anonymous_args = 0
 896              		@ link register save eliminated.
 897 0000 2DE9F00F 		push	{r4, r5, r6, r7, r8, r9, sl, fp}
 898              	.LCFI16:
 899              		.cfi_def_cfa_offset 32
 900              		.cfi_offset 4, -32
 901              		.cfi_offset 5, -28
 902              		.cfi_offset 6, -24
 903              		.cfi_offset 7, -20
 904              		.cfi_offset 8, -16
 905              		.cfi_offset 9, -12
 906              		.cfi_offset 10, -8
 907              		.cfi_offset 11, -4
 908              		.loc 1 423 0
 909 0004 40F20005 		movw	r5, #:lower16:.LANCHOR1
 910              		.loc 1 420 0
 911 0008 8AB0     		sub	sp, sp, #40
 912              	.LCFI17:
ARM GAS  C:\Users\INCAS-~1\AppData\Local\Temp\ccSUVw5f.s 			page 17


 913              		.cfi_def_cfa_offset 72
 914              		.loc 1 423 0
 915 000a C0F20005 		movt	r5, #:upper16:.LANCHOR1
 916              		.loc 1 425 0
 917 000e 46F24040 		movw	r0, #25664
 918              		.loc 1 423 0
 919 0012 0295     		str	r5, [sp, #8]
 920              		.loc 1 425 0
 921 0014 7830     		adds	r0, r0, #120
 922 0016 46F21045 		movw	r5, #25616
 923 001a C4F20205 		movt	r5, 16386
 924 001e A0F58060 		sub	r0, r0, #1024
 925 0022 0495     		str	r5, [sp, #16]
 926 0024 C4F20200 		movt	r0, 16386
 927 0028 46F24045 		movw	r5, #25664
 928 002c 0390     		str	r0, [sp, #12]
 929 002e C4F20205 		movt	r5, 16386
 930 0032 46F22840 		movw	r0, #25640
 931 0036 0695     		str	r5, [sp, #24]
 932 0038 C4F20200 		movt	r0, 16386
 933 003c 46F27045 		movw	r5, #25712
 934 0040 0590     		str	r0, [sp, #20]
 935 0042 C4F20205 		movt	r5, 16386
 936 0046 46F25840 		movw	r0, #25688
 937 004a 0195     		str	r5, [sp, #4]
 938 004c C4F20200 		movt	r0, 16386
 939 0050 46F2B845 		movw	r5, #25784
 940 0054 0790     		str	r0, [sp, #28]
 941 0056 C4F20205 		movt	r5, 16386
 942 005a 46F28840 		movw	r0, #25736
 943 005e 0995     		str	r5, [sp, #36]
 944 0060 C4F20200 		movt	r0, 16386
 945              		.loc 1 423 0
 946 0064 029D     		ldr	r5, [sp, #8]
 947              		.loc 1 425 0
 948 0066 0890     		str	r0, [sp, #32]
 949 0068 46F2100B 		movw	fp, #24592
 950              		.loc 1 423 0
 951 006c 0020     		movs	r0, #0
 952              		.loc 1 426 0
 953 006e 40F20003 		movw	r3, #:lower16:.LANCHOR0
 954              		.loc 1 425 0
 955 0072 46F2280A 		movw	sl, #24616
 956 0076 46F24009 		movw	r9, #24640
 957 007a 46F25808 		movw	r8, #24664
 958 007e 46F2700C 		movw	ip, #24688
 959 0082 46F28807 		movw	r7, #24712
 960 0086 46F2A006 		movw	r6, #24736
 961              		.loc 1 426 0
 962 008a C0F20003 		movt	r3, #:upper16:.LANCHOR0
 963              		.loc 1 423 0
 964 008e 2860     		str	r0, [r5, #0]
 965              	.LVL48:
 966              		.loc 1 425 0
 967 0090 C4F2020B 		movt	fp, 16386
 968 0094 039D     		ldr	r5, [sp, #12]
 969 0096 CBF80000 		str	r0, [fp, #0]
ARM GAS  C:\Users\INCAS-~1\AppData\Local\Temp\ccSUVw5f.s 			page 18


 970 009a C4F2020A 		movt	sl, 16386
 971 009e C4F20209 		movt	r9, 16386
 972 00a2 C4F20208 		movt	r8, 16386
 973 00a6 C4F2020C 		movt	ip, 16386
 974 00aa C4F20207 		movt	r7, 16386
 975 00ae C4F20206 		movt	r6, 16386
 976              		.loc 1 426 0
 977 00b2 1860     		str	r0, [r3, #0]
 978              	.LVL49:
 979              		.loc 1 425 0
 980 00b4 CAF80000 		str	r0, [sl, #0]
 981              		.loc 1 426 0
 982 00b8 9860     		str	r0, [r3, #8]
 983              	.LVL50:
 984              		.loc 1 425 0
 985 00ba C9F80000 		str	r0, [r9, #0]
 986              		.loc 1 426 0
 987 00be 1861     		str	r0, [r3, #16]
 988              	.LVL51:
 989              		.loc 1 425 0
 990 00c0 C8F80000 		str	r0, [r8, #0]
 991              		.loc 1 426 0
 992 00c4 9861     		str	r0, [r3, #24]
 993              	.LVL52:
 994              		.loc 1 425 0
 995 00c6 CCF80000 		str	r0, [ip, #0]
 996              		.loc 1 426 0
 997 00ca 1862     		str	r0, [r3, #32]
 998              	.LVL53:
 999              		.loc 1 425 0
 1000 00cc 3860     		str	r0, [r7, #0]
 1001              		.loc 1 426 0
 1002 00ce 9862     		str	r0, [r3, #40]
 1003              	.LVL54:
 1004              		.loc 1 425 0
 1005 00d0 3060     		str	r0, [r6, #0]
 1006              		.loc 1 426 0
 1007 00d2 1863     		str	r0, [r3, #48]
 1008              	.LVL55:
 1009              		.loc 1 425 0
 1010 00d4 2860     		str	r0, [r5, #0]
 1011 00d6 049D     		ldr	r5, [sp, #16]
 1012              		.loc 1 426 0
 1013 00d8 9863     		str	r0, [r3, #56]
 1014              	.LVL56:
 1015              		.loc 1 425 0
 1016 00da 2860     		str	r0, [r5, #0]
 1017 00dc 059D     		ldr	r5, [sp, #20]
 1018              		.loc 1 426 0
 1019 00de 1864     		str	r0, [r3, #64]
 1020              	.LVL57:
 1021              		.loc 1 425 0
 1022 00e0 2860     		str	r0, [r5, #0]
 1023 00e2 069D     		ldr	r5, [sp, #24]
 1024              		.loc 1 426 0
 1025 00e4 9864     		str	r0, [r3, #72]
 1026              	.LVL58:
ARM GAS  C:\Users\INCAS-~1\AppData\Local\Temp\ccSUVw5f.s 			page 19


 1027              		.loc 1 425 0
 1028 00e6 2860     		str	r0, [r5, #0]
 1029 00e8 079D     		ldr	r5, [sp, #28]
 1030              		.loc 1 426 0
 1031 00ea 1865     		str	r0, [r3, #80]
 1032              	.LVL59:
 1033              		.loc 1 425 0
 1034 00ec 46F21044 		movw	r4, #25616
 1035 00f0 2860     		str	r0, [r5, #0]
 1036 00f2 6034     		adds	r4, r4, #96
 1037 00f4 019D     		ldr	r5, [sp, #4]
 1038              		.loc 1 426 0
 1039 00f6 9865     		str	r0, [r3, #88]
 1040              	.LVL60:
 1041              		.loc 1 425 0
 1042 00f8 3034     		adds	r4, r4, #48
 1043 00fa 2860     		str	r0, [r5, #0]
 1044 00fc C4F20204 		movt	r4, 16386
 1045 0100 089D     		ldr	r5, [sp, #32]
 1046              		.loc 1 426 0
 1047 0102 1866     		str	r0, [r3, #96]
 1048              	.LVL61:
 1049              		.loc 1 428 0
 1050 0104 4FF4C041 		mov	r1, #24576
 1051              		.loc 1 430 0
 1052 0108 4FF4C842 		mov	r2, #25600
 1053              		.loc 1 425 0
 1054 010c 2860     		str	r0, [r5, #0]
 1055              		.loc 1 428 0
 1056 010e C4F20201 		movt	r1, 16386
 1057              		.loc 1 426 0
 1058 0112 9866     		str	r0, [r3, #104]
 1059              	.LVL62:
 1060              		.loc 1 430 0
 1061 0114 C4F20202 		movt	r2, 16386
 1062              		.loc 1 425 0
 1063 0118 2060     		str	r0, [r4, #0]
 1064 011a 099C     		ldr	r4, [sp, #36]
 1065              		.loc 1 426 0
 1066 011c 1867     		str	r0, [r3, #112]
 1067              	.LVL63:
 1068              		.loc 1 428 0
 1069 011e 4FF0FF35 		mov	r5, #-1
 1070              		.loc 1 425 0
 1071 0122 2060     		str	r0, [r4, #0]
 1072              		.loc 1 426 0
 1073 0124 9867     		str	r0, [r3, #120]
 1074              	.LVL64:
 1075              		.loc 1 428 0
 1076 0126 8D60     		str	r5, [r1, #8]
 1077              		.loc 1 429 0
 1078 0128 CD60     		str	r5, [r1, #12]
 1079              		.loc 1 430 0
 1080 012a 9560     		str	r5, [r2, #8]
 1081              		.loc 1 431 0
 1082 012c D560     		str	r5, [r2, #12]
 1083              		.loc 1 432 0
ARM GAS  C:\Users\INCAS-~1\AppData\Local\Temp\ccSUVw5f.s 			page 20


 1084 012e 0AB0     		add	sp, sp, #40
 1085 0130 BDE8F00F 		pop	{r4, r5, r6, r7, r8, r9, sl, fp}
 1086 0134 7047     		bx	lr
 1087              		.cfi_endproc
 1088              	.LFE134:
 1089              		.size	dmaInit, .-dmaInit
 1090              		.section	.text.dmaStreamAllocate,"ax",%progbits
 1091              		.align	2
 1092              		.p2align 4,,15
 1093              		.global	dmaStreamAllocate
 1094              		.thumb
 1095              		.thumb_func
 1096              		.type	dmaStreamAllocate, %function
 1097              	dmaStreamAllocate:
 1098              	.LFB135:
 1099              		.loc 1 461 0
 1100              		.cfi_startproc
 1101              		@ args = 0, pretend = 0, frame = 0
 1102              		@ frame_needed = 0, uses_anonymous_args = 0
 1103              	.LVL65:
 1104 0000 2DE9F041 		push	{r4, r5, r6, r7, r8, lr}
 1105              	.LCFI18:
 1106              		.cfi_def_cfa_offset 24
 1107              		.cfi_offset 4, -24
 1108              		.cfi_offset 5, -20
 1109              		.cfi_offset 6, -16
 1110              		.cfi_offset 7, -12
 1111              		.cfi_offset 8, -8
 1112              		.cfi_offset 14, -4
 1113              		.loc 1 466 0
 1114 0004 244E     		ldr	r6, .L130
 1115 0006 447A     		ldrb	r4, [r0, #9]	@ zero_extendqisi2
 1116 0008 3768     		ldr	r7, [r6, #0]
 1117 000a 0125     		movs	r5, #1
 1118 000c 05FA04FC 		lsl	ip, r5, r4
 1119 0010 1CEA070F 		tst	ip, r7
 1120 0014 3AD1     		bne	.L120
 1121              		.loc 1 470 0
 1122 0016 214D     		ldr	r5, .L130+4
 1123              		.loc 1 472 0
 1124 0018 4CEA0707 		orr	r7, ip, r7
 1125              		.loc 1 471 0
 1126 001c 05EBC408 		add	r8, r5, r4, lsl #3
 1127              		.loc 1 475 0
 1128 0020 17F0FF0F 		tst	r7, #255
 1129              		.loc 1 470 0
 1130 0024 45F83420 		str	r2, [r5, r4, lsl #3]
 1131              		.loc 1 471 0
 1132 0028 C8F80430 		str	r3, [r8, #4]
 1133              		.loc 1 472 0
 1134 002c 3760     		str	r7, [r6, #0]
 1135              		.loc 1 475 0
 1136 002e 07D0     		beq	.L117
 1137              		.loc 1 476 0
 1138 0030 4FF46053 		mov	r3, #14336
 1139              	.LVL66:
 1140 0034 C4F20203 		movt	r3, 16386
ARM GAS  C:\Users\INCAS-~1\AppData\Local\Temp\ccSUVw5f.s 			page 21


 1141 0038 1C6B     		ldr	r4, [r3, #48]
 1142 003a 44F40016 		orr	r6, r4, #2097152
 1143 003e 1E63     		str	r6, [r3, #48]
 1144              	.L117:
 1145              		.loc 1 477 0
 1146 0040 17F47F4F 		tst	r7, #65280
 1147 0044 19D1     		bne	.L129
 1148              	.L118:
 1149              		.loc 1 481 0
 1150 0046 0468     		ldr	r4, [r0, #0]
 1151 0048 2668     		ldr	r6, [r4, #0]
 1152 004a 26F01F05 		bic	r5, r6, #31
 1153 004e 2560     		str	r5, [r4, #0]
 1154              	.L119:
 1155              		.loc 1 481 0 is_stmt 0 discriminator 1
 1156 0050 2768     		ldr	r7, [r4, #0]
 1157 0052 17F00105 		ands	r5, r7, #1
 1158 0056 FBD1     		bne	.L119
 1159              		.loc 1 481 0 discriminator 2
 1160 0058 067A     		ldrb	r6, [r0, #8]	@ zero_extendqisi2
 1161 005a 4368     		ldr	r3, [r0, #4]
 1162 005c 3D27     		movs	r7, #61
 1163 005e 07FA06F6 		lsl	r6, r7, r6
 1164 0062 1E60     		str	r6, [r3, #0]
 1165              		.loc 1 483 0 is_stmt 1 discriminator 2
 1166 0064 2123     		movs	r3, #33
 1167              		.loc 1 482 0 discriminator 2
 1168 0066 2560     		str	r5, [r4, #0]
 1169              		.loc 1 483 0 discriminator 2
 1170 0068 6361     		str	r3, [r4, #20]
 1171              		.loc 1 486 0 discriminator 2
 1172 006a 92B1     		cbz	r2, .L121
 1173              		.loc 1 487 0
 1174 006c 807A     		ldrb	r0, [r0, #10]	@ zero_extendqisi2
 1175              	.LVL67:
 1176 006e 0901     		lsls	r1, r1, #4
 1177              	.LVL68:
 1178 0070 FFF7FEFF 		bl	nvicEnableVector
 1179              	.LVL69:
 1180              		.loc 1 489 0
 1181 0074 2846     		mov	r0, r5
 1182 0076 BDE8F081 		pop	{r4, r5, r6, r7, r8, pc}
 1183              	.LVL70:
 1184              	.L129:
 1185              		.loc 1 478 0
 1186 007a 4FF46055 		mov	r5, #14336
 1187 007e C4F20205 		movt	r5, 16386
 1188 0082 2F6B     		ldr	r7, [r5, #48]
 1189 0084 47F48003 		orr	r3, r7, #4194304
 1190 0088 2B63     		str	r3, [r5, #48]
 1191 008a DCE7     		b	.L118
 1192              	.LVL71:
 1193              	.L120:
 1194              		.loc 1 467 0
 1195 008c 2846     		mov	r0, r5
 1196              	.LVL72:
 1197 008e BDE8F081 		pop	{r4, r5, r6, r7, r8, pc}
ARM GAS  C:\Users\INCAS-~1\AppData\Local\Temp\ccSUVw5f.s 			page 22


 1198              	.LVL73:
 1199              	.L121:
 1200              		.loc 1 489 0
 1201 0092 1046     		mov	r0, r2
 1202              	.LVL74:
 1203              		.loc 1 490 0
 1204 0094 BDE8F081 		pop	{r4, r5, r6, r7, r8, pc}
 1205              	.L131:
 1206              		.align	2
 1207              	.L130:
 1208 0098 00000000 		.word	.LANCHOR1
 1209 009c 00000000 		.word	.LANCHOR0
 1210              		.cfi_endproc
 1211              	.LFE135:
 1212              		.size	dmaStreamAllocate, .-dmaStreamAllocate
 1213              		.section	.text.dmaStreamRelease,"ax",%progbits
 1214              		.align	2
 1215              		.p2align 4,,15
 1216              		.global	dmaStreamRelease
 1217              		.thumb
 1218              		.thumb_func
 1219              		.type	dmaStreamRelease, %function
 1220              	dmaStreamRelease:
 1221              	.LFB136:
 1222              		.loc 1 505 0
 1223              		.cfi_startproc
 1224              		@ args = 0, pretend = 0, frame = 0
 1225              		@ frame_needed = 0, uses_anonymous_args = 0
 1226              	.LVL75:
 1227 0000 10B5     		push	{r4, lr}
 1228              	.LCFI19:
 1229              		.cfi_def_cfa_offset 8
 1230              		.cfi_offset 4, -8
 1231              		.cfi_offset 14, -4
 1232              		.loc 1 505 0
 1233 0002 0446     		mov	r4, r0
 1234              		.loc 1 514 0
 1235 0004 807A     		ldrb	r0, [r0, #10]	@ zero_extendqisi2
 1236              	.LVL76:
 1237 0006 FFF7FEFF 		bl	nvicDisableVector
 1238              	.LVL77:
 1239              		.loc 1 517 0
 1240 000a 104A     		ldr	r2, .L135
 1241 000c 637A     		ldrb	r3, [r4, #9]	@ zero_extendqisi2
 1242 000e 1168     		ldr	r1, [r2, #0]
 1243 0010 0120     		movs	r0, #1
 1244 0012 00FA03F3 		lsl	r3, r0, r3
 1245 0016 21EA0300 		bic	r0, r1, r3
 1246              		.loc 1 520 0
 1247 001a 10F0FF0F 		tst	r0, #255
 1248              		.loc 1 517 0
 1249 001e 1060     		str	r0, [r2, #0]
 1250              		.loc 1 520 0
 1251 0020 07D1     		bne	.L133
 1252              		.loc 1 521 0
 1253 0022 4FF46052 		mov	r2, #14336
 1254 0026 C4F20202 		movt	r2, 16386
ARM GAS  C:\Users\INCAS-~1\AppData\Local\Temp\ccSUVw5f.s 			page 23


 1255 002a 116B     		ldr	r1, [r2, #48]
 1256 002c 21F40013 		bic	r3, r1, #2097152
 1257 0030 1363     		str	r3, [r2, #48]
 1258              	.L133:
 1259              		.loc 1 522 0
 1260 0032 10F47F4F 		tst	r0, #65280
 1261 0036 07D1     		bne	.L132
 1262              		.loc 1 523 0
 1263 0038 4FF46050 		mov	r0, #14336
 1264 003c C4F20200 		movt	r0, 16386
 1265 0040 026B     		ldr	r2, [r0, #48]
 1266 0042 22F48001 		bic	r1, r2, #4194304
 1267 0046 0163     		str	r1, [r0, #48]
 1268              	.L132:
 1269 0048 10BD     		pop	{r4, pc}
 1270              	.L136:
 1271 004a 00BF     		.align	2
 1272              	.L135:
 1273 004c 00000000 		.word	.LANCHOR1
 1274              		.cfi_endproc
 1275              	.LFE136:
 1276              		.size	dmaStreamRelease, .-dmaStreamRelease
 1277              		.global	_stm32_dma_streams
 1278              		.section	.bss.dma_isr_redir,"aw",%nobits
 1279              		.align	2
 1280              		.set	.LANCHOR0,. + 0
 1281              		.type	dma_isr_redir, %object
 1282              		.size	dma_isr_redir, 128
 1283              	dma_isr_redir:
 1284 0000 00000000 		.space	128
 1284      00000000 
 1284      00000000 
 1284      00000000 
 1284      00000000 
 1285              		.section	.rodata._stm32_dma_streams,"a",%progbits
 1286              		.align	2
 1287              		.type	_stm32_dma_streams, %object
 1288              		.size	_stm32_dma_streams, 192
 1289              	_stm32_dma_streams:
 1290 0000 10600240 		.word	1073897488
 1291 0004 08600240 		.word	1073897480
 1292 0008 00       		.byte	0
 1293 0009 00       		.byte	0
 1294 000a 0B       		.byte	11
 1295 000b 00       		.space	1
 1296 000c 28600240 		.word	1073897512
 1297 0010 08600240 		.word	1073897480
 1298 0014 06       		.byte	6
 1299 0015 01       		.byte	1
 1300 0016 0C       		.byte	12
 1301 0017 00       		.space	1
 1302 0018 40600240 		.word	1073897536
 1303 001c 08600240 		.word	1073897480
 1304 0020 10       		.byte	16
 1305 0021 02       		.byte	2
 1306 0022 0D       		.byte	13
 1307 0023 00       		.space	1
ARM GAS  C:\Users\INCAS-~1\AppData\Local\Temp\ccSUVw5f.s 			page 24


 1308 0024 58600240 		.word	1073897560
 1309 0028 08600240 		.word	1073897480
 1310 002c 16       		.byte	22
 1311 002d 03       		.byte	3
 1312 002e 0E       		.byte	14
 1313 002f 00       		.space	1
 1314 0030 70600240 		.word	1073897584
 1315 0034 0C600240 		.word	1073897484
 1316 0038 00       		.byte	0
 1317 0039 04       		.byte	4
 1318 003a 0F       		.byte	15
 1319 003b 00       		.space	1
 1320 003c 88600240 		.word	1073897608
 1321 0040 0C600240 		.word	1073897484
 1322 0044 06       		.byte	6
 1323 0045 05       		.byte	5
 1324 0046 10       		.byte	16
 1325 0047 00       		.space	1
 1326 0048 A0600240 		.word	1073897632
 1327 004c 0C600240 		.word	1073897484
 1328 0050 10       		.byte	16
 1329 0051 06       		.byte	6
 1330 0052 11       		.byte	17
 1331 0053 00       		.space	1
 1332 0054 B8600240 		.word	1073897656
 1333 0058 0C600240 		.word	1073897484
 1334 005c 16       		.byte	22
 1335 005d 07       		.byte	7
 1336 005e 2F       		.byte	47
 1337 005f 00       		.space	1
 1338 0060 10640240 		.word	1073898512
 1339 0064 08640240 		.word	1073898504
 1340 0068 00       		.byte	0
 1341 0069 08       		.byte	8
 1342 006a 38       		.byte	56
 1343 006b 00       		.space	1
 1344 006c 28640240 		.word	1073898536
 1345 0070 08640240 		.word	1073898504
 1346 0074 06       		.byte	6
 1347 0075 09       		.byte	9
 1348 0076 39       		.byte	57
 1349 0077 00       		.space	1
 1350 0078 40640240 		.word	1073898560
 1351 007c 08640240 		.word	1073898504
 1352 0080 10       		.byte	16
 1353 0081 0A       		.byte	10
 1354 0082 3A       		.byte	58
 1355 0083 00       		.space	1
 1356 0084 58640240 		.word	1073898584
 1357 0088 08640240 		.word	1073898504
 1358 008c 16       		.byte	22
 1359 008d 0B       		.byte	11
 1360 008e 3B       		.byte	59
 1361 008f 00       		.space	1
 1362 0090 70640240 		.word	1073898608
 1363 0094 0C640240 		.word	1073898508
 1364 0098 00       		.byte	0
ARM GAS  C:\Users\INCAS-~1\AppData\Local\Temp\ccSUVw5f.s 			page 25


 1365 0099 0C       		.byte	12
 1366 009a 3C       		.byte	60
 1367 009b 00       		.space	1
 1368 009c 88640240 		.word	1073898632
 1369 00a0 0C640240 		.word	1073898508
 1370 00a4 06       		.byte	6
 1371 00a5 0D       		.byte	13
 1372 00a6 44       		.byte	68
 1373 00a7 00       		.space	1
 1374 00a8 A0640240 		.word	1073898656
 1375 00ac 0C640240 		.word	1073898508
 1376 00b0 10       		.byte	16
 1377 00b1 0E       		.byte	14
 1378 00b2 45       		.byte	69
 1379 00b3 00       		.space	1
 1380 00b4 B8640240 		.word	1073898680
 1381 00b8 0C640240 		.word	1073898508
 1382 00bc 16       		.byte	22
 1383 00bd 0F       		.byte	15
 1384 00be 46       		.byte	70
 1385 00bf 00       		.space	1
 1386              		.section	.bss.dma_streams_mask,"aw",%nobits
 1387              		.align	2
 1388              		.set	.LANCHOR1,. + 0
 1389              		.type	dma_streams_mask, %object
 1390              		.size	dma_streams_mask, 4
 1391              	dma_streams_mask:
 1392 0000 00000000 		.space	4
 1393              		.text
 1394              	.Letext0:
 1395              		.file 2 "c:\\chibistudio\\tools\\gnu tools arm embedded\\4.7 2013q1\\bin\\../lib/gcc/arm-none-eabi
 1396              		.file 3 "../../os/ports/GCC/ARMCMx/chtypes.h"
 1397              		.file 4 "../../os/hal/platforms/STM32F4xx/stm32f4xx.h"
 1398              		.file 5 "../../os/hal/platforms/STM32F4xx/stm32_dma.h"
 1399              		.file 6 "../../os/ports/common/ARMCMx/CMSIS/include/core_cm4.h"
 1400              		.file 7 "../../os/ports/GCC/ARMCMx/chcore_v7m.h"
 1401              		.file 8 "../../os/ports/common/ARMCMx/nvic.h"
