ARM GAS  C:\Users\INCAS-~1\AppData\Local\Temp\ccBEwnHv.s 			page 1


   1              		.syntax unified
   2              		.cpu cortex-m4
   3              		.fpu softvfp
   4              		.eabi_attribute 20, 1
   5              		.eabi_attribute 21, 1
   6              		.eabi_attribute 23, 3
   7              		.eabi_attribute 24, 1
   8              		.eabi_attribute 25, 1
   9              		.eabi_attribute 26, 1
  10              		.eabi_attribute 30, 2
  11              		.eabi_attribute 34, 1
  12              		.eabi_attribute 18, 4
  13              		.thumb
  14              		.file	"testsem.c"
  15              		.text
  16              	.Ltext0:
  17              		.cfi_sections	.debug_frame
  18              		.section	.text.sem3_setup,"ax",%progbits
  19              		.align	2
  20              		.p2align 4,,15
  21              		.thumb
  22              		.thumb_func
  23              		.type	sem3_setup, %function
  24              	sem3_setup:
  25              	.LFB13:
  26              		.file 1 "../../test/testsem.c"
  27              		.loc 1 204 0
  28              		.cfi_startproc
  29              		@ args = 0, pretend = 0, frame = 0
  30              		@ frame_needed = 0, uses_anonymous_args = 0
  31              		@ link register save eliminated.
  32              		.loc 1 206 0
  33 0000 40F20000 		movw	r0, #:lower16:.LANCHOR0
  34 0004 C0F20000 		movt	r0, #:upper16:.LANCHOR0
  35 0008 0021     		movs	r1, #0
  36              		.loc 1 207 0
  37              		.loc 1 206 0
  38 000a FFF7FEBF 		b	chSemInit
  39              	.LVL0:
  40              		.cfi_endproc
  41              	.LFE13:
  42              		.size	sem3_setup, .-sem3_setup
  43 000e 00BF     		.section	.text.sem2_setup,"ax",%progbits
  44              		.align	2
  45              		.p2align 4,,15
  46              		.thumb
  47              		.thumb_func
  48              		.type	sem2_setup, %function
  49              	sem2_setup:
  50              	.LFB10:
  51              		.loc 1 128 0
  52              		.cfi_startproc
  53              		@ args = 0, pretend = 0, frame = 0
  54              		@ frame_needed = 0, uses_anonymous_args = 0
  55              		@ link register save eliminated.
  56              		.loc 1 130 0
  57 0000 40F20000 		movw	r0, #:lower16:.LANCHOR0
ARM GAS  C:\Users\INCAS-~1\AppData\Local\Temp\ccBEwnHv.s 			page 2


  58 0004 C0F20000 		movt	r0, #:upper16:.LANCHOR0
  59 0008 0021     		movs	r1, #0
  60              		.loc 1 131 0
  61              		.loc 1 130 0
  62 000a FFF7FEBF 		b	chSemInit
  63              	.LVL1:
  64              		.cfi_endproc
  65              	.LFE10:
  66              		.size	sem2_setup, .-sem2_setup
  67 000e 00BF     		.section	.text.sem1_setup,"ax",%progbits
  68              		.align	2
  69              		.p2align 4,,15
  70              		.thumb
  71              		.thumb_func
  72              		.type	sem1_setup, %function
  73              	sem1_setup:
  74              	.LFB7:
  75              		.loc 1 72 0
  76              		.cfi_startproc
  77              		@ args = 0, pretend = 0, frame = 0
  78              		@ frame_needed = 0, uses_anonymous_args = 0
  79              		@ link register save eliminated.
  80              		.loc 1 74 0
  81 0000 40F20000 		movw	r0, #:lower16:.LANCHOR0
  82 0004 C0F20000 		movt	r0, #:upper16:.LANCHOR0
  83 0008 0021     		movs	r1, #0
  84              		.loc 1 75 0
  85              		.loc 1 74 0
  86 000a FFF7FEBF 		b	chSemInit
  87              	.LVL2:
  88              		.cfi_endproc
  89              	.LFE7:
  90              		.size	sem1_setup, .-sem1_setup
  91 000e 00BF     		.section	.text.sem4_execute,"ax",%progbits
  92              		.align	2
  93              		.p2align 4,,15
  94              		.thumb
  95              		.thumb_func
  96              		.type	sem4_execute, %function
  97              	sem4_execute:
  98              	.LFB17:
  99              		.loc 1 251 0
 100              		.cfi_startproc
 101              		@ args = 0, pretend = 0, frame = 16
 102              		@ frame_needed = 0, uses_anonymous_args = 0
 103 0000 00B5     		push	{lr}
 104              	.LCFI0:
 105              		.cfi_def_cfa_offset 4
 106              		.cfi_offset 14, -4
 107 0002 87B0     		sub	sp, sp, #28
 108              	.LCFI1:
 109              		.cfi_def_cfa_offset 32
 110              		.loc 1 255 0
 111 0004 0021     		movs	r1, #0
 112 0006 03A8     		add	r0, sp, #12
 113 0008 FFF7FEFF 		bl	chSemInit
 114              	.LVL3:
ARM GAS  C:\Users\INCAS-~1\AppData\Local\Temp\ccBEwnHv.s 			page 3


 115              		.loc 1 256 0
 116 000c 0021     		movs	r1, #0
 117 000e 03A8     		add	r0, sp, #12
 118 0010 FFF7FEFF 		bl	chSemReset
 119              	.LVL4:
 120              		.loc 1 257 0
 121 0014 0599     		ldr	r1, [sp, #20]
 122 0016 0120     		movs	r0, #1
 123 0018 0029     		cmp	r1, #0
 124 001a CCBF     		ite	gt
 125 001c 0021     		movgt	r1, #0
 126 001e 0121     		movle	r1, #1
 127 0020 FFF7FEFF 		bl	_test_assert
 128              	.LVL5:
 129 0024 08B1     		cbz	r0, .L10
 130              	.L4:
 131              		.loc 1 279 0
 132 0026 07B0     		add	sp, sp, #28
 133 0028 00BD     		pop	{pc}
 134              	.L10:
 135              		.loc 1 261 0
 136 002a 304B     		ldr	r3, .L13
 137 002c 9869     		ldr	r0, [r3, #24]
 138              		.loc 1 260 0
 139 002e 304B     		ldr	r3, .L13+4
 140 0030 8268     		ldr	r2, [r0, #8]
 141 0032 3048     		ldr	r0, .L13+8
 142 0034 03A9     		add	r1, sp, #12
 143 0036 013A     		subs	r2, r2, #1
 144 0038 0091     		str	r1, [sp, #0]
 145 003a 0068     		ldr	r0, [r0, #0]
 146 003c 4FF49871 		mov	r1, #304
 147 0040 FFF7FEFF 		bl	chThdCreateStatic
 148              	.LVL6:
 149 0044 2C4B     		ldr	r3, .L13+12
 150 0046 1860     		str	r0, [r3, #0]
 151              		.loc 1 264 0
 152 0048 03A8     		add	r0, sp, #12
 153 004a FFF7FEFF 		bl	chSemWait
 154              	.LVL7:
 155              		.loc 1 267 0
 156 004e 0599     		ldr	r1, [sp, #20]
 157 0050 0220     		movs	r0, #2
 158 0052 0029     		cmp	r1, #0
 159 0054 CCBF     		ite	gt
 160 0056 0021     		movgt	r1, #0
 161 0058 0121     		movle	r1, #1
 162 005a FFF7FEFF 		bl	_test_assert
 163              	.LVL8:
 164 005e 0028     		cmp	r0, #0
 165 0060 E1D1     		bne	.L4
 166              	.LBB2:
 167              		.loc 1 271 0
 168 0062 2023     		movs	r3, #32
 169              	.LVL9:
 170              	@ 271 "../../test/testsem.c" 1
 171 0064 83F31188 		msr     BASEPRI, r3
ARM GAS  C:\Users\INCAS-~1\AppData\Local\Temp\ccBEwnHv.s 			page 4


 172              	@ 0 "" 2
 173              	.LVL10:
 174              		.thumb
 175              	.LBE2:
 176 0068 059A     		ldr	r2, [sp, #20]
 177 006a 002A     		cmp	r2, #0
 178 006c 36DD     		ble	.L11
 179              	.L6:
 180              		.loc 1 271 0 is_stmt 0 discriminator 2
 181 006e FFF7FEFF 		bl	chSchRescheduleS
 182              	.LVL11:
 183              	.LBB3:
 184 0072 0023     		movs	r3, #0
 185              	.LVL12:
 186              	@ 271 "../../test/testsem.c" 1
 187 0074 83F31188 		msr     BASEPRI, r3
 188              	@ 0 "" 2
 189              	.LVL13:
 190              		.thumb
 191              	.LBE3:
 192              		.loc 1 272 0 is_stmt 1 discriminator 2
 193 0078 0599     		ldr	r1, [sp, #20]
 194 007a 0320     		movs	r0, #3
 195 007c 9942     		cmp	r1, r3
 196              	.LVL14:
 197 007e D4BF     		ite	le
 198 0080 0021     		movle	r1, #0
 199 0082 0121     		movgt	r1, #1
 200 0084 FFF7FEFF 		bl	_test_assert
 201              	.LVL15:
 202 0088 0028     		cmp	r0, #0
 203 008a CCD1     		bne	.L4
 204              		.loc 1 273 0
 205 008c 0599     		ldr	r1, [sp, #20]
 206 008e 0420     		movs	r0, #4
 207 0090 4B1E     		subs	r3, r1, #1
 208 0092 5A42     		rsbs	r2, r3, #0
 209 0094 52EB0301 		adcs	r1, r2, r3
 210 0098 FFF7FEFF 		bl	_test_assert
 211              	.LVL16:
 212 009c 0028     		cmp	r0, #0
 213 009e C2D1     		bne	.L4
 214              	.LBB4:
 215              		.loc 1 276 0
 216 00a0 2023     		movs	r3, #32
 217              	.LVL17:
 218              	@ 276 "../../test/testsem.c" 1
 219 00a2 83F31188 		msr     BASEPRI, r3
 220              	@ 0 "" 2
 221              	.LVL18:
 222              		.thumb
 223              	.LBE4:
 224 00a6 0598     		ldr	r0, [sp, #20]
 225 00a8 0028     		cmp	r0, #0
 226 00aa 1BDD     		ble	.L12
 227              	.L7:
 228              		.loc 1 276 0 is_stmt 0 discriminator 2
ARM GAS  C:\Users\INCAS-~1\AppData\Local\Temp\ccBEwnHv.s 			page 5


 229 00ac FFF7FEFF 		bl	chSchRescheduleS
 230              	.LVL19:
 231              	.LBB5:
 232 00b0 0023     		movs	r3, #0
 233              	.LVL20:
 234              	@ 276 "../../test/testsem.c" 1
 235 00b2 83F31188 		msr     BASEPRI, r3
 236              	@ 0 "" 2
 237              	.LVL21:
 238              		.thumb
 239              	.LBE5:
 240              		.loc 1 277 0 is_stmt 1 discriminator 2
 241 00b6 0599     		ldr	r1, [sp, #20]
 242 00b8 0320     		movs	r0, #3
 243 00ba 9942     		cmp	r1, r3
 244              	.LVL22:
 245 00bc D4BF     		ite	le
 246 00be 0021     		movle	r1, #0
 247 00c0 0121     		movgt	r1, #1
 248 00c2 FFF7FEFF 		bl	_test_assert
 249              	.LVL23:
 250 00c6 0028     		cmp	r0, #0
 251 00c8 ADD1     		bne	.L4
 252              		.loc 1 278 0
 253 00ca 0599     		ldr	r1, [sp, #20]
 254 00cc 0520     		movs	r0, #5
 255 00ce 4B1E     		subs	r3, r1, #1
 256 00d0 5A42     		rsbs	r2, r3, #0
 257 00d2 52EB0301 		adcs	r1, r2, r3
 258 00d6 FFF7FEFF 		bl	_test_assert
 259              	.LVL24:
 260 00da A4E7     		b	.L4
 261              	.LVL25:
 262              	.L11:
 263              		.loc 1 271 0 discriminator 1
 264 00dc 03A8     		add	r0, sp, #12
 265 00de FFF7FEFF 		bl	chSemSignalI
 266              	.LVL26:
 267 00e2 C4E7     		b	.L6
 268              	.LVL27:
 269              	.L12:
 270              		.loc 1 276 0 discriminator 1
 271 00e4 03A8     		add	r0, sp, #12
 272 00e6 FFF7FEFF 		bl	chSemSignalI
 273              	.LVL28:
 274 00ea DFE7     		b	.L7
 275              	.L14:
 276              		.align	2
 277              	.L13:
 278 00ec 00000000 		.word	rlist
 279 00f0 00000000 		.word	thread4
 280 00f4 00000000 		.word	wa
 281 00f8 00000000 		.word	threads
 282              		.cfi_endproc
 283              	.LFE17:
 284              		.size	sem4_execute, .-sem4_execute
 285 00fc AFF30080 		.section	.text.thread4,"ax",%progbits
ARM GAS  C:\Users\INCAS-~1\AppData\Local\Temp\ccBEwnHv.s 			page 6


 286              		.align	2
 287              		.p2align 4,,15
 288              		.thumb
 289              		.thumb_func
 290              		.type	thread4, %function
 291              	thread4:
 292              	.LFB16:
 293              		.loc 1 245 0
 294              		.cfi_startproc
 295              		@ args = 0, pretend = 0, frame = 0
 296              		@ frame_needed = 0, uses_anonymous_args = 0
 297              	.LVL29:
 298 0000 08B5     		push	{r3, lr}
 299              	.LCFI2:
 300              		.cfi_def_cfa_offset 8
 301              		.cfi_offset 3, -8
 302              		.cfi_offset 14, -4
 303              	.LBB6:
 304              		.loc 1 247 0
 305 0002 2023     		movs	r3, #32
 306              	.LVL30:
 307              	@ 247 "../../test/testsem.c" 1
 308 0004 83F31188 		msr     BASEPRI, r3
 309              	@ 0 "" 2
 310              	.LVL31:
 311              		.thumb
 312              	.LBE6:
 313 0008 8368     		ldr	r3, [r0, #8]
 314              	.LVL32:
 315 000a 002B     		cmp	r3, #0
 316 000c 06DD     		ble	.L17
 317              	.LVL33:
 318              	.L16:
 319              		.loc 1 247 0 is_stmt 0 discriminator 2
 320 000e FFF7FEFF 		bl	chSchRescheduleS
 321              	.LVL34:
 322              	.LBB7:
 323 0012 0023     		movs	r3, #0
 324              	.LVL35:
 325              	@ 247 "../../test/testsem.c" 1
 326 0014 83F31188 		msr     BASEPRI, r3
 327              	@ 0 "" 2
 328              	.LVL36:
 329              		.thumb
 330              	.LBE7:
 331              		.loc 1 249 0 is_stmt 1 discriminator 2
 332 0018 1846     		mov	r0, r3
 333 001a 08BD     		pop	{r3, pc}
 334              	.LVL37:
 335              	.L17:
 336              		.loc 1 247 0 discriminator 1
 337 001c FFF7FEFF 		bl	chSemSignalI
 338              	.LVL38:
 339 0020 F5E7     		b	.L16
 340              		.cfi_endproc
 341              	.LFE16:
 342              		.size	thread4, .-thread4
ARM GAS  C:\Users\INCAS-~1\AppData\Local\Temp\ccBEwnHv.s 			page 7


 343 0022 00BFAFF3 		.section	.text.thread3,"ax",%progbits
 343      0080AFF3 
 343      0080AFF3 
 343      0080
 344              		.align	2
 345              		.p2align 4,,15
 346              		.thumb
 347              		.thumb_func
 348              		.type	thread3, %function
 349              	thread3:
 350              	.LFB14:
 351              		.loc 1 209 0
 352              		.cfi_startproc
 353              		@ args = 0, pretend = 0, frame = 0
 354              		@ frame_needed = 0, uses_anonymous_args = 0
 355              	.LVL39:
 356 0000 10B5     		push	{r4, lr}
 357              	.LCFI3:
 358              		.cfi_def_cfa_offset 8
 359              		.cfi_offset 4, -8
 360              		.cfi_offset 14, -4
 361              		.loc 1 212 0
 362 0002 40F20004 		movw	r4, #:lower16:.LANCHOR0
 363 0006 C0F20004 		movt	r4, #:upper16:.LANCHOR0
 364 000a 2046     		mov	r0, r4
 365              	.LVL40:
 366 000c FFF7FEFF 		bl	chSemWait
 367              	.LVL41:
 368              		.loc 1 213 0
 369 0010 2046     		mov	r0, r4
 370 0012 FFF7FEFF 		bl	chSemSignal
 371              	.LVL42:
 372              		.loc 1 215 0
 373 0016 0020     		movs	r0, #0
 374 0018 10BD     		pop	{r4, pc}
 375              		.cfi_endproc
 376              	.LFE14:
 377              		.size	thread3, .-thread3
 378 001a 00BFAFF3 		.section	.text.thread1,"ax",%progbits
 378      0080
 379              		.align	2
 380              		.p2align 4,,15
 381              		.thumb
 382              		.thumb_func
 383              		.type	thread1, %function
 384              	thread1:
 385              	.LFB8:
 386              		.loc 1 77 0
 387              		.cfi_startproc
 388              		@ args = 0, pretend = 0, frame = 0
 389              		@ frame_needed = 0, uses_anonymous_args = 0
 390              	.LVL43:
 391 0000 10B5     		push	{r4, lr}
 392              	.LCFI4:
 393              		.cfi_def_cfa_offset 8
 394              		.cfi_offset 4, -8
 395              		.cfi_offset 14, -4
ARM GAS  C:\Users\INCAS-~1\AppData\Local\Temp\ccBEwnHv.s 			page 8


 396              		.loc 1 77 0
 397 0002 0446     		mov	r4, r0
 398              		.loc 1 79 0
 399 0004 40F20000 		movw	r0, #:lower16:.LANCHOR0
 400              	.LVL44:
 401 0008 C0F20000 		movt	r0, #:upper16:.LANCHOR0
 402 000c FFF7FEFF 		bl	chSemWait
 403              	.LVL45:
 404              		.loc 1 80 0
 405 0010 2078     		ldrb	r0, [r4, #0]	@ zero_extendqisi2
 406 0012 FFF7FEFF 		bl	test_emit_token
 407              	.LVL46:
 408              		.loc 1 82 0
 409 0016 0020     		movs	r0, #0
 410 0018 10BD     		pop	{r4, pc}
 411              		.cfi_endproc
 412              	.LFE8:
 413              		.size	thread1, .-thread1
 414 001a 00BFAFF3 		.section	.text.thread2,"ax",%progbits
 414      0080
 415              		.align	2
 416              		.p2align 4,,15
 417              		.thumb
 418              		.thumb_func
 419              		.type	thread2, %function
 420              	thread2:
 421              	.LFB11:
 422              		.loc 1 133 0
 423              		.cfi_startproc
 424              		@ args = 0, pretend = 0, frame = 0
 425              		@ frame_needed = 0, uses_anonymous_args = 0
 426              	.LVL47:
 427 0000 08B5     		push	{r3, lr}
 428              	.LCFI5:
 429              		.cfi_def_cfa_offset 8
 430              		.cfi_offset 3, -8
 431              		.cfi_offset 14, -4
 432              		.loc 1 136 0
 433 0002 3220     		movs	r0, #50
 434              	.LVL48:
 435 0004 FFF7FEFF 		bl	chThdSleep
 436              	.LVL49:
 437              	.LBB8:
 438              		.loc 1 137 0
 439 0008 2023     		movs	r3, #32
 440              	.LVL50:
 441              	@ 137 "../../test/testsem.c" 1
 442 000a 83F31188 		msr     BASEPRI, r3
 443              	@ 0 "" 2
 444              	.LVL51:
 445              		.thumb
 446              	.LBE8:
 447              		.loc 1 138 0
 448 000e 40F20000 		movw	r0, #:lower16:.LANCHOR0
 449 0012 C0F20000 		movt	r0, #:upper16:.LANCHOR0
 450 0016 FFF7FEFF 		bl	chSemSignalI
 451              	.LVL52:
ARM GAS  C:\Users\INCAS-~1\AppData\Local\Temp\ccBEwnHv.s 			page 9


 452              		.loc 1 139 0
 453 001a FFF7FEFF 		bl	chSchRescheduleS
 454              	.LVL53:
 455              	.LBB9:
 456              		.loc 1 140 0
 457 001e 0023     		movs	r3, #0
 458              	.LVL54:
 459              	@ 140 "../../test/testsem.c" 1
 460 0020 83F31188 		msr     BASEPRI, r3
 461              	@ 0 "" 2
 462              	.LVL55:
 463              		.thumb
 464              	.LBE9:
 465              		.loc 1 142 0
 466 0024 1846     		mov	r0, r3
 467 0026 08BD     		pop	{r3, pc}
 468              		.cfi_endproc
 469              	.LFE11:
 470              		.size	thread2, .-thread2
 471 0028 AFF30080 		.section	.text.sem1_execute,"ax",%progbits
 471      AFF30080 
 472              		.align	2
 473              		.p2align 4,,15
 474              		.thumb
 475              		.thumb_func
 476              		.type	sem1_execute, %function
 477              	sem1_execute:
 478              	.LFB9:
 479              		.loc 1 84 0
 480              		.cfi_startproc
 481              		@ args = 0, pretend = 0, frame = 8
 482              		@ frame_needed = 0, uses_anonymous_args = 0
 483 0000 2DE9F043 		push	{r4, r5, r6, r7, r8, r9, lr}
 484              	.LCFI6:
 485              		.cfi_def_cfa_offset 28
 486              		.cfi_offset 4, -28
 487              		.cfi_offset 5, -24
 488              		.cfi_offset 6, -20
 489              		.cfi_offset 7, -16
 490              		.cfi_offset 8, -12
 491              		.cfi_offset 9, -8
 492              		.cfi_offset 14, -4
 493              		.loc 1 86 0
 494 0004 DFF84081 		ldr	r8, .L24+40
 495 0008 454C     		ldr	r4, .L24
 496 000a D8F81830 		ldr	r3, [r8, #24]
 497 000e 2668     		ldr	r6, [r4, #0]
 498 0010 9A68     		ldr	r2, [r3, #8]
 499 0012 444F     		ldr	r7, .L24+4
 500 0014 444B     		ldr	r3, .L24+8
 501 0016 454D     		ldr	r5, .L24+12
 502              		.loc 1 84 0
 503 0018 85B0     		sub	sp, sp, #20
 504              	.LCFI7:
 505              		.cfi_def_cfa_offset 48
 506              		.loc 1 86 0
 507 001a 4FF49871 		mov	r1, #304
ARM GAS  C:\Users\INCAS-~1\AppData\Local\Temp\ccBEwnHv.s 			page 10


 508 001e 0532     		adds	r2, r2, #5
 509 0020 0097     		str	r7, [sp, #0]
 510 0022 3046     		mov	r0, r6
 511 0024 FFF7FEFF 		bl	chThdCreateStatic
 512              	.LVL56:
 513              		.loc 1 87 0
 514 0028 D8F81810 		ldr	r1, [r8, #24]
 515 002c 6368     		ldr	r3, [r4, #4]
 516 002e 8A68     		ldr	r2, [r1, #8]
 517              		.loc 1 86 0
 518 0030 2860     		str	r0, [r5, #0]
 519              		.loc 1 87 0
 520 0032 3F48     		ldr	r0, .L24+16
 521 0034 0393     		str	r3, [sp, #12]
 522 0036 4FF49871 		mov	r1, #304
 523 003a 0132     		adds	r2, r2, #1
 524 003c 3A4B     		ldr	r3, .L24+8
 525 003e 0090     		str	r0, [sp, #0]
 526 0040 0398     		ldr	r0, [sp, #12]
 527 0042 FFF7FEFF 		bl	chThdCreateStatic
 528              	.LVL57:
 529              		.loc 1 88 0
 530 0046 D8F81810 		ldr	r1, [r8, #24]
 531 004a A268     		ldr	r2, [r4, #8]
 532 004c 8B68     		ldr	r3, [r1, #8]
 533              		.loc 1 87 0
 534 004e 6860     		str	r0, [r5, #4]
 535              		.loc 1 88 0
 536 0050 3848     		ldr	r0, .L24+20
 537 0052 0392     		str	r2, [sp, #12]
 538 0054 4FF49871 		mov	r1, #304
 539 0058 DA1C     		adds	r2, r3, #3
 540 005a 0090     		str	r0, [sp, #0]
 541 005c 324B     		ldr	r3, .L24+8
 542 005e 0398     		ldr	r0, [sp, #12]
 543 0060 FFF7FEFF 		bl	chThdCreateStatic
 544              	.LVL58:
 545              		.loc 1 89 0
 546 0064 D8F81810 		ldr	r1, [r8, #24]
 547 0068 E268     		ldr	r2, [r4, #12]
 548 006a 8B68     		ldr	r3, [r1, #8]
 549              		.loc 1 88 0
 550 006c A860     		str	r0, [r5, #8]
 551              		.loc 1 89 0
 552 006e 3248     		ldr	r0, .L24+24
 553 0070 0392     		str	r2, [sp, #12]
 554 0072 4FF49871 		mov	r1, #304
 555 0076 1A1D     		adds	r2, r3, #4
 556 0078 0090     		str	r0, [sp, #0]
 557 007a 2B4B     		ldr	r3, .L24+8
 558 007c 0398     		ldr	r0, [sp, #12]
 559 007e FFF7FEFF 		bl	chThdCreateStatic
 560              	.LVL59:
 561              		.loc 1 90 0
 562 0082 D8F81810 		ldr	r1, [r8, #24]
 563 0086 2469     		ldr	r4, [r4, #16]
 564 0088 8A68     		ldr	r2, [r1, #8]
ARM GAS  C:\Users\INCAS-~1\AppData\Local\Temp\ccBEwnHv.s 			page 11


 565              		.loc 1 89 0
 566 008a E860     		str	r0, [r5, #12]
 567              		.loc 1 90 0
 568 008c 2B48     		ldr	r0, .L24+28
 569 008e 264B     		ldr	r3, .L24+8
 570 0090 0090     		str	r0, [sp, #0]
 571 0092 4FF49871 		mov	r1, #304
 572 0096 0232     		adds	r2, r2, #2
 573 0098 2046     		mov	r0, r4
 574 009a FFF7FEFF 		bl	chThdCreateStatic
 575              	.LVL60:
 576              		.loc 1 91 0
 577 009e 284C     		ldr	r4, .L24+32
 578              		.loc 1 90 0
 579 00a0 2861     		str	r0, [r5, #16]
 580              		.loc 1 91 0
 581 00a2 2046     		mov	r0, r4
 582 00a4 FFF7FEFF 		bl	chSemSignal
 583              	.LVL61:
 584              		.loc 1 92 0
 585 00a8 2046     		mov	r0, r4
 586 00aa FFF7FEFF 		bl	chSemSignal
 587              	.LVL62:
 588              		.loc 1 93 0
 589 00ae 2046     		mov	r0, r4
 590 00b0 FFF7FEFF 		bl	chSemSignal
 591              	.LVL63:
 592              		.loc 1 94 0
 593 00b4 2046     		mov	r0, r4
 594 00b6 FFF7FEFF 		bl	chSemSignal
 595              	.LVL64:
 596              		.loc 1 95 0
 597 00ba 2046     		mov	r0, r4
 598 00bc FFF7FEFF 		bl	chSemSignal
 599              	.LVL65:
 600              		.loc 1 96 0
 601 00c0 FFF7FEFF 		bl	test_wait_threads
 602              	.LVL66:
 603              		.loc 1 100 0
 604 00c4 0120     		movs	r0, #1
 605 00c6 1F49     		ldr	r1, .L24+36
 606 00c8 FFF7FEFF 		bl	_test_assert_sequence
 607              	.LVL67:
 608 00cc 8146     		mov	r9, r0
 609 00ce 10B1     		cbz	r0, .L23
 610              		.loc 1 108 0
 611 00d0 05B0     		add	sp, sp, #20
 612 00d2 BDE8F083 		pop	{r4, r5, r6, r7, r8, r9, pc}
 613              	.L23:
 614              		.loc 1 102 0
 615 00d6 D8F81810 		ldr	r1, [r8, #24]
 616 00da 134B     		ldr	r3, .L24+8
 617 00dc 8A68     		ldr	r2, [r1, #8]
 618 00de 0097     		str	r7, [sp, #0]
 619 00e0 3046     		mov	r0, r6
 620 00e2 4FF49871 		mov	r1, #304
 621 00e6 0532     		adds	r2, r2, #5
ARM GAS  C:\Users\INCAS-~1\AppData\Local\Temp\ccBEwnHv.s 			page 12


 622 00e8 FFF7FEFF 		bl	chThdCreateStatic
 623              	.LVL68:
 624              	.LBB10:
 625              		.loc 1 103 0
 626 00ec 2023     		movs	r3, #32
 627              	.LVL69:
 628              	.LBE10:
 629              		.loc 1 102 0
 630 00ee 2860     		str	r0, [r5, #0]
 631              	.LBB11:
 632              		.loc 1 103 0
 633              	@ 103 "../../test/testsem.c" 1
 634 00f0 83F31188 		msr     BASEPRI, r3
 635              	@ 0 "" 2
 636              	.LVL70:
 637              		.thumb
 638              	.LBE11:
 639              		.loc 1 104 0
 640 00f4 0221     		movs	r1, #2
 641 00f6 2046     		mov	r0, r4
 642 00f8 FFF7FEFF 		bl	chSemAddCounterI
 643              	.LVL71:
 644              	.LBB12:
 645              		.loc 1 105 0
 646 00fc 4B46     		mov	r3, r9
 647              	.LVL72:
 648              	@ 105 "../../test/testsem.c" 1
 649 00fe 83F31188 		msr     BASEPRI, r3
 650              	@ 0 "" 2
 651              	.LVL73:
 652              		.thumb
 653              	.LBE12:
 654              		.loc 1 106 0
 655 0102 FFF7FEFF 		bl	test_wait_threads
 656              	.LVL74:
 657              		.loc 1 107 0
 658 0106 A368     		ldr	r3, [r4, #8]
 659 0108 0220     		movs	r0, #2
 660 010a B3F1010E 		subs	lr, r3, #1
 661 010e DEF10001 		rsbs	r1, lr, #0
 662 0112 51EB0E01 		adcs	r1, r1, lr
 663              		.loc 1 108 0
 664 0116 05B0     		add	sp, sp, #20
 665 0118 BDE8F043 		pop	{r4, r5, r6, r7, r8, r9, lr}
 666              		.loc 1 107 0
 667 011c FFF7FEBF 		b	_test_assert
 668              	.LVL75:
 669              	.L25:
 670              		.align	2
 671              	.L24:
 672 0120 00000000 		.word	wa
 673 0124 00000000 		.word	.LC0
 674 0128 00000000 		.word	thread1
 675 012c 00000000 		.word	threads
 676 0130 04000000 		.word	.LC1
 677 0134 08000000 		.word	.LC2
 678 0138 0C000000 		.word	.LC3
ARM GAS  C:\Users\INCAS-~1\AppData\Local\Temp\ccBEwnHv.s 			page 13


 679 013c 10000000 		.word	.LC4
 680 0140 00000000 		.word	.LANCHOR0
 681 0144 14000000 		.word	.LC5
 682 0148 00000000 		.word	rlist
 683              		.cfi_endproc
 684              	.LFE9:
 685              		.size	sem1_execute, .-sem1_execute
 686 014c AFF30080 		.section	.text.sem3_execute,"ax",%progbits
 687              		.align	2
 688              		.p2align 4,,15
 689              		.thumb
 690              		.thumb_func
 691              		.type	sem3_execute, %function
 692              	sem3_execute:
 693              	.LFB15:
 694              		.loc 1 217 0
 695              		.cfi_startproc
 696              		@ args = 0, pretend = 0, frame = 0
 697              		@ frame_needed = 0, uses_anonymous_args = 0
 698 0000 10B5     		push	{r4, lr}
 699              	.LCFI8:
 700              		.cfi_def_cfa_offset 8
 701              		.cfi_offset 4, -8
 702              		.cfi_offset 14, -4
 703              		.loc 1 219 0
 704 0002 224B     		ldr	r3, .L31
 705              		.loc 1 220 0
 706 0004 224C     		ldr	r4, .L31+4
 707              		.loc 1 219 0
 708 0006 9869     		ldr	r0, [r3, #24]
 709 0008 224B     		ldr	r3, .L31+8
 710 000a 8268     		ldr	r2, [r0, #8]
 711              		.loc 1 217 0
 712 000c 82B0     		sub	sp, sp, #8
 713              	.LCFI9:
 714              		.cfi_def_cfa_offset 16
 715              		.loc 1 219 0
 716 000e 0020     		movs	r0, #0
 717 0010 0090     		str	r0, [sp, #0]
 718 0012 2148     		ldr	r0, .L31+12
 719 0014 0132     		adds	r2, r2, #1
 720 0016 4FF49871 		mov	r1, #304
 721 001a 0068     		ldr	r0, [r0, #0]
 722 001c FFF7FEFF 		bl	chThdCreateStatic
 723              	.LVL76:
 724 0020 1E4B     		ldr	r3, .L31+16
 725              		.loc 1 220 0
 726 0022 2146     		mov	r1, r4
 727              		.loc 1 219 0
 728 0024 1860     		str	r0, [r3, #0]
 729              		.loc 1 220 0
 730 0026 2046     		mov	r0, r4
 731 0028 FFF7FEFF 		bl	chSemSignalWait
 732              	.LVL77:
 733              		.loc 1 221 0
 734 002c 2168     		ldr	r1, [r4, #0]
 735 002e 0120     		movs	r0, #1
ARM GAS  C:\Users\INCAS-~1\AppData\Local\Temp\ccBEwnHv.s 			page 14


 736 0030 0A1B     		subs	r2, r1, r4
 737 0032 5342     		rsbs	r3, r2, #0
 738 0034 53EB0201 		adcs	r1, r3, r2
 739 0038 FFF7FEFF 		bl	_test_assert
 740              	.LVL78:
 741 003c 08B1     		cbz	r0, .L30
 742              	.L26:
 743              		.loc 1 227 0
 744 003e 02B0     		add	sp, sp, #8
 745 0040 10BD     		pop	{r4, pc}
 746              	.L30:
 747              		.loc 1 222 0
 748 0042 A168     		ldr	r1, [r4, #8]
 749 0044 0220     		movs	r0, #2
 750 0046 D1F10101 		rsbs	r1, r1, #1
 751 004a 38BF     		it	cc
 752 004c 0021     		movcc	r1, #0
 753 004e FFF7FEFF 		bl	_test_assert
 754              	.LVL79:
 755 0052 0028     		cmp	r0, #0
 756 0054 F3D1     		bne	.L26
 757              	.LBB15:
 758              	.LBB16:
 759              		.loc 1 224 0
 760 0056 2146     		mov	r1, r4
 761 0058 2046     		mov	r0, r4
 762 005a FFF7FEFF 		bl	chSemSignalWait
 763              	.LVL80:
 764              		.loc 1 225 0
 765 005e 2268     		ldr	r2, [r4, #0]
 766 0060 0320     		movs	r0, #3
 767 0062 B2EB040C 		subs	ip, r2, r4
 768 0066 DCF10003 		rsbs	r3, ip, #0
 769 006a 53EB0C01 		adcs	r1, r3, ip
 770 006e FFF7FEFF 		bl	_test_assert
 771              	.LVL81:
 772 0072 0028     		cmp	r0, #0
 773 0074 E3D1     		bne	.L26
 774              		.loc 1 226 0
 775 0076 A168     		ldr	r1, [r4, #8]
 776 0078 0420     		movs	r0, #4
 777 007a D1F10101 		rsbs	r1, r1, #1
 778 007e 38BF     		it	cc
 779 0080 0021     		movcc	r1, #0
 780              	.LBE16:
 781              	.LBE15:
 782              		.loc 1 227 0
 783 0082 02B0     		add	sp, sp, #8
 784 0084 BDE81040 		pop	{r4, lr}
 785              	.LBB18:
 786              	.LBB17:
 787              		.loc 1 226 0
 788 0088 FFF7FEBF 		b	_test_assert
 789              	.LVL82:
 790              	.L32:
 791              		.align	2
 792              	.L31:
ARM GAS  C:\Users\INCAS-~1\AppData\Local\Temp\ccBEwnHv.s 			page 15


 793 008c 00000000 		.word	rlist
 794 0090 00000000 		.word	.LANCHOR0
 795 0094 00000000 		.word	thread3
 796 0098 00000000 		.word	wa
 797 009c 00000000 		.word	threads
 798              	.LBE17:
 799              	.LBE18:
 800              		.cfi_endproc
 801              	.LFE15:
 802              		.size	sem3_execute, .-sem3_execute
 803              		.section	.text.sem2_execute,"ax",%progbits
 804              		.align	2
 805              		.p2align 4,,15
 806              		.thumb
 807              		.thumb_func
 808              		.type	sem2_execute, %function
 809              	sem2_execute:
 810              	.LFB12:
 811              		.loc 1 144 0
 812              		.cfi_startproc
 813              		@ args = 0, pretend = 0, frame = 0
 814              		@ frame_needed = 0, uses_anonymous_args = 0
 815 0000 70B5     		push	{r4, r5, r6, lr}
 816              	.LCFI10:
 817              		.cfi_def_cfa_offset 16
 818              		.cfi_offset 4, -16
 819              		.cfi_offset 5, -12
 820              		.cfi_offset 6, -8
 821              		.cfi_offset 14, -4
 822              		.loc 1 152 0
 823 0002 A04C     		ldr	r4, .L38
 824 0004 0021     		movs	r1, #0
 825              		.loc 1 144 0
 826 0006 82B0     		sub	sp, sp, #8
 827              	.LCFI11:
 828              		.cfi_def_cfa_offset 24
 829              		.loc 1 152 0
 830 0008 2046     		mov	r0, r4
 831 000a FFF7FEFF 		bl	chSemWaitTimeout
 832              	.LVL83:
 833              		.loc 1 153 0
 834 000e B0F1FF33 		subs	r3, r0, #-1
 835 0012 5942     		rsbs	r1, r3, #0
 836 0014 5941     		adcs	r1, r1, r3
 837 0016 0120     		movs	r0, #1
 838              	.LVL84:
 839 0018 FFF7FEFF 		bl	_test_assert
 840              	.LVL85:
 841 001c 08B1     		cbz	r0, .L37
 842              	.L33:
 843              		.loc 1 182 0
 844 001e 02B0     		add	sp, sp, #8
 845 0020 70BD     		pop	{r4, r5, r6, pc}
 846              	.L37:
 847              		.loc 1 154 0
 848 0022 2268     		ldr	r2, [r4, #0]
 849 0024 0220     		movs	r0, #2
ARM GAS  C:\Users\INCAS-~1\AppData\Local\Temp\ccBEwnHv.s 			page 16


 850 0026 B2EB040C 		subs	ip, r2, r4
 851 002a DCF10003 		rsbs	r3, ip, #0
 852 002e 53EB0C01 		adcs	r1, r3, ip
 853 0032 FFF7FEFF 		bl	_test_assert
 854              	.LVL86:
 855 0036 0028     		cmp	r0, #0
 856 0038 F1D1     		bne	.L33
 857              		.loc 1 155 0
 858 003a A168     		ldr	r1, [r4, #8]
 859 003c 0320     		movs	r0, #3
 860 003e D1F10101 		rsbs	r1, r1, #1
 861 0042 38BF     		it	cc
 862 0044 0021     		movcc	r1, #0
 863 0046 FFF7FEFF 		bl	_test_assert
 864              	.LVL87:
 865 004a 0028     		cmp	r0, #0
 866 004c E7D1     		bne	.L33
 867              	.LBB21:
 868              	.LBB22:
 869              		.loc 1 160 0
 870 004e 8E4D     		ldr	r5, .L38+4
 871 0050 8E4B     		ldr	r3, .L38+8
 872 0052 AA69     		ldr	r2, [r5, #24]
 873 0054 9168     		ldr	r1, [r2, #8]
 874 0056 0090     		str	r0, [sp, #0]
 875 0058 8D48     		ldr	r0, .L38+12
 876 005a 4A1E     		subs	r2, r1, #1
 877 005c 0068     		ldr	r0, [r0, #0]
 878 005e 4FF49871 		mov	r1, #304
 879 0062 FFF7FEFF 		bl	chThdCreateStatic
 880              	.LVL88:
 881 0066 8B4B     		ldr	r3, .L38+16
 882              		.loc 1 162 0
 883 0068 4FF4FA71 		mov	r1, #500
 884              		.loc 1 160 0
 885 006c 1860     		str	r0, [r3, #0]
 886              		.loc 1 162 0
 887 006e 2046     		mov	r0, r4
 888 0070 FFF7FEFF 		bl	chSemWaitTimeout
 889              	.LVL89:
 890 0074 0546     		mov	r5, r0
 891              	.LVL90:
 892              		.loc 1 163 0
 893 0076 FFF7FEFF 		bl	test_wait_threads
 894              	.LVL91:
 895              		.loc 1 164 0
 896 007a 0420     		movs	r0, #4
 897 007c D5F10101 		rsbs	r1, r5, #1
 898 0080 38BF     		it	cc
 899 0082 0021     		movcc	r1, #0
 900 0084 FFF7FEFF 		bl	_test_assert
 901              	.LVL92:
 902 0088 0028     		cmp	r0, #0
 903 008a C8D1     		bne	.L33
 904              		.loc 1 165 0
 905 008c 2268     		ldr	r2, [r4, #0]
 906 008e 0520     		movs	r0, #5
ARM GAS  C:\Users\INCAS-~1\AppData\Local\Temp\ccBEwnHv.s 			page 17


 907 0090 B2EB040E 		subs	lr, r2, r4
 908 0094 DEF10001 		rsbs	r1, lr, #0
 909 0098 51EB0E01 		adcs	r1, r1, lr
 910 009c FFF7FEFF 		bl	_test_assert
 911              	.LVL93:
 912 00a0 0028     		cmp	r0, #0
 913 00a2 BCD1     		bne	.L33
 914              		.loc 1 166 0
 915 00a4 A368     		ldr	r3, [r4, #8]
 916 00a6 0620     		movs	r0, #6
 917 00a8 D3F10101 		rsbs	r1, r3, #1
 918 00ac 38BF     		it	cc
 919 00ae 0021     		movcc	r1, #0
 920 00b0 FFF7FEFF 		bl	_test_assert
 921              	.LVL94:
 922 00b4 0028     		cmp	r0, #0
 923 00b6 B2D1     		bne	.L33
 924              		.loc 1 172 0
 925 00b8 774E     		ldr	r6, .L38+20
 926              		.loc 1 171 0
 927 00ba FFF7FEFF 		bl	test_wait_tick
 928              	.LVL95:
 929              		.loc 1 174 0
 930 00be 4120     		movs	r0, #65
 931              		.loc 1 172 0
 932 00c0 F668     		ldr	r6, [r6, #12]
 933              	.LVL96:
 934              		.loc 1 174 0
 935 00c2 FFF7FEFF 		bl	test_emit_token
 936              	.LVL97:
 937              		.loc 1 175 0
 938 00c6 4FF4FA71 		mov	r1, #500
 939 00ca 2046     		mov	r0, r4
 940 00cc FFF7FEFF 		bl	chSemWaitTimeout
 941              	.LVL98:
 942              		.loc 1 176 0
 943 00d0 B0F1FF30 		subs	r0, r0, #-1
 944              	.LVL99:
 945 00d4 4242     		rsbs	r2, r0, #0
 946 00d6 52EB0001 		adcs	r1, r2, r0
 947 00da 0720     		movs	r0, #7
 948              	.LVL100:
 949 00dc FFF7FEFF 		bl	_test_assert
 950              	.LVL101:
 951 00e0 0028     		cmp	r0, #0
 952 00e2 9CD1     		bne	.L33
 953              		.loc 1 177 0
 954 00e4 2168     		ldr	r1, [r4, #0]
 955 00e6 0820     		movs	r0, #8
 956 00e8 0B1B     		subs	r3, r1, r4
 957 00ea 5A42     		rsbs	r2, r3, #0
 958 00ec 52EB0301 		adcs	r1, r2, r3
 959 00f0 FFF7FEFF 		bl	_test_assert
 960              	.LVL102:
 961 00f4 0028     		cmp	r0, #0
 962 00f6 92D1     		bne	.L33
 963              		.loc 1 178 0
ARM GAS  C:\Users\INCAS-~1\AppData\Local\Temp\ccBEwnHv.s 			page 18


 964 00f8 A168     		ldr	r1, [r4, #8]
 965 00fa 0920     		movs	r0, #9
 966 00fc D1F10101 		rsbs	r1, r1, #1
 967 0100 38BF     		it	cc
 968 0102 0021     		movcc	r1, #0
 969 0104 FFF7FEFF 		bl	_test_assert
 970              	.LVL103:
 971 0108 0028     		cmp	r0, #0
 972 010a 88D1     		bne	.L33
 973              	.LVL104:
 974              		.loc 1 174 0
 975 010c 4220     		movs	r0, #66
 976 010e FFF7FEFF 		bl	test_emit_token
 977              	.LVL105:
 978              		.loc 1 175 0
 979 0112 4FF4FA71 		mov	r1, #500
 980 0116 2046     		mov	r0, r4
 981 0118 FFF7FEFF 		bl	chSemWaitTimeout
 982              	.LVL106:
 983              		.loc 1 176 0
 984 011c B0F1FF3C 		subs	ip, r0, #-1
 985 0120 DCF10000 		rsbs	r0, ip, #0
 986              	.LVL107:
 987 0124 50EB0C01 		adcs	r1, r0, ip
 988 0128 0720     		movs	r0, #7
 989 012a FFF7FEFF 		bl	_test_assert
 990              	.LVL108:
 991 012e 0028     		cmp	r0, #0
 992 0130 7FF475AF 		bne	.L33
 993              		.loc 1 177 0
 994 0134 2368     		ldr	r3, [r4, #0]
 995 0136 0820     		movs	r0, #8
 996 0138 B3EB040E 		subs	lr, r3, r4
 997 013c DEF10002 		rsbs	r2, lr, #0
 998 0140 52EB0E01 		adcs	r1, r2, lr
 999 0144 2546     		mov	r5, r4
 1000 0146 FFF7FEFF 		bl	_test_assert
 1001              	.LVL109:
 1002 014a 0028     		cmp	r0, #0
 1003 014c 7FF467AF 		bne	.L33
 1004              		.loc 1 178 0
 1005 0150 A168     		ldr	r1, [r4, #8]
 1006 0152 0920     		movs	r0, #9
 1007 0154 D1F10101 		rsbs	r1, r1, #1
 1008 0158 38BF     		it	cc
 1009 015a 0021     		movcc	r1, #0
 1010 015c FFF7FEFF 		bl	_test_assert
 1011              	.LVL110:
 1012 0160 0028     		cmp	r0, #0
 1013 0162 7FF45CAF 		bne	.L33
 1014              	.LVL111:
 1015              		.loc 1 174 0
 1016 0166 4320     		movs	r0, #67
 1017 0168 FFF7FEFF 		bl	test_emit_token
 1018              	.LVL112:
 1019              		.loc 1 175 0
 1020 016c 4FF4FA71 		mov	r1, #500
ARM GAS  C:\Users\INCAS-~1\AppData\Local\Temp\ccBEwnHv.s 			page 19


 1021 0170 2046     		mov	r0, r4
 1022 0172 FFF7FEFF 		bl	chSemWaitTimeout
 1023              	.LVL113:
 1024              		.loc 1 176 0
 1025 0176 B0F1FF30 		subs	r0, r0, #-1
 1026              	.LVL114:
 1027 017a 4342     		rsbs	r3, r0, #0
 1028 017c 53EB0001 		adcs	r1, r3, r0
 1029 0180 0720     		movs	r0, #7
 1030              	.LVL115:
 1031 0182 FFF7FEFF 		bl	_test_assert
 1032              	.LVL116:
 1033 0186 0028     		cmp	r0, #0
 1034 0188 7FF449AF 		bne	.L33
 1035              		.loc 1 177 0
 1036 018c 2268     		ldr	r2, [r4, #0]
 1037 018e 0820     		movs	r0, #8
 1038 0190 131B     		subs	r3, r2, r4
 1039 0192 5942     		rsbs	r1, r3, #0
 1040 0194 5941     		adcs	r1, r1, r3
 1041 0196 FFF7FEFF 		bl	_test_assert
 1042              	.LVL117:
 1043 019a 0028     		cmp	r0, #0
 1044 019c 7FF43FAF 		bne	.L33
 1045              		.loc 1 178 0
 1046 01a0 A268     		ldr	r2, [r4, #8]
 1047 01a2 0920     		movs	r0, #9
 1048 01a4 D2F10101 		rsbs	r1, r2, #1
 1049 01a8 38BF     		it	cc
 1050 01aa 0021     		movcc	r1, #0
 1051 01ac FFF7FEFF 		bl	_test_assert
 1052              	.LVL118:
 1053 01b0 0028     		cmp	r0, #0
 1054 01b2 7FF434AF 		bne	.L33
 1055              	.LVL119:
 1056              		.loc 1 174 0
 1057 01b6 4420     		movs	r0, #68
 1058 01b8 FFF7FEFF 		bl	test_emit_token
 1059              	.LVL120:
 1060              		.loc 1 175 0
 1061 01bc 4FF4FA71 		mov	r1, #500
 1062 01c0 2046     		mov	r0, r4
 1063 01c2 FFF7FEFF 		bl	chSemWaitTimeout
 1064              	.LVL121:
 1065              		.loc 1 176 0
 1066 01c6 B0F1FF3C 		subs	ip, r0, #-1
 1067 01ca DCF10000 		rsbs	r0, ip, #0
 1068              	.LVL122:
 1069 01ce 50EB0C01 		adcs	r1, r0, ip
 1070 01d2 0720     		movs	r0, #7
 1071 01d4 FFF7FEFF 		bl	_test_assert
 1072              	.LVL123:
 1073 01d8 0028     		cmp	r0, #0
 1074 01da 7FF420AF 		bne	.L33
 1075              		.loc 1 177 0
 1076 01de 2368     		ldr	r3, [r4, #0]
 1077 01e0 0820     		movs	r0, #8
ARM GAS  C:\Users\INCAS-~1\AppData\Local\Temp\ccBEwnHv.s 			page 20


 1078 01e2 B3EB040E 		subs	lr, r3, r4
 1079 01e6 DEF10001 		rsbs	r1, lr, #0
 1080 01ea 51EB0E01 		adcs	r1, r1, lr
 1081 01ee FFF7FEFF 		bl	_test_assert
 1082              	.LVL124:
 1083 01f2 0028     		cmp	r0, #0
 1084 01f4 7FF413AF 		bne	.L33
 1085              		.loc 1 178 0
 1086 01f8 A268     		ldr	r2, [r4, #8]
 1087 01fa 0920     		movs	r0, #9
 1088 01fc D2F10101 		rsbs	r1, r2, #1
 1089 0200 38BF     		it	cc
 1090 0202 0021     		movcc	r1, #0
 1091 0204 FFF7FEFF 		bl	_test_assert
 1092              	.LVL125:
 1093 0208 0028     		cmp	r0, #0
 1094 020a 7FF408AF 		bne	.L33
 1095              	.LVL126:
 1096              		.loc 1 174 0
 1097 020e 4520     		movs	r0, #69
 1098 0210 FFF7FEFF 		bl	test_emit_token
 1099              	.LVL127:
 1100              		.loc 1 175 0
 1101 0214 4FF4FA71 		mov	r1, #500
 1102 0218 2046     		mov	r0, r4
 1103 021a FFF7FEFF 		bl	chSemWaitTimeout
 1104              	.LVL128:
 1105              		.loc 1 176 0
 1106 021e B0F1FF30 		subs	r0, r0, #-1
 1107              	.LVL129:
 1108 0222 4342     		rsbs	r3, r0, #0
 1109 0224 53EB0001 		adcs	r1, r3, r0
 1110 0228 0720     		movs	r0, #7
 1111              	.LVL130:
 1112 022a FFF7FEFF 		bl	_test_assert
 1113              	.LVL131:
 1114 022e 0028     		cmp	r0, #0
 1115 0230 7FF4F5AE 		bne	.L33
 1116              		.loc 1 177 0
 1117 0234 2168     		ldr	r1, [r4, #0]
 1118 0236 0820     		movs	r0, #8
 1119 0238 0A1B     		subs	r2, r1, r4
 1120 023a 5342     		rsbs	r3, r2, #0
 1121 023c 53EB0201 		adcs	r1, r3, r2
 1122 0240 FFF7FEFF 		bl	_test_assert
 1123              	.LVL132:
 1124 0244 0028     		cmp	r0, #0
 1125 0246 7FF4EAAE 		bne	.L33
 1126              		.loc 1 178 0
 1127 024a A168     		ldr	r1, [r4, #8]
 1128 024c 0920     		movs	r0, #9
 1129 024e D1F10101 		rsbs	r1, r1, #1
 1130 0252 38BF     		it	cc
 1131 0254 0021     		movcc	r1, #0
 1132 0256 FFF7FEFF 		bl	_test_assert
 1133              	.LVL133:
 1134 025a 0028     		cmp	r0, #0
ARM GAS  C:\Users\INCAS-~1\AppData\Local\Temp\ccBEwnHv.s 			page 21


 1135 025c 7FF4DFAE 		bne	.L33
 1136              	.LVL134:
 1137              		.loc 1 180 0
 1138 0260 0A20     		movs	r0, #10
 1139 0262 0E49     		ldr	r1, .L38+24
 1140 0264 FFF7FEFF 		bl	_test_assert_sequence
 1141              	.LVL135:
 1142 0268 0028     		cmp	r0, #0
 1143 026a 7FF4D8AE 		bne	.L33
 1144              		.loc 1 181 0
 1145 026e 0B20     		movs	r0, #11
 1146 0270 06F6C411 		addw	r1, r6, #2500
 1147              	.LVL136:
 1148 0274 06F6C912 		addw	r2, r6, #2505
 1149              	.LBE22:
 1150              	.LBE21:
 1151              		.loc 1 182 0
 1152 0278 02B0     		add	sp, sp, #8
 1153 027a BDE87040 		pop	{r4, r5, r6, lr}
 1154              	.LBB24:
 1155              	.LBB23:
 1156              		.loc 1 181 0
 1157 027e FFF7FEBF 		b	_test_assert_time_window
 1158              	.LVL137:
 1159              	.L39:
 1160 0282 00BF     		.align	2
 1161              	.L38:
 1162 0284 00000000 		.word	.LANCHOR0
 1163 0288 00000000 		.word	rlist
 1164 028c 00000000 		.word	thread2
 1165 0290 00000000 		.word	wa
 1166 0294 00000000 		.word	threads
 1167 0298 00000000 		.word	vtlist
 1168 029c 14000000 		.word	.LC5
 1169              	.LBE23:
 1170              	.LBE24:
 1171              		.cfi_endproc
 1172              	.LFE12:
 1173              		.size	sem2_execute, .-sem2_execute
 1174              		.global	patternsem
 1175              		.global	testsem4
 1176              		.global	testsem3
 1177              		.global	testsem2
 1178              		.global	testsem1
 1179              		.section	.rodata.testsem1,"a",%progbits
 1180              		.align	2
 1181              		.type	testsem1, %object
 1182              		.size	testsem1, 16
 1183              	testsem1:
 1184 0000 74000000 		.word	.LC9
 1185 0004 00000000 		.word	sem1_setup
 1186 0008 00000000 		.word	0
 1187 000c 00000000 		.word	sem1_execute
 1188              		.section	.rodata.testsem2,"a",%progbits
 1189              		.align	2
 1190              		.type	testsem2, %object
 1191              		.size	testsem2, 16
ARM GAS  C:\Users\INCAS-~1\AppData\Local\Temp\ccBEwnHv.s 			page 22


 1192              	testsem2:
 1193 0000 60000000 		.word	.LC8
 1194 0004 00000000 		.word	sem2_setup
 1195 0008 00000000 		.word	0
 1196 000c 00000000 		.word	sem2_execute
 1197              		.section	.rodata.testsem3,"a",%progbits
 1198              		.align	2
 1199              		.type	testsem3, %object
 1200              		.size	testsem3, 16
 1201              	testsem3:
 1202 0000 40000000 		.word	.LC7
 1203 0004 00000000 		.word	sem3_setup
 1204 0008 00000000 		.word	0
 1205 000c 00000000 		.word	sem3_execute
 1206              		.section	.rodata.testsem4,"a",%progbits
 1207              		.align	2
 1208              		.type	testsem4, %object
 1209              		.size	testsem4, 16
 1210              	testsem4:
 1211 0000 1C000000 		.word	.LC6
 1212 0004 00000000 		.word	0
 1213 0008 00000000 		.word	0
 1214 000c 00000000 		.word	sem4_execute
 1215              		.section	.data.sem1,"aw",%progbits
 1216              		.align	2
 1217              		.set	.LANCHOR0,. + 0
 1218              		.type	sem1, %object
 1219              		.size	sem1, 12
 1220              	sem1:
 1221 0000 00000000 		.word	sem1
 1222 0004 00000000 		.word	sem1
 1223 0008 00000000 		.word	0
 1224              		.section	.rodata.patternsem,"a",%progbits
 1225              		.align	2
 1226              		.type	patternsem, %object
 1227              		.size	patternsem, 20
 1228              	patternsem:
 1229 0000 00000000 		.word	testsem1
 1230 0004 00000000 		.word	testsem2
 1231 0008 00000000 		.word	testsem3
 1232 000c 00000000 		.word	testsem4
 1233 0010 00000000 		.word	0
 1234              		.section	.rodata.str1.4,"aMS",%progbits,1
 1235              		.align	2
 1236              	.LC0:
 1237 0000 4100     		.ascii	"A\000"
 1238 0002 0000     		.space	2
 1239              	.LC1:
 1240 0004 4200     		.ascii	"B\000"
 1241 0006 0000     		.space	2
 1242              	.LC2:
 1243 0008 4300     		.ascii	"C\000"
 1244 000a 0000     		.space	2
 1245              	.LC3:
 1246 000c 4400     		.ascii	"D\000"
 1247 000e 0000     		.space	2
 1248              	.LC4:
ARM GAS  C:\Users\INCAS-~1\AppData\Local\Temp\ccBEwnHv.s 			page 23


 1249 0010 4500     		.ascii	"E\000"
 1250 0012 0000     		.space	2
 1251              	.LC5:
 1252 0014 41424344 		.ascii	"ABCDE\000"
 1252      4500
 1253 001a 0000     		.space	2
 1254              	.LC6:
 1255 001c 42696E61 		.ascii	"Binary Semaphores, functionality\000"
 1255      72792053 
 1255      656D6170 
 1255      686F7265 
 1255      732C2066 
 1256 003d 000000   		.space	3
 1257              	.LC7:
 1258 0040 53656D61 		.ascii	"Semaphores, atomic signal-wait\000"
 1258      70686F72 
 1258      65732C20 
 1258      61746F6D 
 1258      69632073 
 1259 005f 00       		.space	1
 1260              	.LC8:
 1261 0060 53656D61 		.ascii	"Semaphores, timeout\000"
 1261      70686F72 
 1261      65732C20 
 1261      74696D65 
 1261      6F757400 
 1262              	.LC9:
 1263 0074 53656D61 		.ascii	"Semaphores, enqueuing\000"
 1263      70686F72 
 1263      65732C20 
 1263      656E7175 
 1263      6575696E 
 1264 008a 0000     		.text
 1265              	.Letext0:
 1266              		.file 2 "c:\\chibistudio\\tools\\gnu tools arm embedded\\4.7 2013q1\\bin\\../lib/gcc/arm-none-eabi
 1267              		.file 3 "c:\\chibistudio\\tools\\gnu tools arm embedded\\4.7 2013q1\\bin\\../lib/gcc/arm-none-eabi
 1268              		.file 4 "../../os/ports/GCC/ARMCMx/chtypes.h"
 1269              		.file 5 "../../os/kernel/include/chlists.h"
 1270              		.file 6 "../../os/kernel/include/chthreads.h"
 1271              		.file 7 "../../os/ports/GCC/ARMCMx/chcore_v7m.h"
 1272              		.file 8 "../../os/kernel/include/chvt.h"
 1273              		.file 9 "../../os/kernel/include/chschd.h"
 1274              		.file 10 "../../os/kernel/include/chsem.h"
 1275              		.file 11 "../../os/kernel/include/chbsem.h"
 1276              		.file 12 "../../os/kernel/include/chmtx.h"
 1277              		.file 13 "../../test/test.h"
