:020000040800F2
:1000000000040020A1020008710400087104000827
:1000100071040008710400087104000871040008EC
:10002000710400087104000871040008A1040008AC
:1000300071040008710400087104000881050008BB
:1000400071040008710400087104000871040008BC
:1000500071040008710400087104000871040008AC
:10006000710400087104000871040008710400089C
:10007000710400087104000871040008710400088C
:10008000710400087104000871040008710400087C
:10009000710400087104000871040008710400086C
:1000A000710400087104000871040008710400085C
:1000B000710400087104000871040008710400084C
:1000C000710400087104000871040008710400083C
:1000D000710400087104000871040008710400082C
:1000E000710400087104000871040008710400081C
:1000F000710400087104000871040008710400080C
:1001000071040008710400087104000871040008FB
:1001100071040008710400087104000871040008EB
:1001200071040008710400087104000871040008DB
:1001300071040008710400087104000871040008CB
:10014000710400087104000871040008C1870008E8
:1001500071040008710400087104000871040008AB
:10016000710400087104000871040008710400089B
:1001700071040008E1870008710400087104000898
:0801800071040008710400087D
:1001900030B5314D314C83B006F092FF00F070FA6B
:1001A000284607F07DF82E49284607F0A9F8A36EE7
:1001B0009A6B22F40020986340F2DC5000F048FF74
:1001C0002046284907F014FAA16E8B6B43F40022F5
:1001D0008A6340F6B83000F03BFFA16E886B20F4D4
:1001E00000238B63204607F033FA40F2DC5000F026
:1001F0002FFF20461B4907F0FBF9A16E8C6B44F4DE
:1002000000228A63002408F08BFE00941648174BE6
:100210004FF49871402200F06BFE4CB194F820200E
:100220000E2A13D04FF47A7000F012FF002CF5D193
:10023000D5F85402036819780429EFD10C484FF41B
:100240000B61402208F074FE0446EBE7204600F004
:10025000DFFF0024E6E700BF281E0020181B002057
:1002600010B6000840B30008F81C002041960008B2
:1002700020B50008AFF30080AFF30080AFF300803B
:10028000704700BFAFF30080AFF30080AFF3008092
:10029000FEE700BFAFF30080AFF30080AFF3008054
:1002A00072B6644C84F30988022383F31488BFF385
:1002B0006F8F61486149884218D2CA1C051D531BC3
:1002C00023F00302034610184FF0553183421960A2
:1002D000C2F380020AD01AB185422B46296005D0AC
:1002E0001D1D5960083383426960F9D15448A0420A
:1002F00018D25449041D0A1B22F00305034628188E
:100300004FF0553183421960C5F380020AD01AB10B
:1003100084422346216005D01D1D59600833834265
:100320006960F9D108F054FD4749484881421BD221
:10033000C61C0C1D321B464822F00302161D056820
:100340000423B3420D60C2F380020DD022B1456890
:100350000823B342256007D01A1D1D5884585D50EC
:100360000833B3428C50F7D13A483B49884217D200
:10037000CB1C041D1A1B22F003050346281800217C
:1003800083421960C5F380020AD01AB18442234621
:10039000216005D01D1D5960083383426960F9D181
:1003A000FFF76EFF2D4D2E498D421DD2CC1C2E1D08
:1003B000A71BB808471C01242A6800EA04089047D4
:1003C000BC4211D0B8F1000F05D002243368984721
:1003D000BC42354608D0696888470234A8682E1D9B
:1003E00080470835BC42F6D1FFF7D2FE1D4D1E4AAC
:1003F00095421DD2D41C2E1DA71BBB085F1C0124D7
:10040000296803EA04088847BC4211D0B8F1000FFC
:1004100005D0022430688047BC42354608D06A685F
:1004200090470234AB682E1D98470835BC42F6D180
:10043000FFF72EFF0008002000000020000400202D
:10044000000400200308002000080020E00C002029
:1004500038B70008E00C0020A02000208801000828
:10046000880100088801000888010008AFF30080B7
:10047000FEE700BFAFF30080AFF30080AFF3008072
:1004800072B6FEE7AFF30080AFF30080AFF30080F9
:1004900000F086F900F074FC00F09AF900DF00BF6C
:1004A000EFF30983203383F30988002383F3118852
:1004B000704700BFAFF30080AFF30080AFF3008060
:1004C00008B54FF46D43CEF200034FF44072C0F212
:1004D000FA520021996007201021DA6000F0A8F894
:1004E0000A204FF4007100F0A3F80B208021BDE832
:1004F000084000F09DB800BFAFF30080AFF300806C
:10050000202383F311884FF46D43CEF20003586823
:1005100010F400631AD0EFF30983A3F1200282F3F1
:10052000098811494FF080708A6943F8040C92F8E9
:10053000230009689268896858B1914294BF0022EB
:10054000012262B1094A43F8082C704783F31188ED
:100550007047914234BF00220122002AF2D10448A0
:1005600043F8080C704700BF1412002091040008E3
:100570009C040008AFF30080AFF30080AFF300806D
:1005800008B500F07DF9202383F3118800F040F9CD
:1005900000F0B6F800F054F9002383F3118800F05E
:1005A0008FF9BDE80840FFF7ABBF00BFAFF3008095
:1005B0002DE9F04FC1F80CD0D0F80CD0BDE8F08F89
:1005C00008B500F005F9002383F311882846A047F9
:1005D00000F0AEFD08BD00BFAFF30080AFF30080B8
:1005E000F0B44FF461438408CEF20003C03400F04D
:1005F000030553F82470ED00FF26420906FA05F6BC
:1006000027EA060601FA05F500F01F0002F160076F
:10061000012101FA00F02E4343F8246043F827003B
:1006200043F82200F0BC7047AFF30080AFF30080C6
:1006300082084FF46D43CEF20003063200F003004F
:1006400030B4C00053F82250FF2404FA00F425EA25
:10065000040401FA00F10C4343F8224030BC704717
:10066000024B034A98698261FEE700BF1412002022
:10067000709A0008AFF30080AFF30080AFF3008002
:1006800030B583B0FFF71CFF00F022FA00F0A0F9AC
:1006900002F09EF902F0F4F900F062F940F6E04051
:1006A0004021C2F2000000F07BFB41F2142440F232
:1006B0000043C2F20003C2F200040125C36180F8C6
:1006C0002050A06100F054F8002383F3118862B633
:1006D00049F64041A269C0F60001916140F63050F0
:1006E000009340F26163C0212A46C0F60003C2F2C3
:1006F000000000F0FDFB03B030BD00BFAFF3008091
:10070000F8B500F0FDF8164B986990F8232012B167
:10071000511E80F82310446A124D631C4362E8683E
:100720002C68421CAC42EA6018D0A768013FA76061
:10073000A7B92168E6684D60E760296000F080F89D
:10074000002383F311882069B047202383F31188A5
:1007500000F05EF82C68A368002BEAD0F8BD00BF5B
:100760001412002004120020AFF30080AFF30080C9
:10077000054B186810B905490A6822B10448054BB1
:100780001860FFF77DBE7047F00D0020FC110020BF
:10079000909A000800120020AFF30080AFF30080B1
:1007A000074B186810B5074C08B9216821B1064AF3
:1007B000064B1A60FFF764FE0120206010BD00BFE9
:1007C000F00D0020FC110020989A00080012002073
:1007D000084B186810B5084C28B92168002902DDBB
:1007E0000020206010BD054A054B1A60FFF748FE47
:1007F000F6E700BFF00D0020FC110020A09A0008D1
:1008000000120020AFF30080AFF30080AFF3008050
:10081000074B1868002810B5064C01DD216821B18E
:10082000054A064B1A60FFF72BFE0120206010BD21
:10083000F00D0020FC110020A89A000800120020F2
:10084000084B1868002810B5074C05DD2168002901
:1008500002DD0020206010BD044A054B1A60FFF73E
:100860000FFEF6E7F00D0020FC110020B09A000802
:1008700000120020AFF30080AFF30080AFF30080E0
:1008800010B5202383F31188094C2168002902DB6D
:10089000084A106828B10849084B1960FFF7F0FDB5
:1008A00021684A1C2260002383F3118810BD00BF19
:1008B000F00D0020FC110020B89A00080012002062
:1008C00010B5202383F31188094C2168002902DD2B
:1008D000084A106828B10849084B1960FFF7D0FD95
:1008E00021684A1E2260002383F3118810BD00BFD7
:1008F000F00D0020FC110020C09A0008001200201A
:10090000064B1868002804DB05490A68002A00DD48
:1009100070470448044B1860FFF7B2BDF00D00208B
:10092000FC110020C89A000800120020AFF30080DC
:10093000064B186820B906490A68002A00DD70478E
:100940000448054B1860FFF79BBD00BFF00D002069
:10095000FC110020D09A000800120020AFF30080A4
:1009600040F6F453C2F200031A46402142F8081B35
:100970005A607047AFF30080AFF30080AFF30080A0
:100980000C490D4A10B4CC680C49536889691C6045
:100990005960846A9C6003F1100190F8204002F5D0
:1009A000816081421C732ABF02F1080351605360C9
:1009B00010BC704704120020F40D00201412002017
:1009C00041F20023C2F200031860FFF759BD00BFD7
:1009D00041F20423C2F200034FF0FF3200205B60BB
:1009E0001B609A60D8607047AFF30080AFF300805F
:1009F000F8B505460C4616461F46FFF781FFCDB1F8
:100A0000C6B1BCB10D492F610B68EE609A68944283
:100A100004D91B68A41A9A68A242FAD358682B60BA
:100A20008B42686005605D60AC6002D099680C1B09
:100A30009C60F8BD0248FFF7C3FFE3E70412002003
:100A4000E09A0008AFF30080AFF30080AFF30080BE
:100A500010B50446FFF754FF84B1E36893B12068F2
:100A60000A4A904203D08168A368CA18826061680C
:100A70000860206800234160E36010BD0448FFF770
:100A80009FFFEAE70348FFF79BFFE8E70412002017
:100A9000F09A0008009B0008AFF30080AFF30080DD
:100AA000084B8142DA6806D9824208D38A422CBFB9
:100AB0000020012070478242F8D3012070470020B7
:100AC000704700BF04120020AFF30080AFF3008036
:100AD00041F21423C2F2000300225B601B609A60A3
:100AE0005B611B61704700BFAFF30080AFF3008014
:100AF00010B50446FFF704FF94F820308BB10E2B9D
:100B00000FD00022A168094884F82020006883687B
:100B10008B42FBD24168206061600C6044602046DB
:100B200010BD0348FFF74CFFEBE700BF1412002095
:100B3000209B0008AFF30080AFF30080AFF300808C
:100B400010B52023044683F31188FFF761FE94F863
:100B500020300D2B11D8DFE803F016101007100B12
:100B6000101010101010100BA06A8268511C8160C8
:100B700094E80C001A60206843604FF0FF33A362D2
:100B80002046FFF7B5FFFFF75BFE002383F31188D4
:100B900010BD00BFAFF30080AFF30080AFF3008063
:100BA00070B5114C0646FFF7C3FE2368A5691A68A5
:100BB00085F8206014210120546083F8200085F816
:100BC000231028462260A361FFF7DAFEEB69ADF13E
:100BD0002402934202D90548FFF7F2FEA069294694
:100BE000BDE87040FFF7E4BC14120020349B0008FD
:100BF00070B50C4686B00646FFF79AFE631C12D00D
:100C00000B4D0C4AAB69214601A8FFF7F1FE3046B7
:100C1000FFF7C6FF049B13B101A8FFF719FFA869EE
:100C2000806A06B070BD3046FFF7BAFF004DF6E7A8
:100C300014120020410B0008AFF30080AFF30080D6
:100C400070B5144D04460E46FFF772FEA869A268FF
:100C50008368A6629A4213D9FFF74AFF012106462C
:100C600084F82010AC61FFF78BFEF069ADF124022F
:100C700090420AD820463146BDE87040FFF798BC44
:100C80002046BDE87040FFF733BF0348FFF798FEEA
:100C9000F0E700BF14120020349B0008AFF300807F
:100CA00038B5104C2368A5691A68012114205460D6
:100CB00083F8201085F8230028462260A361FFF7FF
:100CC00017FF2846FFF75CFEEB69ADF12402934263
:100CD00002D90548FFF774FEA0692946BDE83840EF
:100CE000FFF766BC14120020349B0008AFF30080AD
:100CF00070B5144E3368B5691A68AC685660012146
:100D0000002083F820103260B36185F8200000E0F5
:100D10001B689A68A242FBD859682B606960284614
:100D20005D600D60FFF72CFEEB69ADF1240083429E
:100D300002D90548FFF744FEB0692946BDE8704076
:100D4000FFF736BC14120020349B0008AFF300807C
:100D500008B5FFF7EDFD064B1A689869916883683E
:100D6000994200D808BDBDE80840FFF7C1BF00BFE9
:100D700014120020AFF30080AFF30080AFF30080C7
:100D8000044B986990F8231009B1FFF7B1BFFFF742
:100D900087BF00BF14120020AFF30080AFF30080C4
:100DA0002DE9F00141F21424C2F200040022656929
:100DB0004164046100F13006816000F12C0C00F107
:100DC0004C0745614FF0020860610121142480F84E
:100DD000208080F8212080F823400264C2634262B0
:100DE00080F8221082612861C0F82CC04663066337
:100DF000C761BDE8F0017047AFF30080AFF300803A
:100E0000884214D20346C04303F8012B08188B42D2
:100E100000F001000CD018B103F8012B8B4208D070
:100E2000184600F8012B5A70431C8B42F8D17047CA
:100E300070477047AFF30080AFF30080AFF30080DE
:100E40002DE9F84F04460D4690469946FFF758FDA8
:100E50000CB1AF2D38D82048FFF7B2FD1F4E0A9BCA
:100E6000D6F814C0A5F124016718E76044F8019092
:100E70001B497B6002233962002504F1300204F132
:100E80002C0B04F14C0A84F8203014210123266134
:100E9000C4F80880C4F814C02046746184F8215056
:100EA00084F82310C4F844802564E563656284F8FF
:100EB0002230A561CCF81040C4F82CB062632263E4
:100EC000C4F81CA0BDE8F88FB8F17F0FC3D8B9F102
:100ED000000FC3D1BFE700BF509B000814120020D1
:100EE000C1050008AFF30080AFF30080AFF30080CE
:100EF0002DE9F04F9B4683B080468946924600F12B
:100F00004C0300F1010400F14D07FF26254604F8CB
:100F1000016C05F8016B6C1CBC42F7D108EB0907AA
:100F2000BB4215D21846552600F8016BD9437A18F2
:100F3000B84202F001030BD01BB100F8016BB842BC
:100F400006D0054605F8016B4670681CB842F8D11A
:100F5000202383F31188FFF723FC0C9C5B46524649
:100F6000494600944046FFF76BFF00210446FFF717
:100F700067FEFFF72DFC002383F31188204603B0A2
:100F8000BDE8F08FAFF30080AFF30080AFF30080D7
:100F90007F2838B5044617D8202383F31188FFF73C
:100FA000FFFB0B4B9869456C8268954201D09442D7
:100FB00000D984604464FFF7CBFEFFF709FC0023EF
:100FC00083F31188284638BD0248FFF7F9FCE3E7B0
:100FD00014120020649B0008AFF30080AFF3008080
:100FE00010B52023044683F31188FFF7D9FB94F84A
:100FF0002030022B02D00748FFF7E2FC20460021F8
:10100000FFF71EFEFFF7E4FB002383F31188204661
:1010100010BD00BF7C9B0008AFF30080AFF30080E1
:1010200010B52023044683F31188FFF7B9FB94F829
:10103000213043F0040084F82100FFF7C9FB0023AE
:1010400083F3118810BD00BFAFF30080AFF30080C1
:1010500010B5044610B90948FFF7B2FC202383F30A
:101060001188FFF79DFB21460620FFF7C1FDFFF722
:10107000AFFB002383F3118810BD00BF909B0008D5
:1010800010B52023044683F31188FFF789FB064B34
:10109000D968611A02D00620FFF7AAFDFFF798FB76
:1010A000002383F3118810BD04120020AFF30080E9
:1010B00008B5202383F31188FFF772FB074B1A68EA
:1010C000986991688368994201D3FFF7E9FDFFF7BA
:1010D0007FFB002383F3118808BD00BF141200209A
:1010E00038B5104B9C692546A06255F82C0FA842D4
:1010F00006D00168E162FFF7FBFCE06AA842F8D184
:1011000094F82100830704D1636922691A61216977
:101110004B610E20FFF744FD0348BDE83840FFF760
:101120004FBC00BF14120020A09B0008AFF300804A
:1011300010B52023044683F31188FFF731FB2046C6
:10114000BDE81040FFF7CCBFAFF30080AFF30080E5
:1011500038B5044648B3202383F31188154DFFF7B3
:101160001FFBAB69A3421CD094F82200A8B194F8ED
:1011700020100E2906D0AD69E26A07202A60E562D8
:10118000FFF70EFDA56AFFF723FB002383F3118809
:10119000204600F03DF8284638BD0748FFF710FC10
:1011A000E5E70648FFF70CFCDEE70548FFF708FC1B
:1011B000D1E700BF14120020D49B0008C49B000894
:1011C000B49B0008AFF30080AFF30080AFF3008062
:1011D00010B52023044683F31188FFF7E1FA94F851
:1011E0002230FF2B09D0581C84F82200FFF7F0FAB8
:1011F000002383F31188204610BD0348FFF7E0FB6E
:1012000094F82230EFE700BFF09B0008AFF30080B6
:1012100038B50446202383F31188FFF7C1FA94F808
:101220002230002B21D0581EC5B284F82250FFF77F
:10123000CFFA002383F311881DB994F820100E29EA
:1012400000D038BD94F8212002F00303012B12D006
:10125000022BF6D163692169A06C196122692146CC
:101260005361BDE8384001F053BD0848FFF7A8FBC3
:1012700094F82230D7E76369206918612169204614
:101280004B61BDE8384001F073BC00BF049C00080E
:101290002DE9F04182B00D461746984601F020FC3A
:1012A000044618B300F14C063146FF22FFF7A8FDB3
:1012B000304661195522FFF7A3FD202383F31188DF
:1012C000FFF76EFA08983A464346294600902046B2
:1012D000FFF7B6FD012380F8213000210446FFF717
:1012E000AFFCFFF775FA002383F31188204602B0A4
:1012F000BDE8F081AFF30080AFF30080AFF3008072
:101300002DE9F043044683B00F46904699460028E5
:101310002ED0204601F0CCFC054628B300F14C0647
:101320003146FF22FFF76CFD61683046691855228F
:10133000FFF766FD202383F31188FFF731FA616818
:10134000CDF800903A4643462846FFF779FD022340
:1013500080F82130002184640546FFF771FCFFF717
:1013600037FA002383F31188284603B0BDE8F083E1
:101370000148FFF725FBCCE7189C0008AFF300807D
:1013800010B5202383F31188FFF70AFA41F21423E2
:10139000C2F200031C6994F82200411C84F8221058
:1013A000FFF716FA002383F31188204610BD00BF13
:1013B00038B50546202383F31188FFF7F1F92C692E
:1013C0000D4B9C4216D094F82200FF280CD0411CF3
:1013D00084F82210FFF7FCF9002383F311882846D4
:1013E000FFF716FF204638BD0448FFF7E9FA94F8E6
:1013F0002200ECE70024EDE714120020609C0008B6
:1014000038B504460D4628B1002903DB646024602A
:10141000A56038BD0148FFF7D3FAF7E7809C0008C4
:10142000F8B504460D46FFF76BFA002C3DD0002DB1
:101430003BDBA7682368002F34DBA34203D01E48A0
:10144000FFF7BEFAA7680137002FA56029DC6068A6
:10145000416861600C60FFF74BFB6FF0010607F01D
:10146000010286627D1C27B34AB1606843686360ED
:101470001C60FFF73DFB0135012D86621AD06068C4
:10148000416861600C60FFF733FB86626068426808
:1014900062601460FFF72CFB6B1C86620235002B28
:1014A000EDD1F8BDA342CED1C9E70448FFF788FAD1
:1014B000BFE7F8BDF8BD00BFA09C0008909C0008E5
:1014C00038B505460C46202383F31188FFF768F9E9
:1014D00028462146FFF7A4FFFFF73AFCFFF778F90B
:1014E000002383F3118838BDAFF30080AFF3008091
:1014F00038B50446FFF71CFA1CB3A3682268002B1A
:101500000BDBA24203D01148FFF75AFAA368581E1A
:101510000028A06007DB002038BDA242F3D0581E8F
:101520000028A060F7DA0A4DA9698C6262680C6035
:101530004A60032061601160FFF732FBAB69986A73
:1015400038BD0448FFF73CFAD7E700BFC49C000849
:1015500014120020B49C0008AFF30080AFF30080A9
:1015600010B52023044683F31188FFF719F92046AC
:10157000FFF7BEFF0446FFF72BF9002383F3118822
:10158000204610BDAFF30080AFF30080AFF30080C2
:1015900038B504460D46FFF7CBF9002C24D0A368DC
:1015A0002268002B0BDBA24203D01348FFF708FA96
:1015B000A368581E0028A06007DB002038BDA242A7
:1015C000F3D0581E0028A060F7DA8DB10B498B6963
:1015D0009C6262681C60032029465A606360136045
:1015E000BDE83840FFF704BB0548FFF7E9F9D6E747
:1015F000A3604FF0FF3038BDF09C000814120020AB
:10160000D89C0008AFF30080AFF30080AFF30080F8
:1016100038B505460C46202383F31188FFF7C0F840
:1016200021462846FFF7B4FF0446FFF7D1F8002310
:1016300083F31188204638BDAFF30080AFF30080FC
:1016400010B5044618B3A3682068002B14DBA04231
:1016500002D01148FFF7B4F9202383F31188FFF774
:101660009FF8A1684A1C002AA26008DDFFF7B0F8C5
:10167000002383F3118810BDA042EDD1E9E7206873
:101680000368002123605C60FFF7DAFAEEE70348A5
:10169000FFF796F9D7E700BF189D0008089D0008DE
:1016A00010B50446FFF72CF9002C1FD0A368226860
:1016B000002B0ADBA24203D00E48FFF781F9A36892
:1016C000581C0028A06006DD10BDA242F4D0581CB2
:1016D0000028A060F8DC21680A6800230846226020
:1016E00054608B62BDE81040FFF702BA0248FFF772
:1016F00067F9DBE7409D00082C9D0008AFF30080F0
:10170000F8B504460D46FFF7FBF8002C48D0002D35
:1017100046DDA3682068002B3FDBA04202D02B48A7
:10172000FFF74EF9002D37DDA16800264B1C6A1E1D
:10173000B342A36002F0010736DD013D2CD077B142
:10174000A068421C002AA26036DD013D07D13BE0C3
:10175000A368591C0029A16014DD013D1BD0A168BC
:10176000481C0028A06005F1FF35F1DC2068026804
:1017700022605460FFF7BCF98662A368591C0029F7
:10178000A160EADC2068026822605460FFF7B0F9CB
:10179000013D8662E3D1F8BDF8BDA042C2D1BEE7EB
:1017A0000B48FFF70DF9B4E72068016821604C6031
:1017B000FFF79EF98662C0E72068036823605C60DB
:1017C000FFF796F98662C0E7F8BD00BF6C9D000880
:1017D000549D0008AFF30080AFF30080AFF30080AA
:1017E00038B505460C46002835D0002933D0AB6803
:1017F0002868002B26DBA84202D02448FFF7E0F837
:10180000A1682268002923DBA24202D02048FFF70A
:10181000D7F8202383F31188FEF7C2FFAB68581C6A
:101820000028A86028DDA368581E0028A06016DBE9
:10183000FFF78EFA0024FEF7CBFF002383F3118815
:10184000204638BDA842D8D0A16822680029DBDA3A
:10185000A242DED1DAE70F48FFF7B2F8C7E70E4D34
:101860006168AD6903202C6069606560AC620D60E1
:10187000FFF796F9AC6ADEE72868016829604D60D9
:10188000FFF736F900228262CDE700BF989D00087D
:10189000B09D0008849D000814120020AFF3008062
:1018A00010B5044620B1002364602460A36010BD1D
:1018B0000148FFF785F8F6E7D09D0008AFF30080F8
:1018C000F8B53B4B05469C69FFF732F8002D6BD00D
:1018D000A868002836D0A2688168914208D290F8A2
:1018E00020308260042B45D0052B30D0002B1ED039
:1018F00028460068854203D08168A2689142F8D2E8
:101900004368206063601C604460A5620420FFF7A8
:1019100047F9A868A04202D02648FFF751F8216C89
:10192000A94213D02448BDE8F840FFF749B890E831
:101930000C001A600268012180F820105360FFF744
:10194000D7F8D5E7206CAC60E8602564F8BD416845
:101950000768866A0F600768334679601B689E4295
:1019600002D099689142F9D25A68036042601060CF
:101970005860BDE741680768866A0F6007683346AC
:1019800079601B689E420DD099689142F9D25A68DD
:101990000360426010605860B068A2688368934238
:1019A0009DD3A5E73346F2E70448FFF709F88FE730
:1019B00014120020F09D0008049E0008E09D00081D
:1019C00010B52023044683F31188FEF7E9FE204674
:1019D000FFF776FFFEF7FCFE002383F3118810BDAE
:1019E00010B50446FEF7A4FF5CB1A3680BB100205C
:1019F00010BD064881690A6CA160E26001200C6498
:101A000010BD0348FEF7DCFFEFE700BF1412002013
:101A1000189E0008AFF30080AFF30080AFF30080A2
:101A200010B52023044683F31188FEF7B9FE204643
:101A3000FFF7D6FF0446FEF7CBFE002383F31188A1
:101A4000204610BDAFF30080AFF30080AFF30080FD
:101A50001E4A70B52023956983F31188FEF7A0FE16
:101A60002C6C002C2DD0A368AB4203D01848FEF795
:101A7000A7FF2C6C2668E368A6422B641ED0696C15
:101A80004BB11A689A4203D09068814238BF014630
:101A9000DB68002BF5D13368326CA96030462360D7
:101AA00000215C60A660E2603464FFF7C9F8FEF7CD
:101AB0008FFE002383F31188204670BD0020A060B4
:101AC000F5E70448FEF77CFF2C6CCCE714120020ED
:101AD000409E00082C9E0008AFF30080AFF300800A
:101AE0001A4B70B59D69FEF723FF2C6C002C28D093
:101AF000A068A84203D01648FEF762FF2C6C266847
:101B0000E368A6422B6418D0686C4BB11A689A42FD
:101B100003D09168884238BF0846DB68002BF5D1B6
:101B20003168326CA860216030464C60A660E2608B
:101B30003464FEF7DDFF204670BD0021A160204621
:101B400070BD0448FEF73CFF2C6CD1E71412002056
:101B5000689E0008549E0008AFF30080AFF3008039
:101B6000154A70B52023946983F31188FEF718FE97
:101B7000236CD3B100260BE01168156C1960104678
:101B80004B609A60DD601364FEF7B2FF236C43B1D3
:101B90001A68D9689A422164EED19E60236C002BAA
:101BA000F6D1606CA060FFF7D3F8FEF711FE0023BA
:101BB00083F3118870BD00BF14120020AFF30080C2
:101BC00010B5044610B16460246010BD0148FEF7F2
:101BD000F7FEF8E7809E0008AFF30080AFF30080C7
:101BE00010B5044698B1202383F31188FEF7D8FD81
:101BF0002068A04205D00368002123605C60FFF7E5
:101C00001FF8FEF7E5FD002383F3118810BD02489D
:101C1000FEF7D6FEE7E700BF909E0008AFF3008016
:101C200010B50446FEF76CFE54B12068A04206D001
:101C3000036823605C60FEF75BFF0021816210BDDA
:101C40000148FEF7BDFEF0E7A49E0008AFF3008058
:101C500038B50446FEF754FE74B12068A0420AD09D
:101C60006FF00105036823605C60FEF741FF856249
:101C70002068A042F6D138BD0148FEF7A1FEECE78E
:101C8000B89E0008AFF30080AFF30080AFF3008090
:101C900010B52023044683F31188FEF781FD20460A
:101CA000FFF7D6FFFFF754F8FEF792FD002383F30A
:101CB000118810BDAFF30080AFF30080AFF3008058
:101CC000F8B5174B05469C69FEF732FE1DB3206C34
:101CD000E8B1FFF705FF2E460746A5622B4603E055
:101CE0009968A268914210D31B689D42F8D1706830
:101CF00026606060046074600520FEF751FFA46AEE
:101D00003846FFF7DDFD2046F8BD1E46EFE70548E3
:101D1000FEF756FEDDE70448FEF752FED7E700BFA8
:101D200014120020E09E0008D09E0008AFF300804F
:101D300010B52023044683F31188FEF731FD2046B9
:101D4000FFF7BEFF0446FEF743FD002383F311882F
:101D5000204610BDAFF30080AFF30080AFF30080EA
:101D6000F8B506460D46FEF7E3FD16B30DB3154C68
:101D7000A369186C08B3FFF7B3FEA26907463346A0
:101D800096621B689E4203D099689468A142F8D27B
:101D900058681360506002605A6005202946FEF7BB
:101DA00027FF431C044602D03846FFF789FD204632
:101DB000F8BD0548FEF704FED9E70448FEF700FE2B
:101DC000D9E700BF14120020F49E00080C9F000801
:101DD00038B505460C46202383F31188FEF7E0FC56
:101DE00021462846FFF7BCFF0446FEF7F1FC00231E
:101DF00083F31188204638BDAFF30080AFF3008035
:101E0000F8B505460C461746A0B199B1202383F3D7
:101E10001188FEF7C5FC094B2A68986922600026E4
:101E20002C606060A760E660FEF7D2FC334683F367
:101E30001188F8BD0248FEF7C3FDE7E71412002041
:101E4000309F0008AFF30080AFF30080AFF3008055
:101E500038B504460D46A8B1A1B1202383F31188FB
:101E6000FEF79EFC224600E01A461368A34203D008
:101E70009D42F9D128681060FEF7AAFC002383F385
:101E8000118838BD0148FEF79BFDE6E7489F000832
:101E900010B52023044683F31188FEF781FC41F23C
:101EA0001423C2F200039969C86B20EA0402CA63D2
:101EB0000440FEF78DFC002383F31188204610BDFB
:101EC00010B52023044683F31188FEF769FC41F224
:101ED0001423C2F200039869C26B1443C463FEF773
:101EE00077FC002383F31188204610BDAFF30080F8
:101EF00038B504460D46FEF703FDC4B1E26B94F815
:101F0000203045EA0201082BE1630CD0092B00D0F8
:101F100038BDA06A01408842FAD12046FEF7E8FDAC
:101F20000023836238BDA26A1142F6D138BD02484F
:101F3000FEF746FDE2E700BF5C9F0008AFF30080BC
:101F400038B504460D4680B1202383F31188FEF78F
:101F500027FC20462946FFF7CBFFFEF7F9FEFEF7E8
:101F600037FC002383F3118838BD0248FEF728FDB3
:101F7000EAE700BF709F0008AFF30080AFF3008076
:101F800070B505460E46FEF7BBFC65B12C68A54250
:101F900008D0201D0BC83343E360FFF7A9FF246876
:101FA000A542F6D170BD0248FEF70AFDEEE700BF7C
:101FB000809F0008AFF30080AFF30080AFF3008094
:101FC00038B505460C46202383F31188FEF7E8FB5D
:101FD00028462146FFF7D4FFFEF7BAFEFEF7F8FBCE
:101FE000002383F3118838BDAFF30080AFF3008086
:101FF0002DE9F04180460D46D0B18DB10026344622
:10200000012707FA04F32B4206D058F8062025EAE8
:1020100003053AB12046904701340436002DF0D133
:10202000BDE8F0810448FEF7CBFC58F80620F1E744
:102030000248FEF7C5FCE0E7AC9F0008989F000847
:1020400038B50F4B04469D69202383F31188FEF7B2
:10205000A7FBE86B14EA000206D10820AC62FEF789
:102060009FFDE86B04EA00025442144020EA040099
:10207000E863FEF7ADFB002383F31188204638BDEB
:1020800014120020AFF30080AFF30080AFF30080A4
:102090000E4B70B59D690446202383F31188FEF72B
:1020A0007FFBE86B14EA000606D10820AC62FEF75D
:1020B00077FDE86B04EA000620EA0600E863FEF715
:1020C00087FB002383F31188304670BD1412002073
:1020D00038B50E4B04469D69202383F31188FEF723
:1020E0005FFBE86B04EA0002A24204D00920AC6264
:1020F000FEF756FDE86B20EA0400E863FEF768FB94
:10210000002383F31188204638BD00BF141200203D
:10211000F8B5154B05469E690F46202383F31188B9
:10212000FEF73EFBF06B15EA00040AD1AFB10820C0
:10213000B5623946FEF75CFD00280EDBF06B05EA60
:1021400000046242144020EA0400F063FEF740FB02
:10215000002383F311882046F8BDFEF739FB2346A0
:1021600083F311882046F8BD14120020AFF30080DD
:10217000F8B5144B04469D690F46202383F311885C
:10218000FEF70EFBEA6B14EA02060AD19FB10820A3
:10219000AC623946FEF72CFD00280CDBEA6B04EA42
:1021A000020622EA0602EA63FEF712FB002383F32B
:1021B00011883046F8BDFEF70BFB334683F31188D8
:1021C0003046F8BD14120020AFF30080AFF300805A
:1021D000184B70B59D6904460E46202383F3118881
:1021E000FEF7DEFAEA6B04EA0200A04208D08EB1E4
:1021F0000920AC623146FEF7FBFC002812DBEA6BDB
:1022000022EA0402EA63FEF7E3FA002383F311886B
:10221000204670BDFEF7DCFA334683F3118834465E
:10222000204670BDFEF7D4FA002383F311881C46C4
:10223000EEE700BF14120020AFF30080AFF3008080
:10224000154B70B505460E469C6900B3202383F3F9
:102250001188FEF7A5FA05F13002A26295F8201068
:10226000686B22600C29A66360606C6304600AD00E
:102270000A20FEF795FCA46AFEF7AAFA002383F36E
:102280001188204670BD2846FEF732FCF0E703486F
:10229000FEF796FBDAE700BF14120020C09F00088B
:1022A00038B5202383F311880E4DFEF779FAAA6919
:1022B000134653F8304F9C420CD021680B20116319
:1022C0004B6084F82000FEF783FA002383F3118823
:1022D000204638BD0C20FEF763FCAA69134653F86C
:1022E000304FEAE714120020AFF30080AFF3008014
:1022F00038B504460D46202383F31188FEF750FAC3
:1023000094F820300B2B02D00648FEF759FB2046EC
:102310002946FEF795FCFEF75BFA002383F311884C
:1023200038BD00BFD09F0008AFF30080AFF300803E
:1023300070B504460D461646A0B199B1002A11DDCC
:1023400005EB860304F11C003146E560A5602560BD
:102350006360FFF755F804F110000021BDE87040FC
:10236000FFF74EB80148FEF72BFBE9E7F09F0008A6
:1023700010B50446D8B1202383F31188FEF710FA74
:1023800023686168E360CA1A9110A36004F11C001D
:10239000FFF746F804F110000021FFF741F8FEF7BF
:1023A000D7FCFEF715FA002383F3118810BD02480D
:1023B000FEF706FBDFE700BF00A00008AFF30080D8
:1023C00070B504460E461546FEF7B2FAC4B129466A
:1023D00004F11C00FFF7DCF8054678B9A3686268D1
:1023E00043F8046B9342A36028BF236804F11000F4
:1023F00028BFA360FFF754F9FEF7AAFC284670BD7A
:102400000148FEF7DDFAE2E710A00008AFF3008014
:1024100070B5202306460D46144683F31188FEF757
:10242000BFF9224629463046FFF7CAFF0446FEF7A9
:10243000CFF9002383F31188204670BDAFF30080ED
:1024400038B504460D46FEF75BFAA4B1626A002A6D
:1024500015DDA3686168501E606243F8045B8B421F
:10246000A36028BF236804F1100028BFA360FFF712
:1024700017F9002038BD0348FEF7A2FAE6E74FF04F
:10248000FF3038BD20A00008AFF30080AFF300801C
:1024900070B504460E461546FEF74AFACCB12946F9
:1024A00004F11C00FFF774F8054660B9E368226880
:1024B000191F9142E16008D304F110000E60FFF78C
:1024C000EFF8FEF745FC284670BD6068011FE1602B
:1024D000F2E70248FEF774FAE1E700BF30A0000817
:1024E00070B5202306460D46144683F31188FEF787
:1024F00057F9224629463046FFF7CAFF0446FEF741
:1025000067F9002383F31188204670BDAFF3008084
:1025100038B504460D46FEF7F3F9A4B1626A002A05
:1025200015DDE3682168043B501E8B426062E36066
:1025300002D26268131FE36004F110001D60FFF710
:10254000AFF8002038BD0348FEF73AFAE6E74FF04F
:10255000FF3038BD44A00008AFF30080AFF3008027
:1025600070B504460E461546FEF7E2F9D4B1CEB179
:10257000294604F11000FFF70BF8054680B9E3681F
:10258000626853F8041B93423160E36028BF2368FC
:1025900004F11C0028BFE360FFF782F8FEF7D8FBC8
:1025A000284670BD0148FEF70BFAE1E758A0000885
:1025B00070B5202306460D46144683F31188FEF7B6
:1025C000EFF8224629463046FFF7CAFF0446FEF7D9
:1025D000FFF8002383F31188204670BDAFF300801D
:1025E00038B504460D46FEF78BF9B4B1ADB1A2691A
:1025F000002A16DDE3686168501EA06153F8042BC1
:102600008B422A60E36028BF236804F11C0028BFC6
:10261000E360FFF745F8002038BD0348FEF7D0F926
:10262000E5E74FF0FF3038BD68A00008AFF3008049
:1026300010B4024659B1084B9B69986244680D205A
:1026400083E814005360236010BCFEF7D1BA4FF04A
:10265000FF3010BC704700BF14120020AFF30080A1
:1026600010B4C361019B40608A180024006084603C
:1026700041618161C1600261036210BC704700BFAB
:1026800038B50446FEF73CF92068E3680021A04213
:102690006361A361A1600AD06FF001050268226046
:1026A0005460FEF725FA85622068A042F6D138BD55
:1026B00038B504460D46FEF723F96369A269A068A0
:1026C00093421AD0411CA16003F8015B2269636147
:1026D00093420BD22068A0420DD0016821604C606B
:1026E000FEF706FA00228262104638BD2068E368D1
:1026F000A0426361F1D1002038BD0028E2D06FF024
:10270000030038BDAFF30080AFF30080AFF300806B
:10271000F8B504460E46202383F31188FEF740F8EF
:10272000E3690BB120469847A5682046314655B964
:10273000FFF77EFF071EF7DAFEF74AF82B4683F312
:1027400011883846F8BDA0692269013DA56010F8DE
:10275000017B9042A06124BFE068A061FEF738F8D9
:10276000002383F311883846F8BD00BFAFF3008023
:102770002DE9F0470446154688461E46C769002ADB
:102780003AD0202383F31188FEF70AF808F1010AF2
:102790004FF00009A8440FB12046B847A56820466D
:1027A00031465DB9FFF744FF0028F7D0FEF710F877
:1027B0002B4683F311884846BDE8F087A369013DA5
:1027C000A56013F8012B0AF8012C2069A36183424C
:1027D00024BFE368A361FDF7FBFF002383F31188A7
:1027E000C24509F10109E6D0202383F31188FDF7E2
:1027F000D7FF0AF1010ACEE70148FEF7E1F8C0E78A
:1028000080A00008AFF30080AFF30080AFF300803A
:1028100010B4C361019B40608C180060826041610C
:102820008161C1600461036210BC7047AFF3008036
:1028300038B50446FEF764F8E368226920686361EE
:10284000D11AA042A361A1600AD06FF0010503680C
:1028500023605C60FEF74CF985622068A042F6D1E7
:1028600038BD00BFAFF30080AFF30080AFF300804E
:102870002DE9F041202304468846164683F311884B
:10288000FDF78EFFA568204631465DB9FFF7D0FE03
:10289000071EF7DAFDF79CFF2B4683F311883846B5
:1028A000BDE8F0816369013DA56003F8018B2269F1
:1028B0006361934228BFE368E16928BF636109B19E
:1028C00020468847FDF784FF002383F311881F46C5
:1028D0003846BDE8F08100BFAFF30080AFF3008061
:1028E00038B50446FEF70CF8A3696269A0689A42FD
:1028F00016D0411CA16013F8015B2269A3619342C9
:102900000BD22068A04206D0016821604C60FEF71F
:10291000EFF800228262284638BDE368A361F0E741
:102920000028E6D06FF0020038BD00BFAFF3008092
:102930002DE9F0470446164688469A46D0F81C9082
:10294000002A39D0202383F31188FDF729FF0027BF
:10295000A56820466B1E0DB3A360656918F8011BBE
:1029600005F8011B22696561954224BFE268626136
:10297000B9F1000F00D0C847FDF72AFF002383F309
:1029800011880137013E14D0202383F31188FDF70D
:1029900007FFA56820466B1E002DDDD1204651465D
:1029A000FFF746FE0028D3D0FDF712FF2B4683F336
:1029B00011883846BDE8F0870148FEF701F8C1E705
:1029C00094A00008AFF30080AFF30080AFF3008065
:1029D00041F2342241F230234CF200010648C2F2A7
:1029E0000002C2F20003C2F2010120F0070021F050
:1029F0000701106019607047A7200020AFF3008026
:102A000010B50446FDF77CFF074A084913680968BA
:102A1000E01D20F00700C91A88429ABF18181060FC
:102A20000023184610BD00BF3412002030120020D1
:102A300010B52023044683F31188FDF7B1FE20462C
:102A4000FFF7DEFF0446FDF7C3FE002383F3118882
:102A5000204610BDAFF30080AFF30080AFF30080DD
:102A600041F2302241F23423C2F20002C2F20003EA
:102A700010681968401A7047AFF30080AFF3008008
:102A800041F23823C2F2000342F631210022C0F69F
:102A9000000103F1100019609A60DA60FEF700BFD0
:102AA00070B516464A070D46044601D1730702D099
:102AB0000748FDF785FF0023083E04F1100023605E
:102AC000A560E36085E84800BDE87040FEF7E8BE19
:102AD000B0A00008AFF30080AFF30080AFF3008038
:102AE000F8B5204E002818BF0646073106F1100041
:102AF00021F0070506F10804FEF762FF00E01C461E
:102B00002368FBB15A689542F9D805F10801914252
:102B100015D84FF6F870CFF6FF70401B03EB010E8F
:102B200082181868CEF8042058505D60C4F800E0A0
:102B30001C4644F8086BFEF78BFF2046F8BD196869
:102B40002160F5E7FEF784FF32684AB105F108001D
:102B5000904728B100F10804066045602046F8BDA2
:102B60000024EAE738120020AFF30080AFF30080C2
:102B7000F8B5074600284BD057F8086C06F110004E
:102B8000FEF71EFF0836A7F108053446AC4204D80C
:102B900063680833E01885421FD3B442216801D02E
:102BA000AC4202D219B18D4201D30C46EEE757F880
:102BB000042C47F8081C256002F1080357F8080C9C
:102BC000E91881420DD0606800F1080163189D4248
:102BD00015D0BDE8F840FEF73BBF0F48FDF7F0FE0B
:102BE000DBE74868EB581218083247F8042C606895
:102BF00047F8083C00F1080163189D42E9D157F8F5
:102C0000041C57F8082C4318083384E80C00E0E74C
:102C10000248FDF7D5FEAFE7D0A00008C0A000082D
:102C200038B50E4C002818BF044604F110000D46BC
:102C3000FEF7C6FEA3686BB10022144658681B68F5
:102C400012180134002BF9D105B12A60FEF700FFFC
:102C5000204638BD1A461C46F6E700BF3812002051
:102C600070B504460D46164608B1032902D803483C
:102C7000FDF7A6FE002384E8680070BDF0A0000800
:102C800010B50446FDF73CFE4CB1206810B1016858
:102C9000216010BDA3680BB16068984710BD024861
:102CA000FDF78EFEF1E700BF00A10008AFF3008042
:102CB00010B52023044683F31188FDF771FD2046EB
:102CC000FFF7DEFF0446FDF783FD002383F3118841
:102CD000204610BDAFF30080AFF30080AFF300805B
:102CE00038B504460D46FDF70BFE24B11DB123682F
:102CF0002B60256038BD0248FDF762FEF7E700BF94
:102D000014A10008AFF30080AFF30080AFF30080A0
:102D100038B505460C46202383F31188FDF740FDA6
:102D200028462146FFF7DCFFFDF752FD002383F321
:102D3000118838BDAFF30080AFF30080AFF300809F
:102D4000F0B5044683B00D4600282CD0002A24D0CC
:102D500029462046571EFFF7DBFF63683E46ED1805
:102D600007F00107BEB13FB129462046FFF7D0FF6B
:102D70006068013E05440ED029462046FFF7C8FF93
:102D800061686D1829462046FFF7C2FF013E626860
:102D9000013E1544F0D103B0F0BD074803B0BDE8D3
:102DA000F040FDF70DBE04480192FDF709FE019ABF
:102DB000002ACDD1EFE700BF24A10008AFF30080C7
:102DC00041F64D03C2F2000301221A70704700BFA2
:102DD00038B50B4D4C24286803682D219A6890471C
:102DE00028680168013C8B682D219847013CF2D18D
:102DF000034804490068026813680222984738BDF6
:102E00008018002074B30008AFF30080AFF3008097
:102E1000F0B585B0002837D00DF101054CF6CD4650
:102E20002B46CCF6CC46A6FB0012D40804EB84015A
:102E3000A0EB41003030C1B2204603F8011C1C4613
:102E400001330028EFD16A4694421BD9601BC307A7
:102E5000114F11D5386803689A68904714F8021C1E
:102E6000013C09E0386814F8021C0368661E9A6881
:102E7000904716F8021C023C386803689A6890472D
:102E8000AC42EFD105B0F0BD0349086803683021BA
:102E90009A689047F6E700BF80180020AFF30080E3
:102EA00038B5017849B1054D0446286803689A6829
:102EB000904714F8011F0029F7D138BD8018002071
:102EC00038B50178084D41B10446286803689A680E
:102ED000904714F8011F0029F7D1286803490368B7
:102EE00002221B68984738BD8018002074B3000880
:102EF00010B52023044683F31188FDF751FC41F6F9
:102F00005003C2F200031A6802F8014B1A60FDF781
:102F10005FFC002383F3118810BD00BFAFF3008076
:102F200041B9054A054901231370054A0B70106029
:102F300018467047002070474C1800205418002095
:102F400048180020AFF30080AFF30080AFF300809B
:102F5000DFF874C0F0B4184FDCF80060F21BD20741
:102F60003B4614D5BE4217D911F8012B3C787B1C87
:102F700094420CD016E01B7812F8015BAB4204F1CE
:102F800001030FD14D782478511CAC420AD19E42E6
:102F90000A4603F10104EED80B781BB9CCF8007097
:102FA000184607E0054A064B01211170054A1970C1
:102FB00010600846F0BC7047841800204C180020B0
:102FC000541800204818002050180020AFF300804B
:102FD00010B5044608461146FDF762FD40B9054AA2
:102FE000054806490123037013700C60184610BD94
:102FF000002010BD4C180020541800204818002054
:1030000010B50C4C206808B1FEF70AF8606808B1EA
:10301000FEF706F8A06808B1FEF702F8E06808B10C
:10302000FDF7FEFF206918B1BDE81040FDF7F8BFBD
:1030300010BD00BF6C180020AFF30080AFF300801C
:1030400010B5124C206818B1FEF782F800232360F7
:10305000606820B1FEF77CF80C4800224260A0684E
:1030600020B1FEF775F8094B00219960E06820B1A6
:10307000FEF76EF805480022C260206920B1FEF715
:1030800067F8024B0021196110BD00BF6C180020C9
:10309000114B30B49C694FF47A7101FB00F0626A05
:1030A00044F6D355A0F57A73C1F26205501CA5FB16
:1030B000035100EB9115AA42636A03D29A4203D9E5
:1030C00030BC70479A42F6D99D4294BF0023012339
:1030D000002BF0D1F4E700BF14120020AFF3008002
:1030E00008B50120FDF7B4FF41F20423C2F200034A
:1030F000D86808BDAFF30080AFF30080AFF3008065
:1031000038B541F64D03C2F2000300241C70054699
:10311000202383F31188FDF743FB4FF47A7000FB03
:1031200005F544F6D351A5F57A75C1F26201A1FB0C
:1031300005239A09511C41F6580042F6C152234614
:10314000C2F20000C0F60002FDF752FCFDF740FBA2
:10315000234683F3118838BDAFF30080AFF30080BE
:103160002DE9F04F9C4C9D4D206083B09C48FFF7AB
:10317000A7FE9C48FFF7A4FE9B48FFF7A1FE2A216B
:10318000206803689A68904715F8011F0029F7D155
:103190009648974EFFF794FE2A2120680768BD687D
:1031A000A84716F8011F0029F7D19248924EFFF761
:1031B00087FE2A21206803689A68904716F8011F45
:1031C0000029F7D18D488E4FFFF77AFE2A2120681B
:1031D0000568AE68B04717F8011F0029F7D1894884
:1031E000894FFFF76DFE2A21206803689A6890478F
:1031F00017F8011F0029F7D18448854DFFF760FEBD
:103200002A2120680668B768B84715F8011F002909
:10321000F7D18048804DFFF753FE2A2120680368CC
:103220009A68904715F8011F0029F7D17B487C4E1A
:10323000FFF746FE2A2120680768BD68A84716F8F0
:10324000011F0029F7D1774B774800910193FFF7D1
:1032500037FE6348754EDFF80C92754FFFF730FE6E
:1032600041F654000099C2F200008A4601700AF14A
:10327000010A4FF0000857F8042B002A00F0848060
:103280006C4DFFF7A5FD2D212068026893689847D3
:1032900015F8011F0029F7D15046FFF7B9FD4E4937
:1032A000654D086802682E21936808F10108984767
:1032B0004046FFF7ADFD20212068026893689847DB
:1032C00015F8011F0029F7D157F8040C0568297873
:1032D00039B1206802689368984715F8011F0029E2
:1032E000F7D15648564DFFF7EBFDC820FDF7B0FE6D
:1032F000544957F804BCC6F80090002008604860A4
:103300008860C8600861DBF80420287002B190472B
:10331000DBF80C309847DBF8081001B18847FFF75D
:103320008FFE2D78002D00F09F80474D2D212068C5
:1033300002689368984715F8011F0029F7D14348A0
:10334000434D0068FFF764FD202120680268936800
:10335000984715F8011F0029F7D1316849450BD965
:103360003C4D206815F8011C026893689847306846
:10337000294601358142F4D33748FFF7A1FD57F8BC
:10338000042B002A7FF47CAF019D55F8047F019542
:10339000002F7FF46CAFFFF71BFD304D1048FFF797
:1033A0008FFD4621206803689A68904715F8011F31
:1033B0000029F7D141F65401C2F200010878002833
:1033C00056D12748FFF77CFD41F65403C2F20003B3
:1033D000187803B0BDE8F08F8018002080A10008A5
:1033E0002CB2000860A100087CA10008DCA1000844
:1033F000E4A10008F8A1000810A2000824A2000817
:103400006CA2000880A200088CA20008A0A20008FC
:10341000ACA20008C0A20008D8A20008ECA20008D4
:1034200008A3000850A300081CA30008501800209F
:10343000C0A3000894A1000830A30008B49E0008AF
:103440004C1800206C180020A4A100084818002087
:1034500034A3000885180020BCA1000838A3000888
:10346000CCA10008841800200348FFF729FD02E7DB
:103470000248FFF725FDA7E7C0A10008D4A1000876
:10348000F8B5524EB3699C68651C2846FDF780FD6F
:103490000746001B414241410120FFF741FD00B1B9
:1034A000F8BDB26993680220B5EB030CDCF10001B2
:1034B00051EB0C01FFF734FD0028F1D13846FDF740
:1034C00067FDB5EB000EDEF1000050EB0E010320AE
:1034D000FFF726FD0028E3D1B769BA680420131B63
:1034E00059425941FFF71CFD07460028D8D1202337
:1034F00083F31188FDF754F9B0698268931C8360E7
:10350000FDF766F93B4683F31188B769B968A71CD4
:103510000520CA1B534253EB0201FFF701FD0028AF
:10352000BED12846FDF734FD001B41424141062033
:10353000FFF7F6FC0028B3D1B26993680720B7EB18
:10354000030CDCF1000151EB0C01FFF7E9FC002852
:10355000A6D1B069426C0820B5EB020EDEF1000383
:1035600053EB0E01FFF7DCFC002899D1E71C38462D
:10357000FDF70EFD281A414241410920FFF7D0FC1A
:1035800000288DD1B26993680A20FA1A514251413C
:10359000FFF7C6FC002883D1B5696B6C0B20FA1AC3
:1035A00051425141FFF7BCFC054600287FF478AF3B
:1035B000202383F31188FDF7F3F8B3699C605C6402
:1035C000FDF706F92B4683F3118869E714120020F2
:1035D000F0B541F21427C2F200074AF24016BB6967
:1035E00083B0C0F600069A68706843F2C1754BF26A
:1035F0007C41C0F60005C0F60001043A2B4600915C
:103600004FF49871FDF774FCBC693168A36841F60A
:103610006C04C2F200045A1F60604AF2F030C0F637
:1036200000002B46009008464FF49871FDF760FCAF
:10363000BA693169936820604AF2E030C0F6000050
:103640005A1E00902B4608464FF49871FDF750FC27
:10365000BA69F168926820614AF2E430C0F600006D
:103660002B460090023A08464FF49871FDF740FC53
:103670002023E06083F31188FDF792F8BB69B068FE
:103680009A682B464AF2E835C0F600054FF4987167
:10369000033A0095FDF7D4FBA060FDF799F80023ED
:1036A00083F31188A068FDF79BFCFFF7C9FC4AF281
:1036B000EC310120C0F6000103B0BDE8F040FFF797
:1036C00047BC00BFAFF30080AFF30080AFF30080D2
:1036D0002DE9F04141F21428C2F200084AF24016E6
:1036E000D8F8183082B0C0F600069A68306843F205
:1036F000C1754AF2F034C0F60005C0F60004053A80
:103700002B4600944FF49871FDF7F2FB41F66C04E0
:10371000C2F20004D8F8181077688B6820604BF26A
:103720007C40C0F600001A1F00902B464FF49871A1
:103730003846FDF7DDFBD8F81820B768936860605D
:103740004AF2E830C0F60000DA1E00902B464FF433
:1037500098713846FDF7CCFBD8F81810F7688A68DE
:10376000A0604AF2E430C0F60000023A2B46009016
:103770004FF498713846FDF7BBFBD8F8183036691E
:103780009A68E0604AF2E030C0F600004FF49871A9
:10379000013A2B4600903046FDF7AAFB2061FFF767
:1037A0004FFC4AF2EC310120C0F6000102B0BDE846
:1037B000F041FFF7CDBB00BFAFF30080AFF3008057
:1037C00008B50078FFF794FB002008BDAFF3008038
:1037D00038B51C4DFFF784FCEC686420FDF738FC1D
:1037E000012004F1640104F16502FFF7F1FB00B16F
:1037F00038BDEC686420FDF72BFC022004F1640165
:1038000004F16502FFF7E4FB0028F1D1EC684FF406
:103810007A70FDF71DFC032004F57A7104F2E93299
:10382000FFF7D6FB0028E3D1EC6804F164052846D5
:10383000FDF726FC0420294604F16502BDE8384066
:10384000FFF7C6BB04120020AFF30080AFF3008087
:1038500040F60000C2F200000021FDF7D1BD00BF1C
:1038600040F60000C2F200000021FDF7C9BD00BF14
:1038700040F60000C2F200000021FDF7C1BD00BF0C
:1038800000B587B0002103A8FDF7BAFD002103A809
:10389000FDF716FE059901200029CCBF002101216A
:1038A000FFF73EFB08B107B000BD344B9869344BBD
:1038B0008268344803A9013A009100684FF4987176
:1038C000FDF716FB304B186003A8FDF749FE05997C
:1038D00002200029CCBF00210121FFF721FB002895
:1038E000E1D1202383F31188FCF75AFF059A002ABF
:1038F0003CDDFDF72DFAFCF76BFF002383F3118805
:10390000059903209942D4BF00210121FFF708FB4C
:103910000028C8D1059904204B1E5A4252EB0301DE
:10392000FFF7FEFA0028BED1202383F31188FCF7AD
:1039300037FF059800281DDDFDF70AFAFCF748FF60
:10394000002383F31188059903209942D4BF0021F5
:103950000121FFF7E5FA0028A5D1059905204B1EA6
:103960005A4252EB0301FFF7DBFA9CE703A8FDF78D
:1039700097FEBEE703A8FDF793FEDDE714120020D3
:103980009139000840A100086C180020AFF30080B6
:1039900010B52023044683F31188FCF701FFA368C8
:1039A000002B08DDFDF7D4F9FCF712FF002383F3A9
:1039B0001188184610BD2046FDF772FEF2E700BFE1
:1039C00010B540F60004C2F200042046FDF7C8FD21
:1039D0002046FDF735FE002010BD00BFAFF300808C
:1039E00010B5044640F60000C2F20000FDF7B8FD35
:1039F0002078FFF77DFA002010BD00BFAFF30080F4
:103A000008B53220FDF724FB202383F31188FCF74F
:103A1000C7FE40F60000C2F20000FDF741FEFDF7D0
:103A200097F9FCF7D5FE002383F31188184608BDEB
:103A30002DE9F043DFF84881474CD8F81830266864
:103A40009A68464F464B474D85B04FF49871053202
:103A500000973046FDF74CFAD8F8181063688A686A
:103A60002860414803934FF4987101323C4B009019
:103A70000398FDF73DFAD8F81810A2688B686860C3
:103A80003A4803924FF49871DA1C0090344B039833
:103A9000FDF72EFAD8F81810E2688B68A860344851
:103AA00003924FF498711A1D00902D4B0398FDF767
:103AB0001FFAD8F8181024698A68E8602D48284B46
:103AC00000904FF4987102322046FDF711FA2A4C0B
:103AD00028612046FDF7B4FD2046FDF7B1FD2046E4
:103AE000FDF7AEFD2046FDF7ABFD2046FDF7A8FD36
:103AF000FFF7A6FA01202149FFF72AFA814610B103
:103B000005B0BDE8F083D8F81810154B8A68009707
:103B100030464FF498710532FDF7EAF9202328600A
:103B200083F31188FCF73CFE20460221FDF7E8FDF7
:103B3000FCF74EFE4B4683F31188FFF781FAA3682A
:103B40000220B3F1010EDEF1000151EB0E0105B0D0
:103B5000BDE8F043FFF7E4B940A10008E0A3000886
:103B6000E13900086C180020E4A30008E8A300086D
:103B70007CB40008F0A3000800080020ECA30008B3
:103B800014120020AFF30080AFF30080AFF3008089
:103B900010B5224B224C9869224B826882B00020DB
:103BA0000090214801324FF498710068FDF7A0F9A8
:103BB0001E4B214618602046FDF712FE21680120A9
:103BC0000A1B534253EB0201FFF7AAF908B102B0F6
:103BD00010BDA1680220D1F1010138BF0021FFF71B
:103BE0009FF90028F3D121462046FDF7F9FD226810
:103BF0000320B2EB040CDCF1000353EB0C01FFF7E4
:103C00008FF90028E3D1A1680420D1F1010138BF68
:103C1000002102B0BDE81040FFF782B91412002065
:103C200000080020C139000840A100086C180020DD
:103C300070B5A04C002182B02046FDF7E9FCB0F140
:103C4000FF33594259410120FFF76AF908B102B028
:103C500070BD22680220B2EB040CDCF1000353EBD0
:103C60000C01FFF75DF90028F1D1A1680320D1F123
:103C7000010138BF0021FFF753F90028E7D18E4D2D
:103C80008E4BAA69916800908D484A1E00684FF4D7
:103C90009871FDF72DF98B4B4FF4FA71186020469F
:103CA000FDF7B6FC0546FFF7CBF90420D5F101017D
:103CB00038BF0021FFF734F90028C8D12268052059
:103CC000B2EB040EDEF1000151EB0E01FFF728F913
:103CD0000028BCD1A3680620D3F1010138BF002120
:103CE000FFF71EF90028B2D1774EFFF7F9F941200E
:103CF000F668FFF7FDF84FF4FA712046FDF788FCEF
:103D0000B0F1FF30424252EB00010720FFF708F903
:103D100000289CD1216808200B1B5A4252EB03015A
:103D2000FFF7FEF8002892D1A1680920D1F1010126
:103D300038BF0021FFF7F4F8002888D14220FFF7B0
:103D4000D7F84FF4FA712046FDF762FCB0F1FF3C62
:103D5000DCF1000050EB0C010720FFF7E1F8002830
:103D60007FF475AF23680820B3EB040EDEF1000288
:103D700052EB0E012546FFF7D3F800287FF467AF1A
:103D8000A1680920D1F1010138BF0021FFF7C8F86F
:103D900000287FF45CAF4320FFF7AAF84FF4FA71D4
:103DA0002046FDF735FCB0F1FF30434253EB0001F4
:103DB0000720FFF7B5F800287FF449AF22680820F4
:103DC000131B59425941FFF7ABF800287FF43FAF6E
:103DD000A2680920D2F1010138BF0021FFF7A0F845
:103DE00000287FF434AF4420FFF782F84FF4FA71D3
:103DF0002046FDF70DFCB0F1FF3CDCF1000050EB7C
:103E00000C010720FFF78CF800287FF420AF23680F
:103E10000820B3EB040EDEF1000151EB0E01FFF7B9
:103E20007FF800287FF413AFA2680920D2F10101C6
:103E300038BF0021FFF774F800287FF408AF452051
:103E4000FFF756F84FF4FA712046FDF7E1FBB0F1A9
:103E5000FF30434253EB00010720FFF761F80028D1
:103E60007FF4F5AE216808200A1B534253EB020190
:103E7000FFF756F800287FF4EAAEA1680920D1F1D7
:103E8000010138BF0021FFF74BF800287FF4DFAEB7
:103E90000A200E49FFF75CF800287FF4D8AE0B200B
:103EA00006F6C41106F6C91202B0BDE87040FFF76D
:103EB0008FB800BF0008002014120020013A00084B
:103EC00040A100086C18002004120020ECA3000898
:103ED000F0B541F21423C2F200034AF24015996989
:103EE00083B08E68C0F600054AF2E034C0F60004E4
:103EF00043F6F173721C009428684FF49871C0F671
:103F00000003FCF7F5FF41F66C04C2F200046F6891
:103F100020604AF2E830C0F6000043F6C173B21CDC
:103F200000904FF49871C0F600033846FCF7E0FFAC
:103F3000AD6860604AF2E430C0F6000043F6817379
:103F40004FF49871F21CC0F6000300902846FCF76D
:103F5000CFFF40F62C05C2F20005A0602846FDF711
:103F60003FFE2846FDF73CFEFFF76AF84AF2705123
:103F70000120C0F6000103B0BDE8F040FEF7E8BF45
:103F800010B5044640F61C00C2F20000FDF718FD13
:103F90002078FEF7ADFFFDF75BFD002010BD00BFF0
:103FA00010B5044640F60C00C2F20000FDF708FD13
:103FB0002078FEF79DFFFDF74BFD002010BD00BFF0
:103FC00010B5044640F60C00C2F20000FDF7F8FC04
:103FD00040F62C00C2F20000FDF7AAFE2078FEF7A2
:103FE00087FFFDF735FD002010BD00BFAFF3008057
:103FF00010B5044640F61C00C2F20000FDF7E0FCDC
:1040000040F60C00C2F20000FDF7DAFC40F62C008E
:104010004FF0FF31C2F20000FDF7DAFE2078FEF724
:1040200067FFFDF715FDFDF713FD002010BD00BF74
:1040300040F62C0008B5C2F20000FDF7C1FD40F6C5
:104040000C00C2F20000FDF72BFC40F61C00C2F28F
:104050000000BDE80840FDF723BC00BFAFF30080BF
:1040600008B540F62C00C2F20000FDF7A9FD40F6AD
:104070000C00C2F20000BDE80840FDF711BC00BF13
:1040800008B540F62C00C2F20000FDF799FD40F69D
:104090000C00C2F20000BDE80840FDF701BC00BF03
:1040A00040F60C00C2F20000FDF7FABBAFF300804F
:1040B00008B540F60C00C2F20000FDF7F1FB40F637
:1040C0001C00C2F20000BDE80840FDF7E9BB00BFDC
:1040D00008B540F60C00C2F20000FDF7E1FB40F627
:1040E0001C00C2F20000BDE80840FDF7D9BB00BFCC
:1040F00040F60C00C2F20000FDF7D2BBAFF3008027
:1041000040F60C00C2F20000FDF7CABBAFF300801E
:10411000F0B541F21423C2F200034AF24016996945
:1041200083B08F68C0F6000643F6C1754AF2F034DA
:10413000C0F60005C0F600047A1C2B4600943068D7
:104140004FF49871FCF7D4FE41F66C04C2F20004FF
:10415000BA1C20604BF27C40C0F600002B46009059
:104160004FF498717068FCF7C3FE60604AF2E83063
:10417000C0F60000FA1C2B4600904FF49871B0680E
:10418000FCF7B6FEA0604AF2E430C0F600003A1D2B
:104190002B4600904FF49871F068FCF7A9FE366941
:1041A000E0604AF2E030C0F600004FF498717A1DEA
:1041B0002B4600903046FCF79BFE206140F62C0019
:1041C000C2F20000FDF764FDFEF73AFF4AF2EC315F
:1041D0000120C0F6000103B0BDE8F040FEF7B8BE14
:1041E000F0B541F21423C2F200034AF24016996975
:1041F00083B08F68C0F6000643F6C1754AF2F0340A
:10420000C0F60005C0F600047A1C2B460094306806
:104210004FF49871FCF76CFE41F66C04C2F2000496
:10422000716820604BF27C40C0F60000BA1C2B463F
:10423000009008464FF49871FCF75AFEB168606030
:104240004AF2E830C0F60000FA1C2B4600900846FF
:104250004FF49871FCF74CFEF168A0604AF2E4302C
:10426000C0F600003A1D2B46009008464FF49871A6
:10427000FCF73EFE3269E0604AF2E031C0F6000130
:104280002B46009110464FF498717A1DFCF730FED2
:104290002023206183F3118840F62C04C2F200042D
:1042A000FCF77EFA2046FDF7BBFC2046FDF7B8FC84
:1042B0002046FDF7B5FC2046FDF7B2FC2046FDF791
:1042C000AFFCFCF745FDFCF783FA002383F311886C
:1042D000FEF7B6FE4AF2EC310120C0F6000103B051
:1042E000BDE8F040FEF734BEAFF30080AFF30080CE
:1042F000F0B52C4F2C48BB692C4E9C682C4D85B0DA
:10430000FDF75EFB2B4A30682B4B00924FF49871FF
:10431000621CFCF7EDFD7168286028480391A21C1F
:104320004FF49871244B00900398FCF7E1FDB368BB
:10433000686023480393E21C4FF498711E4B009071
:104340000398FCF7D5FDF268A8601E4803924FF46D
:104350009871221D184B00900398FCF7C9FD36692F
:10436000E8601948144B00904FF49871621D304674
:10437000FCF7BEFD2861FDF76BFBFEF761FEB96936
:104380008B6801201A1B51425141FEF7C9FD08B14B
:1043900005B0F0BD0D49022005B0BDE8F040FEF7C4
:1043A000D7BD00BF141200200C08002040A1000857
:1043B0006C180020F0A30008A13F00087CB400089E
:1043C000E8A30008E4A30008E0A30008ECA30008A9
:1043D000F8B5304D304CAB6920469E68FDF720FBA8
:1043E00001460120FEF79CFD00B1F8BD2046FDF717
:1043F00017FB80F00101C9B20220FEF791FD0746CC
:104400000028F2D1202383F31188FCF7C9F9FDF7C6
:1044100067FBFCF7DDF93B4683F311882268032034
:10442000B2EB040CDCF1000353EB0C01FEF778FD5A
:104430000028DAD1A1680420D1F1010138BF0021A0
:10444000FEF76EFD0028D0D1A86982680520B2EB86
:10445000060EDEF1000353EB0E01FEF761FD0028AE
:10446000C3D12046FDF7ACFAFDF77AFB21680620A0
:104470000A1B534253EB0201FEF752FD0028B4D150
:10448000A1680720D1F1010138BF0021BDE8F84043
:10449000FEF746BD141200200C080020AFF3008088
:1044A0002DE9F0468E4D8F4EAB6932689C688E4880
:1044B0008E4B8F4F85B004F10109039200904FF4A9
:1044C00098714A460398FCF713FD7668386089486E
:1044D000894B009004F1020A4FF49871524630461D
:1044E000FCF706FD78608548FDF76AFAA9698B68D4
:1044F00001201A1B51425141FEF712FD10B105B0C7
:10450000BDE8F0866420FCF7A3FDA869836802205B
:10451000B3EB090251425141FEF702FD0028EED1F2
:104520007748FDF74DFAA86983680320B3EB090CBF
:10453000DCF1000252EB0C01FEF7F2FC0028DED1A8
:104540006420FCF785FDA9698B680420B3EB0A0E93
:10455000DEF1000252EB0E01FEF7E2FC0028CED1A4
:10456000FDF776FAA86981680520B1EB09035A4284
:1045700052EB0301FEF7D4FC0028C0D16420FCF705
:1045800067FDA86981680620B1EB09035A4252EB26
:104590000301FEF7C5FC0028B1D1FDF7E1FAA869D7
:1045A00081680720B1EB040CDCF1000353EB0C0134
:1045B000FEF7B6FC0028A2D1FEF742FD514A4B4B54
:1045C00000924FF498714A460398FCF791FC3860CA
:1045D0004D48494B00904FF4987152463046FCF7D5
:1045E00087FC78604548FDF7EBF9A9698B680820DE
:1045F000B3EB040EDEF1000252EB0E01FEF790FC6D
:1046000000287FF47CAF6420FCF722FDA869816854
:104610000920B1EB09035A4252EB0301FEF780FC7B
:1046200000287FF46CAF3648FDF7CAF9A8698168A5
:104630000A20B1EB09035A4252EB0301FEF770FC6A
:1046400000287FF45CAF6420FCF702FDAE69B1681E
:104650000B20B1EB0A0CDCF1000353EB0C01FEF76D
:104660005FFC064600287FF44AAF202383F31188BD
:10467000FCF796F8FDF734FAFCF7AAF8334683F313
:104680001188A86982680C20B2EB090EDEF10001E6
:1046900051EB0E01FEF744FC00287FF430AF64209C
:1046A000FCF7D6FCAB699A680D20B2EB09035942BE
:1046B0005941FEF735FC00287FF421AFFDF750FA91
:1046C000A86982680E20131B59425941FEF728FC45
:1046D00000287FF414AF05B0BDE8F046FEF7B0BC8B
:1046E0001412002040A10008E4A30008314700088C
:1046F0006C180020E0A30008114700081C080020E7
:104700000C0800207CB40008E8A30008AFF3008088
:1047100008B59620FCF79CFC40F60C00C2F20000A5
:10472000FDF74EF9FDF794F9002008BDAFF30080C6
:1047300008B53220FCF78CFC40F61C00C2F20000E9
:10474000FDF73EF9FDF784F9002008BDAFF30080C6
:104750002DE9F041304EDFF8E480304C84B0FEF7B4
:10476000BFFCB3692E499A68CF682E4BD8F8000079
:1047700000254FF49871053A0095FCF7B9FBB36931
:10478000D8F804209B68039220601A1F4FF4987198
:10479000254B00950398FCF7ABFBB169D8F80820CE
:1047A0008B6803926060DA1E4FF498711F4B00957E
:1047B0000398FCF79DFBB169D8F80C208B68039235
:1047C000A0609A1E4FF49871194B00950398FCF75E
:1047D0008FFBB169D8F810608A68164BE0604FF41F
:1047E0009871013A00953046FCF782FB2061FEF794
:1047F00027FC01201049FEF7ABFB10B104B0BDE867
:10480000F081022007F16E0107F1730204B0BDE8E8
:10481000F041FEF7DDBB00BF141200206C18002031
:1048200004120020C14900087149000841490008EC
:1048300021490008F1480008ECA3000840A1000845
:104840002DE9F041224EDFF8A480224C84B0FEF71F
:1048500047FCB36920499A68CF68204BD8F800001C
:1048600000254FF49871013A0095FCF741FBB369BC
:10487000D8F804209B68039220609A1E4FF4987128
:10488000174B00950398FCF733FBB169D8F8086023
:104890008A68144B60604FF49871033A0095304673
:1048A000FCF726FBA060FEF7CBFB01200E49FEF7CC
:1048B0004FFB10B104B0BDE8F081022007F16401A4
:1048C00007F1690204B0BDE8F041FEF781BB00BF0B
:1048D000141200206C18002004120020414A000825
:1048E000214A0008F149000870A5000840A100080D
:1048F00008B53220FCF7ACFB40F61C00C2F2000009
:10490000FDF75EF80A20FEF7C3FBFDF7A1F8412092
:10491000FEF7EEFA002008BDAFF30080AFF3008091
:1049200008B52820FCF794FB1420FEF7B1FB4220C9
:10493000FEF7DEFA002008BDAFF30080AFF3008081
:1049400008B51420FCF784FB40F61C00C2F20000FE
:10495000FDF736F80A20FEF79BFBFDF779F84320B8
:10496000FEF7C6FA002008BDAFF30080AFF3008069
:1049700008B50A20FCF76CFB40F61C00C2F20000F0
:10498000FDF71EF81420FEF783FB40F60C00C2F280
:104990000000FDF715F80A20FEF77AFBFDF758F83E
:1049A0000A20FEF775FBFDF753F84420FEF7A0FA46
:1049B000002008BDAFF30080AFF30080AFF30080AC
:1049C00040F60C0008B5C2F20000FCF7F9FF1E200B
:1049D000FEF75EFBFDF73CF84520FEF789FA002064
:1049E00008BD00BFAFF30080AFF30080AFF30080DD
:1049F00040F60C0008B5C2F20000FCF7E1FF2820E9
:104A0000FEF746FBFDF724F80A20FEF741FB4320A2
:104A1000FEF76EFA002008BDAFF30080AFF3008010
:104A200008B51420FCF714FB2820FEF731FB4220C8
:104A3000FEF75EFA002008BDAFF30080AFF3008000
:104A400008B52820FCF704FB40F60C00C2F2000079
:104A5000FCF7B6FF0A20FEF71BFBFCF7F9FF41202D
:104A6000FEF746FA002008BDAFF30080AFF30080E8
:104A700010B541F21422C2F200024AF240139169C9
:104A8000C0F6000382B08C681868009144F60133C8
:104A9000C0F60003621C4FF49871FCF729FA41F646
:104AA0006C02C2F200021060FDF7FAFB846B214633
:104AB000FDF71EFCE0B2FEF71BFAFDF7F1FB846B7D
:104AC0002146FDF715FCE0B2FEF712FAFDF7E8FB10
:104AD000846B2146FDF70CFCE0B2FEF709FA4AF2BE
:104AE00070510120C0F6000102B0BDE81040FEF791
:104AF0002FBA00BFAFF30080AFF30080AFF30080A8
:104B000010B541210446FDF79BFB42212046FDF7ED
:104B100097FB20464321FDF793FB002010BD00BF0B
:104B2000F0B5764C616A0120B1F1050EDEF10002AC
:104B300083B052EB0E01FEF7F3F9002845D1422174
:104B400020464FF0FF32FDF763FCD0F1010138BF82
:104B500000210220FEF7E4F9B8BB432120464FF0C4
:104B6000FF32FDF755FCD0F1010138BF00210220D2
:104B7000FEF7D6F948BB442120464FF0FF32FDF73F
:104B800047FCD0F1010138BF00210220FEF7C8F92F
:104B9000D8B9452120464FF0FF32FDF739FCD0F15E
:104BA000010138BF00210220FEF7BAF968B941219E
:104BB00020464FF0FF32FDF793FCD0F1010138BFE2
:104BC00000210320FEF7ACF908B103B0F0BD582175
:104BD00001222046FDF71CFCB0F1FF30434253EBAD
:104BE00000010420FEF79CF905460028EDD12023A2
:104BF00083F31188FBF7D4FD58212046FDF720FCF4
:104C00000646FBF7E5FD2B4683F311880520B6F138
:104C1000FF3251425141FEF783F90028D5D1582186
:104C200001222046FDF75CFCB0F1FF35684250EBF5
:104C300005010620FEF774F905460028C5D120239A
:104C400083F31188FBF7ACFD58212046FDF760FC8B
:104C50000646FBF7BDFD2B4683F311880720B6F10E
:104C6000FF3CDCF1000353EB0C01FEF759F900287F
:104C7000ABD1202383F31188FBF792FD676A0820EC
:104C8000D7F1010138BF0021FEF74AF92646074651
:104C900068BBFBF79DFD3B4683F31188202383F31C
:104CA0001188FBF77DFDA2690920B2F1050EDEF146
:104CB000000151EB0E01FEF733F9054600B3FBF797
:104CC00087FD3B4683F311887FE7FBF781FD234691
:104CD00083F31188202383F31188FBF761FD296892
:104CE000EB682F20CA1A51425141FEF719F9FBF720
:104CF0006FFD002383F3118867E700BF34080020AD
:104D0000FBF766FD2B4683F31188202383F311887C
:104D1000FBF746FDA668E2680A20931B59425941F9
:104D2000FEF7FEF80646002840F08982FBF750FDAA
:104D3000334683F311880526C84D01A94FF0FF3291
:104D40002846FDF735FCD0F1010138BF00210B20CA
:104D5000FEF7E6F800287FF438AF9DF80400FEF770
:104D6000C7F8013EE8D10C20BD49FEF7F1F8002854
:104D70007FF42BAF472128464FF0FF32FDF748FB69
:104D8000D0F1010138BF00210D20FEF7C9F800283D
:104D90007FF41BAF01A928464FF0FF32FDF708FC56
:104DA000D0F1010138BF00210E20FEF7B9F800282C
:104DB0007FF40BAF2A68AB680F20D21A51425141E1
:104DC000FEF7AEF800287FF400AF2A68EB681020E9
:104DD000D21A51425141FEF7A3F800287FF4F5AEF4
:104DE00001A901222846FDF7E3FBB0F1FF30434261
:104DF00053EB00011120FEF793F800287FF4E5AE95
:104E0000202383F31188FBF7CBFC01A92846FDF78B
:104E1000E7FB0746FBF7DCFC334683F311881220DF
:104E2000B7F1FF3CDCF1000252EB0C01FEF778F821
:104E300000287FF4CAAE202383F31188FBF7B0FC6F
:104E4000696A13204B1F5A4252EB0301FEF768F8C0
:104E500000287FF44CAFFBF7BBFC002383F31188E1
:104E6000202383F31188FBF79BFCA5697B4C14205E
:104E7000D5F1010138BF0021FEF752F805460028A0
:104E80007FF435AFFBF7A4FC2B4683F31188202376
:104E900083F31188FBF784FCE668A1681520731A78
:104EA0005A4252EB0301FEF73BF80646002840F059
:104EB000C681FBF78DFC334683F31188202383F3EF
:104EC0001188FBF76DFC41212046FDF7B9FAD0F1BE
:104ED000010138BF00211620FEF722F800287FF4D8
:104EE00074AE42212046FDF7ABFAD0F1010138BF84
:104EF00000211720FEF714F800287FF466AE432146
:104F00002046FDF79DFAD0F1010138BF002118209D
:104F1000FEF706F800287FF458AE44212046FDF73E
:104F20008FFAD0F1010138BF00211920FDF7F8FFF9
:104F3000054600287FF449AE45212046FDF780FA5A
:104F40000646FBF745FC2B4683F311881A20D6F161
:104F5000010138BF0021FDF7E3FF00287FF435AEE3
:104F6000E168A3681B20B1EB030EDEF1000252EBF7
:104F70000E01FDF7D5FF00287FF427AE052520237D
:104F800083F31188354CFBF70BFC01A92046FDF794
:104F900027FB0646FBF71CFC002383F311881C202B
:104FA000F31A59425941FDF7BBFF00287FF40DAEBB
:104FB0009DF80400FDF79CFF013DE0D11D2028492C
:104FC000FDF7C6FF00287FF400AE202383F311888D
:104FD000FBF7E6FB626A1E20531F59425941FDF759
:104FE0009FFF002840F02B81FBF7F2FB2B4683F359
:104FF0001188202383F31188FBF7D2FBA2691F20BD
:10500000D2F1010138BF0021FDF78AFF002840F0EE
:105010001681FBF7DDFB2B4683F31188E168A3685B
:105020002020CA1A51425141FDF77AFF00287FF42F
:10503000CCAD202383F31188FBF7B2FB452120463A
:10504000FDF766FAD0F1010138BF00212120FDF7FC
:1050500067FF00287FF4B9AD04E000BF34080020EA
:10506000ECA3000844212046FDF752FAD0F10101DB
:1050700038BF00212220FDF753FF00287FF4A5ADA3
:1050800043212046FDF744FAD0F1010138BF002149
:105090002320FDF745FF00287FF497AD42212046ED
:1050A000FDF736FAD0F1010138BF00212420FDF7C9
:1050B00037FF00287FF489AD644C41212046FDF77D
:1050C00027FA0546FBF784FB002383F3118825208C
:1050D000B5EB030CDCF1000353EB0C01FDF720FFF3
:1050E00000287FF472ADA168E2682620B2EB010EC1
:1050F000DEF1000353EB0E01FDF712FF00287FF4F1
:1051000064AD0524202383F31188504DFBF748FB41
:1051100001A92846FDF764FA0646FBF759FB002370
:1051200083F311882720F21A51425141FDF7F8FE0E
:1051300000287FF44AAD9DF80400FDF7D9FE013C3C
:10514000E0D128204249FDF703FF00287FF43DAD60
:10515000202383F31188FBF723FB6B6A29205A1F56
:1051600051425141FDF7DCFE002862D1FBF730FBD4
:10517000234683F31188202383F31188FBF710FB68
:10518000AB692A20D3F1010138BF0021FDF7C8FE29
:1051900000284ED1FBF71CFB234683F31188A96836
:1051A000EA682B20B2EB010CDCF1000353EB0C019D
:1051B000FDF7B6FE00287FF408AD2846FDF7D8F8C5
:1051C000202383F31188FBF7EBFA6A6A2C20B2F1F3
:1051D000050EDEF1000151EB0E01FDF7A1FE40BB13
:1051E000FBF7F6FA234683F31188202383F3118813
:1051F000FBF7D6FAAB692D20D3F1010138BF0021AE
:10520000FDF78EFEA8B9FBF7E3FA234683F3118876
:10521000202383F31188FBF7C3FA2A68A9682E209C
:10522000531A5A4252EB0301FDF77AFE00283FF46D
:105230004CADFBF7CDFA234683F31188C5E4FBF7A9
:10524000C7FA2B4683F31188BFE400BF340800205F
:10525000ECA30008AFF30080AFF30080AFF3008051
:1052600040F6340041F25821C2F20000C2F20001BF
:105270000522FDF75DB800BFAFF30080AFF30080FB
:105280004FF0FF30FCF704BEAFF30080AFF30080B7
:105290004FF0FF30FCF7FCBDAFF30080AFF30080B0
:1052A0004FF0FF30FCF7F4BDAFF30080AFF30080A8
:1052B0002DE9F04205208CB0FCF702FE4FF0FF30E4
:1052C000FCF7BEFE0138414241410120FDF728FEB6
:1052D00010B10CB0BDE8F0824FF0FF30FCF7B0FE2B
:1052E000021F534253EB02010220FDF719FE002872
:1052F000EFD14FF0FF30FCF7CBFDD0F1010138BF0B
:1053000000210320FDF70CFE0028E2D1744D754FFB
:10531000754EFDF7E5FE7549AC690A68A068039211
:105320004FF49871421E724B00940398FC68FBF78F
:10533000DFFD30604FF0FF30FCF782FE04F13201F8
:10534000814604F137020420FDF742FE0028C0D157
:105350000520B9F1010359425941FDF7E1FD00284B
:10536000B7D14FF0FF30FCF793FDD0F1010138BF0A
:1053700000210620FDF7D4FD0028AAD1FDF760FE2C
:105380000520FCF79DFD4FF0FF30FCF781FEB0F1EA
:10539000050CDCF1000050EB0C010720FDF7C0FD0F
:1053A000002896D14FF0FF30FCF772FDD0F10101DB
:1053B00038BF00210820FDF7B3FD002889D1FDF793
:1053C0008FFEAC694A4BA268039800944FF4987121
:1053D000013AFC68FBF78CFD30604FF0FF30FCF7C2
:1053E00057FE04F13201814604F137020920FDF72E
:1053F000EFFD00287FF46DAF0A20B9F1010EDEF158
:10540000000353EB0E01FDF78BFD00287FF461AF25
:105410004FF0FF30FCF73CFDD0F1010138BF002117
:105420000B20FDF77DFD00287FF453AFDFF8D0900F
:10543000304CFDF705FE484604A90122C9F800904A
:105440002460FCF7DDFC08A904222046FCF7D8FC08
:10545000FDF746FEAD692849A868284B0091421E19
:105460004FF498710398FD68FBF742FD306005200A
:10547000FCF72EFE0C2005F1320105F13702FDF795
:10548000A7FD00287FF425AF4FF0FF30FCF700FDAB
:10549000D0F1010138BF00210D20FDF741FD0028AA
:1054A0007FF417AFFDF7CCFD484604A9FCF7D0FC0C
:1054B000204608A9FCF7CCFCD9F800200E20B2EB5E
:1054C000090359425941FDF72BFD00287FF401AF34
:1054D00022680F20131B59425941FDF721FDF8E6C0
:1054E00014120020041200206C18002040A10008B3
:1054F0004155000860080020E0A30008115500088D
:105500005C080020AFF30080AFF30080AFF30080B1
:1055100040F65C0008B50021C2F20000FCF750FD27
:105520003220FBF795FD40F66000C2F2000000213A
:10553000FCF746FD002008BDAFF30080AFF300800C
:1055400010B504463220FBF783FD20460121FCF70D
:10555000F7FC002010BD00BFAFF30080AFF3008068
:1055600010B51E4C88B00122204669462460FCF725
:1055700047FC204604A90222FCF742FC21680120D6
:10558000091B18BF0121FDF7CBFC08B108B010BD05
:1055900020466946FCF75CFC22680220111B18BFFC
:1055A0000121FDF7BDFC0028F0D1204604A9FCF73D
:1055B0004FFC23680320B3EB040EDEF1000151EB36
:1055C0000E01FDF7ADFC0028E0D107210448FCF7EF
:1055D0000FFD04200349FDF7BBFCD7E75C08002062
:1055E000D0A7000870A50008AFF30080AFF30080DB
:1055F0004320FDF77DBC00BFAFF30080AFF3008018
:105600004220FDF775BC00BFAFF30080AFF3008010
:105610004120FDF76DBC00BFAFF30080AFF3008009
:1056200008B500214FF0FF30FCF772FDD0F1010109
:1056300038BF00210120FDF773FC00B108BD014611
:105640004FF0FF30FCF794FDD0F1010138BF00218D
:105650000220FDF765FC0028F0D101464FF0FF3035
:10566000FCF7B6FDD0F1010138BF00210320FDF7A2
:1056700057FC0028E2D10A214FF0FF30FCF748FD2B
:10568000D0F1010138BF00210420FDF749FC0028BA
:10569000D4D10A214FF0FF30FCF76AFDD0F10101AF
:1056A00038BF00210520FDF73BFC0028C6D10A21A8
:1056B0004FF0FF30FCF78CFDD0F1010138BF002125
:1056C0000620BDE80840FDF72BBC00BFAFF300800B
:1056D00070B582B0FDF7C4F901A90020FDF7A0FA6A
:1056E00010210020FDF7FCF9011C18BF0121044620
:1056F0000120FDF715FC054608B102B070BD20463B
:10570000FDF736FA6FF0FF012846FDF7E9F9D0F111
:10571000010138BF00210220FDF702FC0028ECD176
:1057200001A97E48FDF77CFA10217C48FDF7D8F9E5
:10573000102105467948FDF7D3F910210446774832
:10574000FDF7CEF906462846FDF712FA2046FDF78A
:105750000FFA3046FDF70CFA69467048FDF760FA1B
:10576000B0F1010EDEF1000151EB0E010320FDF757
:10577000D7FB0028C1D110216848FDF7B1F91021ED
:1057800004466648FDF7ACF9102105466348FDF76D
:10579000A7F9FDF7EDF92846FDF7EAF92046FDF7F0
:1057A000E7F969465D48FDF73BFA0138424252EBA2
:1057B00000010420FDF7B4FB00289ED111215748B9
:1057C000FDF78EF9102104465448FDF789F9054686
:1057D0002046FDF7CDF969465048FDF721FA831EB2
:1057E000594259410520FDF79BFB002885D1102126
:1057F0004A48FDF775F9694604464848FDF710FA2E
:10580000012800F0898069464448FDF709FA02380A
:10581000424252EB00010620FDF782FB00287FF494
:105820006CAF2846FDF7A4F92046FDF7A1F96946BB
:105830003A48FDF7F5F9B0F1010CDCF1000353EB48
:105840000C010720FDF76CFB00287FF456AF1021F8
:105850003248FDF745F9102105463048FDF740F97B
:1058600004462846FDF784F969462C48FDF7D8F927
:10587000B0F1020EDEF1000151EB0E010820FDF740
:105880004FFB00287FF439AF20212448FDF728F989
:10589000FDF76EF92046FDF76BF969461F48FDF7E5
:1058A000BFF90138424252EB00010920FDF738FBF5
:1058B00000287FF422AF69461848FDF7B1F9009936
:1058C0001648FDF70DF9694604461448FDF7A8F996
:1058D000D0F1010138BF00210A20FDF721FB00288B
:1058E0007FF40BAF2046FDF743F969460B48FDF7FF
:1058F00097F9431E594259410B20FDF711FB00282F
:105900007FF4FBAE9DE80A000C20CA1A534253EB09
:105910000201FDF705FBF0E601467CE79818002040
:1059200041F6980041F25821C2F20000C2F2000193
:105930004FF4BE62FDF7B4B8AFF30080AFF3008060
:1059400000207047AFF30080AFF30080AFF300801A
:1059500040F66400C2F200004FF498710022FDF797
:105960007FB900BFAFF30080AFF30080AFF30080DA
:1059700038B5574C5748256805222946FDF7E0F908
:105980005448FDF795F9011C18BF01210120FDF7CE
:10599000C7FA002840F08A804E48FDF789F9011CBB
:1059A00018BF01210120FDF7BBFA00287ED149482C
:1059B000FDF77EF9011C18BF01210120FDF7B0FAA7
:1059C000002873D14348FDF773F9011C18BF01216A
:1059D0000120FDF7A5FA002868D13E48FDF768F9D7
:1059E000011C18BF01210120FDF79AFA00285DD1A2
:1059F0003848FDF75DF9D0F1010138BF00210220E0
:105A0000FDF78EFA002851D132482946FDF780F97A
:105A100030486168FDF77CF92E48A168FDF778F9F8
:105A20002C48E168FDF774F921692A48FDF770F9FF
:105A30002848FDF73DF9011C18BF01210320FDF79F
:105A40006FFA002832D12348FDF732F9011C18BF44
:105A500001210320FDF764FA40BB1E48FDF728F939
:105A6000011C18BF01210320FDF75AFAF0B91948AB
:105A7000FDF71EF9011C18BF01210320FDF750FAA4
:105A8000A0B91448FDF714F9011C18BF0121032027
:105A9000FDF746FA50B90F48FDF70AF9D0F10101B8
:105AA00038BF00210420FDF73BFA00B138BD1021BA
:105AB000094A0848FDF7D4F80648FDF7F9F8D0F18F
:105AC000010138BF00210520BDE83840FDF728BAA4
:105AD00040A100086408002041590008AFF300808D
:105AE00038B50546FBF74CFC002403461846AB428C
:105AF00008BF44F00104FBF75BFC03460028F5D126
:105B0000204638BDAFF30080AFF30080AFF30080D4
:105B100010B54D4B4D4C99694D488A684D4B82B03C
:105B20004FF498710094013AFBF7B2FB0446012050
:105B300094F82230B3EB000CDCF1000151EB0C01C6
:105B4000FDF7EEF908B102B010BD2046FBF740FBAF
:105B500094F822200220B2EB000EDEF1000353EB9A
:105B60000E01FDF7DDF90028EDD12046FBF750FBD3
:105B700094F8221003204A1E534253EB0201FDF712
:105B8000CFF90028DFD12046FFF7AAFF0146042005
:105B9000FDF7C6F90028D6D12046FFF7A1FF014640
:105BA0000520FDF7BDF90028CDD12046FBF730FBDD
:105BB00094F822100620D1F1010138BF0021FDF731
:105BC000AFF90028BFD194F820200720D2F10101BD
:105BD00038BF0021FDF7A4F90028B4D12046FFF713
:105BE0007FFF01460820FDF79BF90028ABD1204636
:105BF000FFF776FF01460920FDF792F90028A2D1B0
:105C00003220FBF725FA94F820300A20B3F10E0277
:105C100051425141FDF784F9002894D12046FFF705
:105C20005FFF01460B20FDF77BF900288BD1204652
:105C3000FFF756FF80F00100C1B20C2002B0BDE8B2
:105C40001040FDF76DB900BF14120020E0A300085A
:105C5000C8180020615C0008AFF30080AFF300803B
:105C600008B50078FDF744F9002008BDAFF30080C7
:105C700041F6C80041F25821C2F20000C2F2000110
:105C80004FF4BE62FCF70CBFAFF30080AFF30080AF
:105C900041F6C80041F25821C2F20000C2F20001F0
:105CA0004FF4BE62FCF7FCBEAFF30080AFF30080A0
:105CB000444B45489A6970B5444E95683168444CE8
:105CC000FDF726F840487168FDF722F83E48B168B4
:105CD000FDF71EF83C48F168FDF71AF8691E3D4AC9
:105CE0003D4B3948FBF70CFBA91E2060394A3B4B62
:105CF0003548FBF705FBE91E6060364A384B3248F1
:105D0000FBF7FEFA291FA060324A364B2E48FBF7FC
:105D1000F7FA691FE0602F4A2B48334BFBF7F0FA84
:105D20002168206149B1616839B1A16829B1E16890
:105D300019B1D0F1010138BF00210120FDF7F0F8C1
:105D400000B170BDFDF77CF902202849FDF700F98C
:105D50000028F6D11C48FCF7ABFF011C18BF01213D
:105D60000320FDF7DDF80028EBD11748FCF7A0FF72
:105D7000011C18BF01210320FDF7D2F80028E0D153
:105D80001148FCF795FF011C18BF01210320FDF706
:105D9000C7F80028D5D10C48FCF78AFF011C18BFB2
:105DA00001210320FDF7BCF80028CAD10648FCF702
:105DB0007FFFD0F1010138BF00210420BDE8704011
:105DC000FDF7AEB814120020B818002040A100085A
:105DD0006C180020615C0008E0A30008E4A3000840
:105DE000E8A300087CB40008F0A30008B0A80008ED
:105DF00041F6B800C2F200004FF498710022FCF79F
:105E00002FBF00BFAFF30080AFF30080AFF300807F
:105E100070B5334B33489969334C8D6884B003A90E
:105E2000FCF7FEFE314A324B00924FF498716A1E25
:105E30002C48FBF72DFA20602E482D4B0090AA1E0F
:105E40004FF498712748FBF723FA02A960602548B0
:105E5000FCF7E6FE02992348FCF742FE2649244B54
:105E6000009106464FF49871EA1E1E48FBF710FA9F
:105E7000A0603046FCF77CFE216829B1616819B149
:105E8000A168002923D000210120FDF749F808B1BD
:105E900004B070BDFDF7D4F802201849FDF758F89A
:105EA0000028F5D102A90F48FCF7BAFE013841429B
:105EB00041410320FDF734F80028E9D1039B029A01
:105EC0000420D31A59425941FDF72AF8E0E7E36864
:105ED000002BD9D12269D2F1010138BF0021D3E7CB
:105EE00014120020C81800206C180020E0A300083D
:105EF000615C0008E4A30008E8A30008B8A8000853
:105F0000704700BFAFF30080AFF30080AFF30080B5
:105F100040F6700008B50021C822C2F20000FCF76C
:105F2000A7FC002008BD00BFAFF30080AFF30080E6
:105F300000B54AF2401383B0C0F600030020196890
:105F4000009045F6017340F67000C2F20000042292
:105F5000C0F60003FCF75CFC03B000BDAFF30080AB
:105F600040F6940008B5C821C2F20000FCF7D0FB4F
:105F7000002008BDAFF30080AFF30080AFF30080D6
:105F800000B54AF2401383B0C0F600030020196840
:105F9000009045F6017340F69400C2F2000004221E
:105FA000C0F60003FCF75CFB03B000BDAFF300805C
:105FB0002DE9F041202382B083F31188BC4DFAF71C
:105FC000EFFB6A69AB699A4200F08C8100210120E5
:105FD000FCF7A6FF0646002840F07681FAF7F8FBAA
:105FE000334683F31188B24C412120464FF0FF32F3
:105FF000FCF73EFC422120464FF0FF32FCF738FC14
:10600000432120464FF0FF32FCF732FC204644216A
:106010004FF0FF32FCF72CFC202383F31188FAF7B2
:10602000BFFBAD680220D5F1010138BF0021FCF7AC
:1060300077FF0546002840F04F81FAF7C9FB2B4651
:1060400083F31188202383F31188FAF7A9FB2046F4
:10605000FCF746FC0646FAF7BBFB2B4683F3118898
:10606000F0B2FCF745FF202383F31188FAF798FB81
:106070002046FCF735FC0646FAF7AAFB2B4683F3CD
:106080001188F0B2FCF734FF202383F31188FAF76C
:1060900087FB2046FCF724FC0646FAF799FB2B46C3
:1060A00083F31188F0B2FCF723FF202383F31188D8
:1060B000FAF776FB2046FCF713FC0646FAF788FB56
:1060C0002B4683F31188F0B2FCF712FF202383F3F1
:1060D0001188FAF765FB6069A269904200F00781B8
:1060E00029460320FCF71CFF0446002840F0EC8002
:1060F000FAF76EFB234683F3118804206D49FCF701
:1061000027FF0446002840F0E480202383F3118811
:10611000674DFAF745FB2846FCF7E2FB033014BF56
:10612000002101210520FCF7FBFE0646002840F077
:10613000E380FAF74DFB334683F311885E4C6668C3
:10614000082231462846FCF7F3FBB0F1040CDCF1E1
:10615000000757EB0C010620FCF7E2FE074600287B
:1061600040F0B780202383F31188FAF719FBAB685E
:106170000720D3F1010138BF0021FCF7D1FE804692
:10618000002840F0BF80FAF723FB434683F31188D1
:106190004A4920688A694A4B9468CDF800804FF4D8
:1061A0009871621CFAF7A4FE46492023086083F325
:1061B0001188FAF7F5FA2869EA68AB68841AE11AD7
:1061C0000820B1F1040EDEF1000252EB0E01FCF7E3
:1061D000A7FE0446002840F09B80FAF7F9FA234610
:1061E00083F31188FCF72CFF202383F31188FAF73F
:1061F000D7FA2846FCF71CFBFAF7EAFA234683F3A2
:106200001188202383F31188FAF7CAFA2F69E86806
:10621000AB68391A0920CA1A574257EB0201FCF73A
:106220007FFE0746002867D1FAF7D2FA3B4683F390
:106230001188022231462846FCF77AFB0238434295
:1062400053EB00010A20FCF76BFE0346002840D107
:10625000314602222846FCF76BFB821E5142514117
:106260000B20FCF75DFE002833D1202383F3118837
:10627000FAF796FAAB680C20D3F1010138BF002180
:10628000FCF74EFE00BBFAF7A3FA002383F3118854
:106290000A2219460648FCF7EBFAB0F1FF304242F9
:1062A00052EB00010D2002B0BDE8F041FCF738BE12
:1062B00070080020B0A8000840A1000814120020B7
:1062C000115F00086C180020FAF782FA002383F3AC
:1062D000118802B0BDE8F081FAF77AFA334683F309
:1062E0001188F6E7A968003118BF01216FE6A4689C
:1062F000211C18BF0121F4E6FAF76AFA234683F35A
:106300001188E6E7FAF764FA3B4683F31188E0E781
:10631000FAF75EFA434683F31188DAE7AFF30080B9
:106320002DE9F043202383B083F31188C34CFAF79F
:1063300037FAA1680120D1F1010138BF0021FCF733
:10634000EFFD0546002840F08A81FAF741FA2B4616
:1063500083F31188202383F31188FAF721FA41216E
:106360002046FCF7A5F942212046FCF7A1F943217C
:106370002046FCF79DF944212046FCF799F9FAF7ED
:1063800027FA2B4683F31188202383F31188FAF729
:1063900007FA6269A3699A4200F0758129460220D2
:1063A000FCF7BEFD0646002840F05981FAF710FAC6
:1063B000334683F31188202383F311889F4DFAF726
:1063C000EFF931462846FCF773F9043014BF002179
:1063D00001210320FCF7A4FD0746002840F04D8171
:1063E000FAF7F6F93B4683F311884FF0FF31284660
:1063F000FCF78EF9C0B2FCF77BFD4FF0FF31284669
:10640000FCF786F9C0B2FCF773FD4FF0FF31284668
:10641000FCF77EF9C0B2FCF76BFD4FF0FF31284668
:10642000FCF776F9C0B2FCF763FD202383F31188F3
:10643000FAF7B6F9AE680420D6F1010138BF0021A1
:10644000FCF76EFD0646002840F01181FAF7C0F90E
:10645000334683F3118805207949FCF779FD064618
:10646000002840F00181202383F31188FAF798F97E
:1064700041212846FCF71CF942212846FCF718F96F
:1064800043212846FCF714F944212846FCF710F96B
:10649000FAF79EF9334683F31188DFF8B481D8F810
:1064A0000460082231462846FCF762F9B0F1040C7A
:1064B000DCF1000757EB0C010620FCF731FD074625
:1064C000002840F0D180202383F31188FAF768F97F
:1064D000A9680720D1F1010138BF0021FCF720FD98
:1064E0008146002840F0C380FAF772F94B4683F3E7
:1064F0001188202383F31188FAF752F941212846A5
:10650000FCF7D6F842212846FCF7D2F8432128466A
:10651000FCF7CEF844212846FCF7CAF8FAF758F9F8
:106520004B4683F31188022231462846FCF720F9B6
:10653000B0F1020EDEF1000252EB0E010820FCF772
:10654000EFFC002840F090800222034631462846A6
:10655000FCF70EF9831E584250EB03010920FCF7AB
:10656000DFFC074600287FD1202383F31188FAF748
:1065700017F9AE680A20D6F1010138BF0021FCF7F7
:10658000CFFC0646002872D1FAF722F9334683F38E
:106590001188202383F31188FAF702F9314628463F
:1065A000FCF786F82846FCF76BF8FAF711F9334642
:1065B00083F31188202383F31188FAF7F1F8A9688F
:1065C0000B20D1F1010138BF0021FCF7A9FC002804
:1065D00045D1FAF7FDF8002383F31188194DD8F857
:1065E0000000AA69926800931D464FF49871013229
:1065F000154BFAF77DFC15492023086083F31188B9
:10660000FAF7CEF8A4680C20631B5A4252EB030140
:10661000FCF786FC044600283AD1FAF7D9F823465D
:1066200083F31188FCF70CFD0A210448FCF770F88D
:10663000B0F1FF30414241410D200BE094080020B1
:10664000B0A8000814120020615F00086C18002038
:1066500040A1000803B0BDE8F043FCF761BCFAF7C5
:10666000B7F8002383F3118803B0BDE8F083FAF78D
:10667000AFF83B4683F31188F6E7FAF7A9F83346FB
:1066800083F31188F0E7A068011C18BF012186E69A
:10669000FAF79EF82B4683F31188E5E7AFF3008005
:1066A000704700BFAFF30080AFF30080AFF300800E
:1066B000704700BFAFF30080AFF30080AFF30080FE
:1066C0004AF6402010B5C0F600004AF65024C0F645
:1066D0000004FCF7E5FB4FF4CE70FCF799FB204675
:1066E000FCF7EEFB4AF65820C0F60000FCF7D8FB9A
:1066F0004C20FCF78DFB2046FCF7E2FB4AF66820B5
:10670000C0F60000FCF7CCFB1420FCF781FB204610
:10671000FCF7D6FB4AF67820C0F60000FCF7C0FB79
:106720000C20FCF775FB2046FCF7CAFB4AF68820D4
:10673000C0F60000FCF7B4FB0420FCF769FB204620
:10674000FCF7BEFB4AF69820C0F60000FCF7A8FB59
:106750001020FCF75DFB2046FCF7B2FB4AF6A820B0
:10676000C0F60000FCF79CFB1020FCF751FB204614
:10677000FCF7A6FB4AF6B820C0F60000FCF790FB39
:106780000820FCF745FB2046FCF79AFB4AF6C82098
:10679000C0F60000FCF784FB2420FCF739FB204600
:1067A000FCF78EFB4AF6D820C0F60000FCF778FB19
:1067B0002820FCF72DFB2046BDE81040FCF780BBED
:1067C00038B5FCF78DFC4FF47A70FCF799FC124D4C
:1067D00000241248FBF7F4F8FBF73AF90F48FBF7EF
:1067E000EFF8FBF735F90D48FBF7EAF8FBF730F95E
:1067F0000A48FBF7E5F8FBF72BF92B780134002B5F
:10680000E7D00748FCF74CFBA000FCF701FB05486C
:10681000BDE83840FCF754BB4D1800200C1900208F
:10682000E8AA0008F8AA0008AFF30080AFF30080E0
:1068300041F60C10C2F20000FBF732B8AFF3008053
:1068400010B5074C02E00748FAF78AFEA36993F8EF
:10685000210000F00401CAB2002AF4D0002010BDCB
:106860001412002040190020AFF30080AFF3008025
:1068700038B5FCF735FC4FF47A70FCF741FC144D49
:1068800000241448FAF76CFE1248FAF7D9FE1148B2
:10689000FAF766FE0F48FAF7D3FE0E48FAF760FEE5
:1068A0000C48FAF7CDFE0B48FAF75AFE0948FAF7FA
:1068B000C7FE2B780134002BE3D00748FCF7F0FA31
:1068C000A000FCF7A5FA0548BDE83840FCF7F8BA87
:1068D0004D18002040190020E8AA000808AB000865
:1068E00041F64010C2F200000121FAF789BD00BF55
:1068F00041F64010C2F200000021FAF781BD00BF4E
:1069000038B5FCF7EDFB4FF47A70FCF7F9FB174D47
:106910000024202383F31188F9F742FF012100238B
:106920001348144AFAF764F8002342F21071114A2E
:106930001148FAF75DF80E48FAF78AF80E48FAF7A8
:1069400087F8F9F745FF002383F311882B7801348A
:10695000002BDED00948FCF7A3FA6000FCF758FAD8
:106960000748BDE83840FCF7ABBA00BF4D1800201F
:106970004C190020B16600082C190020E8AA000874
:1069800018AB0008AFF30080AFF30080AFF30080D6
:1069900030B583B0002426492648009410222346AF
:1069A000FBF75EFEFCF79CFB4FF47A70FCF7A8FB4C
:1069B000214D202383F31188F9F7F2FE00211D48B1
:1069C000FBF776FE01211B48FBF772FE02211948F6
:1069D000FBF76EFE03211748FBF76AFEF9F7F8FE96
:1069E000002383F311884FF0FF311248FBF790FE2C
:1069F0004FF0FF310F48FBF78BFE4FF0FF310D4892
:106A0000FBF786FE0B484FF0FF31FBF781FE2B783A
:106A10000134002BCDD00948FCF742FAA000FCF766
:106A2000F7F9074803B0BDE83040FCF749BA00BFAA
:106A30001C190020E81800204D180020E8AA0008C2
:106A400024AB0008AFF30080AFF30080AFF3008009
:106A50002DE9F041144B154A9869D2F800808668F8
:106A6000134F82B0FCF73CFB4FF47A70FCF748FB05
:106A70000024013625464FF4987100954046324671
:106A80000C4BFAF735FA397801340029F3D00A486B
:106A9000FCF706FA2046FCF7BBF9084802B0BDE84F
:106AA000F041FCF70DBA00BF1412002040A100080D
:106AB0004D180020A1660008E8AA000830AB0008C5
:106AC0002DE9F04341F2142985B004ACC2F200096B
:106AD000002344F8043DFCF703FBD9F818104AF2F0
:106AE0004018C0F600088A68D8F80000009446F6FE
:106AF000B136C0F60006013A33464FF49871FAF702
:106B0000F7F9D9F81850D8F80470AB68009441F63A
:106B10006C05C2F200055A1E286033464FF4987186
:106B20003846FAF7E5F9D9F81810D8F808708A68E5
:106B30006860013A33464FF4987100943846FAF78A
:106B4000D7F9D9F81830D8F80C709A68A860013ACB
:106B500033464FF4987100943846FAF7C9F9D9F8DA
:106B60001810D8F810708B68E8605A1E4FF49871AE
:106B7000334600943846FAF7BBF928614FF47A702F
:106B8000FAF766FAFCF73CFAFCF75AFA4AF6E820FC
:106B9000C0F60000FCF784F90398FCF739F94AF6CF
:106BA0003C30C0F60000FCF78BF905B0BDE8F0837F
:106BB00038B50B4D0446FAF77BFAFAF779FAFAF78B
:106BC00077FAFAF775FA2268AB69101D206093F81E
:106BD000211001F00402D3B2002BECD0002038BD0C
:106BE00014120020AFF30080AFF30080AFF30080F9
:106BF0002DE9F042DFF80491384FD9F818303868A1
:106C00009A68374B374E384D84B000244FF4987152
:106C100005320094FAF76CF9D9F818107B688A6885
:106C2000039330604FF4987104322D4B0094039815
:106C3000FAF75EF9D9F81810BB688A680393706098
:106C40004FF498710332264B00940398FAF750F9E9
:106C5000D9F81810FB688A680393B0604FF49871F4
:106C600002321F4B00940398FAF742F9D9F8181032
:106C70003F698A681A4BF0604FF4987101320094B2
:106C80003846FAF735F93061FCF72AFA4FF47A7092
:106C9000FCF736FA15480021FAF712FC287801347F
:106CA0000028F7D0FCF7ACF900211048FAF708FCEF
:106CB000FCF7C6F90E48FCF7F3F82046FCF7A8F8F5
:106CC0000C48FCF7EDF804EB44035800FCF7A0F87F
:106CD000094804B0BDE8F042FCF7F2B840A1000852
:106CE000416800086C1800204D1800204019002051
:106CF000E8AA000848AB00083CAB000814120020CA
:106D00002DE9F041154B164A9869D2F80080866843
:106D1000144F82B0FCF7E4F94FF47A70FCF7F0F905
:106D20000024013E25464FF4987132460E4B0095E3
:106D30004046FAF7DDF8FAF70BFA39780134002902
:106D4000F1D00A48FCF7ACF82046FCF761F8084897
:106D500002B0BDE8F041FCF7B3B800BF1412002048
:106D600040A100084D180020A1660008E8AA00080C
:106D700030AB0008AFF30080AFF30080AFF30080CA
:106D800070B5294B294C9869294B82682068294E97
:106D900082B000254FF4987101320095FAF7A8F8F7
:106DA000254904460860FCF79BF94FF47A70FCF71C
:106DB000A7F9202383F31188F9F7F2FC204600217C
:106DC000F9F73EFF20460021F9F73AFF204600215F
:106DD000F9F736FF20460021F9F732FFF9F7F8FC02
:106DE000002383F3118833780435002BE1D020236E
:106DF00083F31188F9F7D4FC20464FF0FF31F9F7FF
:106E00001FFFF9F7E5FC002383F31188FCF718F95D
:106E10000A48FCF745F86800FBF7FAFF084802B09B
:106E2000BDE87040FCF74CB81412002040A10008E7
:106E3000917000084D1800206C180020E8AA000886
:106E40003CAB0008AFF30080AFF30080AFF30080ED
:106E500070B50546FCF744F94FF47A70FCF750F929
:106E6000074E002428460121FBF7EAF93378013464
:106E7000002BF7D028460021FBF7E2F9204670BD31
:106E80004D180020AFF30080AFF30080AFF3008017
:106E90002DE9F04141F21426C2F200064AF24015F3
:106EA000B36982B0C0F600059A682868002747F2E7
:106EB000710301324FF49871C0F600030097FAF79E
:106EC00017F8B16941F66C04C2F200048B680097B0
:106ED00046F2A168C0F600089A1E206043464FF4AF
:106EE00098716868FAF704F8B26993686060DA1E0E
:106EF0004FF4987143460097A868F9F7F9FFB16914
:106F00008A68A060043A43464FF498710097E86895
:106F1000F9F7EEFFB3692D699A68E0604FF4987154
:106F2000053A434600972846F9F7E2FF20612068BA
:106F3000FFF78EFF0446FCF783F84AF6E820C0F618
:106F40000000FBF7ADFF2046FBF762FF4AF65C301E
:106F5000C0F60000FBF7A4FF6000FBF759FF4AF6FC
:106F60003C30C0F6000002B0BDE8F041FBF7A8BF1E
:106F700041F2142210B5C2F200024AF240139169A4
:106F8000C0F600038C68186882B0621C47F2710377
:106F900000244FF49871C0F600030094F9F7A8FF9D
:106FA00041F66C02C2F200021060FFF751FF044686
:106FB000FCF746F84AF6E820C0F60000FBF770FF41
:106FC0002046FBF725FF4AF65C30C0F60000FBF7D1
:106FD00067FF6000FBF71CFF4AF63C30C0F600007C
:106FE00002B0BDE81040FBF76BBF00BFAFF30080FD
:106FF00041F2142210B5C2F200024AF24013916924
:10700000C0F600038C68186882B0621E47F27103F4
:1070100000244FF49871C0F600030094F9F768FF5C
:1070200041F66C02C2F200021060FFF711FF044645
:10703000FCF706F84AF6E820C0F60000FBF730FF40
:107040002046FBF7E5FE4AF65C30C0F60000FBF791
:1070500027FF6000FBF7DCFE4AF63C30C0F600007C
:1070600002B0BDE81040FBF72BBF00BFAFF30080BC
:1070700010B5FBF715F9846B2146FBF739F9002CA5
:10708000F7D1204610BD00BFAFF30080AFF3008002
:107090000A4A10B52023946983F31188F9F780FB1D
:1070A0000220F9F77DFDA36A002BF9D0F9F790FBD8
:1070B000002383F31188184610BD00BF141200206E
:1070C00008B500F00DFE00F04BFA4AF6C070C0F6AD
:1070D000000000F0C5FE00F06BFA00F0D9F8BDE842
:1070E000084001F07DBE00BFAFF30080AFF3008029
:1070F0004FF48053CEF2000319465A68801882423A
:107100004B6802D29A4202D970479A42F7D9984204
:1071100094BF00230123002BF1D17047AFF300800F
:1071200070B5046AD4F854321A681178042900D072
:1071300070BD207A0228FBD115891B7945FA03F22C
:1071400012F00105F4D1266CE16BA06B731A1E1AC4
:10715000EED0F9F73DFB2B4683F31188D4F8542287
:1071600033461068117904F1300200F001FB20234E
:1071700083F31188F9F714FBD4F8541208680979DD
:10718000BDE8704000F024BBAFF30080AFF3008097
:10719000F8B5046AD4F8542213681978042900D089
:1071A000F8BD207A0228FBD155795F8903EB85036E
:1071B00047FA05F2D96812F001074D8AF0D1E66965
:1071C000A0696369321AD61AB542E9D8F9F700FB0B
:1071D0003B4683F31188D4F85412B6FBF5F305FB54
:1071E00003F30868497904F10C0200F0B1FA202396
:1071F00083F31188F9F7D4FAD4F85432186859791E
:10720000BDE8F84000F0C4BAAFF30080AFF30080EF
:107210000C30FBF7ADBA00BFAFF30080AFF30080D6
:107220000C304FF0FF33FBF7A3BA00BFAFF3008081
:107230003030FBF77DBB00BFAFF30080AFF30080C1
:1072400030304FF0FF33FBF773BB00BFAFF300806C
:107250000C30FBF75DBA00BFAFF30080AFF30080E6
:107260000C304FF0FF31FBF753BA00BFAFF3008093
:107270003030FBF7FDBA00BFAFF30080AFF3008002
:1072800030304FF0FF32FBF7F3BA00BFAFF30080AE
:10729000704700BFAFF30080AFF30080AFF3008012
:1072A00030B54AF6C0530546C0F60003044645F81B
:1072B000043B83B0656047F29113012504F154014A
:1072C000257200F10C004FF48072C0F600030094A8
:1072D000FBF7C6F947F22113009404F1300004F5DE
:1072E000AA714FF48072C0F60003FBF791FA03B065
:1072F00030BD00BFAFF30080AFF30080AFF300807C
:1073000070B50D4604460E6808B3202383F3118838
:10731000F9F746FA237A581E012802D90E48F9F7E0
:107320004FFB297906EB8102022114626B790D3340
:1073300046F82340A87906EB80063462C4F854521C
:107340002172F9F745FA002383F3118870BD0348D1
:10735000F9F736FBD9E700BFA0AD000890AD0008F3
:1073600070B5D0F8543200F10C06044630461D6862
:10737000FBF786F904F13000FBF75AFA201D0121D2
:10738000FAF7FEFDD4F85402417905EB8102284654
:10739000D36832465B8A00F0DBF9D4F8541249799D
:1073A0002846BDE8704000F0F3B900BFAFF300809D
:1073B00090F85C3003F06001202901D00020704774
:1073C00090F85D20212A03D0222A09D0202AF5D165
:1073D0000649072200230165426583650120704745
:1073E000002303654365836501207047B8080020CA
:1073F000F8B500EB810306461C6A0D46CCB120238C
:1074000083F31188F9F704FA201D0821FAF7B8FD73
:10741000216CE26BA06B8F1A3F1A16D106EB850325
:10742000D9684A69506828B9F9F70AFA002383F342
:107430001188F8BD0F8A7B1E13EA0007F4D1F9F713
:10744000FFF93B4683F3118805E0F9F7F9F90023CA
:1074500083F311883B463046294604F1300200F0A0
:1074600087F9202383F31188F9F7D2F930462946AA
:1074700000F0AEF9D8E700BFAFF30080AFF30080B3
:1074800001F10D032DE9F04150F823400D46064669
:10749000CCB1202383F31188F9F7BAF9201D042118
:1074A000FAF76EFD06EB8500E169C768A2696369BA
:1074B0007F8A881AC3EB0008474506D9F9F7C0F957
:1074C000002383F31188BDE8F081F9F7B9F90023AF
:1074D00083F31188B8FBF7F307FB03F33046294623
:1074E00004F10C0200F034F9202383F31188F9F73A
:1074F0008FF93046294600F04BF9DFE7AFF3008003
:10750000704700BFAFF30080AFF30080AFF300809F
:107510004FF48053CEF2000359688160704700BF7A
:107520004FF48053CEF20003094A81685B6810B4BF
:107530001468C2685B1A191B9142816005D8026900
:10754000914238BF016110BC7047C160FBE700BFCA
:1075500060190020AFF30080AFF30080AFF300802C
:1075600010B541F6601486B0C2F200044FF48053A7
:107570000022CEF200034FF0FF302260049205900B
:10758000596847F2215247F2115301A8C0F600038F
:10759000C0F60002019302920391FFF7C1FF039826
:1075A000206006B010BD00BFAFF30080AFF30080D5
:1075B00001F026B9AFF30080AFF30080AFF3008095
:1075C0000023012202704360436283638362C363CA
:1075D000C36203640363436443638364038143813D
:1075E000704700BFAFF30080AFF30080AFF30080BF
:1075F00070B504460E46F8B1F1B1202383F311882B
:10760000F9F7CEF82378581E012802D90C48F9F76B
:10761000D7F9002520466660E56025616561A561B2
:10762000E561256201F034F902212170F9F7D0F803
:107630002B4683F3118870BD0248F9F7C1F9DCE7E6
:1076400010AE000800AE0008AFF30080AFF300807A
:1076500010B50446B0B1202383F31188F9F7A0F8E0
:107660002378581E032802D90848F9F7A9F92046BB
:1076700001F096F901212170F9F7AAF8002383F3AC
:10768000118810BD0248F9F79BF9E4E72CAE000819
:1076900020AE0008AFF30080AFF30080AFF30080AE
:1076A000F8B504460E461546F9F72AF9002C23D002
:1076B00015B32378042B02D01148F9F781F9B71CD0
:1076C00004EB8700416811B10E48F9F779F9686950
:1076D00018B10021102202F0C3F8A86918B10021E6
:1076E000102202F0BDF804EB8707204631467D608A
:1076F000BDE8F84001F014BA0348F9F761F9D8E79A
:1077000054AE000870AE00083CAE0008AFF3008035
:1077100030B400EB81040025E468A4692570E260C0
:107720006360A56030BC01F0DBBA00BFAFF300803E
:1077300030B400EB81040025E46864692570E260E0
:107740006360A56030BC01F0E3BA00BFAFF3008016
:1077500030B400EB8104E568AC6901256360002367
:107760002570E260A36030BC01F0BABAAFF30080CC
:1077700030B400EB8104E5686C6901256360002387
:107780002570E260A36030BC01F0C2BAAFF30080A4
:1077900070B504460D46F9F7B3F89CB1638943FA16
:1077A00005F010F0010601D0012070BD012202FA9F
:1077B00005F242EA030161812046294601F0C8FA38
:1077C000304670BD0148F9F7FBF8E7E7C4AE0008A2
:1077D00070B504460D46F9F793F89CB1238943FA36
:1077E00005F010F0010601D0012070BD012202FA5F
:1077F00005F242EA030121812046294601F0B0FA50
:10780000304670BD0148F9F7DBF8E7E7DCAE000869
:1078100010B40346002202240470A0F8642083F808
:10782000662080F8672002814281C2600261426165
:107830008261C261026283F84C2010BC01F0C0B8C2
:10784000F8B50446002380F84C3000F15C0201F0EA
:1078500037FA6068816800292DD02046884750B3E8
:10786000656D94F85C3094F8631094F8622042EAF5
:107870000120A8423CBF0546606513F0800F2B46EF
:1078800040F08780002D6DD1052184F84C102046F2
:1078900029462A46FFF74CFF202383F31188F8F787
:1078A000B7FF29462046FFF793FFF8F7C9FF2B469D
:1078B00083F31188F8BD94F85C3013F0600711D0A1
:1078C0000021204601F06CFA2046002101F060FA08
:1078D00063681A6812B1204605219047062084F893
:1078E0004C00F8BD94F85D6003F07F0242EA062682
:1078F000B6F5407F00F0068117DDB6F5C06F00F0E9
:10790000968075DDB6F5106F00F0C18040F602423A
:10791000964200F08580B6F5006FD1D1012504F1C3
:10792000670020656565A7659DE7022E00F0C180B0
:1079300071DDB6F5807F00F09380B6F5817FBFD111
:1079400094F85E100029BBD194F8605015F00F0137
:107950005CD02A06204600F1068101F029FA94F84D
:107960005C3053E0042284F84C2020460021226D34
:10797000FFF7CEFE202383F31188F8F749FF00219B
:107980002046FFF705FFF8F75BFF002383F311881C
:10799000F8BDB5B1012184F84C1020460021226DBC
:1079A000FFF7C6FE202383F31188F8F731FF00218B
:1079B0002046FFF70DFFF8F743FF002383F31188FC
:1079C000F8BD032084F84C00294620462A46FFF7DC
:1079D0009FFE202383F31188F8F71AFF29462046DB
:1079E000FFF7D6FEF8F72CFF2B4683F31188F8BD7E
:1079F00040F20230864273D0B6F5A06F7FF460AFDC
:107A0000B4F85C10B1F5A06F00F09B8000252565EF
:107A10006565A56527E7002E32D0012E7FF450AFB3
:107A200056490225002221656565A2651BE760684D
:107A300094F8616094F86030456894F85F1094F8A9
:107A40005E20204643EA0623A84700283FF438AFCB
:107A50004168056894F85C3021656565A76502E7B3
:107A600094F85E20012A7FF42BAFB4F864002765F8
:107A700020F00201A4F864106765A7653D46F2E6B0
:107A8000022504F1640020656565A665EBE694F8BF
:107A90005E5084F86750002D44D103212170626844
:107AA0001568002DB2D020460221A84794F85C301A
:107AB000ACE794F8603013F0800F204603F00F011C
:107AC00033D101F0DDF8012833D002287FF4F8AE7D
:107AD0002B4D60652565A76594F85C300546C2E6C8
:107AE00094F85E1000297FF4EBAE94F8605015F026
:107AF0000F018BD02B0620463AD401F049F994F8B7
:107B00005C3083E794F85E20012A7FF4D9AEB4F8A4
:107B10006450276545F00200A4F864006765A76516
:107B20003D46A0E604202070B9E701F0B9F801282D
:107B3000CBD1144A66652265A76594F85C3035465A
:107B400091E694F85E30204684F8663000F0D8FF65
:107B500065682A6812B1204601219047032094F8F5
:107B60005C30207052E701F02BF994F85C304DE75F
:107B700001F016F994F85C3048E700BFE0AD00086A
:107B8000F0AD000830AF0008AFF30080AFF3008025
:107B900038B590F84C30022B044624D0052B3AD04F
:107BA000012B10D0002101F0FBF82046002101F04C
:107BB000EFF86068026812B120460521904706215F
:107BC00084F84C1038BD90F8631090F86230426D24
:107BD00043EA0121914206D9C5682B8AB2FBF3F131
:107BE00003FB1125F5B1002103200B4684F84C005E
:107BF0000A462046FFF78CFD202383F31188F8F70F
:107C000007FE00212046FFF7C3FDF8F719FE002309
:107C100083F3118838BD826D02B19047002384F848
:107C20004C3038BD2B4629462A46FFF781FD2023DC
:107C300083F31188F8F7ECFD29462046FFF7C8FDCD
:107C4000F8F7FEFD2B4683F31188022084F84C00E0
:107C500038BD00BFAFF30080AFF30080AFF300800A
:107C600090F84C30032B10B504462AD0042B11D0C9
:107C70000021204601F094F82046002101F088F808
:107C800063681A6812B1204605219047062184F8DE
:107C90004C1010BD002105220B4680F84C200A46EE
:107CA000FFF746FD202383F31188F8F7B1FD00218B
:107CB0002046FFF78DFDF8F7C3FD002383F31188FD
:107CC00010BDC1688B699A68002AD1D1816D01B15C
:107CD0008847002084F84C0010BD00BFAFF300803F
:107CE0004FF46053C4F2020300224FF0FF301969D1
:107CF00070B418611A61596958615A61996998613B
:107D00009A611E6A4EF2100166F080561E62CEF233
:107D100000011A6249F23F054EF6F0545E6A58625D
:107D2000CEF200040720C0F202055A624D608A605C
:107D30000860E0684FF48051CEF2000140F080709E
:107D4000E060086840F001000860186C4FF4E04102
:107D5000C4F2000140F080501864086840F480705C
:107D60000860196F01F44070B0F5007F03D04FF444
:107D7000803119671A674FF46053C4F202031A6F17
:107D8000120407D4186F40F4007119671A6F42F497
:107D90000040186770BC7047AFF30080AFF30080FD
:107DA0004FF46051C4F202014FF080530B64086835
:107DB00040F001020A6008684FF460538207C4F281
:107DC0000203F8D5196841F480321A601946086830
:107DD0004FF460538003C4F20203F8D55A6F42F0A7
:107DE000010159671846426F4FF460539207C4F27D
:107DF0000203F8D545F21941C0F240715960186884
:107E000040F080721A60194608684FF46053800190
:107E1000C4F20203F8D598684FF414424FF470513D
:107E2000C3F60802C4F20201104340F205729860E2
:107E30000A60996841F002009860996801F00C00AE
:107E40004FF460520828C4F20202F6D1536C43F496
:107E500080415164506E40F480435366704700BFC8
:107E60004FF46053C4F202031A6B6FEA52216FEAB7
:107E700041221A63196D6FEA51226FEA4221196596
:107E800000234168C4F202034FF4806259608168A4
:107E90009960C168D9600169596141691962816954
:107EA000596201681960016AC4F202024FF400636A
:107EB0005160416A9160816AD160C16A5161016B10
:107EC0001162416B5162C1691160C4F20203C26B5D
:107ED0005A60016C9960426CDA60816C5961C26CC5
:107EE0001A62016D5962816B4FF440621960816DB5
:107EF000C4F202024FF480535160C16D9160016E73
:107F0000D160416E5161816E1162C16E5162416DED
:107F10001160C4F20203426F5A60816F9960C26FB0
:107F2000DA60D0F880105961D0F884201A62D0F855
:107F300088105962016F4FF4A0521960D0F8901068
:107F4000C4F202024FF4C0535160D0F89410916013
:107F5000D0F89810D160D0F89C105161D0F8A010E2
:107F60001162D0F8A4105162D0F88C101160D0F8D2
:107F7000AC10C4F202034FF4E0525960D0F8B010D4
:107F80009960D0F8B410D960D0F8B8105961D0F821
:107F9000BC101962D0F8C0105962D0F8A810C4F211
:107FA00002021960D0F8C8305360D0F8CC1091604C
:107FB000D0F8D030D360D0F8D4105161D0F8D83098
:107FC0001362D0F8DC105162D0F8C4104FF40053A3
:107FD0001160D0F8E420C4F202035A60D0F8E8102F
:107FE0009960D0F8EC20DA60D0F8F0105961D0F840
:107FF000F4201A62D0F8F8105962D0F8E000186046
:10800000704700BFAFF30080AFF30080AFF3008094
:10801000C16E836E00222DE9F00110468F684FF08B
:10802000804C4FF0FF3617E0585055015C1902F1B3
:1080300058014901C4F81009C4F8086953F80180CF
:10804000B8F1000F17DB58505D190132BA42C5F87C
:10805000100BC5F8086B15D802F1480461015D5892
:10806000002DE1DA550143F801C05C19D4F8081974
:108070008907FBD5DAE743F801C0D4F8081BC90625
:10808000FBD5E1E74FF00110C3F81C08BDE8F00193
:10809000704700BFAFF30080AFF30080AFF3008004
:1080A000F8B5846E04EB41134FF0FF32D3F8086B40
:1080B000C3F8082B330705460F4603D5D4F8143808
:1080C0001A0715D4F30703D5D4F81408C00700D451
:1080D000F8BD05EB87036989D868012202FA07F227
:1080E00021EA02036B81C268394628469047F8BDF1
:1080F00000EB8102D3685A689047E3E7AFF3008052
:10810000826E890141F02003136110698106FCD45D
:108110000C20FEF7EDBF00BFAFF30080AFF300808F
:108120002DE9F04F41F21421C2F20001D0F868A00D
:108130008A698346964887B09061202383F311882B
:10814000F8F72EFB4FF000089BF80030012B06D00B
:10815000DBF874409CB9DAF81450E8060FD441F209
:108160001427C2F20007DAF81860B96946F0100265
:10817000CAF818200220CBF87C10F8F711FDF8F7A8
:1081800027FB002383F311881C46DAF8140010F053
:1081900010053AD0DBF86800016A01F4F013B3F57A
:1081A000802F49D0B3F5402FEFD101F00F050BEB35
:1081B0008507C1F30A16FA68F11C8B08176AE4D028
:1081C00000F580505D1E0268294605F0010647F85B
:1081D000042B0123002DD8D02EB1056800230139CE
:1081E00047F8045BD1D0026813B147F8042B013B78
:1081F0000139066813B147F8046B013B0139F2D12C
:10820000DAF8140010F01005C4D10126DBF8743040
:10821000A6401E42049640F0BD8001340594DBF870
:108220006C20059C9068E4B28442AED9202383F38D
:108230001188F8F7B5FA87E701F00F0702370BEB63
:108240008705C1F30A166A6891690B78002B3BD148
:108250000D1D2CCD0332D31AF21C9B08920829D095
:1082600000F5805002F1FF3909F0010CAE46D0F85C
:1082700000901BB1AE46013B4EF8049B013A19D069
:10828000BCF1000F07D0D0F800C013B14EF804CBFA
:10829000013B013A0ED08946016813B14EF8041B28
:1082A000013B013A016813B14EF8041B013B013A4E
:1082B000F2D14946AD19CD600BEB87077868856927
:1082C000A9688E19AE6060E700F58050CD68002E79
:1082D00040D03346A446032B696907D92C69A142D3
:1082E00004D3EC68032B6C616969F7D8026801F864
:1082F000012B2C696961A14224BFE9686961012BE6
:1083000027D0D5F814E0110A0EF8011B2C69C5F826
:1083100014E0A64524BFEC686C61022B19D0D5F897
:108320001490110C09F8011B2C69C5F81490A14593
:1083300024BFEC686C61032B0BD06969120E01F845
:10834000012B2C696961A14224BFEC686C61043B7C
:10835000C1D16446202383F31188F8F721FAA96874
:1083600028688A19A842AA6009D003682B605D605A
:10837000F8F7BEFBC0F828802868A842F5D1F8F7C6
:10838000E7FCF8F725FA002383F3118894E700BF90
:1083900060AF0008202383F31188F8F701FADAF8B8
:1083A0000870DBF87410049827F0010221EA00013C
:1083B000CAF80820CBF87410F8F70AFA2B4683F3B2
:1083C0001188A51C0BEB85035F6878698268466895
:1083D000964240F20381DBF868103D8A67010297FC
:1083E000CF19B61AD7F81829B54228BF354697B223
:1083F0000134B5EB870F059447D826030196039304
:108400000378002B5BD1019FEA1C5FEA920E01EB1F
:108410000704C7681ED03A460EF1FF3652F804CB67
:10842000334606F00109019E043241F806C08BB1C3
:10843000B9F1000F05D052F8041C0432013B216051
:1084400008D052F8046C266052F8041B0432023B38
:108450002160F6D17C19C46003984468606986681D
:108460004268AB199A42836040F2BA80029DDBF801
:108470006810248A4F19D51AD7F81869A54228BF61
:108480002546B2B2B5EB820FBAD90024202383F37C
:108490001188F8F785F9DAF8083043F00101CAF8D5
:1084A000081034B9DAF83458049F47EA0506CAF8C8
:1084B0003468F8F78DF9002383F31188AFE6019A49
:1084C000C4688918002D35D020692A46AE46970821
:1084D0004FD0A569431B48BF03339B109F4238BF51
:1084E0003B464FEA830CCCEB0202DBB12E465F1E0B
:1084F00056F8049B3B46C1F8009007F0010704368C
:108500007BB12FB156F8047C0436013B0F6008D0D4
:1085100056F8047C0F6056F8047B0436023B0F606B
:10852000F6D16544A842A56121D8E668A661002A73
:10853000CDD17546202383F31188F8F731F9A1686E
:1085400020684F19A042A76009D0036823605C60CF
:10855000F8F7CEFAC0F828802068A042F5D1F8F7E5
:10856000F7FBF8F735F9002383F3118874E7002A45
:10857000DFD0A66916F8013BB042A6619CBFE66851
:10858000A661012A28D0A76917F8015BB842A76144
:108590009CBFE768A761022A43EA05231CD0A769AC
:1085A00017F8016BB842A7619CBFE768A761032A6F
:1085B00043EA064310D0A56915F8017B8542A56101
:1085C00024BFE568A561043A43EA076304D00B6061
:1085D000002A7FF47CAFACE70022F8E7601C05902E
:1085E000012453E7AFF30080AFF30080AFF30080C6
:1085F000F8B5846E04EB41134FF0FF32D3F80869ED
:10860000C3F80829F30705460F4603D5D4F81038F8
:10861000DA0723D4330606D50121D4F8340801FA49
:1086200007F7074200D1F8BD202383F31188F8F73C
:10863000EFF86B6FD4F83428E86F3B4322EA070762
:108640006B67C4F8347818B1F8F752FA0020E8677D
:10865000F8F7F6F8002383F31188F8BD00EB8102E8
:10866000B0F808E0D368012202FA01F22EEA020211
:1086700002819B689847CDE7AFF30080AFF300809D
:1086800070B5856E6B69AC691C40E10406466C618F
:1086900031D4A20448BFD5F80838230704D5706840
:1086A000C16809B130468847E0062ED46103D5F889
:1086B00018580BD5EA075DD4AB0761D4680765D4B9
:1086C000290769D4EA066DD4AB0671D420030BD513
:1086D000E90336D4AA033AD46B033ED4280342D428
:1086E000E90227D4AA0200D470BD30460521BDE8B6
:1086F0007040FFF7D5BCFFF78BF873681B68002B41
:10870000C7D0304600219847C3E7202383F3118860
:10871000F8F77EF8AA69F06F22F01003AB6118B188
:10872000F8F7E6F90020F067F8F78AF8002383F3FA
:108730001188BBE704213046FFF7B2FCAA02D3D56B
:10874000D3E700213046FFF7ABFCAA03C4D50121D3
:108750003046FFF7A5FC6B03C0D530460221FFF77A
:108760009FFC2803BCD503213046FFF799FCE902A2
:10877000B8D5DFE700213046FFF73AFFAB079DD5BC
:1087800030460121FFF734FF680799D502213046B2
:10879000FFF72EFF290795D503213046FFF728FF65
:1087A000EA0691D504213046FFF722FFAB068DD5AE
:1087B00030460521FFF71CFF88E700BFAFF30080BC
:1087C00008B5F8F75DF841F66810C2F20000FFF74F
:1087D00057FFF8F775F8BDE80840F7F791BE00BFFE
:1087E00008B5F8F74DF841F61830C2F20000FFF76F
:1087F00047FFF8F765F8BDE80840F7F781BE00BF0E
:10880000F8B541F66815C2F200052846FEF7D8FE15
:108810004FF0A04305F1CC07AB664AF64073002643
:10882000C0F600033946FF2205F1800041F61834F6
:10883000C2F20004EB66AE67EE67F8F7E1FA05F501
:10884000B27155223846F8F7DBFA2046FEF7B8FE3B
:108850003346C4F2040304F1CC05A3664AF6507310
:108860002946FF2204F18000C0F60003A667E667F0
:10887000E366F8F7C5FA284604F5B2715522BDE85B
:10888000F840F8F7BDBA00BFAFF30080AFF3008047
:1088900070B50378866E012B82B0054601D002B018
:1088A00070BD3B4885424CD03A498D425CD0AC6F9C
:1088B00000206867002C38D04FF4A251AC6EC4F28F
:1088C00000010322F160C0F2202200234FF4502067
:1088D0000121C6F80028C6F8003EB0632161226974
:1088E000D007FCD40C20FEF703FC2369002BFCDA34
:1088F00000242846B460FFF78BFB6868C6F8104870
:10890000C168C6F81448C6F81C4851B143F20802C1
:10891000B2614FF0FF307061B16841F00102B260A6
:10892000BDE74FF44053B361F3E7009505F18000D4
:108930004FF498710222184BF8F782FAE867A8679B
:10894000BAE74FF46054C4F20204636B43F0800052
:1089500060636169002341F08002626143206361CA
:10896000E021F7F73DFEA2E74FF46054C4F20204A1
:10897000226B42F0005323632069002240F08051B3
:1089800021614D202261E021F7F72AFE8FE700BF29
:1089900068190020181B002021810008AFF3008017
:1089A00038B50378856E012B044607D0FFF730FBFE
:1089B00000206067C5F81C08A860A86338BD00BF28
:1089C0002DE9F84F80460021846EFFF799FBD8F817
:1089D0006CB0DBF808A04FF00061FF22C4F800196A
:1089E0000AF00106C4F8001B0123C4F80829C4F8E2
:1089F000082BBAF1000F30D056B102235345C4F80A
:108A00002019C4F8201BC4F82829C4F8282B24D81E
:108A10005F1C03F1490C03F1480903F1580003F10D
:108A2000590E04EB431604EB471540014FEA4C176F
:108A30004FEA49194FEA4E1C0233534544F80910D6
:108A40002150C6F80829C6F8082BE15144F80C104B
:108A5000C5F80829C5F8082BDAD9DBF80030D8F8B2
:108A600068204FF0FF314FF001161025C4F8181898
:108A7000C4F81C68C8F8703063621561106910F0A2
:108A80001005FBD10C20FEF733FBD4F80078D8F8A2
:108A90006C30D8F87060586827F4FE62C4F800287B
:108AA000A16941F4402747F010070921A76106F1A9
:108AB0001002C4F8101848F24003C4F814180C4906
:108AC000C1F200038242C8F80C10C4F8105BC4F86D
:108AD000003BC4F81059C4F80039C8F8702002D916
:108AE0000448F7F76DFF46F48016A662BDE8F88FDC
:108AF00090AF000870AF0008AFF30080AFF30080C4
:108B0000836E90F86610D3F8002822F4FE6040EAE5
:108B10000111C3F800187047AFF30080AFF3008075
:108B20002DE9F84F8F1C00EB870306465B68846EC7
:108B30001A6802F0030002280D464FF4004866D080
:108B4000032861D04146C1F20001C1F204080128A6
:108B500018BF88466A01A0180021C0F8101BD86809
:108B6000002857D0588A05F15801490148EA000009
:108B700060504FF0010CD4F81C0805F110010CFAFC
:108B800001F10143C4F81C18A21899680020C2F82A
:108B90001009002951D09A8B198AF36ED6F870907B
:108BA0008808012A88BF5043596800EB09028A42AD
:108BB000326705F1FF3B4FEA004A21D80BF1400034
:108BC00004EB800B4AEA0903304606EB8706294688
:108BD000CBF80430FFF794FA7268108A05F1480167
:108BE0004B0140EA855141EA0802E2500123D4F8E2
:108BF0001C0803FA05F50543C4F81C58BDE8F88FB6
:108C00001D48F7F7DDFED9E7C1F20C08A2E7C1F273
:108C100008089FE705F15801490105F1100E605859
:108C200020F4004060500121D4F81C0801FA0EF134
:108C300020EA0100C4F81C08A6E705F13F0304EB95
:108C400083024FF48061C0F2002151603046294612
:108C5000FFF756FA05F148004301E25822F40041BB
:108C6000E1500123D4F81C0803FA05F520EA0505B4
:108C7000C4F81C58BDE8F88F70AF0008AFF300804F
:108C80005831836E49015A5812F4004004D012F44E
:108C9000001F0CBF02200120704700BFAFF300800F
:108CA0004831836E49015A5812F4004004D012F43E
:108CB000001F0CBF02200120704700BFAFF30080EF
:108CC00000EB8101CB68186A01684368116053604A
:108CD000704700BFAFF30080AFF30080AFF30080B8
:108CE00000EB810310B4DC68806EA269638A54686B
:108CF000621ED41800EB411143F0C042B4FBF3F301
:108D000042EAC340C1F8100B10BC7047AFF30080BB
:108D100000EB810310B4DA6853695B686BB1128AA7
:108D2000806E5C1EA418B4FBF2F200EB411143EA22
:108D3000C243C1F8103910BC7047806E00EB41127D
:108D40004FF40021C2F81019F5E700BFAFF300801F
:108D50005831836E49015A5842F08060585070472C
:108D600001F14802836E5201985840F00440985037
:108D70000120D3F8342800FA01F11143C3F8341864
:108D8000704700BFAFF30080AFF30080AFF3008007
:108D90005831836E49015A5842F4001058507047B8
:108DA0004831836E49015A5842F4001058507047B8
:108DB0005831836E49015A5822F4001058507047B8
:108DC0004831836E49015A5822F4001058507047B8
:108DD000FEF7E6BFAFF30080AFF30080AFF3008093
:108DE000704700BFAFF30080AFF30080AFF30080A7
:108DF00038B504460D4698B128600C49204600F06D
:108E000017FE24182046094900F0EAFD286018B131
:108E1000002300F8013B2860207820B1204638BDAF
:108E20000C68002CE9D10024204638BDC0B00008F1
:108E3000002903DD0449054A00F012BA044B054934
:108E4000DA6800F00DBA00BFC4B00008D0B0000866
:108E500004120020D8B00008AFF30080AFF3008008
:108E600010B5002982B0044606DD1949194A02B03E
:108E7000BDE8104000F0F4B91749184A00F0F0F9C5
:108E800020461749174A00F0EBF920461649174AC1
:108E900000F0E6F920461649164A00F0E1F92046AE
:108EA0001549164A00F0DCF920461549154A00F02C
:108EB000D7F920461449154A00F0D2F9144B154948
:108EC00000932046144A154B00F0CAF902B010BDB9
:108ED000C4B00008E0B00008E8B00008DCA1000859
:108EE000FCB0000824A2000810B1000880A200080D
:108EF00024B10008A0A2000838B10008C0A20008F0
:108F00004CB10008ECA2000860B100081CA30008E6
:108F10009CB1000874B100088CB1000898B1000839
:108F200041F6E043C2F200031B607047AFF30080DC
:108F300000B583B048F6F1730090C0F6000300203E
:108F4000F8F7A6F903B000BDAFF30080AFF30080DF
:108F5000F0B5013A83B00E4604460D468F182368DB
:108F600001220DF107015B682046984738B39DF850
:108F70000710042926D008290ED00D2928D01F2932
:108F8000EDD9BD42EBD222682046936898479DF800
:108F9000070005F8010BE2E7B5422046DFD0226862
:108FA000936898472068202182682046904723686C
:108FB0009DF807109A6820469047013DCFE70120B1
:108FC00003B0F0BD2046064900F04AF90120F7E75A
:108FD0002046044900F044F900202870F0E700BF63
:108FE000A8B1000874B30008AFF30080AFF30080AD
:108FF0002DE9F0436B4B05689C696B4A47686B49E8
:10900000A26197B0284600F02BF9DFF8C48128460A
:10901000674900F025F9284606A94022FFF798FF86
:109020000446002830D1694606A8FFF7E1FE6946EC
:1090300006462046FFF7DCFE0346002838D02046CF
:1090400069460193FFF7D4FE0246002852D020461D
:1090500069460292FFF7CCFE034600284CD020461A
:1090600069460393FFF7C4FE0246002846D0204617
:1090700069460492FFF7BCFE002841D028464D49BE
:1090800000F0EEF80594C2E728464B4900F0E8F8F6
:10909000202383F31188F7F783FB00214748F8F773
:1090A0006FFF0020F8F71CF8002017B0BDE8F08330
:1090B000044616A800EB8401002341F8543C002E1E
:1090C000A5D030463E4900F063FC38B9002CDFD013
:1090D00028463C493A4A00F0C3F898E730463A49F6
:1090E00000F056FC70B928461CB33649364A00F0E9
:1090F000B7F88CE70124DCE70224DAE70324D8E799
:109100000424D6E7D8F80000002832D0DFF8C09059
:1091100003E059F8080F00282BD0314600F038FC46
:109120000028F6D1D9F804302846214601AA9847EC
:109130006DE7264900F094F8D8F8002042B1244C9D
:109140002846244900F08CF854F8082F002AF7D15B
:1091500057B13A6842B13C4628461E4900F080F8B3
:1091600054F8082F002AF7D128461B4900F078F858
:109170004DE767B1386850B1B94602E059F8080FB9
:1091800028B1314600F004FC0028F7D1CAE7284690
:109190001249324600F064F82846114900F060F8A0
:1091A00035E700BF14120020ACB10008B4B10008CC
:1091B000CCB10008E0B10008D4B10008E01C0020E8
:1091C000F8B10008C4B0000800B2000808B20008F6
:1091D000C008002020B2000874B3000824B20008C0
:1091E00028B20008AFF30080AFF30080AFF3008037
:1091F000F0B400F10B0C074600F10A050C46B1FB78
:10920000F2F602FB161101F13003392BC8BF01F150
:109210003703DBB2B4FBF2F42846314605F80139D6
:10922000002CECD1C0EB0C020146B818FA438218AE
:10923000D2070AD507F8013B11F8013F05E011F804
:10924000013F7B7011F8013F571C3A4602F8013B81
:109250008242F4D1F0BC7047AFF30080AFF30080DE
:109260000EB42DE9F04F86B00FAB0DF10D010DF1ED
:109270000C0B53F8044B0091CBEB010C0293054609
:10928000CDF804C0264616F8011B59B125290ED089
:109290002C68A368344626462846984716F8011BD2
:1092A0000029F3D106B0BDE8F04F03B070476378F2
:1092B0002D2B00F07A814FF000082E2B00F07181E9
:1092C000202734460299002606E00A78043106EB8E
:1092D0008606237802EB4606A3F13002D2B20134AF
:1092E000092AF4D92A2BF0D000202E2B02914BD042
:1092F0006C2B55D04C2B53D0A3F1410119298CBFB5
:1093000000210121A3F14402342A00F24481DFE864
:1093100012F0330142014201420142013301420194
:109320004201420142014201310142014201420136
:10933000420142012901420142011C014201420154
:109340004201420142014201420142014201420105
:10935000E200330142014201420142013301420174
:1093600042014201420142013101420142014201F6
:109370004F0042012901420142011C010A780431D7
:1093800000EB800302EB430014F8013BA3F1300231
:10939000D2B2092AF4D92A2BF0D06C2B0291A9D190
:1093A0002178002900F006810B4601340121A9E74C
:1093B000029F4BF230293B68C0F60009002B18BF12
:1093C0009946391D99F80020029147F6FF77002849
:1093D00008BF3846002A00F0098199F80130411E83
:1093E00009EB000A09F1010201F00100B3B1924555
:1093F000134600F0F78060B15778013277B192459B
:10940000134606D1EEE0577801323FB19A4500F09D
:10941000E98058785A1C531C0028F4D1C9EB020A81
:10942000CAEB0606202726EAE676B8F1000F63D0DD
:10943000BAF1000F27DDC846286818F8011B8368B9
:10944000CA446FEA09090AEB0902284602F0010939
:109450009847D04517D0B9F1000F03D0286818F805
:10946000011B0BE02868C146826819F8011B2846D9
:109470009047286898F8011009F101088368284688
:109480009847D045EED1002E3FF4FCAE2968731EFC
:109490008A681E462846394603F001089047002E88
:1094A0003FF4F0AEB8F1000F07D0296828468B686A
:1094B00039469847013E3FF4E5AE28683946826850
:1094C000284690472968013E8B68284639469847C8
:1094D000013EF2D1D6E60298DDF804A00268011D33
:1094E00002918DF80C202027D946CAEB060626EA01
:1094F000E676B8F1000F9BD17642002E98D099F80D
:1095000000102D2963D02968F2438B68284639461C
:1095100002F00108984701368AD0B8F1000F06D052
:10952000296828468A6839469047013680D02868DD
:109530003946836828469847296801368A6828464C
:10954000394690470136F2D172E71022029B69B189
:10955000191D029119685846FFF74AFED946CBEB10
:10956000000AC2E70A22029B0029F1D1181D1968DE
:109570000290F0E70822E9E7029B1A1DE1B9196899
:10958000029200291CDB58460A22FFF731FED94619
:10959000CBEB000AA9E78DF80C30DDF804A0D94622
:1095A000A3E77378302701368BE6A61CA3784FF02B
:1095B000010882E60121A5E6196802920029E2DA93
:1095C0002D208DF80C0049420DF10D00DCE7302F05
:1095D00099D12B6828469A68904709F101090AF148
:1095E000FF3A90E7C9EB0A0A20277EE79246202738
:1095F0007BE700BFAFF30080AFF30080AFF30080E4
:10960000022906D0032906D00748012918BF0020E7
:10961000704706487047032A03D8054800EBC2008C
:1096200070470020704700BF20B60008D0B2000885
:10963000F0B50008AFF30080AFF30080AFF3008017
:109640000E4B0F4A98692DE9F0414FF400658026D2
:10965000DFF830808261C4F20205374698F8004096
:109660006F83042C14BF4FF4FA74FA242046F7F7E2
:10967000EFFC2E832046F7F7EBFCEFE714120020F7
:1096800050B30008181B0020AFF30080AFF3008038
:10969000002938B5044615DC0D4D06E028680D4953
:1096A00003680B484FF480629847236800212046E6
:1096B0005A6990470130F1D007492046BDE838404B
:1096C000FFF7CEBD0549BDE83840FFF7C9BD00BF73
:1096D000281E0020D808002058B3000868B30008EE
:1096E00010B5002982B0044605DD0E4902B0BDE880
:1096F0001040FFF7B5BD0C4A0C4B90694FF4D87180
:10970000826800940020F7F7C3FD20B102B0BDE8E5
:109710001040F7F71DBD0649204602B0BDE81040D5
:10972000FFF79EBD78B300081412002061310008D5
:1097300088B30008AFF30080AFF30080AFF3008080
:10974000F0B5002985B0064605DD144905B0BDE831
:10975000F040FFF785BD1249124FFFF781FDF7F783
:109760000FFE0446A268E368656A009294F822003E
:109770000D49421E019294F82000039557F820509D
:10978000224630460295FFF76BFD2046F7F710FEA4
:1097900004460028E6D105B0F0BD00BF98B300082C
:1097A000ACB3000830B50008DCB30008AFF30080AC
:1097B00030B5002983B0044604DD0E49FFF750FDA3
:1097C00003B030BD01A90020F9F72AFA0546F9F7E0
:1097D00047F9094902462046FFF742FD20462A463E
:1097E0000649FFF73DFD20460549019AFFF738FD80
:1097F000E6E700BFFCB300080CB400082CB4000876
:1098000044B40008AFF30080AFF30080AFF30080F2
:10981000022938B50C46054616D1202383F311885A
:10982000F6F7F6FF28460121084AFDF739FF2146E1
:10983000074A2846FDF734FF0648FDF791FDF6F785
:10984000FFFF002383F3118838BD00BF40B200083A
:10985000E0B20008281E0020AFF30080AFF30080C4
:10986000F0B48407034600F08E80541E002A00F0F6
:109870008880E507CEB211D41A46671E02F8016B44
:109880001346154692070FD0002C7AD003F8016BCF
:109890009A073C461D4607D0013CEDE7034603F816
:1098A000016B9A071D46F7D1032C52D9CEB246EA76
:1098B00006270F2C47EA07432DD9A4F110021746BB
:1098C0000F2FC2F300162B606B60AB60EB6005F1ED
:1098D000100216D93EB1103F136053609360D360FD
:1098E00010320F2F0DD9203F02F110061360536084
:1098F0009360D360136153619361D36120320F2F62
:10990000F1D8A4F1100222F00F0204F00F0410327B
:10991000032C15441DD9271F3E462A46032E42F824
:10992000043BC7F380070DD927B1043E032E42F84C
:10993000043B07D91746083E47F8043B53603A1DDD
:10994000032EF7D8231F23F00302131D04F0030492
:10995000ED18B4B12B46C9B203F8011B2C19ED4325
:109960006219A34202F001050BD01DB103F8011BDF
:10997000A34206D01A4602F8011B5970531CA34299
:10998000F8D1F0BC7047054614468DE70000000092
:109990000F4B70B41D6810F8016BAC193246637838
:1099A00003F00304012C11F8014B08BF06F120025B
:1099B0002E192346767806F00306012E08BF04F11F
:1099C0002003D21A01D1002BE5D1104670BC70479C
:1099D000DC0C00200000000000000000000000007F
:1099E000F0B40478002C1FD00E780746A6B1A6422A
:1099F00018D04B1C01E0944209D01D4613F8012BEE
:109A0000002AF8D17C780130002CEED12A78002A87
:109A100008BF0020F0BC70477C780D460130002C58
:109A2000E3D1F3E73246F2E72046F3E70000000017
:109A3000F0B40478D4B10F7806469FB10546BC4215
:109A400018BF0A4602D108E09C4206D012F8013F36
:109A5000002BF9D1281AF0BC70476C7801361CB184
:109A60003546ECE73846F6E7301AF4E72046F2E7E9
:109A700069646C6500000000000000000000000048
:109A800053562331000000005356233200000000DB
:109A900053562333000000005356233400000000C7
:109AA00053562335000000005356233600000000B3
:109AB000535623370000000053562338000000009F
:109AC0005356233900000000535623313000000064
:109AD0005356233131000000000000000000000058
:109AE00022636856545365744922282900000000F7
:109AF0002263685654526573657449222829000010
:109B00006368565452657365744928292C202331A3
:109B10000000000000000000000000000000000045
:109B2000636853636852656164794928292C20234E
:109B300031000000737461636B206F766572666C30
:109B40006F7700000000000000000000000000002F
:109B500022636854686443726561746549222829E8
:109B60000000000022636854686453657450726991
:109B70006F726974792228290000000063685468B4
:109B800064526573756D6528292C2023310000000F
:109B9000226368546864536C65657022282900004C
:109BA0006368546864457869745328292C202331EC
:109BB00000000000226368546864576169742228B9
:109BC0002900000063685468645761697428292C6F
:109BD0002023310063685468645761697428292C14
:109BE0002023320000000000000000000000000000
:109BF000636854686441646452656628292C202394
:109C000031000000636854686452656C6561736577
:109C100028292C2023310000226368546864437291
:109C20006561746546726F6D4D656D6F7279506FC9
:109C30006F6C2228290000000000000000000000D6
:109C40006D61696E0016801104044C080C10141824
:109C50001C2021222324000000000000000000003E
:109C600063685265674E65787454687265616428EC
:109C7000292C20233100000000000000000000001B
:109C800022636853656D496E6974222829000000BB
:109C900022636853656D52657365744922282900F3
:109CA000636853656D52657365744928292C2023B8
:109CB0003100000022636853656D57616974532257
:109CC00028290000636853656D576169745328291A
:109CD0002C2023310000000022636853656D57611A
:109CE000697454696D656F757453222829000000EA
:109CF000636853656D5761697454696D656F7574F8
:109D00005328292C2023310022636853656D536941
:109D1000676E616C22282900636853656D5369671B
:109D20006E616C28292C20233100000022636853C7
:109D3000656D5369676E616C492228290000000037
:109D4000636853656D5369676E616C4928292C20DF
:109D50002331000022636853656D416464436F756D
:109D60006E746572492228290000000063685365FB
:109D70006D416464436F756E7465724928292C20A7
:109D80002331000022636853656D5369676E616C0F
:109D90005761697422282900636853656D536967A8
:109DA0006E616C5761697428292C202331000000F2
:109DB000636853656D5369676E616C576169742898
:109DC000292C2023320000000000000000000000C9
:109DD0002263684D7478496E697422282900000056
:109DE0002263684D74784C6F636B532228290000FE
:109DF00063684D74784C6F636B5328292C20233192
:109E00000000000063684D74784C6F636B53282921
:109E10002C202332000000002263684D74785472B5
:109E2000794C6F636B5322282900000063684D74DE
:109E300078556E6C6F636B28292C2023310000004D
:109E400063684D7478556E6C6F636B28292C2023E2
:109E50003200000063684D7478556E6C6F636B530D
:109E600028292C202331000063684D7478556E6CCE
:109E70006F636B5328292C20233200000000000060
:109E8000226368436F6E64496E697422282900005A
:109E9000226368436F6E645369676E616C22282980
:109EA00000000000226368436F6E645369676E614F
:109EB0006C49222829000000226368436F6E6442C7
:109EC000726F616463617374492228290000000085
:109ED000226368436F6E64576169745322282900B6
:109EE0006368436F6E64576169745328292C20237B
:109EF00031000000226368436F6E645761697454D7
:109F0000696D656F75745322282900006368436F7B
:109F10006E645761697454696D656F75745328294F
:109F20002C20233100000000000000000000000091
:109F300022636845767452656769737465724D6112
:109F4000736B222829000000226368457674556EE1
:109F500072656769737465722228290022636845F7
:109F600076745369676E616C4922282900000000ED
:109F70002263684576745369676E616C22282900F4
:109F800022636845767442726F6164636173744DD5
:109F900061736B49222829002263684576744469FD
:109FA0007370617463682228290000006368457635
:109FB00074446973706174636828292C202331000C
:109FC0002263684D736753656E6422282900000080
:109FD00063684D736752656C6561736528292C2031
:109FE000233100000000000000000000000000001D
:109FF0002263684D42496E697422282900000000DE
:10A000002263684D4252657365742228290000005E
:10A010002263684D42506F73745322282900000058
:10A020002263684D42506F73744922282900000052
:10A030002263684D42506F737441686561645322B6
:10A04000282900002263684D42506F73744168658F
:10A0500061644922282900002263684D42466574E4
:10A0600063685322282900002263684D42466574C4
:10A070006368492228290000000000000000000059
:10A0800022636849515265616454696D656F7574E6
:10A09000222829002263684F5157726974655469F8
:10A0A0006D656F7574222829000000000000000013
:10A0B00022636848656170496E697422282900002E
:10A0C0002263684865617046726565222829000030
:10A0D0006368486561704672656528292C202331C4
:10A0E0000000000000000000000000000000000070
:10A0F000226368506F6F6C496E69742228290000D2
:10A10000226368506F6F6C416C6C6F634922282921
:10A1100000000000226368506F6F6C4672656549ED
:10A1200022282900226368506F6F6C4C6F61644174
:10A1300072726179222829000000000000000000EE
:10A140005812002088130020B8140020E8150020C1
:10A1500018170020000000000000000000000000B0
:10A160002A2A2A2043686962694F532F5254207467
:10A170006573742073756974650000002A2A2A00CB
:10A180002A2A2A204B65726E656C3A2020202020F6
:10A19000202000002D2D2D20546573742043617301
:10A1A000652000002D2D2D20526573756C743A20AA
:10A1B0004641494C55524520282300005D290000A6
:10A1C0002D2D2D20526573756C743A2053554343E1
:10A1D000455353004641494C55524500322E362EC8
:10A1E000300000002A2A2A20436F6D70696C656474
:10A1F0003A202020202000004A756C20313920327E
:10A20000303133202D2031353A34373A333600009F
:10A210002A2A2A20436F6D70696C65723A202020CB
:10A220002020000047434320342E372E3320323085
:10A23000313330333132202872656C6561736529A2
:10A24000205B41524D2F656D6265646465642D34F9
:10A250005F372D6272616E6368207265766973691B
:10A260006F6E203139363631355D00002A2A2A20BA
:10A270004172636869746563747572653A200000A1
:10A2800041524D76372D4D45000000002A2A2A20E4
:10A29000436F72652056617269616E743A200000E6
:10A2A000436F727465782D4D340000002A2A2A20ED
:10A2B000506F727420496E666F3A20202020000093
:10A2C000416476616E636564206B65726E656C20B7
:10A2D0006D6F6465000000002A2A2A20506C6174AA
:10A2E000666F726D3A2020202020000053544D33B9
:10A2F0003246347878204869676820506572666F06
:10A30000726D616E636500002A2A2A205465737499
:10A3100020426F6172643A20202000005374205361
:10A32000544D3332343337495F4556414C000000B9
:10A3300020280000205B000046696E616C20726579
:10A3400073756C743A2000000000000000000000EB
:10A35000C0A30008A0A4000860A60008F0A600089A
:10A3600000A7000840A70008F0A7000860A80008A0
:10A3700040A90008A0A90008B0A90008000000003A
:10A380003CA400080000000000000000D1360008D6
:10A3900020A400080000000000000000D1350008E3
:10A3A00004A4000800000000000000008134000840
:10A3B000F4A300080000000000000000D1370008EE
:10A3C00080A3000890A30008A0A30008B0A3000881
:10A3D000000000000000000000000000000000007D
:10A3E000410000004200000043000000414243449D
:10A3F00045000000546872656164732C2064656CCC
:10A4000061797300546872656164732C207072699D
:10A410006F72697479206368616E6765000000007F
:10A42000546872656164732C20656E717565756919
:10A430006E6720746573742023320000546872655F
:10A440006164732C20656E71756575696E67207423
:10A45000657374202331000000000000000000003C
:10A4600018A500087138000800000000313A000803
:10A4700004A500086138000800000000313C000815
:10A48000E4A400085138000800000000913B0008D7
:10A49000C0A400080000000000000000813800088F
:10A4A00060A4000870A4000880A4000890A400081C
:10A4B000000000000000000000000000000000009C
:10A4C00042696E6172792053656D6170686F726563
:10A4D000732C2066756E6374696F6E616C69747934
:10A4E0000000000053656D6170686F7265732C2009
:10A4F00061746F6D6963207369676E616C2D77613C
:10A500006974000053656D6170686F7265732C200B
:10A5100074696D656F75740053656D6170686F72F5
:10A5200065732C20656E71756575696E6700000036
:10A53000B8A50008A140000800000000D1430008B1
:10A54000A0A500088140000800000000E1410008CB
:10A5500088A50008614000080000000011410008C3
:10A5600074A500083140000800000000D13E00083A
:10A5700041424300436F6E645661722C20626F6FDC
:10A580007374207465737400436F6E645661722C2B
:10A590002062726F61646361737420746573740008
:10A5A000436F6E645661722C207369676E616C2014
:10A5B00074657374000000004D7574657865732CC4
:10A5C00020737461747573004D7574657865732CB0
:10A5D000207072696F726974792072657475726E19
:10A5E000000000004D7574657865732C20707269E9
:10A5F0006F7269747920696E6865726974616E63DF
:10A60000652C20636F6D706C6578206361736500E5
:10A610004D7574657865732C207072696F726974FA
:10A620007920696E6865726974616E63652C207348
:10A63000696D706C65206361736500004D757465AC
:10A640007865732C207072696F7269747920656EF9
:10A6500071756575696E672074657374000000001C
:10A6600090A60008A0A60008B0A60008C0A6000892
:10A6700030A5000840A5000850A5000860A5000806
:10A6800000000000000000000000000000000000CA
:10A690003CA600080141000800000000F14200084B
:10A6A00010A60008F1400008000000004148000822
:10A6B000E4A50008D1400008000000005147000850
:10A6C000C8A50008B140000800000000A14400082F
:10A6D000E0A600080000000000000000714A000829
:10A6E0004D657373616765732C206C6F6F7000002C
:10A6F000D0A60008000000000000000000000000DC
:10A7000030A700080000000000000000000000006A
:10A710004D61696C626F7865732C20717565756920
:10A720006E6720616E642074696D656F7574730067
:10A7300010A700086152000800000000214B00082B
:10A74000C0A7000850A70008E0A70008000000000C
:10A7500074A700089152000800000000B1520008E0
:10A760004576656E74732C2074696D656F757473AE
:10A77000000000004576656E74732C207761697463
:10A7800020616E642062726F6164636173740000A3
:10A790004576656E74732C20726567697374726197
:10A7A00074696F6E20616E64206469737061746394
:10A7B0006800000000000000000000000000000031
:10A7C00090A70008A1520008000000006155000891
:10A7D0001156000801560008F1550008000000005D
:10A7E00060A7000881520008000000002156000800
:10A7F00030A8000800000000000000000000000079
:10A80000486561702C20616C6C6F636174696F6E58
:10A8100020616E6420667261676D656E7461746933
:10A820006F6E20746573740000000000000000006B
:10A8300000A800082159000800000000D1560008B7
:10A840004D656D6F727920506F6F6C732C20717530
:10A850006575652F6465717565756500000000009C
:10A8600070A80008000000000000000000000000C8
:10A8700040A8000851590008000000007159000864
:10A8800014A90008915C000800000000115E000897
:10A89000E4A80008F15D000800000000B15C0008B9
:10A8A000BCA80008715C000800000000115B0008F3
:10A8B00041424344000000004142000044796E617F
:10A8C0006D696320415049732C2072656769737408
:10A8D000727920616E64207265666572656E63656B
:10A8E0007300000044796E616D69632041504973C3
:10A8F0002C20746872656164732063726561746989
:10A900006F6E2066726F6D206D656D6F727920704D
:10A910006F6F6C0044796E616D69632041504973BB
:10A920002C20746872656164732063726561746958
:10A930006F6E2066726F6D206865617000000000A8
:10A9400080A8000890A80008A0A800080000000047
:10A9500088A90008815F000800000000216300084A
:10A9600070A90008315F000800000000B15F000816
:10A970005175657565732C206F75747075742071D1
:10A9800075657565730000005175657565732C20DC
:10A99000696E7075742071756575657300000000CF
:10A9A00050A9000860A90008000000000000000095
:10A9B00020AD000800AA000830AA000820AA00085C
:10A9C00060AD000870AD000880AD0008F0A9000877
:10A9D00010AD000810AA000830AD000840AD000816
:10A9E00050AD000800000000000000000000000062
:10A9F00010AC00080000000000000000C16A000860
:10AA0000D8AC00080000000000000000716F0008D2
:10AA1000C8AB000800000000000000000169000849
:10AA2000A4AC00080000000000000000816D0008D8
:10AA3000C0AC00080000000000000000916E00089B
:10AA40002D2D2D2053797374656D3A200000000080
:10AA500020627974657300002D2D2D205468726575
:10AA600061643A20000000002D2D2D2054696D6591
:10AA700072203A20000000002D2D2D2053656D61BD
:10AA800070683A20000000002D2D2D204576656E5F
:10AA900074533A20000000002D2D2D204576656E60
:10AAA000744C3A20000000002D2D2D204D7574654A
:10AAB00078203A20000000002D2D2D20436F6E6479
:10AAC000562E3A20000000002D2D2D205175657561
:10AAD00065203A20000000002D2D2D204D61696C6D
:10AAE000422E3A20000000002D2D2D2053636F725E
:10AAF00065203A2000000000206C6F636B2B756EA0
:10AB00006C6F636B2F53000020776169742B73693E
:10AB1000676E616C2F5300002074696D6572732F2E
:10AB2000530000002062797465732F530000000009
:10AB300020746872656164732F5300002063747819
:10AB40007377632F53000000207265736368656438
:10AB5000756C65732F532C2000000000206D736707
:10AB6000732F532C2000000042656E63686D617284
:10AB70006B2C2052414D20666F6F747072696E7439
:10AB80000000000042656E63686D61726B2C206D81
:10AB9000757465786573206C6F636B2F756E6C6F61
:10ABA000636B000042656E63686D61726B2C20738D
:10ABB000656D6170686F72657320776169742F735A
:10ABC00069676E616C00000042656E63686D61725A
:10ABD0006B2C207669727475616C2074696D657276
:10ABE00073207365742F72657365740042656E63BC
:10ABF000686D61726B2C20492F4F2051756575650A
:10AC000073207468726F7567687075740000000057
:10AC100042656E63686D61726B2C20726F756E6435
:10AC200020726F62696E20636F6E74657874207332
:10AC30007769746368696E670000000042656E633F
:10AC4000686D61726B2C206D617373207265736324
:10AC5000686564756C652C20352074687265616464
:10AC60007300000042656E63686D61726B2C207426
:10AC70006872656164732C20637265617465206F0E
:10AC80006E6C790042656E63686D61726B2C207426
:10AC90006872656164732C2066756C6C20637963DF
:10ACA0006C65000042656E63686D61726B2C206399
:10ACB0006F6E746578742073776974636800000040
:10ACC00042656E63686D61726B2C206D6573736194
:10ACD000676573202333000042656E63686D61729F
:10ACE0006B2C206D657373616765732023320000E0
:10ACF00042656E63686D61726B2C206D6573736164
:10AD00006765732023310000000000000000000090
:10AD1000ECAB000800000000000000009169000892
:10AD2000F0AC00080000000000000000F16F000817
:10AD3000A4AB0008E168000800000000716800088A
:10AD400084AB00083168000800000000C1670008FB
:10AD500068AB00080000000000000000C1660008A9
:10AD600084AC00080000000000000000016D000835
:10AD700064AC00080000000000000000516A0008F8
:10AD80003CAC0008F168000800000000F16B00080E
:10AD900022736475537461727422282900000000C4
:10ADA000736475537461727428292C202331000058
:10ADB00073647553746F7028292C202331000000B0
:10ADC0004172000821720008817200086172000857
:10ADD0007172000851720008317200081172000887
:10ADE0000000000000000000000000000000000063
:10ADF0000000000000000000000000000000000053
:10AE00002275736253746172742228290000000055
:10AE1000757362537461727428292C2023310000E9
:10AE20002275736253746F70222829007573625300
:10AE3000746F7028292C2023310000002275736262
:10AE4000496E6974456E64706F696E744922282971
:10AE500000000000757362456E61626C65456E644A
:10AE6000706F696E744928292C202331000000007E
:10AE7000757362456E61626C65456E64706F696E74
:10AE8000744928292C2023320000000022757362A7
:10AE900044697361626C65456E64706F696E74734A
:10AEA00049222829000000007573624469736162B9
:10AEB0006C65456E64706F696E74734928292C2027
:10AEC000233100002275736253746172745265639A
:10AED00065697665492228290000000022757362A1
:10AEE00053746172745472616E736D69744922286F
:10AEF00029000000227573625374616C6C526563A3
:10AF00006569766549222829000000002275736270
:10AF10005374616C6C5472616E736D69744922284C
:10AF200029000000000000000000000000000000F8
:10AF30000100000000000000000000000000000010
:10AF400080000000800100000300000000000000FD
:10AF500000010000000400000500000000000000E7
:10AF60007573625F6C6C645F70756D7000000000DB
:10AF70006F74675F6669666F5F616C6C6F632829C9
:10AF80002C20233100000000000000000000000021
:10AF90000000000041780008917B0008617C0008F7
:10AFA00040004000C81C0020C81C00200100000018
:10AFB000D81C00200000000000000000000000007D
:10AFC000A88A82AA00000000FFFFFFFF00150820EA
:10AFD000FFFF0000B0ABACB000A00A008A08AAAA2C
:10AFE00000030000FFFFFFFF00540000FFFF000010
:10AFF000AA00A00044AAAACCAA6AAA0600000000DF
:10B00000FFFFFFFF004000007FFF0000BA55BB08B4
:10B010000CCC0C002000000000000000FFFFFFFF30
:10B0200045555555FFFF0000000C000000000000D2
:10B030000000000000000000FFFFFFFF55555555C0
:10B04000FFFF000000000000000000000000000002
:10B0500000000000FFFFFFFF55551555FFFF0000E2
:10B060000000000000000000001091280000000017
:10B07000FFFFFFFF55550641BFFE00000000000026
:10B0800000B0B00B0006000000000000FFFFFFFF53
:10B0900050545555FFFF000000000A00000000005A
:10B0A0000000840000000000FFFFFFFF5555115510
:10B0B000FFFD00000000000000A0000000000000F4
:10B0C0002009000055736167653A2025730D0A0059
:10B0D00073797374696D6500256C750D0A00000045
:10B0E000696E666F000000004B65726E656C3A20F9
:10B0F00020202020202025730D0A0000436F6D7052
:10B10000696C65723A202020202025730D0A00000A
:10B110004172636869746563747572653A2025735A
:10B120000D0A0000436F72652056617269616E748A
:10B130003A2025730D0A0000506F727420496E6624
:10B140006F3A2020202025730D0A0000506C617496
:10B15000666F726D3A202020202025730D0A0000B2
:10B16000426F6172643A2020202020202020257325
:10B170000D0A00004275696C642074696D653A209F
:10B1800020202573257325730D0A00004A756C2055
:10B190003139203230313300202D200031353A341E
:10B1A000373A3339000000005E4400007368656C74
:10B1B0006C0000000D0A43686962694F532F5254B6
:10B1C000205368656C6C0D0A0000000063683E2027
:10B1D000000000000D0A6C6F676F757400000000BE
:10B1E000746F6F206D616E7920617267756D656E29
:10B1F00074730D0A00000000657869740000000097
:10B2000068656C7000000000436F6D6D616E647363
:10B210003A2068656C702065786974200000000031
:10B220002573200025730000203F0D0A0000000058
:10B23000286E756C6C290000000000000000000002
:10B240000200000000000000F17300088174000893
:10B2500040004000802000209020002002000000DC
:10B2600000000000000000000000000000000000DE
:10B2700009024300020100C0320904000001020279
:10B28000010005240010010524010001042402022C
:10B290000524060001070582030800FF09040100D8
:10B2A000020A0000000705010240000007058102B4
:10B2B000400000000000000000000000000000004E
:10B2C00008033200360030000000000000000000DB
:10B2D0004300000070B20008000000000000000001
:10B2E00003000000000000000175000800000000DD
:10B2F00010000000E41C002000000000010000001D
:10B30000000000000000000000000000000000003D
:10B31000E8B40008B1970008ECB4000841970008B1
:10B3200058A60008E1960008F4B4000891960008B9
:10B33000000000000000000000000000000000000D
:10B340001198000801960008B17300080000000081
:10B35000626C696E6B6572000D0A0A73746F7070AF
:10B3600065640D0A0000000055736167653A207737
:10B37000726974650D0A000055736167653A20743F
:10B380006573740D0A0000006F7574206F66206D80
:10B39000656D6F72790D0A0055736167653A2074A7
:10B3A0006872656164730D0A00000000202020208F
:10B3B0006164647220202020737461636B2070725A
:10B3C000696F207265667320202020207374617479
:10B3D000652074696D650D0A00000000252E386C2B
:10B3E0007820252E386C782025346C752025346C17
:10B3F000752025397320256C750D0A00557361671A
:10B40000653A206D656D0D0A00000000636F72657E
:10B410002066726565206D656D6F7279203A202512
:10B42000752062797465730D0A00000068656170AB
:10B4300020667261676D656E74732020203A202546
:10B44000750D0A0068656170206672656520746F0D
:10B4500074616C20203A2025752062797465730D23
:10B460000A00000052454144590000004355525221
:10B47000454E540053555350454E4445440000003A
:10B48000575453454D00000057544D545800000088
:10B490005754434F4E440000534C454550494E4786
:10B4A00000000000575445584954000057544F526B
:10B4B000455654005754414E444556540000000030
:10B4C000534E444D53475100534E444D5347000093
:10B4D00057544D53470000005754515545554500AA
:10B4E00046494E414C0000006D656D007468726500
:10B4F00061647300777269746500000000000000E9
:10B5000012011001020000408304405700020102B2
:10B510000301000000000000000000000000000027
:10B52000281E002010B300080000000000000000EA
:10B5300064B400086CB4000874B4000880B4000857
:10B5400088B4000890B4000898B40008A4B40008B7
:10B55000ACB40008B4B40008C0B40008C8B4000813
:10B56000D0B40008D8B40008E0B40008000000001F
:10B5700004030904000000000000000000000000B7
:10B580002603530054004D006900630072006F00F1
:10B5900065006C0065006300740072006F006E004F
:10B5A000690063007300000000000000000000005C
:10B5B0003803430068006900620069004F005300CF
:10B5C0002F005200540020005600690072007400E1
:10B5D000750061006C00200043004F004D0020000A
:10B5E00050006F00720074000000000000000000B6
:10B5F0000400000070B500082600000080B50008B7
:10B6000038000000B0B5000808000000C0B2000813
:10B61000181B0020010102000000000000000000D3
:10B620001200000000B5000800000000000000004B
:10B630000020202020202020202028282828282002
:10B6400020202020202020202020202020202020FA
:10B650002088101010101010101010101010101062
:10B660001004040404040404040404101010101052
:10B67000101041414141414101010101010101011C
:10B68000010101010101010101010101101010106E
:10B6900010104242424242420202020202020202EE
:10B6A0000202020202020202020202021010101042
:10B6B000200000000000000000000000000000006A
:10B6C000000000000000000000000000000000007A
:10B6D000000000000000000000000000000000006A
:10B6E000000000000000000000000000000000005A
:10B6F000000000000000000000000000000000004A
:10B700000000000000000000000000000000000039
:10B710000000000000000000000000000000000029
:10B720000000000000000000000000000000000019
:04B730000000000015
:10B738000008002000080020000000000C0800207D
:10B748000C08002000000000000000001C08002079
:10B758001C08002000000000000000002C08002049
:10B768002C080020581200206C12002058120020CB
:10B77800581200204408002044080020000000005F
:10B788005008002050080020050000005C08002038
:10B7980060080020000000003001000000000000E8
:10B7A80070080020700800200400000088130020A2
:10B7B8008C1300208813002088130020015F0008E4
:10B7C80000000000940800209408002000000000F9
:10B7D800581200205C120020581200205812002035
:10B7E800015F00080000000000960000000008004B
:10B7F800E0B00008618E0008D0B00008318E000863
:10B808000000000000000000303132333435363794
:10B8180038396162636465663031323334353637BE
:10B8280038396162636465663031323334353637AE
:10B83800383961626364656630313233343536379E
:10B84800383961626364656630313233343536378E
:10B85800383961626364656630313233343536377E
:10B86800383961626364656630313233343536376E
:10B87800383961626364656630313233343536375E
:10B88800383961626364656630313233343536374E
:10B89800383961626364656630313233343536373E
:10B8A800383961626364656630313233343536372E
:10B8B800383961626364656630313233343536371E
:10B8C800383961626364656630313233343536370E
:10B8D80038396162636465663031323334353637FE
:10B8E80038396162636465663031323334353637EE
:10B8F80038396162636465663031323334353637DE
:10B9080038396162636465663031323334353637CD
:10B9180038396162636465663031323334353637BD
:10B9280038396162636465663031323334353637AD
:10B93800383961626364656630313233343536379D
:10B94800383961626364656630313233343536378D
:10B95800383961626364656630313233343536377D
:10B96800383961626364656630313233343536376D
:10B97800383961626364656630313233343536375D
:10B98800383961626364656630313233343536374D
:10B99800383961626364656630313233343536373D
:10B9A800383961626364656630313233343536372D
:10B9B800383961626364656630313233343536371D
:10B9C800383961626364656630313233343536370D
:10B9D80038396162636465663031323334353637FD
:10B9E80038396162636465663031323334353637ED
:10B9F80038396162636465663031323334353637DD
:10BA080038396162636465663031323334353637CC
:10BA180038396162636465663031323334353637BC
:10BA280038396162636465663031323334353637AC
:10BA3800383961626364656630313233343536379C
:10BA4800383961626364656630313233343536378C
:10BA5800383961626364656630313233343536377C
:10BA6800383961626364656630313233343536376C
:10BA7800383961626364656630313233343536375C
:10BA8800383961626364656630313233343536374C
:10BA9800383961626364656630313233343536373C
:10BAA800383961626364656630313233343536372C
:10BAB800383961626364656630313233343536371C
:10BAC800383961626364656630313233343536370C
:10BAD80038396162636465663031323334353637FC
:10BAE80038396162636465663031323334353637EC
:10BAF80038396162636465663031323334353637DC
:10BB080038396162636465663031323334353637CB
:10BB180038396162636465663031323334353637BB
:10BB280038396162636465663031323334353637AB
:10BB3800383961626364656630313233343536379B
:10BB4800383961626364656630313233343536378B
:10BB5800383961626364656630313233343536377B
:10BB6800383961626364656630313233343536376B
:10BB7800383961626364656630313233343536375B
:10BB8800383961626364656630313233343536374B
:10BB9800383961626364656630313233343536373B
:10BBA800383961626364656630313233343536372B
:10BBB800383961626364656630313233343536371B
:10BBC800383961626364656630313233343536370B
:10BBD80038396162636465663031323334353637FB
:10BBE80038396162636465663031323334353637EB
:10BBF80038396162636465663031323334353637DB
:10BC080038396162636465660000000030B6000878
:04000005080002A14C
:00000001FF
