:020000040800F2
:1000000000040020610200083104000831040008E7
:1000100031040008310400083104000831040008EC
:1000200031040008310400083104000851040008BC
:1000300031040008310400083104000821050008DB
:1000400031040008310400083104000831040008BC
:1000500031040008310400083104000831040008AC
:100060003104000831040008310400087110000850
:10007000A1100008D110000801110008311100087A
:1000800061110008911100082117000831040008CF
:10009000310400083104000831040008310400086C
:1000A000310400083104000831040008310400085C
:1000B0003104000831040008A117000831040008C9
:1000C000310400083104000831040008310400083C
:1000D0003104000831040008E11C00083104000864
:1000E000310400083104000831040008310400081C
:1000F000310400083104000831040008C11100086F
:1001000031040008310400083104000831040008FB
:1001100031040008310400083104000831040008EB
:10012000F111000821120008511200088112000884
:10013000B11200083104000831040008310400083D
:1001400031040008310400083104000831040008BB
:10015000E1120008111300084113000831040008DF
:10016000310400083104000831040008310400089B
:10017000310400083104000831040008310400088B
:080180003104000831040008FD
:100190002DE9F84300F06CFE00F032FA25482649BC
:1001A00000F0B6FE4FF40060C4F20200802101228C
:1001B00001F0C6FC4FF4C050C4F202004FF480714D
:1001C000012201F0BDFC4FF4C050C4F202004021F6
:1001D000012201F0B5FC4FF4C0544FF480784FF485
:1001E0000067C4F20204C146C4F20207A4F81890E2
:1001F00040F2DC5000F034FC8026A4F81A804FF462
:10020000FA7000F02DFC3E8340F2DC5000F028FC38
:1002100040253E834FF4FA7000F022FC258340F223
:10022000DC5000F01DFC65834FF4FA7000F018FC00
:10023000DCE700BF480A002000080020AFF3008080
:10024000704700BFAFF30080AFF30080AFF30080D2
:10025000FEE700BFAFF30080AFF30080AFF3008094
:1002600072B6644C84F30988022383F31488BFF3C5
:100270006F8F61486149884218D2CA1C051D531B03
:1002800023F00302034610184FF0553183421960E2
:10029000C2F380020AD01AB185422B46296005D0EC
:1002A0001D1D5960083383426960F9D15448A0424A
:1002B00018D25449041D0A1B22F0030503462818CE
:1002C0004FF0553183421960C5F380020AD01AB14C
:1002D00084422346216005D01D1D596008338342A6
:1002E0006960F9D101F0ACFD4749484881421BD211
:1002F000C61C0C1D321B464822F00302161D056861
:100300000423B3420D60C2F380020DD022B14568D0
:100310000823B342256007D01A1D1D5884585D502C
:100320000833B3428C50F7D13A483B49884217D240
:10033000CB1C041D1A1B22F00305034628180021BC
:1003400083421960C5F380020AD01AB18442234661
:10035000216005D01D1D5960083383426960F9D1C1
:10036000FFF76EFF2D4D2E498D421DD2CC1C2E1D48
:10037000A71BB808471C01242A6800EA0408904714
:10038000BC4211D0B8F1000F05D002243368984761
:10039000BC42354608D0696888470234A8682E1DDB
:1003A00080470835BC42F6D1FFF7F2FE1D4D1E4ACC
:1003B00095421DD2D41C2E1DA71BBB085F1C012417
:1003C000296803EA04088847BC4211D0B8F1000F3D
:1003D00005D0022430688047BC42354608D06A68A0
:1003E00090470234AB682E1D98470835BC42F6D1C1
:1003F000FFF72EFF0008002000000020000400206E
:10040000000400200308002000080020300800201D
:1004100058210008300800201C0B0020880100082B
:10042000880100088801000888010008AFF30080F7
:10043000FEE700BFAFF30080AFF30080AFF30080B2
:1004400000F086FA00DF00BFAFF30080AFF300805A
:10045000EFF30983203383F30988002383F31188A2
:10046000704700BFAFF30080AFF30080AFF30080B0
:1004700008B54FF46D43CEF200034FF44072C0F262
:10048000FA520021996007201021DA6000F090F8FC
:100490000A204FF4007100F08BF80B208021BDE89A
:1004A000084000F085B800BFAFF30080AFF30080D4
:1004B000202383F311884FF46D43CEF20003586874
:1004C00010F4006319D0EFF30983A3F1200282F343
:1004D000098810494FF080708A6943F8040CD07F76
:1004E00009689268896858B1914294BF002201223C
:1004F00062B1094A43F8082C704783F311887047AA
:10050000914234BF00220122002AF2D1034843F86D
:10051000080C704748090020410400084404000802
:1005200008B5202383F3118800F0A2F8002383F399
:100530001188BDE80840FFF7BBBF00BFAFF30080E4
:100540002DE9F04FC1F80CD0D0F80CD0BDE8F08FF9
:10055000002383F311882846A04700F0B1FA7047C2
:10056000F0B44FF461438408CEF20003C03400F0CD
:10057000030553F82470ED00FF26420906FA05F63C
:1005800027EA060601FA05F500F01F0002F16007F0
:10059000012101FA00F02E4343F8246043F82700BC
:1005A00043F82200F0BC7047AFF30080AFF3008047
:1005B00082084FF46D43CEF20003063200F00300D0
:1005C00030B4C00053F82250FF2404FA00F425EAA6
:1005D000040401FA00F10C4343F8224030BC704798
:1005E000024B034A98698261FEE700BF4809002078
:1005F000201F0008AFF30080AFF30080AFF300804E
:1006000000B583B0FFF734FF00F0DAF800F060F8CF
:1006100000F0E6FB00F01CFC40F630004021C2F286
:10062000000000F0A5F940F64811C2F200010122D5
:1006300088610277002383F3118862B641F6307037
:100640008969C0F600008861009340F6780040F2A6
:10065000E153C021C0F60003C2F2000000F0E8F947
:1006600003B000BDAFF30080AFF30080AFF30080B4
:1006700038B5134B9869C27F0AB1511EC177036A1E
:10068000104C5A1C0262E0682268411CA242E160E0
:1006900014D09568013D956085B91368D1685C6098
:1006A0002360D560002383F31188106988472023D5
:1006B00083F31188226890680028EED038BD00BF0F
:1006C0004809002038090020AFF30080AFF3008014
:1006D00040F63813C2F200034FF0FF3200205B6097
:1006E0001B609A60D8607047AFF30080AFF3008062
:1006F00070B40C4E03613468C260A568A94204D985
:100700002468491BA5688D42FAD363680460B4422B
:10071000436018606060816002D0A068411AA160E7
:1007200070BC704738090020AFF30080AFF3008041
:100730000368074A934203D09968826889189960D0
:1007400042681360036800215A60C160704700BFAF
:1007500038090020AFF30080AFF30080AFF30080D2
:10076000202383F31188037F0D2B11D8DFE803F0DA
:1007700020101007100B101010101010100B416AF1
:100780008A68531C8B6090E80C001A6001684B600B
:100790004FF0FF3242628168074B002202771B68EC
:1007A0009A688A42FBD259680360416008605860C9
:1007B000002383F31188704748090020AFF30080BD
:1007C00040F64813C2F2000300225B601B609A608F
:1007D0005B611B61704700BFAFF30080AFF3008027
:1007E00000228168054B02771B689A688A42FBD217
:1007F00059680360416008605860704748090020EC
:1008000040F64813C2F2000310B499691A680877D9
:1008100014201468C87701201077104663601C60AC
:100820009A6110BCFFF78CBEAFF30080AFF300807D
:1008300030B54B1C87B0054611D00B4C0B4AA36951
:1008400001A8FFF755FF2846FFF7DAFF049B13B115
:1008500001A8FFF76DFFA069406A07B030BDFFF740
:10086000CFFF014CF7E700BF4809002061070008EF
:10087000F0B4144F8568BE690446B0686162002315
:1008800085420CD82377394609688A689542FBD996
:1008900048682160606004604C60F0BC704733774A
:1008A000394609688A689042FBD9486831607060AF
:1008B00006604E600123204631462377BC61F0BCC0
:1008C000FFF73EBE48090020AFF30080AFF3008081
:1008D0000E4B18689969026830B453601A608C68CE
:1008E00098610125142300220577CB770A77034608
:1008F00000E01B689A68A242FBD25A680B604A600B
:100900001160596030BCFFF71BBE00BF48090020D2
:100910000D4B18689969026830B453608C681A608E
:1009200001259861002305770B77034600E01B68DB
:100930009A68A242FBD85A680B604A6011605960FD
:1009400030BCFFF7FDBD00BF48090020AFF30080B9
:10095000034B9869C17F09B1FFF7DABFFFF7B8BF52
:1009600048090020AFF30080AFF30080AFF30080B0
:10097000F0B440F64814C2F2000400226569016434
:10098000046100F12C06816000F1280745614FF0F9
:10099000020C60610121142480F81CC04277C477E6
:1009A000C263826302628177826128618762066323
:1009B000C662F0BC704700BFAFF30080AFF30080A9
:1009C0002DE9F00340F64815C2F20005A1F1240C10
:1009D00000EB0C076969C76040F80C30069B7B6030
:1009E00040F25153C0F600033B6202230377142305
:1009F0000026904600F1280900F12C02C37701235C
:100A00000561C0F808804161044668614677C0F816
:100A10004080C66386630662837786610861C0F89A
:100A200028900263C262BDE8F0037047AFF3008014
:100A300010B51C4682B0202383F311882346049C02
:100A40000094FFF7BDFF00210446FFF711FF0023CC
:100A500083F31188204602B010BD00BFAFF30080C1
:100A600008B50146202383F311880620FFF7E0FE36
:100A7000002383F3118808BDAFF30080AFF300803B
:100A800038B50E4B9C692546606255F8280FA84280
:100A900006D00168A162FFF7A3FEA06AA842F8D1C0
:100AA000607F830704D1636922691A6121694B6100
:100AB0000E20BDE83840FFF7A3BE00BF4809002064
:100AC000202383F31188FFF7DBBF00BFAFF3008063
:100AD0000023406000608360704700BFAFF3008078
:100AE00008B5826B037F1143082B81630BD0092B60
:100AF00000D008BD426A11408A42FAD1FFF770FE69
:100B00000021416208BD436A1942F7D108BD00BF08
:100B100070B50468A04205460E4608D0201D0BC8DB
:100B20003343E360FFF7DCFF2468A542F6D170BDD4
:100B300010B4024659B1084B9B69586244680D20B5
:100B400083E814005360236010BCFFF771BE4FF0C0
:100B5000FF3010BC704700BF48090020AFF3008091
:100B600010B4C361019B40608A1800240060846057
:100B700041618161C1600261036210BC704700BFC6
:100B8000426908B503468069824298681AD00130EC
:100B9000986002F8011B19695A618A420BD21868E1
:100BA00098420DD0016819604B60FFF719FE0023D1
:100BB0004362184608BD1868DA6898425A61F1D154
:100BC000002008BD0028E2D06FF0030008BD00BF80
:100BD00070B5202304460E4683F31188C36903B120
:100BE0009847A568204631463DB9FFF7A1FF002888
:100BF000F7DA2B4683F3118870BDA1692269013DA4
:100C0000A56011F8010B9142A16124BFE168A161C7
:100C1000002383F3118870BDAFF30080AFF3008031
:100C20002DE9F0471E460446C769202383F3118847
:100C30004FF0000801F1010901EB020A0FB1204653
:100C4000B847A568204631464DB9FFF771FF002827
:100C5000F7D02B4683F311884046BDE8F087A3699F
:100C6000013DA56013F8012B09F8012C2069A3614F
:100C7000834224BFE368A361002383F31188D14535
:100C800008F10108E8D0202383F3118809F1010954
:100C9000D4E700BFAFF30080AFF30080AFF3008074
:100CA00010B4C361019B40608C1800608260416198
:100CB0008161C1600461036210BC7047AFF30080C2
:100CC000F8B504460F461646202383F31188A5681D
:100CD000204631463DB9FFF72BFF0028F7DA2B46B7
:100CE00083F31188F8BD6369013DA56003F8017BBA
:100CF00022696361934228BFE368E16928BF6361A9
:100D000009B120468847002383F311881846F8BDAF
:100D1000826941699142034610B5806816D0441C2F
:100D20009C6012F8014B19699A618A420BD21868CB
:100D3000984206D0016819604B60FFF751FD00230F
:100D40004362204610BDDA689A61F0E70028E6D0D9
:100D50006FF0020010BD00BFAFF30080AFF3008062
:100D60002DE9F0479A46044688461646D0F81C906E
:100D7000202383F311880027A56820466B1EEDB160
:100D8000A360656918F8011B05F8011B22696561FC
:100D9000954224BFE2686261B9F1000F00D0C847F4
:100DA000002383F311880137013E10D0202383F301
:100DB0001188A56820466B1E002DE1D120465146C2
:100DC000FFF7B6FE0028D7D02B4683F311883846AC
:100DD000BDE8F087AFF30080AFF30080AFF3008091
:100DE00040F6681240F664134CF200010648C2F265
:100DF0000002C2F20003C2F2010120F0070021F05C
:100E00000701106019607047230B0020AFF30080CA
:100E1000202383F31188094B09491A6809680730B0
:100E200020F00700891A88429ABF10181860002223
:100E3000002383F311881046704700BF6809002023
:100E400064090020AFF30080AFF30080AFF30080AF
:100E500040F67013C2F2000340F611610022C0F6A2
:100E6000000103F1100019609A60DA60FFF730BEEC
:100E700008B500F01DFB42F23000C0F6000000F0A3
:100E800087FD00F00DF800F033F800F091F800F065
:100E9000DFF8BDE8084000F0DBBF00BFAFF3008023
:100EA00000F0C6BBAFF30080AFF30080AFF300806B
:100EB00000230122027043608360C36003614361C9
:100EC0001830FFF705BE00BFAFF30080AFF300801E
:100ED00010B4C3600446032382600161037010BC38
:100EE00000F0C6BBAFF30080AFF30080AFF300802B
:100EF00000F096BCAFF30080AFF30080AFF300804A
:100F00000123002103704160704700BFAFF30080F0
:100F100010B52023044683F311888B884160038138
:100F200000F08EFC02202070002383F3118810BD96
:100F30000C30FFF775BE00BFAFF30080AFF3008049
:100F40000C304FF0FF33FFF76BBE00BFAFF30080F4
:100F50003030FFF705BF00BFAFF30080AFF3008074
:100F600030304FF0FF33FFF7FBBE00BFAFF3008020
:100F70000C30FFF72DBE00BFAFF30080AFF3008051
:100F80000C304FF0FF31FFF723BE00BFAFF30080FE
:100F90003030FFF795BE00BFAFF30080AFF30080A5
:100FA00030304FF0FF32FFF78BBE00BFAFF3008051
:100FB00000F02EBFAFF30080AFF30080AFF30080EE
:100FC00070B541F650730546C0F60003044645F877
:100FD000043B82B0656001250B46164604F15401BE
:100FE0001022257200F10C000094FFF7B9FD009467
:100FF00004F1300004F1640110223346FFF750FE83
:1010000002B070BDAFF30080AFF30080AFF300809B
:1010100038B5436904460D463BB104F10C0029463E
:10102000FFF7AEFD00280BDB38BD04300421FFF7CD
:101030006FFD04F10C002946FFF7A2FD0028F3DA4A
:10104000201D8021BDE83840FFF762BDAFF300806E
:1010500000F0DEBDAFF30080AFF30080AFF300809F
:10106000002301220270436083600C30FFF730BD23
:101070004FF4C043C4F2020307481968026810B570
:101080003D2401F03D019C600AB140689047BDE8F5
:101090001040FFF70DBA00BF90090020AFF30080A9
:1010A0004FF4C043C4F2020308481968826810B5BF
:1010B0008C0904F03D014FF474649C600AB1C0686F
:1010C0009047BDE81040FFF7F3B900BF900900203A
:1010D0004FF4C043C4F2020308481968026910B50E
:1010E0000C0C04F03D014FF474149C600AB140698B
:1010F0009047BDE81040FFF7DBB900BF9009002022
:101100004FF4C043C4F2020308481968826910B55D
:101110008C0D04F03D014FF074649C600AB1C0690D
:101120009047BDE81040FFF7C3B900BF9009002009
:101130004FF4C043C4F2020307485968026A10B56D
:101140003D2401F03D01DC600AB1406A9047BDE8F2
:101150001040FFF7ADB900BF90090020AFF3008049
:101160004FF4C043C4F2020308485968826A10B5BC
:101170008C0904F03D014FF47464DC600AB1C06A6C
:101180009047BDE81040FFF793B900BF90090020D9
:101190004FF4C043C4F2020308485968026B10B50B
:1011A0000C0C04F03D014FF47414DC600AB1406B88
:1011B0009047BDE81040FFF77BB900BF90090020C1
:1011C0004FF4C043C4F2020308485968826B10B55B
:1011D0008C0D04F03D014FF07464DC600AB1C06B0B
:1011E0009047BDE81040FFF763B900BF90090020A9
:1011F0004FF4C843C4F2020307481968026C10B5E3
:101200003D2401F03D019C600AB1406C9047BDE86F
:101210001040FFF74DB900BF90090020AFF30080E8
:101220004FF4C843C4F2020308481968826C10B531
:101230008C0904F03D014FF474649C600AB1C06CE9
:101240009047BDE81040FFF733B900BF9009002078
:101250004FF4C843C4F2020308481968026D10B580
:101260000C0C04F03D014FF474149C600AB1406D05
:101270009047BDE81040FFF71BB900BF9009002060
:101280004FF4C843C4F2020308481968826D10B5D0
:101290008C0D04F03D014FF074649C600AB1C06D88
:1012A0009047BDE81040FFF703B900BF9009002048
:1012B0004FF4C843C4F2020307485968026E10B5E0
:1012C0003D2401F03D01DC600AB1406E9047BDE86D
:1012D0001040FFF7EDB800BF90090020AFF3008089
:1012E0004FF4C843C4F2020308485968826E10B52F
:1012F0008C0904F03D014FF47464DC600AB1C06EE7
:101300009047BDE81040FFF7D3B800BF9009002018
:101310004FF4C843C4F2020308485968026F10B57D
:101320000C0C04F03D014FF47414DC600AB1406F02
:101330009047BDE81040FFF7BBB800BF9009002000
:101340004FF4C843C4F2020308485968826F10B5CD
:101350008C0D04F03D014FF07464DC600AB1C06F85
:101360009047BDE81040FFF7A3B800BF90090020E8
:101370002DE9F00F40F610258AB0C2F2000546F2C2
:1013800040400295783046F21045C4F20205A0F5BF
:1013900080600495C4F2020046F240450390C4F216
:1013A000020546F228400695C4F2020046F2704556
:1013B0000590C4F2020546F258400195C4F20200BD
:1013C00046F2B8450790C4F2020546F288400995F6
:1013D000C4F20200029D089046F2100B002040F675
:1013E000901346F2280A46F2400946F2580846F29F
:1013F000700C46F2880746F2A006C2F2000328608D
:10140000C4F2020B039DCBF80000C4F2020AC4F23E
:101410000209C4F20208C4F2020CC4F20207C4F2C8
:1014200002061860CAF800009860C9F80000186148
:10143000C8F800009861CCF8000018623860986223
:10144000306018632860049D98632860059D1864C7
:101450002860069D98642860079D186546F2104430
:1014600028606034019D986530342860C4F202041D
:10147000089D18664FF4C0414FF4C8422860C4F27A
:1014800002019866C4F202022060099C18674FF0BE
:10149000FF35206098678D60CD609560D5600AB09B
:1014A000BDE8F00F704700BFAFF30080AFF30080DE
:1014B0004FF46053C4F2020300224FF0FF30196969
:1014C00070B418611A61596958615A6199699861D3
:1014D0009A611E6A4EF2100166F080561E62CEF2CC
:1014E00000011A6249F23F054EF6F0545E6A5862F6
:1014F000CEF200040720C0F202055A624D608A60F5
:101500000860E0684FF48051CEF2000140F0807036
:10151000E060086840F001000860186C4FF4E0419A
:10152000C4F2000140F080501864086840F48070F4
:101530000860196F01F44070B0F5007F03D04FF4DC
:10154000803119671A674FF46053C4F202031A6FAF
:10155000120407D4186F40F4007119671A6F42F42F
:101560000040186770BCFFF703BF00BFAFF30080F7
:101570004FF46051C4F202014FF080530B640868CD
:1015800040F001020A6008684FF460538207C4F219
:101590000203F8D5196841F480321A6019460868C8
:1015A0004FF460538003C4F20203F8D55A6F42F03F
:1015B000010159671846426F4FF460539207C4F215
:1015C0000203F8D545F21941C0F24071596018681C
:1015D00040F080721A60194608684FF46053800129
:1015E000C4F20203F8D598684FF414424FF47051D6
:1015F000C3F60802C4F20201104340F2057298607B
:101600000A60996841F002009860996801F00C0046
:101610004FF460520828C4F20202F6D1536C43F42E
:1016200080415164506E40F480435366704700BF60
:1016300010B540F61424C2F200042046FFF738FC2F
:101640004FF40052C4F20102A26242F61643054A68
:10165000C0F2020312206021E2622363BDE8104061
:10166000FEF77EBF00200008AFF30080AFF30080DC
:101670000369026B19782DE9F00309B142F4807215
:10168000C468C56A5E8829688768D3F80CC0CF60D3
:10169000012C88BF42F0080204FB06F44C600A608B
:1016A000D1F80090D3F814809F69DE691D6A5C6AE6
:1016B0001B69826A49F00109C1F800904CF0806012
:1016C000002113F0804F43F4407340F4807014BF46
:1016D00043F0030343F001031160C2F80C8017616B
:1016E000D6621563546350609360BDE8F0037047A1
:1016F000C16A0A68136810B423F01F0414601368E9
:1017000013F00103FBD10C7A826A49683D2000FA8C
:1017100004F00860536093600123936010BC70472D
:101720004FF40053C4F2010300211A6810B5196088
:10173000910625D5164CE06A03685A6802B3216900
:10174000F1B12046FFF7D4FF206983683BB1052241
:1017500001212270204698472178052914D00022C3
:101760002261202383F31188606930B14FF0FF3389
:10177000074943624A61FFF733F8002383F3118876
:10178000BDE81040FEF794BE02202070E7E700BFDE
:10179000140A0020AFF30080AFF30080AFF30080A5
:1017A00038B51C4D2B691A8A9C89A4B21440E143B8
:1017B00004F0020089B282B21982002A24D104F016
:1017C000040082B2DAB904F0080082B292B904F0DF
:1017D000100082B24AB9E30703D56A680D489368DE
:1017E0009847BDE83840FEF763BE6B680948996AC0
:1017F0008847F0E76B680748196A8847E7E76B682E
:10180000044899698847DEE76B6828461969884764
:10181000D5E700BF480A0020AFF30080AFF3008097
:1018200010B540F64824C2F200042046FFF768FBDA
:101830004FF40063C4F20003236110BDAFF30080D6
:101840000378012B70B504465FD0036900221A802B
:101850009A811A825A639A63DA631A645A626168D7
:10186000E66808682589CA688C8DB6FBF0F00138F7
:10187000013D02F00F0280B2ADB2012A1885DD628F
:101880009C8003D0022A0CBF03220022486900F08A
:101890000F0001281ED002281AD0C86900F00F00DE
:1018A00001281ED002282BD0486A00F00F00012822
:1018B0001ED002281FD089681A84081C18BF012076
:1018C00001229A820021988185201982188070BD9A
:1018D00042F02002C86900F00F00012842F0100217
:1018E000E0D142F48072486A00F00F000128E0D194
:1018F00042F48052DFE742F4005242F48052DAE7C9
:1019000042F4007242F48072EDE71048844205D040
:10191000236946F6680119839983A0E74FF4605163
:10192000C4F202011E200D6C45F004060E640B6A21
:10193000002543F004020A620D627021FEF710FEDA
:101940004FF43D40C0F20150E060E1E7480A00205A
:1019500010B44468036904EBC10001F10C0403EB0B
:1019600084040069626060B19A89022092B200FA30
:1019700001F1114205D189B2C843114382B2998164
:101980001A8210BC704700BFAFF30080AFF3008035
:101990004FF46053C4F202031A6B6FEA52216FEAEC
:1019A00041221A63196D6FEA51226FEA42211965CB
:1019B00000234168C4F202034FF4806259608168D9
:1019C0009960C168D9600169596141691962816989
:1019D000596201681960016AC4F202024FF400639F
:1019E0005160416A9160816AD160C16A5161016B45
:1019F0001162416B5162C1691160C4F20203C26B92
:101A00005A60016C9960426CDA60816C5961C26CF9
:101A10001A62016D5962816B4FF440621960816DE9
:101A2000C4F202024FF480535160C16D9160016EA7
:101A3000D160416E5161816E1162C16E5162416D22
:101A40001160C4F20203426F5A60816F9960C26FE5
:101A5000DA60D0F880105961D0F884201A62D0F88A
:101A600088105962016F4FF4A0521960D0F890109D
:101A7000C4F202024FF4C0535160D0F89410916048
:101A8000D0F89810D160D0F89C105161D0F8A01017
:101A90001162D0F8A4105162D0F88C101160D0F807
:101AA000AC10C4F202034FF4E0525960D0F8B01009
:101AB0009960D0F8B410D960D0F8B8105961D0F856
:101AC000BC101962D0F8C0105962D0F8A810C4F246
:101AD00002021960D0F8C8305360D0F8CC10916081
:101AE000D0F8D030D360D0F8D4105161D0F8D830CD
:101AF0001362D0F8DC105162D0F8C4104FF40053D8
:101B00001160D0F8E420C4F202035A60D0F8E81063
:101B10009960D0F8EC20DA60D0F8F0105961D0F874
:101B2000F4201A62D0F8F8105962D0F8E00018607A
:101B3000704700BFAFF30080AFF30080AFF30080C9
:101B40002DE9F00F002302F00307C2F38006C2F371
:101B5000C105C2F341144FF00F09C2F3C3124FF095
:101B6000010A38E0D0F820B02BEA0C0C4CEA080847
:101B7000C0F82080D0F804B00AFA03FC2BEA0C0865
:101B800048EA060BC0F804B04FEA430C4FF0030BD1
:101B9000D0F808800BFA0CFC6FEA0C0C0CEA080871
:101BA00048EA0508C0F80880D0F80C800CEA08085C
:101BB00048EA0408C0F80C80D0F800800CEA080C51
:101BC0004CEA070CC0F800C049081AD07600AD00F6
:101BD000A400BF00013303F0070C4FEA8C0C11F096
:101BE000010F02FA0CF809FA0CFCEDD0072BB9D959
:101BF000D0F824B02BEA0C0C4CEA0808C0F824807A
:101C0000B8E7BDE8F00F7047AFF30080AFF3008096
:101C100038B540F65C2340F66024C2F20004C2F2FC
:101C200000034FF6FF7220461A80FFF719FA0949A0
:101C30004FF4605016224623C4F2000001F10C0557
:101C4000C0F20102C0F20103E06121626562A2629A
:101C5000E36238BD941F0008AFF30080AFF300804B
:101C600043681A895868012101FA02F39AB2428343
:101C7000704700BFAFF30080AFF30080AFF3008088
:101C8000F0B4036A476AC66A1C68806A3B6840F61B
:101C90009025C2F2000546F48066E5606160206030
:101CA000DA6059601E60226842F001012160186804
:101CB00040F001021A60F0BC704700BFAFF3008033
:101CC0004FF48843C4F200039A8990B240F0800137
:101CD00099817047AFF30080AFF30080AFF30080CD
:101CE000F8B5474B5D6FAE892C88A988A4B222074E
:101CF000B6B28FB24BD104F4807188B2002834D1CF
:101D000004F0200293B2002B24D106F0800188B2A7
:101D100020B104F0800293B2002B59D104F04004AA
:101D2000A4B29CB1202383F3118836481021FEF71A
:101D3000EFFE002383F311884FF6BF733340AB816E
:101D4000298821F040000204130C2B80BDE8F840E4
:101D5000FEF7AEBB202383F311882948F9B2FFF7C1
:101D600057F9002383F31188CFE7202383F31188E9
:101D700024484FF40071FEF7CBFE002383F3118853
:101D80002A8822F480731904080C2880B8E704F02C
:101D9000080082B2002A14BF80210021E30704F06A
:101DA000020398B248BF41F0200108B141F0400160
:101DB00004F0040293B20BB141F48071202383F349
:101DC00011881048FEF7A4FE002383F3118892E7E0
:101DD000202383F311880C48FEF79AFF002805DBC7
:101DE00081B2A980002383F3118897E70548082171
:101DF000FEF78EFE26F0C00040F04002AA81F1E717
:101E0000940A0020980A0020C40A0020AFF3008042
:101E100010B540F69424C2F2000441F6C1422046B7
:101E20000021C0F60002FFF7CBF84FF48843C4F25C
:101E30000003636710BD00BFAFF30080AFF3008005
:101E4000FFF796BBAFF30080AFF30080AFF30080E5
:101E5000704700BFAFF30080AFF30080AFF30080A6
:101E600008B5202383F3118840F6142042F2301184
:101E700040F60C320423C2F20000C0F60001C2F2A8
:101E80000002FFF725F8002383F3118808BD00BF87
:101E9000F8B50378042B00D0F8BD1B4CE688B4F8E5
:101EA00000E0A288678825896089A189E389724456
:101EB000BF1956193D187018E91882108F10202389
:101EC00083F31188114D124E2B8903FB02F2284631
:101ED0000021C2F30F32FFF73BFD288900FB07F119
:101EE000C1F30F3228460321FFF732FD3046FFF7DA
:101EF000B7FE03233046082122463370FFF7C0FEA9
:101F0000002383F31188F8BD0C0B0020480A002041
:101F1000600A0020AFF30080AFF30080AFF30080D1
:101F200069646C6500000000000000000000000013
:101F30006D61696E00168011040448080C101418B5
:101F4000001C1D1E1F2000000000000000000000FB
:101F5000610F0008410F0008A10F0008810F000861
:101F6000910F0008710F0008510F0008310F000891
:101F7000106002400860024000000B002860024030
:101F80000860024006010C00406002400860024008
:101F900010020D00586002400860024016030E0057
:101FA000706002400C60024000040F008860024034
:101FB0000C60024006051000A06002400C60024068
:101FC00010061100B86002400C60024016072F0096
:101FD000106402400864024000083800286402408F
:101FE0000864024006093900406402400864024067
:101FF000100A3A005864024008640240160B3B0085
:10200000706402400C640240000C3C008864024092
:102010000C640240060D4400A06402400C640240BF
:10202000100E4500B86402400C640240160F4600D2
:1020300000AAA02A00000000FFABFFFF54000140EF
:10204000FFFF00000000565500AA0A00802008008B
:1020500040020000FCFFFFFF14455155FEFF000049
:102060000000000440000000018020020000000089
:10207000FFFFFFFF54154554FFFF00000000006004
:10208000000606000001005500000000FFFFFFFFF2
:1020900055505500FF0F0000000000000000000038
:1020A0004000000000000000FFFFFFFF00000000F4
:1020B000FFFF000000000000000000000000000022
:1020C00000000000FFFFFFFF00000000FFFF000016
:1020D0000000000000000000000000000000000000
:1020E000FFFFFFFF00000000FFFF000000000000F6
:1020F000000000000000000000000000FFFFFFFFE4
:1021000000000000FFFF00000000000000000000D1
:102110000000000000000000FFFFFFFF00000000C3
:10212000FFFF0000000000000000000000000000B1
:1021300000000200911E00080000000000000000E6
:10214000000000401800180000000000000010000F
:08215000000000007001000016
:102158001027000010270000611E00080100000081
:102168000000000000000000000000000000000067
:102178000000000001000000000000000000000056
:04000005080002618C
:00000001FF
