ARM GAS  C:\Users\roob\AppData\Local\Temp\ccsFXI6k.s 			page 1


   1              		.syntax unified
   2              		.cpu cortex-m4
   3              		.fpu softvfp
   4              		.eabi_attribute 20, 1
   5              		.eabi_attribute 21, 1
   6              		.eabi_attribute 23, 3
   7              		.eabi_attribute 24, 1
   8              		.eabi_attribute 25, 1
   9              		.eabi_attribute 26, 1
  10              		.eabi_attribute 30, 2
  11              		.eabi_attribute 34, 1
  12              		.eabi_attribute 18, 4
  13              		.thumb
  14              		.file	"chheap.c"
  15              		.text
  16              	.Ltext0:
  17              		.cfi_sections	.debug_frame
  18              		.section	.text._heap_init,"ax",%progbits
  19              		.align	2
  20              		.p2align 4,,15
  21              		.global	_heap_init
  22              		.thumb
  23              		.thumb_func
  24              		.type	_heap_init, %function
  25              	_heap_init:
  26              	.LFB7:
  27              		.file 1 "../../os/kernel/src/chheap.c"
  28              		.loc 1 75 0
  29              		.cfi_startproc
  30              		@ args = 0, pretend = 0, frame = 0
  31              		@ frame_needed = 0, uses_anonymous_args = 0
  32              		@ link register save eliminated.
  33              		.loc 1 76 0
  34 0000 40F20003 		movw	r3, #:lower16:.LANCHOR0
  35 0004 C0F20003 		movt	r3, #:upper16:.LANCHOR0
  36 0008 40F20001 		movw	r1, #:lower16:chCoreAlloc
  37              		.loc 1 77 0
  38 000c 0022     		movs	r2, #0
  39              		.loc 1 76 0
  40 000e C0F20001 		movt	r1, #:upper16:chCoreAlloc
  41              		.loc 1 80 0
  42 0012 03F11000 		add	r0, r3, #16
  43              		.loc 1 76 0
  44 0016 1960     		str	r1, [r3, #0]
  45              		.loc 1 77 0
  46 0018 9A60     		str	r2, [r3, #8]
  47              		.loc 1 78 0
  48 001a DA60     		str	r2, [r3, #12]
  49              		.loc 1 84 0
  50              		.loc 1 80 0
  51 001c FFF7FEBF 		b	chMtxInit
  52              	.LVL0:
  53              		.cfi_endproc
  54              	.LFE7:
  55              		.size	_heap_init, .-_heap_init
  56              		.section	.text.chHeapInit,"ax",%progbits
  57              		.align	2
ARM GAS  C:\Users\roob\AppData\Local\Temp\ccsFXI6k.s 			page 2


  58              		.p2align 4,,15
  59              		.global	chHeapInit
  60              		.thumb
  61              		.thumb_func
  62              		.type	chHeapInit, %function
  63              	chHeapInit:
  64              	.LFB8:
  65              		.loc 1 99 0
  66              		.cfi_startproc
  67              		@ args = 0, pretend = 0, frame = 0
  68              		@ frame_needed = 0, uses_anonymous_args = 0
  69              		@ link register save eliminated.
  70              	.LVL1:
  71              		.loc 1 104 0
  72 0000 0023     		movs	r3, #0
  73 0002 0360     		str	r3, [r0, #0]
  74              	.LVL2:
  75              		.loc 1 105 0
  76 0004 8160     		str	r1, [r0, #8]
  77              		.loc 1 106 0
  78 0006 C360     		str	r3, [r0, #12]
  79              		.loc 1 108 0
  80 0008 083A     		subs	r2, r2, #8
  81              	.LVL3:
  82              		.loc 1 110 0
  83 000a 1030     		adds	r0, r0, #16
  84              	.LVL4:
  85              		.loc 1 107 0
  86 000c 0B60     		str	r3, [r1, #0]
  87              		.loc 1 108 0
  88 000e 4A60     		str	r2, [r1, #4]
  89              		.loc 1 114 0
  90              		.loc 1 110 0
  91 0010 FFF7FEBF 		b	chMtxInit
  92              	.LVL5:
  93              		.cfi_endproc
  94              	.LFE8:
  95              		.size	chHeapInit, .-chHeapInit
  96 0014 AFF30080 		.section	.text.chHeapAlloc,"ax",%progbits
  96      AFF30080 
  96      AFF30080 
  97              		.align	2
  98              		.p2align 4,,15
  99              		.global	chHeapAlloc
 100              		.thumb
 101              		.thumb_func
 102              		.type	chHeapAlloc, %function
 103              	chHeapAlloc:
 104              	.LFB9:
 105              		.loc 1 132 0
 106              		.cfi_startproc
 107              		@ args = 0, pretend = 0, frame = 0
 108              		@ frame_needed = 0, uses_anonymous_args = 0
 109              	.LVL6:
 110 0000 F8B5     		push	{r3, r4, r5, r6, r7, lr}
 111              	.LCFI0:
 112              		.cfi_def_cfa_offset 24
ARM GAS  C:\Users\roob\AppData\Local\Temp\ccsFXI6k.s 			page 3


 113              		.cfi_offset 3, -24
 114              		.cfi_offset 4, -20
 115              		.cfi_offset 5, -16
 116              		.cfi_offset 6, -12
 117              		.cfi_offset 7, -8
 118              		.cfi_offset 14, -4
 119              		.loc 1 136 0
 120 0002 204E     		ldr	r6, .L20
 121 0004 0028     		cmp	r0, #0
 122 0006 18BF     		it	ne
 123 0008 0646     		movne	r6, r0
 124              		.loc 1 138 0
 125 000a 0731     		adds	r1, r1, #7
 126              	.LVL7:
 127              		.loc 1 140 0
 128 000c 06F11000 		add	r0, r6, #16
 129              	.LVL8:
 130              		.loc 1 138 0
 131 0010 21F00705 		bic	r5, r1, #7
 132              	.LVL9:
 133              		.loc 1 139 0
 134 0014 06F10804 		add	r4, r6, #8
 135              	.LVL10:
 136              		.loc 1 140 0
 137 0018 FFF7FEFF 		bl	chMtxLock
 138              	.LVL11:
 139              		.loc 1 142 0
 140 001c 00E0     		b	.L5
 141              	.LVL12:
 142              	.L13:
 143              		.loc 1 144 0
 144 001e 1C46     		mov	r4, r3
 145              	.LVL13:
 146              	.L5:
 147              		.loc 1 142 0 discriminator 1
 148 0020 2368     		ldr	r3, [r4, #0]
 149              	.LVL14:
 150 0022 FBB1     		cbz	r3, .L18
 151              		.loc 1 144 0
 152 0024 5A68     		ldr	r2, [r3, #4]
 153 0026 9542     		cmp	r5, r2
 154 0028 F9D8     		bhi	.L13
 155              		.loc 1 145 0
 156 002a 05F10801 		add	r1, r5, #8
 157 002e 9142     		cmp	r1, r2
 158 0030 15D8     		bhi	.L19
 159              		.loc 1 155 0
 160 0032 4FF6F870 		movw	r0, #65528
 161 0036 CFF6FF70 		movt	r0, 65535
 162 003a 401B     		subs	r0, r0, r5
 163              		.loc 1 153 0
 164 003c 03EB010E 		add	lr, r3, r1
 165              	.LVL15:
 166              		.loc 1 155 0
 167 0040 8218     		adds	r2, r0, r2
 168              		.loc 1 154 0
 169 0042 1868     		ldr	r0, [r3, #0]
ARM GAS  C:\Users\roob\AppData\Local\Temp\ccsFXI6k.s 			page 4


 170              		.loc 1 155 0
 171 0044 CEF80420 		str	r2, [lr, #4]
 172              		.loc 1 154 0
 173 0048 5850     		str	r0, [r3, r1]
 174              		.loc 1 157 0
 175 004a 5D60     		str	r5, [r3, #4]
 176              		.loc 1 156 0
 177 004c C4F800E0 		str	lr, [r4, #0]
 178              	.LVL16:
 179              	.L7:
 180              		.loc 1 159 0
 181 0050 1C46     		mov	r4, r3
 182              	.LVL17:
 183 0052 44F8086B 		str	r6, [r4], #8
 184              		.loc 1 161 0
 185 0056 FFF7FEFF 		bl	chMtxUnlock
 186              	.LVL18:
 187              	.L8:
 188              		.loc 1 181 0
 189 005a 2046     		mov	r0, r4
 190 005c F8BD     		pop	{r3, r4, r5, r6, r7, pc}
 191              	.LVL19:
 192              	.L19:
 193              		.loc 1 149 0
 194 005e 1968     		ldr	r1, [r3, #0]
 195 0060 2160     		str	r1, [r4, #0]
 196 0062 F5E7     		b	.L7
 197              	.L18:
 198              		.loc 1 167 0
 199 0064 FFF7FEFF 		bl	chMtxUnlock
 200              	.LVL20:
 201              		.loc 1 171 0
 202 0068 3268     		ldr	r2, [r6, #0]
 203 006a 4AB1     		cbz	r2, .L11
 204              		.loc 1 172 0
 205 006c 05F10800 		add	r0, r5, #8
 206 0070 9047     		blx	r2
 207              	.LVL21:
 208              		.loc 1 173 0
 209 0072 28B1     		cbz	r0, .L11
 210              		.loc 1 177 0
 211 0074 00F10804 		add	r4, r0, #8
 212              	.LVL22:
 213              		.loc 1 174 0
 214 0078 0660     		str	r6, [r0, #0]
 215              		.loc 1 175 0
 216 007a 4560     		str	r5, [r0, #4]
 217              	.LVL23:
 218              		.loc 1 181 0
 219 007c 2046     		mov	r0, r4
 220 007e F8BD     		pop	{r3, r4, r5, r6, r7, pc}
 221              	.LVL24:
 222              	.L11:
 223              		.loc 1 180 0
 224 0080 0024     		movs	r4, #0
 225              	.LVL25:
 226 0082 EAE7     		b	.L8
ARM GAS  C:\Users\roob\AppData\Local\Temp\ccsFXI6k.s 			page 5


 227              	.L21:
 228              		.align	2
 229              	.L20:
 230 0084 00000000 		.word	.LANCHOR0
 231              		.cfi_endproc
 232              	.LFE9:
 233              		.size	chHeapAlloc, .-chHeapAlloc
 234 0088 AFF30080 		.section	.text.chHeapFree,"ax",%progbits
 234      AFF30080 
 235              		.align	2
 236              		.p2align 4,,15
 237              		.global	chHeapFree
 238              		.thumb
 239              		.thumb_func
 240              		.type	chHeapFree, %function
 241              	chHeapFree:
 242              	.LFB10:
 243              		.loc 1 194 0
 244              		.cfi_startproc
 245              		@ args = 0, pretend = 0, frame = 0
 246              		@ frame_needed = 0, uses_anonymous_args = 0
 247              	.LVL26:
 248 0000 70B5     		push	{r4, r5, r6, lr}
 249              	.LCFI1:
 250              		.cfi_def_cfa_offset 16
 251              		.cfi_offset 4, -16
 252              		.cfi_offset 5, -12
 253              		.cfi_offset 6, -8
 254              		.cfi_offset 14, -4
 255              		.loc 1 194 0
 256 0002 0646     		mov	r6, r0
 257              		.loc 1 200 0
 258 0004 A0F10804 		sub	r4, r0, #8
 259              	.LVL27:
 260              		.loc 1 201 0
 261 0008 50F8080C 		ldr	r0, [r0, #-8]
 262              	.LVL28:
 263              		.loc 1 202 0
 264 000c 00F10805 		add	r5, r0, #8
 265              	.LVL29:
 266              		.loc 1 203 0
 267 0010 1030     		adds	r0, r0, #16
 268              	.LVL30:
 269 0012 FFF7FEFF 		bl	chMtxLock
 270              	.LVL31:
 271              		.loc 1 202 0
 272 0016 2B46     		mov	r3, r5
 273              	.LVL32:
 274              	.L29:
 275              		.loc 1 210 0
 276 0018 AB42     		cmp	r3, r5
 277              		.loc 1 211 0
 278 001a 1A68     		ldr	r2, [r3, #0]
 279              		.loc 1 210 0
 280 001c 01D0     		beq	.L23
 281              		.loc 1 210 0 is_stmt 0 discriminator 2
 282 001e A342     		cmp	r3, r4
ARM GAS  C:\Users\roob\AppData\Local\Temp\ccsFXI6k.s 			page 6


 283 0020 02D2     		bcs	.L26
 284              	.L23:
 285              		.loc 1 210 0 discriminator 1
 286 0022 1AB1     		cbz	r2, .L25
 287              		.loc 1 211 0 is_stmt 1
 288 0024 9442     		cmp	r4, r2
 289 0026 01D3     		bcc	.L25
 290              	.L26:
 291              	.LVL33:
 292              		.loc 1 228 0
 293 0028 1346     		mov	r3, r2
 294              		.loc 1 229 0
 295 002a F5E7     		b	.L29
 296              	.LVL34:
 297              	.L25:
 298              		.loc 1 216 0
 299 002c 56F8041C 		ldr	r1, [r6, #-4]
 300              		.loc 1 213 0
 301 0030 46F8082C 		str	r2, [r6, #-8]
 302              		.loc 1 214 0
 303 0034 1C60     		str	r4, [r3, #0]
 304              		.loc 1 216 0
 305 0036 01F10802 		add	r2, r1, #8
 306 003a 56F8085C 		ldr	r5, [r6, #-8]
 307              	.LVL35:
 308 003e A018     		adds	r0, r4, r2
 309 0040 A842     		cmp	r0, r5
 310 0042 09D0     		beq	.L33
 311              		.loc 1 221 0
 312 0044 5A68     		ldr	r2, [r3, #4]
 313 0046 02F10800 		add	r0, r2, #8
 314 004a 1918     		adds	r1, r3, r0
 315 004c 8C42     		cmp	r4, r1
 316 004e 11D0     		beq	.L34
 317              	.L28:
 318              		.loc 1 233 0
 319 0050 BDE87040 		pop	{r4, r5, r6, lr}
 320              		.loc 1 231 0
 321 0054 FFF7FEBF 		b	chMtxUnlock
 322              	.LVL36:
 323              	.L33:
 324              		.loc 1 218 0
 325 0058 4068     		ldr	r0, [r0, #4]
 326              		.loc 1 219 0
 327 005a A258     		ldr	r2, [r4, r2]
 328              		.loc 1 218 0
 329 005c 0918     		adds	r1, r1, r0
 330 005e 0831     		adds	r1, r1, #8
 331 0060 46F8041C 		str	r1, [r6, #-4]
 332              		.loc 1 219 0
 333 0064 46F8082C 		str	r2, [r6, #-8]
 334              		.loc 1 221 0
 335 0068 5A68     		ldr	r2, [r3, #4]
 336 006a 02F10800 		add	r0, r2, #8
 337 006e 1918     		adds	r1, r3, r0
 338 0070 8C42     		cmp	r4, r1
 339 0072 EDD1     		bne	.L28
ARM GAS  C:\Users\roob\AppData\Local\Temp\ccsFXI6k.s 			page 7


 340              	.L34:
 341              		.loc 1 223 0
 342 0074 56F8040C 		ldr	r0, [r6, #-4]
 343              		.loc 1 224 0
 344 0078 56F8081C 		ldr	r1, [r6, #-8]
 345              		.loc 1 223 0
 346 007c 1218     		adds	r2, r2, r0
 347 007e 0832     		adds	r2, r2, #8
 348              		.loc 1 224 0
 349 0080 83E80600 		stmia	r3, {r1, r2}
 350 0084 E4E7     		b	.L28
 351              		.cfi_endproc
 352              	.LFE10:
 353              		.size	chHeapFree, .-chHeapFree
 354 0086 00BFAFF3 		.section	.text.chHeapStatus,"ax",%progbits
 354      0080AFF3 
 354      0080
 355              		.align	2
 356              		.p2align 4,,15
 357              		.global	chHeapStatus
 358              		.thumb
 359              		.thumb_func
 360              		.type	chHeapStatus, %function
 361              	chHeapStatus:
 362              	.LFB11:
 363              		.loc 1 250 0
 364              		.cfi_startproc
 365              		@ args = 0, pretend = 0, frame = 0
 366              		@ frame_needed = 0, uses_anonymous_args = 0
 367              	.LVL37:
 368 0000 38B5     		push	{r3, r4, r5, lr}
 369              	.LCFI2:
 370              		.cfi_def_cfa_offset 16
 371              		.cfi_offset 3, -16
 372              		.cfi_offset 4, -12
 373              		.cfi_offset 5, -8
 374              		.cfi_offset 14, -4
 375              		.loc 1 255 0
 376 0002 0E4C     		ldr	r4, .L46
 377 0004 0028     		cmp	r0, #0
 378 0006 18BF     		it	ne
 379 0008 0446     		movne	r4, r0
 380              		.loc 1 257 0
 381 000a 04F11000 		add	r0, r4, #16
 382              	.LVL38:
 383              		.loc 1 250 0
 384 000e 0D46     		mov	r5, r1
 385              		.loc 1 257 0
 386 0010 FFF7FEFF 		bl	chMtxLock
 387              	.LVL39:
 388              		.loc 1 260 0
 389 0014 A368     		ldr	r3, [r4, #8]
 390 0016 6BB1     		cbz	r3, .L41
 391 0018 0022     		movs	r2, #0
 392 001a 1446     		mov	r4, r2
 393              	.LVL40:
 394              	.L38:
ARM GAS  C:\Users\roob\AppData\Local\Temp\ccsFXI6k.s 			page 8


 395              		.loc 1 261 0 discriminator 2
 396 001c 5868     		ldr	r0, [r3, #4]
 397              		.loc 1 260 0 discriminator 2
 398 001e 1B68     		ldr	r3, [r3, #0]
 399              		.loc 1 261 0 discriminator 2
 400 0020 1218     		adds	r2, r2, r0
 401              	.LVL41:
 402              		.loc 1 260 0 discriminator 2
 403 0022 0134     		adds	r4, r4, #1
 404              	.LVL42:
 405 0024 002B     		cmp	r3, #0
 406 0026 F9D1     		bne	.L38
 407              	.LVL43:
 408              	.L37:
 409              		.loc 1 262 0
 410 0028 05B1     		cbz	r5, .L39
 411              		.loc 1 263 0
 412 002a 2A60     		str	r2, [r5, #0]
 413              	.L39:
 414              		.loc 1 265 0
 415 002c FFF7FEFF 		bl	chMtxUnlock
 416              	.LVL44:
 417              		.loc 1 267 0
 418 0030 2046     		mov	r0, r4
 419 0032 38BD     		pop	{r3, r4, r5, pc}
 420              	.LVL45:
 421              	.L41:
 422              		.loc 1 259 0
 423 0034 1A46     		mov	r2, r3
 424              		.loc 1 260 0
 425 0036 1C46     		mov	r4, r3
 426 0038 F6E7     		b	.L37
 427              	.L47:
 428 003a 00BF     		.align	2
 429              	.L46:
 430 003c 00000000 		.word	.LANCHOR0
 431              		.cfi_endproc
 432              	.LFE11:
 433              		.size	chHeapStatus, .-chHeapStatus
 434              		.section	.bss.default_heap,"aw",%nobits
 435              		.align	3
 436              		.set	.LANCHOR0,. + 0
 437              		.type	default_heap, %object
 438              		.size	default_heap, 32
 439              	default_heap:
 440 0000 00000000 		.space	32
 440      00000000 
 440      00000000 
 440      00000000 
 440      00000000 
 441              		.text
 442              	.Letext0:
 443              		.file 2 "c:\\chibistudio\\tools\\gnu tools arm embedded\\4.7 2013q1\\bin\\../lib/gcc/arm-none-eabi
 444              		.file 3 "c:\\chibistudio\\tools\\gnu tools arm embedded\\4.7 2013q1\\bin\\../lib/gcc/arm-none-eabi
 445              		.file 4 "../../os/ports/GCC/ARMCMx/chtypes.h"
 446              		.file 5 "../../os/kernel/include/chlists.h"
 447              		.file 6 "../../os/kernel/include/chthreads.h"
ARM GAS  C:\Users\roob\AppData\Local\Temp\ccsFXI6k.s 			page 9


 448              		.file 7 "../../os/ports/GCC/ARMCMx/chcore_v7m.h"
 449              		.file 8 "../../os/kernel/include/chmtx.h"
 450              		.file 9 "../../os/kernel/include/chmemcore.h"
 451              		.file 10 "../../os/kernel/include/chheap.h"
