ARM GAS  C:\Users\roob\AppData\Local\Temp\ccBuXKcZ.s 			page 1


   1              		.syntax unified
   2              		.cpu cortex-m4
   3              		.fpu softvfp
   4              		.eabi_attribute 20, 1
   5              		.eabi_attribute 21, 1
   6              		.eabi_attribute 23, 3
   7              		.eabi_attribute 24, 1
   8              		.eabi_attribute 25, 1
   9              		.eabi_attribute 26, 1
  10              		.eabi_attribute 30, 2
  11              		.eabi_attribute 34, 1
  12              		.eabi_attribute 18, 4
  13              		.thumb
  14              		.file	"chmboxes.c"
  15              		.text
  16              	.Ltext0:
  17              		.cfi_sections	.debug_frame
  18              		.section	.text.chMBInit,"ax",%progbits
  19              		.align	2
  20              		.p2align 4,,15
  21              		.global	chMBInit
  22              		.thumb
  23              		.thumb_func
  24              		.type	chMBInit, %function
  25              	chMBInit:
  26              	.LFB7:
  27              		.file 1 "../../os/kernel/src/chmboxes.c"
  28              		.loc 1 72 0
  29              		.cfi_startproc
  30              		@ args = 0, pretend = 0, frame = 0
  31              		@ frame_needed = 0, uses_anonymous_args = 0
  32              	.LVL0:
  33 0000 38B5     		push	{r3, r4, r5, lr}
  34              	.LCFI0:
  35              		.cfi_def_cfa_offset 16
  36              		.cfi_offset 3, -16
  37              		.cfi_offset 4, -12
  38              		.cfi_offset 5, -8
  39              		.cfi_offset 14, -4
  40              		.loc 1 72 0
  41 0002 0446     		mov	r4, r0
  42 0004 0B46     		mov	r3, r1
  43              		.loc 1 77 0
  44 0006 01EB8205 		add	r5, r1, r2, lsl #2
  45              		.loc 1 78 0
  46 000a 00F11C00 		add	r0, r0, #28
  47              	.LVL1:
  48 000e 1146     		mov	r1, r2
  49              	.LVL2:
  50              		.loc 1 76 0
  51 0010 E360     		str	r3, [r4, #12]
  52 0012 A360     		str	r3, [r4, #8]
  53              		.loc 1 77 0
  54 0014 84E82800 		stmia	r4, {r3, r5}
  55              		.loc 1 78 0
  56 0018 FFF7FEFF 		bl	chSemInit
  57              	.LVL3:
ARM GAS  C:\Users\roob\AppData\Local\Temp\ccBuXKcZ.s 			page 2


  58              		.loc 1 79 0
  59 001c 04F11000 		add	r0, r4, #16
  60 0020 0021     		movs	r1, #0
  61              		.loc 1 80 0
  62 0022 BDE83840 		pop	{r3, r4, r5, lr}
  63              		.loc 1 79 0
  64 0026 FFF7FEBF 		b	chSemInit
  65              	.LVL4:
  66              		.cfi_endproc
  67              	.LFE7:
  68              		.size	chMBInit, .-chMBInit
  69 002a 00BFAFF3 		.section	.text.chMBReset,"ax",%progbits
  69      0080
  70              		.align	2
  71              		.p2align 4,,15
  72              		.global	chMBReset
  73              		.thumb
  74              		.thumb_func
  75              		.type	chMBReset, %function
  76              	chMBReset:
  77              	.LFB8:
  78              		.loc 1 91 0
  79              		.cfi_startproc
  80              		@ args = 0, pretend = 0, frame = 0
  81              		@ frame_needed = 0, uses_anonymous_args = 0
  82              	.LVL5:
  83 0000 10B5     		push	{r4, lr}
  84              	.LCFI1:
  85              		.cfi_def_cfa_offset 8
  86              		.cfi_offset 4, -8
  87              		.cfi_offset 14, -4
  88              	.LBB2:
  89              		.loc 1 95 0
  90 0002 2023     		movs	r3, #32
  91              	.LVL6:
  92              	.LBE2:
  93              		.loc 1 91 0
  94 0004 0446     		mov	r4, r0
  95              	.LBB3:
  96              		.loc 1 95 0
  97              	@ 95 "../../os/kernel/src/chmboxes.c" 1
  98 0006 83F31188 		msr     BASEPRI, r3
  99              	@ 0 "" 2
 100              	.LVL7:
 101              		.thumb
 102              	.LBE3:
 103              		.loc 1 96 0
 104 000a 0368     		ldr	r3, [r0, #0]
 105              	.LVL8:
 106              		.loc 1 97 0
 107 000c 4168     		ldr	r1, [r0, #4]
 108              		.loc 1 96 0
 109 000e C360     		str	r3, [r0, #12]
 110              		.loc 1 97 0
 111 0010 CA1A     		subs	r2, r1, r3
 112 0012 9110     		asrs	r1, r2, #2
 113              		.loc 1 96 0
ARM GAS  C:\Users\roob\AppData\Local\Temp\ccBuXKcZ.s 			page 3


 114 0014 A360     		str	r3, [r4, #8]
 115              		.loc 1 97 0
 116 0016 00F11C00 		add	r0, r0, #28
 117              	.LVL9:
 118 001a FFF7FEFF 		bl	chSemResetI
 119              	.LVL10:
 120              		.loc 1 98 0
 121 001e 04F11000 		add	r0, r4, #16
 122 0022 0021     		movs	r1, #0
 123 0024 FFF7FEFF 		bl	chSemResetI
 124              	.LVL11:
 125              		.loc 1 99 0
 126 0028 FFF7FEFF 		bl	chSchRescheduleS
 127              	.LVL12:
 128              	.LBB4:
 129              		.loc 1 100 0
 130 002c 0023     		movs	r3, #0
 131              	.LVL13:
 132              	@ 100 "../../os/kernel/src/chmboxes.c" 1
 133 002e 83F31188 		msr     BASEPRI, r3
 134              	@ 0 "" 2
 135              	.LVL14:
 136              		.thumb
 137 0032 10BD     		pop	{r4, pc}
 138              	.LBE4:
 139              		.cfi_endproc
 140              	.LFE8:
 141              		.size	chMBReset, .-chMBReset
 142 0034 AFF30080 		.section	.text.chMBPostS,"ax",%progbits
 142      AFF30080 
 142      AFF30080 
 143              		.align	2
 144              		.p2align 4,,15
 145              		.global	chMBPostS
 146              		.thumb
 147              		.thumb_func
 148              		.type	chMBPostS, %function
 149              	chMBPostS:
 150              	.LFB10:
 151              		.loc 1 150 0
 152              		.cfi_startproc
 153              		@ args = 0, pretend = 0, frame = 0
 154              		@ frame_needed = 0, uses_anonymous_args = 0
 155              	.LVL15:
 156 0000 70B5     		push	{r4, r5, r6, lr}
 157              	.LCFI2:
 158              		.cfi_def_cfa_offset 16
 159              		.cfi_offset 4, -16
 160              		.cfi_offset 5, -12
 161              		.cfi_offset 6, -8
 162              		.cfi_offset 14, -4
 163              		.loc 1 150 0
 164 0002 0446     		mov	r4, r0
 165 0004 0E46     		mov	r6, r1
 166              		.loc 1 156 0
 167 0006 00F11C00 		add	r0, r0, #28
 168              	.LVL16:
ARM GAS  C:\Users\roob\AppData\Local\Temp\ccBuXKcZ.s 			page 4


 169 000a 1146     		mov	r1, r2
 170              	.LVL17:
 171 000c FFF7FEFF 		bl	chSemWaitTimeoutS
 172              	.LVL18:
 173              		.loc 1 157 0
 174 0010 0546     		mov	r5, r0
 175 0012 78B9     		cbnz	r0, .L4
 176              		.loc 1 158 0
 177 0014 A368     		ldr	r3, [r4, #8]
 178              		.loc 1 159 0
 179 0016 6268     		ldr	r2, [r4, #4]
 180              		.loc 1 158 0
 181 0018 43F8046B 		str	r6, [r3], #4
 182              		.loc 1 159 0
 183 001c 9342     		cmp	r3, r2
 184              		.loc 1 158 0
 185 001e A360     		str	r3, [r4, #8]
 186              		.loc 1 160 0
 187 0020 28BF     		it	cs
 188 0022 2368     		ldrcs	r3, [r4, #0]
 189              		.loc 1 161 0
 190 0024 04F11000 		add	r0, r4, #16
 191              	.LVL19:
 192              		.loc 1 160 0
 193 0028 28BF     		it	cs
 194 002a A360     		strcs	r3, [r4, #8]
 195              		.loc 1 161 0
 196 002c FFF7FEFF 		bl	chSemSignalI
 197              	.LVL20:
 198              		.loc 1 162 0
 199 0030 FFF7FEFF 		bl	chSchRescheduleS
 200              	.LVL21:
 201              	.L4:
 202              		.loc 1 165 0
 203 0034 2846     		mov	r0, r5
 204 0036 70BD     		pop	{r4, r5, r6, pc}
 205              		.cfi_endproc
 206              	.LFE10:
 207              		.size	chMBPostS, .-chMBPostS
 208 0038 AFF30080 		.section	.text.chMBPost,"ax",%progbits
 208      AFF30080 
 209              		.align	2
 210              		.p2align 4,,15
 211              		.global	chMBPost
 212              		.thumb
 213              		.thumb_func
 214              		.type	chMBPost, %function
 215              	chMBPost:
 216              	.LFB9:
 217              		.loc 1 122 0
 218              		.cfi_startproc
 219              		@ args = 0, pretend = 0, frame = 0
 220              		@ frame_needed = 0, uses_anonymous_args = 0
 221              	.LVL22:
 222 0000 08B5     		push	{r3, lr}
 223              	.LCFI3:
 224              		.cfi_def_cfa_offset 8
ARM GAS  C:\Users\roob\AppData\Local\Temp\ccBuXKcZ.s 			page 5


 225              		.cfi_offset 3, -8
 226              		.cfi_offset 14, -4
 227              	.LBB5:
 228              		.loc 1 125 0
 229 0002 2023     		movs	r3, #32
 230              	.LVL23:
 231              	@ 125 "../../os/kernel/src/chmboxes.c" 1
 232 0004 83F31188 		msr     BASEPRI, r3
 233              	@ 0 "" 2
 234              	.LVL24:
 235              		.thumb
 236              	.LBE5:
 237              		.loc 1 126 0
 238 0008 FFF7FEFF 		bl	chMBPostS
 239              	.LVL25:
 240              	.LBB6:
 241              		.loc 1 127 0
 242 000c 0023     		movs	r3, #0
 243              	.LVL26:
 244              	@ 127 "../../os/kernel/src/chmboxes.c" 1
 245 000e 83F31188 		msr     BASEPRI, r3
 246              	@ 0 "" 2
 247              	.LVL27:
 248              		.thumb
 249              	.LBE6:
 250              		.loc 1 129 0
 251 0012 08BD     		pop	{r3, pc}
 252              		.cfi_endproc
 253              	.LFE9:
 254              		.size	chMBPost, .-chMBPost
 255 0014 AFF30080 		.section	.text.chMBPostI,"ax",%progbits
 255      AFF30080 
 255      AFF30080 
 256              		.align	2
 257              		.p2align 4,,15
 258              		.global	chMBPostI
 259              		.thumb
 260              		.thumb_func
 261              		.type	chMBPostI, %function
 262              	chMBPostI:
 263              	.LFB11:
 264              		.loc 1 181 0
 265              		.cfi_startproc
 266              		@ args = 0, pretend = 0, frame = 0
 267              		@ frame_needed = 0, uses_anonymous_args = 0
 268              	.LVL28:
 269              		.loc 1 186 0
 270 0000 426A     		ldr	r2, [r0, #36]
 271 0002 002A     		cmp	r2, #0
 272              		.loc 1 181 0
 273 0004 10B5     		push	{r4, lr}
 274              	.LCFI4:
 275              		.cfi_def_cfa_offset 8
 276              		.cfi_offset 4, -8
 277              		.cfi_offset 14, -4
 278              		.loc 1 186 0
 279 0006 0FDD     		ble	.L11
ARM GAS  C:\Users\roob\AppData\Local\Temp\ccBuXKcZ.s 			page 6


 280              		.loc 1 189 0
 281 0008 8368     		ldr	r3, [r0, #8]
 282              		.loc 1 190 0
 283 000a 4468     		ldr	r4, [r0, #4]
 284              		.loc 1 188 0
 285 000c 013A     		subs	r2, r2, #1
 286 000e 4262     		str	r2, [r0, #36]
 287              		.loc 1 189 0
 288 0010 43F8041B 		str	r1, [r3], #4
 289              		.loc 1 190 0
 290 0014 A342     		cmp	r3, r4
 291              		.loc 1 189 0
 292 0016 8360     		str	r3, [r0, #8]
 293              		.loc 1 191 0
 294 0018 24BF     		itt	cs
 295 001a 0368     		ldrcs	r3, [r0, #0]
 296 001c 8360     		strcs	r3, [r0, #8]
 297              		.loc 1 192 0
 298 001e 1030     		adds	r0, r0, #16
 299              	.LVL29:
 300 0020 FFF7FEFF 		bl	chSemSignalI
 301              	.LVL30:
 302              		.loc 1 193 0
 303 0024 0020     		movs	r0, #0
 304 0026 10BD     		pop	{r4, pc}
 305              	.LVL31:
 306              	.L11:
 307              		.loc 1 187 0
 308 0028 4FF0FF30 		mov	r0, #-1
 309              	.LVL32:
 310              		.loc 1 194 0
 311 002c 10BD     		pop	{r4, pc}
 312              		.cfi_endproc
 313              	.LFE11:
 314              		.size	chMBPostI, .-chMBPostI
 315 002e 00BF     		.section	.text.chMBPostAheadS,"ax",%progbits
 316              		.align	2
 317              		.p2align 4,,15
 318              		.global	chMBPostAheadS
 319              		.thumb
 320              		.thumb_func
 321              		.type	chMBPostAheadS, %function
 322              	chMBPostAheadS:
 323              	.LFB13:
 324              		.loc 1 243 0
 325              		.cfi_startproc
 326              		@ args = 0, pretend = 0, frame = 0
 327              		@ frame_needed = 0, uses_anonymous_args = 0
 328              	.LVL33:
 329 0000 70B5     		push	{r4, r5, r6, lr}
 330              	.LCFI5:
 331              		.cfi_def_cfa_offset 16
 332              		.cfi_offset 4, -16
 333              		.cfi_offset 5, -12
 334              		.cfi_offset 6, -8
 335              		.cfi_offset 14, -4
 336              		.loc 1 243 0
ARM GAS  C:\Users\roob\AppData\Local\Temp\ccBuXKcZ.s 			page 7


 337 0002 0446     		mov	r4, r0
 338 0004 0E46     		mov	r6, r1
 339              		.loc 1 249 0
 340 0006 00F11C00 		add	r0, r0, #28
 341              	.LVL34:
 342 000a 1146     		mov	r1, r2
 343              	.LVL35:
 344 000c FFF7FEFF 		bl	chSemWaitTimeoutS
 345              	.LVL36:
 346              		.loc 1 250 0
 347 0010 0546     		mov	r5, r0
 348 0012 60B9     		cbnz	r0, .L13
 349              		.loc 1 251 0
 350 0014 E368     		ldr	r3, [r4, #12]
 351 0016 2268     		ldr	r2, [r4, #0]
 352 0018 191F     		subs	r1, r3, #4
 353 001a 9142     		cmp	r1, r2
 354 001c E160     		str	r1, [r4, #12]
 355 001e 08D3     		bcc	.L15
 356              	.LVL37:
 357              	.L14:
 358              		.loc 1 254 0
 359 0020 04F11000 		add	r0, r4, #16
 360              		.loc 1 253 0
 361 0024 0E60     		str	r6, [r1, #0]
 362              		.loc 1 254 0
 363 0026 FFF7FEFF 		bl	chSemSignalI
 364              	.LVL38:
 365              		.loc 1 255 0
 366 002a FFF7FEFF 		bl	chSchRescheduleS
 367              	.LVL39:
 368              	.L13:
 369              		.loc 1 258 0
 370 002e 2846     		mov	r0, r5
 371 0030 70BD     		pop	{r4, r5, r6, pc}
 372              	.LVL40:
 373              	.L15:
 374              		.loc 1 252 0
 375 0032 6068     		ldr	r0, [r4, #4]
 376              	.LVL41:
 377 0034 011F     		subs	r1, r0, #4
 378 0036 E160     		str	r1, [r4, #12]
 379 0038 F2E7     		b	.L14
 380              		.cfi_endproc
 381              	.LFE13:
 382              		.size	chMBPostAheadS, .-chMBPostAheadS
 383 003a 00BFAFF3 		.section	.text.chMBPostAhead,"ax",%progbits
 383      0080
 384              		.align	2
 385              		.p2align 4,,15
 386              		.global	chMBPostAhead
 387              		.thumb
 388              		.thumb_func
 389              		.type	chMBPostAhead, %function
 390              	chMBPostAhead:
 391              	.LFB12:
 392              		.loc 1 215 0
ARM GAS  C:\Users\roob\AppData\Local\Temp\ccBuXKcZ.s 			page 8


 393              		.cfi_startproc
 394              		@ args = 0, pretend = 0, frame = 0
 395              		@ frame_needed = 0, uses_anonymous_args = 0
 396              	.LVL42:
 397 0000 08B5     		push	{r3, lr}
 398              	.LCFI6:
 399              		.cfi_def_cfa_offset 8
 400              		.cfi_offset 3, -8
 401              		.cfi_offset 14, -4
 402              	.LBB7:
 403              		.loc 1 218 0
 404 0002 2023     		movs	r3, #32
 405              	.LVL43:
 406              	@ 218 "../../os/kernel/src/chmboxes.c" 1
 407 0004 83F31188 		msr     BASEPRI, r3
 408              	@ 0 "" 2
 409              	.LVL44:
 410              		.thumb
 411              	.LBE7:
 412              		.loc 1 219 0
 413 0008 FFF7FEFF 		bl	chMBPostAheadS
 414              	.LVL45:
 415              	.LBB8:
 416              		.loc 1 220 0
 417 000c 0023     		movs	r3, #0
 418              	.LVL46:
 419              	@ 220 "../../os/kernel/src/chmboxes.c" 1
 420 000e 83F31188 		msr     BASEPRI, r3
 421              	@ 0 "" 2
 422              	.LVL47:
 423              		.thumb
 424              	.LBE8:
 425              		.loc 1 222 0
 426 0012 08BD     		pop	{r3, pc}
 427              		.cfi_endproc
 428              	.LFE12:
 429              		.size	chMBPostAhead, .-chMBPostAhead
 430 0014 AFF30080 		.section	.text.chMBPostAheadI,"ax",%progbits
 430      AFF30080 
 430      AFF30080 
 431              		.align	2
 432              		.p2align 4,,15
 433              		.global	chMBPostAheadI
 434              		.thumb
 435              		.thumb_func
 436              		.type	chMBPostAheadI, %function
 437              	chMBPostAheadI:
 438              	.LFB14:
 439              		.loc 1 274 0
 440              		.cfi_startproc
 441              		@ args = 0, pretend = 0, frame = 0
 442              		@ frame_needed = 0, uses_anonymous_args = 0
 443              	.LVL48:
 444              		.loc 1 279 0
 445 0000 426A     		ldr	r2, [r0, #36]
 446 0002 002A     		cmp	r2, #0
 447              		.loc 1 274 0
ARM GAS  C:\Users\roob\AppData\Local\Temp\ccBuXKcZ.s 			page 9


 448 0004 10B5     		push	{r4, lr}
 449              	.LCFI7:
 450              		.cfi_def_cfa_offset 8
 451              		.cfi_offset 4, -8
 452              		.cfi_offset 14, -4
 453              		.loc 1 279 0
 454 0006 10DD     		ble	.L20
 455              		.loc 1 282 0
 456 0008 C368     		ldr	r3, [r0, #12]
 457 000a 0468     		ldr	r4, [r0, #0]
 458 000c 043B     		subs	r3, r3, #4
 459              		.loc 1 281 0
 460 000e 013A     		subs	r2, r2, #1
 461              		.loc 1 282 0
 462 0010 A342     		cmp	r3, r4
 463              		.loc 1 281 0
 464 0012 4262     		str	r2, [r0, #36]
 465              		.loc 1 282 0
 466 0014 C360     		str	r3, [r0, #12]
 467 0016 02D2     		bcs	.L19
 468              		.loc 1 283 0
 469 0018 4368     		ldr	r3, [r0, #4]
 470 001a 043B     		subs	r3, r3, #4
 471 001c C360     		str	r3, [r0, #12]
 472              	.L19:
 473              		.loc 1 285 0
 474 001e 1030     		adds	r0, r0, #16
 475              	.LVL49:
 476              		.loc 1 284 0
 477 0020 1960     		str	r1, [r3, #0]
 478              		.loc 1 285 0
 479 0022 FFF7FEFF 		bl	chSemSignalI
 480              	.LVL50:
 481              		.loc 1 286 0
 482 0026 0020     		movs	r0, #0
 483 0028 10BD     		pop	{r4, pc}
 484              	.LVL51:
 485              	.L20:
 486              		.loc 1 280 0
 487 002a 4FF0FF30 		mov	r0, #-1
 488              	.LVL52:
 489              		.loc 1 287 0
 490 002e 10BD     		pop	{r4, pc}
 491              		.cfi_endproc
 492              	.LFE14:
 493              		.size	chMBPostAheadI, .-chMBPostAheadI
 494              		.section	.text.chMBFetchS,"ax",%progbits
 495              		.align	2
 496              		.p2align 4,,15
 497              		.global	chMBFetchS
 498              		.thumb
 499              		.thumb_func
 500              		.type	chMBFetchS, %function
 501              	chMBFetchS:
 502              	.LFB16:
 503              		.loc 1 336 0
 504              		.cfi_startproc
ARM GAS  C:\Users\roob\AppData\Local\Temp\ccBuXKcZ.s 			page 10


 505              		@ args = 0, pretend = 0, frame = 0
 506              		@ frame_needed = 0, uses_anonymous_args = 0
 507              	.LVL53:
 508 0000 70B5     		push	{r4, r5, r6, lr}
 509              	.LCFI8:
 510              		.cfi_def_cfa_offset 16
 511              		.cfi_offset 4, -16
 512              		.cfi_offset 5, -12
 513              		.cfi_offset 6, -8
 514              		.cfi_offset 14, -4
 515              		.loc 1 336 0
 516 0002 0446     		mov	r4, r0
 517 0004 0E46     		mov	r6, r1
 518              		.loc 1 342 0
 519 0006 00F11000 		add	r0, r0, #16
 520              	.LVL54:
 521 000a 1146     		mov	r1, r2
 522              	.LVL55:
 523 000c FFF7FEFF 		bl	chSemWaitTimeoutS
 524              	.LVL56:
 525              		.loc 1 343 0
 526 0010 0546     		mov	r5, r0
 527 0012 80B9     		cbnz	r0, .L22
 528              		.loc 1 344 0
 529 0014 E368     		ldr	r3, [r4, #12]
 530              		.loc 1 345 0
 531 0016 6268     		ldr	r2, [r4, #4]
 532              		.loc 1 344 0
 533 0018 53F8041B 		ldr	r1, [r3], #4
 534              		.loc 1 345 0
 535 001c 9342     		cmp	r3, r2
 536              		.loc 1 344 0
 537 001e 3160     		str	r1, [r6, #0]
 538 0020 E360     		str	r3, [r4, #12]
 539              		.loc 1 346 0
 540 0022 28BF     		it	cs
 541 0024 2368     		ldrcs	r3, [r4, #0]
 542              		.loc 1 347 0
 543 0026 04F11C00 		add	r0, r4, #28
 544              	.LVL57:
 545              		.loc 1 346 0
 546 002a 28BF     		it	cs
 547 002c E360     		strcs	r3, [r4, #12]
 548              		.loc 1 347 0
 549 002e FFF7FEFF 		bl	chSemSignalI
 550              	.LVL58:
 551              		.loc 1 348 0
 552 0032 FFF7FEFF 		bl	chSchRescheduleS
 553              	.LVL59:
 554              	.L22:
 555              		.loc 1 351 0
 556 0036 2846     		mov	r0, r5
 557 0038 70BD     		pop	{r4, r5, r6, pc}
 558              		.cfi_endproc
 559              	.LFE16:
 560              		.size	chMBFetchS, .-chMBFetchS
 561 003a 00BFAFF3 		.section	.text.chMBFetch,"ax",%progbits
ARM GAS  C:\Users\roob\AppData\Local\Temp\ccBuXKcZ.s 			page 11


 561      0080
 562              		.align	2
 563              		.p2align 4,,15
 564              		.global	chMBFetch
 565              		.thumb
 566              		.thumb_func
 567              		.type	chMBFetch, %function
 568              	chMBFetch:
 569              	.LFB15:
 570              		.loc 1 308 0
 571              		.cfi_startproc
 572              		@ args = 0, pretend = 0, frame = 0
 573              		@ frame_needed = 0, uses_anonymous_args = 0
 574              	.LVL60:
 575 0000 08B5     		push	{r3, lr}
 576              	.LCFI9:
 577              		.cfi_def_cfa_offset 8
 578              		.cfi_offset 3, -8
 579              		.cfi_offset 14, -4
 580              	.LBB9:
 581              		.loc 1 311 0
 582 0002 2023     		movs	r3, #32
 583              	.LVL61:
 584              	@ 311 "../../os/kernel/src/chmboxes.c" 1
 585 0004 83F31188 		msr     BASEPRI, r3
 586              	@ 0 "" 2
 587              	.LVL62:
 588              		.thumb
 589              	.LBE9:
 590              		.loc 1 312 0
 591 0008 FFF7FEFF 		bl	chMBFetchS
 592              	.LVL63:
 593              	.LBB10:
 594              		.loc 1 313 0
 595 000c 0023     		movs	r3, #0
 596              	.LVL64:
 597              	@ 313 "../../os/kernel/src/chmboxes.c" 1
 598 000e 83F31188 		msr     BASEPRI, r3
 599              	@ 0 "" 2
 600              	.LVL65:
 601              		.thumb
 602              	.LBE10:
 603              		.loc 1 315 0
 604 0012 08BD     		pop	{r3, pc}
 605              		.cfi_endproc
 606              	.LFE15:
 607              		.size	chMBFetch, .-chMBFetch
 608 0014 AFF30080 		.section	.text.chMBFetchI,"ax",%progbits
 608      AFF30080 
 608      AFF30080 
 609              		.align	2
 610              		.p2align 4,,15
 611              		.global	chMBFetchI
 612              		.thumb
 613              		.thumb_func
 614              		.type	chMBFetchI, %function
 615              	chMBFetchI:
ARM GAS  C:\Users\roob\AppData\Local\Temp\ccBuXKcZ.s 			page 12


 616              	.LFB17:
 617              		.loc 1 367 0
 618              		.cfi_startproc
 619              		@ args = 0, pretend = 0, frame = 0
 620              		@ frame_needed = 0, uses_anonymous_args = 0
 621              	.LVL66:
 622              		.loc 1 372 0
 623 0000 8269     		ldr	r2, [r0, #24]
 624 0002 002A     		cmp	r2, #0
 625              		.loc 1 367 0
 626 0004 10B5     		push	{r4, lr}
 627              	.LCFI10:
 628              		.cfi_def_cfa_offset 8
 629              		.cfi_offset 4, -8
 630              		.cfi_offset 14, -4
 631              		.loc 1 372 0
 632 0006 10DD     		ble	.L28
 633              		.loc 1 375 0
 634 0008 C368     		ldr	r3, [r0, #12]
 635              		.loc 1 376 0
 636 000a 4468     		ldr	r4, [r0, #4]
 637              		.loc 1 374 0
 638 000c 013A     		subs	r2, r2, #1
 639 000e 8261     		str	r2, [r0, #24]
 640              		.loc 1 375 0
 641 0010 53F8042B 		ldr	r2, [r3], #4
 642              		.loc 1 376 0
 643 0014 A342     		cmp	r3, r4
 644              		.loc 1 375 0
 645 0016 0A60     		str	r2, [r1, #0]
 646 0018 C360     		str	r3, [r0, #12]
 647              		.loc 1 377 0
 648 001a 24BF     		itt	cs
 649 001c 0368     		ldrcs	r3, [r0, #0]
 650 001e C360     		strcs	r3, [r0, #12]
 651              		.loc 1 378 0
 652 0020 1C30     		adds	r0, r0, #28
 653              	.LVL67:
 654 0022 FFF7FEFF 		bl	chSemSignalI
 655              	.LVL68:
 656              		.loc 1 379 0
 657 0026 0020     		movs	r0, #0
 658 0028 10BD     		pop	{r4, pc}
 659              	.LVL69:
 660              	.L28:
 661              		.loc 1 373 0
 662 002a 4FF0FF30 		mov	r0, #-1
 663              	.LVL70:
 664              		.loc 1 380 0
 665 002e 10BD     		pop	{r4, pc}
 666              		.cfi_endproc
 667              	.LFE17:
 668              		.size	chMBFetchI, .-chMBFetchI
 669              		.text
 670              	.Letext0:
 671              		.file 2 "c:\\chibistudio\\tools\\gnu tools arm embedded\\4.7 2013q1\\bin\\../lib/gcc/arm-none-eabi
 672              		.file 3 "../../os/ports/GCC/ARMCMx/chtypes.h"
ARM GAS  C:\Users\roob\AppData\Local\Temp\ccBuXKcZ.s 			page 13


 673              		.file 4 "../../os/kernel/include/chlists.h"
 674              		.file 5 "../../os/kernel/include/chthreads.h"
 675              		.file 6 "../../os/ports/GCC/ARMCMx/chcore_v7m.h"
 676              		.file 7 "../../os/kernel/include/chsem.h"
 677              		.file 8 "../../os/kernel/include/chmtx.h"
 678              		.file 9 "../../os/kernel/include/chmboxes.h"
 679              		.file 10 "../../os/kernel/include/chschd.h"
