ARM GAS  C:\Users\roob\AppData\Local\Temp\ccp4vNJa.s 			page 1


   1              		.syntax unified
   2              		.cpu cortex-m4
   3              		.fpu softvfp
   4              		.eabi_attribute 20, 1
   5              		.eabi_attribute 21, 1
   6              		.eabi_attribute 23, 3
   7              		.eabi_attribute 24, 1
   8              		.eabi_attribute 25, 1
   9              		.eabi_attribute 26, 1
  10              		.eabi_attribute 30, 2
  11              		.eabi_attribute 34, 1
  12              		.eabi_attribute 18, 4
  13              		.thumb
  14              		.file	"chsem.c"
  15              		.text
  16              	.Ltext0:
  17              		.cfi_sections	.debug_frame
  18              		.section	.text.chSemInit,"ax",%progbits
  19              		.align	2
  20              		.p2align 4,,15
  21              		.global	chSemInit
  22              		.thumb
  23              		.thumb_func
  24              		.type	chSemInit, %function
  25              	chSemInit:
  26              	.LFB7:
  27              		.file 1 "../../os/kernel/src/chsem.c"
  28              		.loc 1 86 0
  29              		.cfi_startproc
  30              		@ args = 0, pretend = 0, frame = 0
  31              		@ frame_needed = 0, uses_anonymous_args = 0
  32              		@ link register save eliminated.
  33              	.LVL0:
  34              		.loc 1 90 0
  35 0000 4060     		str	r0, [r0, #4]
  36 0002 0060     		str	r0, [r0, #0]
  37              		.loc 1 91 0
  38 0004 8160     		str	r1, [r0, #8]
  39 0006 7047     		bx	lr
  40              		.cfi_endproc
  41              	.LFE7:
  42              		.size	chSemInit, .-chSemInit
  43 0008 AFF30080 		.section	.text.chSemResetI,"ax",%progbits
  43      AFF30080 
  44              		.align	2
  45              		.p2align 4,,15
  46              		.global	chSemResetI
  47              		.thumb
  48              		.thumb_func
  49              		.type	chSemResetI, %function
  50              	chSemResetI:
  51              	.LFB9:
  52              		.loc 1 136 0
  53              		.cfi_startproc
  54              		@ args = 0, pretend = 0, frame = 0
  55              		@ frame_needed = 0, uses_anonymous_args = 0
  56              	.LVL1:
ARM GAS  C:\Users\roob\AppData\Local\Temp\ccp4vNJa.s 			page 2


  57 0000 F8B5     		push	{r3, r4, r5, r6, r7, lr}
  58              	.LCFI0:
  59              		.cfi_def_cfa_offset 24
  60              		.cfi_offset 3, -24
  61              		.cfi_offset 4, -20
  62              		.cfi_offset 5, -16
  63              		.cfi_offset 6, -12
  64              		.cfi_offset 7, -8
  65              		.cfi_offset 14, -4
  66              		.loc 1 141 0
  67 0002 8768     		ldr	r7, [r0, #8]
  68              	.LVL2:
  69              		.loc 1 147 0
  70 0004 8160     		str	r1, [r0, #8]
  71              		.loc 1 148 0
  72 0006 0137     		adds	r7, r7, #1
  73              	.LVL3:
  74 0008 002F     		cmp	r7, #0
  75              		.loc 1 136 0
  76 000a 0446     		mov	r4, r0
  77              		.loc 1 148 0
  78 000c 29DC     		bgt	.L2
  79              	.LBB24:
  80              	.LBB25:
  81              		.file 2 "../../os/kernel/include/chinline.h"
  82              		.loc 2 67 0
  83 000e 4068     		ldr	r0, [r0, #4]
  84              	.LVL4:
  85              		.loc 2 69 0
  86 0010 4368     		ldr	r3, [r0, #4]
  87 0012 6360     		str	r3, [r4, #4]
  88 0014 1C60     		str	r4, [r3, #0]
  89              	.LBE25:
  90              	.LBE24:
  91              		.loc 1 149 0
  92 0016 FFF7FEFF 		bl	chSchReadyI
  93              	.LVL5:
  94 001a 6FF00106 		mvn	r6, #1
  95 001e 07F00101 		and	r1, r7, #1
  96              	.LVL6:
  97 0022 4662     		str	r6, [r0, #36]
  98              		.loc 1 148 0
  99 0024 7D1C     		adds	r5, r7, #1
 100 0026 EFB1     		cbz	r7, .L15
 101 0028 49B1     		cbz	r1, .L6
 102              	.LBB29:
 103              	.LBB26:
 104              		.loc 2 67 0
 105 002a 6068     		ldr	r0, [r4, #4]
 106              		.loc 2 69 0
 107 002c 4268     		ldr	r2, [r0, #4]
 108 002e 6260     		str	r2, [r4, #4]
 109 0030 1460     		str	r4, [r2, #0]
 110              	.LBE26:
 111              	.LBE29:
 112              		.loc 1 149 0
 113 0032 FFF7FEFF 		bl	chSchReadyI
ARM GAS  C:\Users\roob\AppData\Local\Temp\ccp4vNJa.s 			page 3


 114              	.LVL7:
 115              		.loc 1 148 0
 116 0036 0135     		adds	r5, r5, #1
 117 0038 012D     		cmp	r5, #1
 118              		.loc 1 149 0
 119 003a 4662     		str	r6, [r0, #36]
 120              	.LVL8:
 121              		.loc 1 148 0
 122 003c 13D0     		beq	.L16
 123              	.L6:
 124              	.LBB30:
 125              	.LBB27:
 126              		.loc 2 67 0
 127 003e 6068     		ldr	r0, [r4, #4]
 128              		.loc 2 69 0
 129 0040 4368     		ldr	r3, [r0, #4]
 130 0042 6360     		str	r3, [r4, #4]
 131 0044 1C60     		str	r4, [r3, #0]
 132              	.LBE27:
 133              	.LBE30:
 134              		.loc 1 149 0
 135 0046 FFF7FEFF 		bl	chSchReadyI
 136              	.LVL9:
 137 004a 4662     		str	r6, [r0, #36]
 138              	.LBB31:
 139              	.LBB28:
 140              		.loc 2 67 0
 141 004c 6068     		ldr	r0, [r4, #4]
 142              		.loc 2 69 0
 143 004e 4168     		ldr	r1, [r0, #4]
 144 0050 6160     		str	r1, [r4, #4]
 145 0052 0C60     		str	r4, [r1, #0]
 146              	.LBE28:
 147              	.LBE31:
 148              		.loc 1 149 0
 149 0054 FFF7FEFF 		bl	chSchReadyI
 150              	.LVL10:
 151              		.loc 1 148 0
 152 0058 6A1C     		adds	r2, r5, #1
 153              		.loc 1 149 0
 154 005a 4662     		str	r6, [r0, #36]
 155              		.loc 1 148 0
 156 005c 0235     		adds	r5, r5, #2
 157 005e 002A     		cmp	r2, #0
 158 0060 EDD1     		bne	.L6
 159              	.LVL11:
 160              	.L2:
 161 0062 F8BD     		pop	{r3, r4, r5, r6, r7, pc}
 162              	.LVL12:
 163              	.L15:
 164 0064 F8BD     		pop	{r3, r4, r5, r6, r7, pc}
 165              	.LVL13:
 166              	.L16:
 167 0066 F8BD     		pop	{r3, r4, r5, r6, r7, pc}
 168              		.cfi_endproc
 169              	.LFE9:
 170              		.size	chSemResetI, .-chSemResetI
ARM GAS  C:\Users\roob\AppData\Local\Temp\ccp4vNJa.s 			page 4


 171 0068 AFF30080 		.section	.text.chSemReset,"ax",%progbits
 171      AFF30080 
 172              		.align	2
 173              		.p2align 4,,15
 174              		.global	chSemReset
 175              		.thumb
 176              		.thumb_func
 177              		.type	chSemReset, %function
 178              	chSemReset:
 179              	.LFB8:
 180              		.loc 1 109 0
 181              		.cfi_startproc
 182              		@ args = 0, pretend = 0, frame = 0
 183              		@ frame_needed = 0, uses_anonymous_args = 0
 184              	.LVL14:
 185 0000 08B5     		push	{r3, lr}
 186              	.LCFI1:
 187              		.cfi_def_cfa_offset 8
 188              		.cfi_offset 3, -8
 189              		.cfi_offset 14, -4
 190              	.LBB32:
 191              		.loc 1 111 0
 192 0002 2023     		movs	r3, #32
 193              	.LVL15:
 194              	@ 111 "../../os/kernel/src/chsem.c" 1
 195 0004 83F31188 		msr     BASEPRI, r3
 196              	@ 0 "" 2
 197              	.LVL16:
 198              		.thumb
 199              	.LBE32:
 200              		.loc 1 112 0
 201 0008 FFF7FEFF 		bl	chSemResetI
 202              	.LVL17:
 203              		.loc 1 113 0
 204 000c FFF7FEFF 		bl	chSchRescheduleS
 205              	.LVL18:
 206              	.LBB33:
 207              		.loc 1 114 0
 208 0010 0023     		movs	r3, #0
 209              	.LVL19:
 210              	@ 114 "../../os/kernel/src/chsem.c" 1
 211 0012 83F31188 		msr     BASEPRI, r3
 212              	@ 0 "" 2
 213              	.LVL20:
 214              		.thumb
 215 0016 08BD     		pop	{r3, pc}
 216              	.LBE33:
 217              		.cfi_endproc
 218              	.LFE8:
 219              		.size	chSemReset, .-chSemReset
 220 0018 AFF30080 		.section	.text.chSemWaitS,"ax",%progbits
 220      AFF30080 
 221              		.align	2
 222              		.p2align 4,,15
 223              		.global	chSemWaitS
 224              		.thumb
 225              		.thumb_func
ARM GAS  C:\Users\roob\AppData\Local\Temp\ccp4vNJa.s 			page 5


 226              		.type	chSemWaitS, %function
 227              	chSemWaitS:
 228              	.LFB11:
 229              		.loc 1 185 0
 230              		.cfi_startproc
 231              		@ args = 0, pretend = 0, frame = 0
 232              		@ frame_needed = 0, uses_anonymous_args = 0
 233              	.LVL21:
 234              		.loc 1 194 0
 235 0000 8268     		ldr	r2, [r0, #8]
 236              		.loc 1 185 0
 237 0002 0346     		mov	r3, r0
 238              		.loc 1 194 0
 239 0004 501E     		subs	r0, r2, #1
 240              	.LVL22:
 241 0006 0028     		cmp	r0, #0
 242              		.loc 1 185 0
 243 0008 10B5     		push	{r4, lr}
 244              	.LCFI2:
 245              		.cfi_def_cfa_offset 8
 246              		.cfi_offset 4, -8
 247              		.cfi_offset 14, -4
 248              		.loc 1 194 0
 249 000a 9860     		str	r0, [r3, #8]
 250 000c 01DB     		blt	.L21
 251              		.loc 1 200 0
 252 000e 0020     		movs	r0, #0
 253              		.loc 1 201 0
 254 0010 10BD     		pop	{r4, pc}
 255              	.L21:
 256              		.loc 1 195 0
 257 0012 074C     		ldr	r4, .L22
 258 0014 A269     		ldr	r2, [r4, #24]
 259 0016 5362     		str	r3, [r2, #36]
 260              	.LVL23:
 261              	.LBB34:
 262              	.LBB35:
 263              		.loc 2 55 0
 264 0018 5968     		ldr	r1, [r3, #4]
 265              		.loc 2 54 0
 266 001a 1360     		str	r3, [r2, #0]
 267              		.loc 2 55 0
 268 001c 5160     		str	r1, [r2, #4]
 269              	.LBE35:
 270              	.LBE34:
 271              		.loc 1 197 0
 272 001e 0320     		movs	r0, #3
 273              	.LBB37:
 274              	.LBB36:
 275              		.loc 2 56 0
 276 0020 5A60     		str	r2, [r3, #4]
 277 0022 0A60     		str	r2, [r1, #0]
 278              	.LBE36:
 279              	.LBE37:
 280              		.loc 1 197 0
 281 0024 FFF7FEFF 		bl	chSchGoSleepS
 282              	.LVL24:
ARM GAS  C:\Users\roob\AppData\Local\Temp\ccp4vNJa.s 			page 6


 283              		.loc 1 198 0
 284 0028 A369     		ldr	r3, [r4, #24]
 285 002a 586A     		ldr	r0, [r3, #36]
 286 002c 10BD     		pop	{r4, pc}
 287              	.L23:
 288 002e 00BF     		.align	2
 289              	.L22:
 290 0030 00000000 		.word	rlist
 291              		.cfi_endproc
 292              	.LFE11:
 293              		.size	chSemWaitS, .-chSemWaitS
 294 0034 AFF30080 		.section	.text.chSemWait,"ax",%progbits
 294      AFF30080 
 294      AFF30080 
 295              		.align	2
 296              		.p2align 4,,15
 297              		.global	chSemWait
 298              		.thumb
 299              		.thumb_func
 300              		.type	chSemWait, %function
 301              	chSemWait:
 302              	.LFB10:
 303              		.loc 1 164 0
 304              		.cfi_startproc
 305              		@ args = 0, pretend = 0, frame = 0
 306              		@ frame_needed = 0, uses_anonymous_args = 0
 307              	.LVL25:
 308 0000 08B5     		push	{r3, lr}
 309              	.LCFI3:
 310              		.cfi_def_cfa_offset 8
 311              		.cfi_offset 3, -8
 312              		.cfi_offset 14, -4
 313              	.LBB38:
 314              		.loc 1 167 0
 315 0002 2023     		movs	r3, #32
 316              	.LVL26:
 317              	@ 167 "../../os/kernel/src/chsem.c" 1
 318 0004 83F31188 		msr     BASEPRI, r3
 319              	@ 0 "" 2
 320              	.LVL27:
 321              		.thumb
 322              	.LBE38:
 323              		.loc 1 168 0
 324 0008 FFF7FEFF 		bl	chSemWaitS
 325              	.LVL28:
 326              	.LBB39:
 327              		.loc 1 169 0
 328 000c 0023     		movs	r3, #0
 329              	.LVL29:
 330              	@ 169 "../../os/kernel/src/chsem.c" 1
 331 000e 83F31188 		msr     BASEPRI, r3
 332              	@ 0 "" 2
 333              	.LVL30:
 334              		.thumb
 335              	.LBE39:
 336              		.loc 1 171 0
 337 0012 08BD     		pop	{r3, pc}
ARM GAS  C:\Users\roob\AppData\Local\Temp\ccp4vNJa.s 			page 7


 338              		.cfi_endproc
 339              	.LFE10:
 340              		.size	chSemWait, .-chSemWait
 341 0014 AFF30080 		.section	.text.chSemWaitTimeoutS,"ax",%progbits
 341      AFF30080 
 341      AFF30080 
 342              		.align	2
 343              		.p2align 4,,15
 344              		.global	chSemWaitTimeoutS
 345              		.thumb
 346              		.thumb_func
 347              		.type	chSemWaitTimeoutS, %function
 348              	chSemWaitTimeoutS:
 349              	.LFB13:
 350              		.loc 1 250 0
 351              		.cfi_startproc
 352              		@ args = 0, pretend = 0, frame = 0
 353              		@ frame_needed = 0, uses_anonymous_args = 0
 354              		@ link register save eliminated.
 355              	.LVL31:
 356 0000 0346     		mov	r3, r0
 357              		.loc 1 254 0
 358 0002 8068     		ldr	r0, [r0, #8]
 359              	.LVL32:
 360              		.loc 1 259 0
 361 0004 421E     		subs	r2, r0, #1
 362 0006 002A     		cmp	r2, #0
 363              		.loc 1 250 0
 364 0008 10B4     		push	{r4}
 365              	.LCFI4:
 366              		.cfi_def_cfa_offset 4
 367              		.cfi_offset 4, -4
 368              		.loc 1 250 0
 369 000a 0C46     		mov	r4, r1
 370              		.loc 1 259 0
 371 000c 9A60     		str	r2, [r3, #8]
 372 000e 02DB     		blt	.L29
 373              		.loc 1 268 0
 374 0010 0020     		movs	r0, #0
 375              	.L26:
 376              		.loc 1 269 0
 377 0012 10BC     		pop	{r4}
 378 0014 7047     		bx	lr
 379              	.L29:
 380              		.loc 1 260 0
 381 0016 59B1     		cbz	r1, .L30
 382              		.loc 1 264 0
 383 0018 074C     		ldr	r4, .L31
 384 001a A269     		ldr	r2, [r4, #24]
 385 001c 5362     		str	r3, [r2, #36]
 386              	.LVL33:
 387              	.LBB40:
 388              	.LBB41:
 389              		.loc 2 55 0
 390 001e 5C68     		ldr	r4, [r3, #4]
 391              	.LBE41:
 392              	.LBE40:
ARM GAS  C:\Users\roob\AppData\Local\Temp\ccp4vNJa.s 			page 8


 393              		.loc 1 266 0
 394 0020 0320     		movs	r0, #3
 395              	.LBB43:
 396              	.LBB42:
 397              		.loc 2 55 0
 398 0022 82E81800 		stmia	r2, {r3, r4}
 399              		.loc 2 56 0
 400 0026 5A60     		str	r2, [r3, #4]
 401 0028 2260     		str	r2, [r4, #0]
 402              	.LBE42:
 403              	.LBE43:
 404              		.loc 1 269 0
 405 002a 10BC     		pop	{r4}
 406              		.loc 1 266 0
 407 002c FFF7FEBF 		b	chSchGoSleepTimeoutS
 408              	.LVL34:
 409              	.L30:
 410              		.loc 1 261 0
 411 0030 9860     		str	r0, [r3, #8]
 412              		.loc 1 262 0
 413 0032 4FF0FF30 		mov	r0, #-1
 414 0036 ECE7     		b	.L26
 415              	.L32:
 416              		.align	2
 417              	.L31:
 418 0038 00000000 		.word	rlist
 419              		.cfi_endproc
 420              	.LFE13:
 421              		.size	chSemWaitTimeoutS, .-chSemWaitTimeoutS
 422 003c AFF30080 		.section	.text.chSemWaitTimeout,"ax",%progbits
 423              		.align	2
 424              		.p2align 4,,15
 425              		.global	chSemWaitTimeout
 426              		.thumb
 427              		.thumb_func
 428              		.type	chSemWaitTimeout, %function
 429              	chSemWaitTimeout:
 430              	.LFB12:
 431              		.loc 1 222 0
 432              		.cfi_startproc
 433              		@ args = 0, pretend = 0, frame = 0
 434              		@ frame_needed = 0, uses_anonymous_args = 0
 435              	.LVL35:
 436 0000 08B5     		push	{r3, lr}
 437              	.LCFI5:
 438              		.cfi_def_cfa_offset 8
 439              		.cfi_offset 3, -8
 440              		.cfi_offset 14, -4
 441              	.LBB44:
 442              		.loc 1 225 0
 443 0002 2023     		movs	r3, #32
 444              	.LVL36:
 445              	@ 225 "../../os/kernel/src/chsem.c" 1
 446 0004 83F31188 		msr     BASEPRI, r3
 447              	@ 0 "" 2
 448              	.LVL37:
 449              		.thumb
ARM GAS  C:\Users\roob\AppData\Local\Temp\ccp4vNJa.s 			page 9


 450              	.LBE44:
 451              		.loc 1 226 0
 452 0008 FFF7FEFF 		bl	chSemWaitTimeoutS
 453              	.LVL38:
 454              	.LBB45:
 455              		.loc 1 227 0
 456 000c 0023     		movs	r3, #0
 457              	.LVL39:
 458              	@ 227 "../../os/kernel/src/chsem.c" 1
 459 000e 83F31188 		msr     BASEPRI, r3
 460              	@ 0 "" 2
 461              	.LVL40:
 462              		.thumb
 463              	.LBE45:
 464              		.loc 1 229 0
 465 0012 08BD     		pop	{r3, pc}
 466              		.cfi_endproc
 467              	.LFE12:
 468              		.size	chSemWaitTimeout, .-chSemWaitTimeout
 469 0014 AFF30080 		.section	.text.chSemSignal,"ax",%progbits
 469      AFF30080 
 469      AFF30080 
 470              		.align	2
 471              		.p2align 4,,15
 472              		.global	chSemSignal
 473              		.thumb
 474              		.thumb_func
 475              		.type	chSemSignal, %function
 476              	chSemSignal:
 477              	.LFB14:
 478              		.loc 1 278 0
 479              		.cfi_startproc
 480              		@ args = 0, pretend = 0, frame = 0
 481              		@ frame_needed = 0, uses_anonymous_args = 0
 482              	.LVL41:
 483 0000 08B5     		push	{r3, lr}
 484              	.LCFI6:
 485              		.cfi_def_cfa_offset 8
 486              		.cfi_offset 3, -8
 487              		.cfi_offset 14, -4
 488              		.loc 1 278 0
 489 0002 0246     		mov	r2, r0
 490              	.LBB46:
 491              		.loc 1 286 0
 492 0004 2023     		movs	r3, #32
 493              	.LVL42:
 494              	@ 286 "../../os/kernel/src/chsem.c" 1
 495 0006 83F31188 		msr     BASEPRI, r3
 496              	@ 0 "" 2
 497              	.LVL43:
 498              		.thumb
 499              	.LBE46:
 500              		.loc 1 287 0
 501 000a 8368     		ldr	r3, [r0, #8]
 502              	.LVL44:
 503 000c 581C     		adds	r0, r3, #1
 504              	.LVL45:
ARM GAS  C:\Users\roob\AppData\Local\Temp\ccp4vNJa.s 			page 10


 505 000e 0028     		cmp	r0, #0
 506 0010 9060     		str	r0, [r2, #8]
 507 0012 03DD     		ble	.L36
 508              	.LVL46:
 509              	.L35:
 510              	.LBB47:
 511              		.loc 1 289 0
 512 0014 0023     		movs	r3, #0
 513              	.LVL47:
 514              	@ 289 "../../os/kernel/src/chsem.c" 1
 515 0016 83F31188 		msr     BASEPRI, r3
 516              	@ 0 "" 2
 517              	.LVL48:
 518              		.thumb
 519 001a 08BD     		pop	{r3, pc}
 520              	.LVL49:
 521              	.L36:
 522              	.LBE47:
 523              	.LBB48:
 524              	.LBB49:
 525              		.loc 2 60 0
 526 001c 1068     		ldr	r0, [r2, #0]
 527              	.LVL50:
 528              		.loc 2 62 0
 529 001e 0368     		ldr	r3, [r0, #0]
 530              	.LBE49:
 531              	.LBE48:
 532              		.loc 1 288 0
 533 0020 0021     		movs	r1, #0
 534              	.LBB51:
 535              	.LBB50:
 536              		.loc 2 62 0
 537 0022 1360     		str	r3, [r2, #0]
 538 0024 5A60     		str	r2, [r3, #4]
 539              	.LBE50:
 540              	.LBE51:
 541              		.loc 1 288 0
 542 0026 FFF7FEFF 		bl	chSchWakeupS
 543              	.LVL51:
 544 002a F3E7     		b	.L35
 545              		.cfi_endproc
 546              	.LFE14:
 547              		.size	chSemSignal, .-chSemSignal
 548 002c AFF30080 		.section	.text.chSemSignalI,"ax",%progbits
 549              		.align	2
 550              		.p2align 4,,15
 551              		.global	chSemSignalI
 552              		.thumb
 553              		.thumb_func
 554              		.type	chSemSignalI, %function
 555              	chSemSignalI:
 556              	.LFB15:
 557              		.loc 1 303 0
 558              		.cfi_startproc
 559              		@ args = 0, pretend = 0, frame = 0
 560              		@ frame_needed = 0, uses_anonymous_args = 0
 561              		@ link register save eliminated.
ARM GAS  C:\Users\roob\AppData\Local\Temp\ccp4vNJa.s 			page 11


 562              	.LVL52:
 563              		.loc 1 312 0
 564 0000 8268     		ldr	r2, [r0, #8]
 565              		.loc 1 303 0
 566 0002 0346     		mov	r3, r0
 567              		.loc 1 312 0
 568 0004 501C     		adds	r0, r2, #1
 569              	.LVL53:
 570 0006 0028     		cmp	r0, #0
 571 0008 9860     		str	r0, [r3, #8]
 572 000a 00DD     		ble	.L39
 573 000c 7047     		bx	lr
 574              	.L39:
 575              	.LVL54:
 576              	.LBB52:
 577              	.LBB53:
 578              	.LBB54:
 579              		.loc 2 60 0
 580 000e 1A68     		ldr	r2, [r3, #0]
 581              	.LVL55:
 582              		.loc 2 62 0
 583 0010 1168     		ldr	r1, [r2, #0]
 584              	.LBE54:
 585              	.LBE53:
 586              		.loc 1 317 0
 587 0012 1046     		mov	r0, r2
 588              	.LBB56:
 589              	.LBB55:
 590              		.loc 2 62 0
 591 0014 1960     		str	r1, [r3, #0]
 592 0016 4B60     		str	r3, [r1, #4]
 593              	.LBE55:
 594              	.LBE56:
 595              		.loc 1 316 0
 596 0018 0023     		movs	r3, #0
 597              	.LVL56:
 598 001a 5362     		str	r3, [r2, #36]
 599              	.LBE52:
 600              		.loc 1 319 0
 601              	.LBB57:
 602              		.loc 1 317 0
 603 001c FFF7FEBF 		b	chSchReadyI
 604              	.LVL57:
 605              	.LBE57:
 606              		.cfi_endproc
 607              	.LFE15:
 608              		.size	chSemSignalI, .-chSemSignalI
 609              		.section	.text.chSemAddCounterI,"ax",%progbits
 610              		.align	2
 611              		.p2align 4,,15
 612              		.global	chSemAddCounterI
 613              		.thumb
 614              		.thumb_func
 615              		.type	chSemAddCounterI, %function
 616              	chSemAddCounterI:
 617              	.LFB16:
 618              		.loc 1 334 0
ARM GAS  C:\Users\roob\AppData\Local\Temp\ccp4vNJa.s 			page 12


 619              		.cfi_startproc
 620              		@ args = 0, pretend = 0, frame = 0
 621              		@ frame_needed = 0, uses_anonymous_args = 0
 622              	.LVL58:
 623 0000 F8B5     		push	{r3, r4, r5, r6, r7, lr}
 624              	.LCFI7:
 625              		.cfi_def_cfa_offset 24
 626              		.cfi_offset 3, -24
 627              		.cfi_offset 4, -20
 628              		.cfi_offset 5, -16
 629              		.cfi_offset 6, -12
 630              		.cfi_offset 7, -8
 631              		.cfi_offset 14, -4
 632              		.loc 1 343 0
 633 0002 0D1E     		subs	r5, r1, #0
 634              		.loc 1 334 0
 635 0004 0446     		mov	r4, r0
 636              		.loc 1 343 0
 637 0006 37DD     		ble	.L40
 638              		.loc 1 344 0
 639 0008 8368     		ldr	r3, [r0, #8]
 640              		.loc 1 345 0
 641 000a 0026     		movs	r6, #0
 642              		.loc 1 344 0
 643 000c 581C     		adds	r0, r3, #1
 644              	.LVL59:
 645 000e 6A1E     		subs	r2, r5, #1
 646 0010 B042     		cmp	r0, r6
 647 0012 A060     		str	r0, [r4, #8]
 648 0014 02F00107 		and	r7, r2, #1
 649 0018 2FDD     		ble	.L58
 650              	.LVL60:
 651              	.L47:
 652              		.loc 1 343 0
 653 001a 013D     		subs	r5, r5, #1
 654              	.LVL61:
 655 001c 2CD0     		beq	.L40
 656 001e 77B1     		cbz	r7, .L45
 657              		.loc 1 344 0
 658 0020 A368     		ldr	r3, [r4, #8]
 659 0022 5A1C     		adds	r2, r3, #1
 660 0024 002A     		cmp	r2, #0
 661 0026 A260     		str	r2, [r4, #8]
 662 0028 2FDD     		ble	.L59
 663              	.L49:
 664              	.LVL62:
 665              		.loc 1 343 0
 666 002a 013D     		subs	r5, r5, #1
 667 002c 07D1     		bne	.L45
 668 002e 34E0     		b	.L63
 669              	.L42:
 670              		.loc 1 344 0
 671 0030 A168     		ldr	r1, [r4, #8]
 672 0032 481C     		adds	r0, r1, #1
 673 0034 0028     		cmp	r0, #0
 674 0036 A060     		str	r0, [r4, #8]
 675 0038 14DD     		ble	.L61
ARM GAS  C:\Users\roob\AppData\Local\Temp\ccp4vNJa.s 			page 13


 676              	.L52:
 677              		.loc 1 343 0
 678 003a 013D     		subs	r5, r5, #1
 679 003c 1BD0     		beq	.L62
 680              	.L45:
 681              		.loc 1 344 0
 682 003e A068     		ldr	r0, [r4, #8]
 683 0040 431C     		adds	r3, r0, #1
 684 0042 002B     		cmp	r3, #0
 685 0044 A360     		str	r3, [r4, #8]
 686              		.loc 1 346 0
 687 0046 05F1FF35 		add	r5, r5, #-1
 688              		.loc 1 344 0
 689 004a F1DC     		bgt	.L42
 690              	.LVL63:
 691              	.LBB58:
 692              	.LBB59:
 693              		.loc 2 60 0
 694 004c 2068     		ldr	r0, [r4, #0]
 695              	.LVL64:
 696              		.loc 2 62 0
 697 004e 0268     		ldr	r2, [r0, #0]
 698 0050 2260     		str	r2, [r4, #0]
 699 0052 5460     		str	r4, [r2, #4]
 700              	.LBE59:
 701              	.LBE58:
 702              		.loc 1 345 0
 703 0054 FFF7FEFF 		bl	chSchReadyI
 704              	.LVL65:
 705 0058 4662     		str	r6, [r0, #36]
 706              		.loc 1 344 0
 707 005a A168     		ldr	r1, [r4, #8]
 708 005c 481C     		adds	r0, r1, #1
 709 005e 0028     		cmp	r0, #0
 710 0060 A060     		str	r0, [r4, #8]
 711 0062 EADC     		bgt	.L52
 712              	.LVL66:
 713              	.L61:
 714              	.LBB63:
 715              	.LBB60:
 716              		.loc 2 60 0
 717 0064 2068     		ldr	r0, [r4, #0]
 718              		.loc 2 62 0
 719 0066 0368     		ldr	r3, [r0, #0]
 720 0068 2360     		str	r3, [r4, #0]
 721 006a 5C60     		str	r4, [r3, #4]
 722              	.LBE60:
 723              	.LBE63:
 724              		.loc 1 345 0
 725 006c FFF7FEFF 		bl	chSchReadyI
 726              	.LVL67:
 727              		.loc 1 343 0
 728 0070 013D     		subs	r5, r5, #1
 729              		.loc 1 345 0
 730 0072 4662     		str	r6, [r0, #36]
 731              		.loc 1 343 0
 732 0074 E3D1     		bne	.L45
ARM GAS  C:\Users\roob\AppData\Local\Temp\ccp4vNJa.s 			page 14


 733              	.LVL68:
 734              	.L62:
 735 0076 F8BD     		pop	{r3, r4, r5, r6, r7, pc}
 736              	.L40:
 737 0078 F8BD     		pop	{r3, r4, r5, r6, r7, pc}
 738              	.LVL69:
 739              	.L58:
 740              	.LBB64:
 741              	.LBB61:
 742              		.loc 2 60 0
 743 007a 2068     		ldr	r0, [r4, #0]
 744              		.loc 2 62 0
 745 007c 0168     		ldr	r1, [r0, #0]
 746              	.LVL70:
 747 007e 2160     		str	r1, [r4, #0]
 748 0080 4C60     		str	r4, [r1, #4]
 749              	.LBE61:
 750              	.LBE64:
 751              		.loc 1 345 0
 752 0082 FFF7FEFF 		bl	chSchReadyI
 753              	.LVL71:
 754 0086 4662     		str	r6, [r0, #36]
 755 0088 C7E7     		b	.L47
 756              	.LVL72:
 757              	.L59:
 758              	.LBB65:
 759              	.LBB62:
 760              		.loc 2 60 0
 761 008a 2068     		ldr	r0, [r4, #0]
 762              		.loc 2 62 0
 763 008c 0168     		ldr	r1, [r0, #0]
 764 008e 2160     		str	r1, [r4, #0]
 765 0090 4C60     		str	r4, [r1, #4]
 766              	.LBE62:
 767              	.LBE65:
 768              		.loc 1 345 0
 769 0092 FFF7FEFF 		bl	chSchReadyI
 770              	.LVL73:
 771 0096 4662     		str	r6, [r0, #36]
 772 0098 C7E7     		b	.L49
 773              	.LVL74:
 774              	.L63:
 775 009a F8BD     		pop	{r3, r4, r5, r6, r7, pc}
 776              		.cfi_endproc
 777              	.LFE16:
 778              		.size	chSemAddCounterI, .-chSemAddCounterI
 779 009c AFF30080 		.section	.text.chSemSignalWait,"ax",%progbits
 780              		.align	2
 781              		.p2align 4,,15
 782              		.global	chSemSignalWait
 783              		.thumb
 784              		.thumb_func
 785              		.type	chSemSignalWait, %function
 786              	chSemSignalWait:
 787              	.LFB17:
 788              		.loc 1 366 0
 789              		.cfi_startproc
ARM GAS  C:\Users\roob\AppData\Local\Temp\ccp4vNJa.s 			page 15


 790              		@ args = 0, pretend = 0, frame = 8
 791              		@ frame_needed = 0, uses_anonymous_args = 0
 792              	.LVL75:
 793 0000 10B5     		push	{r4, lr}
 794              	.LCFI8:
 795              		.cfi_def_cfa_offset 8
 796              		.cfi_offset 4, -8
 797              		.cfi_offset 14, -4
 798 0002 0246     		mov	r2, r0
 799 0004 82B0     		sub	sp, sp, #8
 800              	.LCFI9:
 801              		.cfi_def_cfa_offset 16
 802              	.LBB66:
 803              		.loc 1 379 0
 804 0006 2023     		movs	r3, #32
 805              	.LVL76:
 806              	@ 379 "../../os/kernel/src/chsem.c" 1
 807 0008 83F31188 		msr     BASEPRI, r3
 808              	@ 0 "" 2
 809              	.LVL77:
 810              		.thumb
 811              	.LBE66:
 812              		.loc 1 380 0
 813 000c 8368     		ldr	r3, [r0, #8]
 814              	.LVL78:
 815 000e 581C     		adds	r0, r3, #1
 816              	.LVL79:
 817 0010 0028     		cmp	r0, #0
 818 0012 9060     		str	r0, [r2, #8]
 819 0014 19DD     		ble	.L68
 820              	.LVL80:
 821              	.L65:
 822              		.loc 1 382 0
 823 0016 8A68     		ldr	r2, [r1, #8]
 824 0018 501E     		subs	r0, r2, #1
 825 001a 0028     		cmp	r0, #0
 826 001c 8860     		str	r0, [r1, #8]
 827 001e 07DB     		blt	.L69
 828              		.loc 1 390 0
 829 0020 FFF7FEFF 		bl	chSchRescheduleS
 830              	.LVL81:
 831              		.loc 1 391 0
 832 0024 0020     		movs	r0, #0
 833              	.LVL82:
 834              	.L67:
 835              	.LBB67:
 836              		.loc 1 393 0
 837 0026 0023     		movs	r3, #0
 838              	.LVL83:
 839              	@ 393 "../../os/kernel/src/chsem.c" 1
 840 0028 83F31188 		msr     BASEPRI, r3
 841              	@ 0 "" 2
 842              	.LVL84:
 843              		.thumb
 844              	.LBE67:
 845              		.loc 1 395 0
 846 002c 02B0     		add	sp, sp, #8
ARM GAS  C:\Users\roob\AppData\Local\Temp\ccp4vNJa.s 			page 16


 847 002e 10BD     		pop	{r4, pc}
 848              	.LVL85:
 849              	.L69:
 850              	.LBB68:
 851              		.loc 1 383 0
 852 0030 0B4C     		ldr	r4, .L70
 853              	.LBB69:
 854              	.LBB70:
 855              		.loc 2 55 0
 856 0032 4B68     		ldr	r3, [r1, #4]
 857              	.LBE70:
 858              	.LBE69:
 859              		.loc 1 383 0
 860 0034 A469     		ldr	r4, [r4, #24]
 861              	.LVL86:
 862              		.loc 1 386 0
 863 0036 0320     		movs	r0, #3
 864              	.LBB72:
 865              	.LBB71:
 866              		.loc 2 55 0
 867 0038 84E80A00 		stmia	r4, {r1, r3}
 868              		.loc 2 56 0
 869 003c 4C60     		str	r4, [r1, #4]
 870 003e 1C60     		str	r4, [r3, #0]
 871              	.LBE71:
 872              	.LBE72:
 873              		.loc 1 385 0
 874 0040 6162     		str	r1, [r4, #36]
 875              		.loc 1 386 0
 876 0042 FFF7FEFF 		bl	chSchGoSleepS
 877              	.LVL87:
 878              		.loc 1 387 0
 879 0046 606A     		ldr	r0, [r4, #36]
 880              	.LVL88:
 881 0048 EDE7     		b	.L67
 882              	.LVL89:
 883              	.L68:
 884              	.LBE68:
 885              	.LBB73:
 886              	.LBB74:
 887              		.loc 2 60 0
 888 004a 1068     		ldr	r0, [r2, #0]
 889              	.LVL90:
 890              		.loc 2 62 0
 891 004c 0368     		ldr	r3, [r0, #0]
 892 004e 1360     		str	r3, [r2, #0]
 893 0050 5A60     		str	r2, [r3, #4]
 894              	.LBE74:
 895              	.LBE73:
 896              		.loc 1 381 0
 897 0052 0191     		str	r1, [sp, #4]
 898 0054 FFF7FEFF 		bl	chSchReadyI
 899              	.LVL91:
 900 0058 0021     		movs	r1, #0
 901 005a 4162     		str	r1, [r0, #36]
 902 005c 0199     		ldr	r1, [sp, #4]
 903 005e DAE7     		b	.L65
ARM GAS  C:\Users\roob\AppData\Local\Temp\ccp4vNJa.s 			page 17


 904              	.L71:
 905              		.align	2
 906              	.L70:
 907 0060 00000000 		.word	rlist
 908              		.cfi_endproc
 909              	.LFE17:
 910              		.size	chSemSignalWait, .-chSemSignalWait
 911 0064 AFF30080 		.text
 911      AFF30080 
 911      AFF30080 
 912              	.Letext0:
 913              		.file 3 "c:\\chibistudio\\tools\\gnu tools arm embedded\\4.7 2013q1\\bin\\../lib/gcc/arm-none-eabi
 914              		.file 4 "../../os/ports/GCC/ARMCMx/chtypes.h"
 915              		.file 5 "../../os/kernel/include/chlists.h"
 916              		.file 6 "../../os/kernel/include/chthreads.h"
 917              		.file 7 "../../os/ports/GCC/ARMCMx/chcore_v7m.h"
 918              		.file 8 "../../os/kernel/include/chschd.h"
 919              		.file 9 "../../os/kernel/include/chsem.h"
 920              		.file 10 "../../os/kernel/include/chmtx.h"
