ARM GAS  C:\Users\roob\AppData\Local\Temp\ccJ3POkO.s 			page 1


   1              		.syntax unified
   2              		.cpu cortex-m4
   3              		.fpu softvfp
   4              		.eabi_attribute 20, 1
   5              		.eabi_attribute 21, 1
   6              		.eabi_attribute 23, 3
   7              		.eabi_attribute 24, 1
   8              		.eabi_attribute 25, 1
   9              		.eabi_attribute 26, 1
  10              		.eabi_attribute 30, 2
  11              		.eabi_attribute 34, 1
  12              		.eabi_attribute 18, 4
  13              		.thumb
  14              		.file	"hal_lld.c"
  15              		.text
  16              	.Ltext0:
  17              		.cfi_sections	.debug_frame
  18              		.section	.text.hal_lld_init,"ax",%progbits
  19              		.align	2
  20              		.p2align 4,,15
  21              		.global	hal_lld_init
  22              		.thumb
  23              		.thumb_func
  24              		.type	hal_lld_init, %function
  25              	hal_lld_init:
  26              	.LFB119:
  27              		.file 1 "../../os/hal/platforms/STM32F4xx/hal_lld.c"
  28              		.loc 1 94 0
  29              		.cfi_startproc
  30              		@ args = 0, pretend = 0, frame = 0
  31              		@ frame_needed = 0, uses_anonymous_args = 0
  32              		@ link register save eliminated.
  33              		.loc 1 98 0
  34 0000 4FF46053 		mov	r3, #14336
  35 0004 C4F20203 		movt	r3, 16386
  36 0008 0022     		movs	r2, #0
  37 000a 4FF0FF30 		mov	r0, #-1
  38 000e 1969     		ldr	r1, [r3, #16]
  39              		.loc 1 94 0
  40 0010 70B4     		push	{r4, r5, r6}
  41              	.LCFI0:
  42              		.cfi_def_cfa_offset 12
  43              		.cfi_offset 4, -12
  44              		.cfi_offset 5, -8
  45              		.cfi_offset 6, -4
  46              		.loc 1 98 0
  47 0012 1861     		str	r0, [r3, #16]
  48 0014 1A61     		str	r2, [r3, #16]
  49              		.loc 1 99 0
  50 0016 5969     		ldr	r1, [r3, #20]
  51 0018 5861     		str	r0, [r3, #20]
  52 001a 5A61     		str	r2, [r3, #20]
  53              		.loc 1 100 0
  54 001c 9969     		ldr	r1, [r3, #24]
  55 001e 9861     		str	r0, [r3, #24]
  56 0020 9A61     		str	r2, [r3, #24]
  57              		.loc 1 101 0
ARM GAS  C:\Users\roob\AppData\Local\Temp\ccJ3POkO.s 			page 2


  58 0022 1E6A     		ldr	r6, [r3, #32]
  59              		.loc 1 105 0
  60 0024 4EF21001 		movw	r1, #57360
  61              		.loc 1 101 0
  62 0028 66F08056 		orn	r6, r6, #268435456
  63 002c 1E62     		str	r6, [r3, #32]
  64              		.loc 1 105 0
  65 002e CEF20001 		movt	r1, 57344
  66              		.loc 1 101 0
  67 0032 1A62     		str	r2, [r3, #32]
  68              		.loc 1 105 0
  69 0034 49F23F05 		movw	r5, #36927
  70              		.loc 1 112 0
  71 0038 4EF6F054 		movw	r4, #60912
  72              		.loc 1 102 0
  73 003c 5E6A     		ldr	r6, [r3, #36]
  74 003e 5862     		str	r0, [r3, #36]
  75              		.loc 1 112 0
  76 0040 CEF20004 		movt	r4, 57344
  77              		.loc 1 107 0
  78 0044 0720     		movs	r0, #7
  79              		.loc 1 105 0
  80 0046 C0F20205 		movt	r5, 2
  81              		.loc 1 102 0
  82 004a 5A62     		str	r2, [r3, #36]
  83              		.loc 1 105 0
  84 004c 4D60     		str	r5, [r1, #4]
  85              		.loc 1 106 0
  86 004e 8A60     		str	r2, [r1, #8]
  87              		.loc 1 107 0
  88 0050 0860     		str	r0, [r1, #0]
  89              		.loc 1 112 0
  90 0052 E068     		ldr	r0, [r4, #12]
  91              		.loc 1 113 0
  92 0054 4FF48051 		mov	r1, #4096
  93 0058 CEF20001 		movt	r1, 57344
  94              		.loc 1 112 0
  95 005c 40F08070 		orr	r0, r0, #16777216
  96 0060 E060     		str	r0, [r4, #12]
  97              		.loc 1 113 0
  98 0062 0868     		ldr	r0, [r1, #0]
  99 0064 40F00100 		orr	r0, r0, #1
 100 0068 0860     		str	r0, [r1, #0]
 101              		.loc 1 116 0
 102 006a 186C     		ldr	r0, [r3, #64]
 103              	.LBB4:
 104              	.LBB5:
 105              		.loc 1 52 0
 106 006c 4FF4E041 		mov	r1, #28672
 107 0070 C4F20001 		movt	r1, 16384
 108              	.LBE5:
 109              	.LBE4:
 110              		.loc 1 116 0
 111 0074 40F08050 		orr	r0, r0, #268435456
 112 0078 1864     		str	r0, [r3, #64]
 113              	.LBB7:
 114              	.LBB6:
ARM GAS  C:\Users\roob\AppData\Local\Temp\ccJ3POkO.s 			page 3


 115              		.loc 1 52 0
 116 007a 0868     		ldr	r0, [r1, #0]
 117 007c 40F48070 		orr	r0, r0, #256
 118 0080 0860     		str	r0, [r1, #0]
 119              		.loc 1 55 0
 120 0082 196F     		ldr	r1, [r3, #112]
 121 0084 01F44070 		and	r0, r1, #768
 122 0088 B0F5007F 		cmp	r0, #512
 123 008c 03D0     		beq	.L2
 124              		.loc 1 57 0
 125 008e 4FF48031 		mov	r1, #65536
 126 0092 1967     		str	r1, [r3, #112]
 127              		.loc 1 58 0
 128 0094 1A67     		str	r2, [r3, #112]
 129              	.L2:
 130              		.loc 1 71 0
 131 0096 4FF46053 		mov	r3, #14336
 132 009a C4F20203 		movt	r3, 16386
 133 009e 1A6F     		ldr	r2, [r3, #112]
 134 00a0 1204     		lsls	r2, r2, #16
 135 00a2 07D4     		bmi	.L3
 136              		.loc 1 73 0
 137 00a4 186F     		ldr	r0, [r3, #112]
 138 00a6 40F40071 		orr	r1, r0, #512
 139 00aa 1967     		str	r1, [r3, #112]
 140              		.loc 1 76 0
 141 00ac 1A6F     		ldr	r2, [r3, #112]
 142 00ae 42F40040 		orr	r0, r2, #32768
 143 00b2 1867     		str	r0, [r3, #112]
 144              	.L3:
 145              	.LBE6:
 146              	.LBE7:
 147              		.loc 1 129 0
 148 00b4 70BC     		pop	{r4, r5, r6}
 149              		.loc 1 122 0
 150 00b6 FFF7FEBF 		b	dmaInit
 151              	.LVL0:
 152              		.cfi_endproc
 153              	.LFE119:
 154              		.size	hal_lld_init, .-hal_lld_init
 155 00ba 00BFAFF3 		.section	.text.stm32_clock_init,"ax",%progbits
 155      0080
 156              		.align	2
 157              		.p2align 4,,15
 158              		.global	stm32_clock_init
 159              		.thumb
 160              		.thumb_func
 161              		.type	stm32_clock_init, %function
 162              	stm32_clock_init:
 163              	.LFB120:
 164              		.loc 1 138 0
 165              		.cfi_startproc
 166              		@ args = 0, pretend = 0, frame = 0
 167              		@ frame_needed = 0, uses_anonymous_args = 0
 168              		@ link register save eliminated.
 169              		.loc 1 142 0
 170 0000 4FF46052 		mov	r2, #14336
ARM GAS  C:\Users\roob\AppData\Local\Temp\ccJ3POkO.s 			page 4


 171 0004 C4F20202 		movt	r2, 16386
 172              		.loc 1 146 0
 173 0008 4FF4E043 		mov	r3, #28672
 174 000c C4F20003 		movt	r3, 16384
 175              		.loc 1 142 0
 176 0010 4FF08051 		mov	r1, #268435456
 177 0014 1164     		str	r1, [r2, #64]
 178              		.loc 1 146 0
 179 0016 4FF48042 		mov	r2, #16384
 180              		.loc 1 147 0
 181 001a 1846     		mov	r0, r3
 182              		.loc 1 146 0
 183 001c 1A60     		str	r2, [r3, #0]
 184              	.L9:
 185              		.loc 1 147 0 discriminator 1
 186 001e 4368     		ldr	r3, [r0, #4]
 187 0020 5904     		lsls	r1, r3, #17
 188 0022 FCD5     		bpl	.L9
 189              		.loc 1 155 0
 190 0024 4FF46050 		mov	r0, #14336
 191 0028 C4F20200 		movt	r0, 16386
 192              		.loc 1 156 0
 193 002c 0146     		mov	r1, r0
 194              		.loc 1 155 0
 195 002e 0268     		ldr	r2, [r0, #0]
 196 0030 42F00103 		orr	r3, r2, #1
 197 0034 0360     		str	r3, [r0, #0]
 198              	.L10:
 199              		.loc 1 156 0 discriminator 1
 200 0036 0868     		ldr	r0, [r1, #0]
 201 0038 4FF46053 		mov	r3, #14336
 202 003c 8207     		lsls	r2, r0, #30
 203 003e C4F20203 		movt	r3, 16386
 204 0042 F8D5     		bpl	.L10
 205              		.loc 1 166 0
 206 0044 1968     		ldr	r1, [r3, #0]
 207 0046 41F48032 		orr	r2, r1, #65536
 208 004a 1A60     		str	r2, [r3, #0]
 209              		.loc 1 168 0
 210 004c 1946     		mov	r1, r3
 211              	.L11:
 212              		.loc 1 168 0 is_stmt 0 discriminator 1
 213 004e 0868     		ldr	r0, [r1, #0]
 214 0050 4FF46053 		mov	r3, #14336
 215 0054 8003     		lsls	r0, r0, #14
 216 0056 C4F20203 		movt	r3, 16386
 217 005a F8D5     		bpl	.L11
 218              		.loc 1 174 0 is_stmt 1
 219 005c 5A6F     		ldr	r2, [r3, #116]
 220 005e 42F00101 		orr	r1, r2, #1
 221 0062 5967     		str	r1, [r3, #116]
 222              		.loc 1 175 0
 223 0064 1846     		mov	r0, r3
 224              	.L12:
 225              		.loc 1 175 0 is_stmt 0 discriminator 1
 226 0066 426F     		ldr	r2, [r0, #116]
 227 0068 4FF46053 		mov	r3, #14336
ARM GAS  C:\Users\roob\AppData\Local\Temp\ccJ3POkO.s 			page 5


 228 006c 9207     		lsls	r2, r2, #30
 229 006e C4F20203 		movt	r3, 16386
 230 0072 F8D5     		bpl	.L12
 231              		.loc 1 192 0 is_stmt 1
 232 0074 45F20C41 		movw	r1, #21516
 233 0078 C0F24071 		movt	r1, 1856
 234 007c 5960     		str	r1, [r3, #4]
 235              		.loc 1 194 0
 236 007e 1868     		ldr	r0, [r3, #0]
 237 0080 40F08072 		orr	r2, r0, #16777216
 238 0084 1A60     		str	r2, [r3, #0]
 239              		.loc 1 195 0
 240 0086 1946     		mov	r1, r3
 241              	.L13:
 242              		.loc 1 195 0 is_stmt 0 discriminator 1
 243 0088 0868     		ldr	r0, [r1, #0]
 244 008a 4FF46053 		mov	r3, #14336
 245 008e 8001     		lsls	r0, r0, #6
 246 0090 C4F20203 		movt	r3, 16386
 247 0094 F8D5     		bpl	.L13
 248              		.loc 1 208 0 is_stmt 1
 249 0096 9868     		ldr	r0, [r3, #8]
 250 0098 4FF41442 		mov	r2, #37888
 251              		.loc 1 221 0
 252 009c 4FF47051 		mov	r1, #15360
 253              		.loc 1 208 0
 254 00a0 C3F60802 		movt	r2, 14344
 255              		.loc 1 221 0
 256 00a4 C4F20201 		movt	r1, 16386
 257              		.loc 1 208 0
 258 00a8 1043     		orrs	r0, r0, r2
 259              		.loc 1 221 0
 260 00aa 40F20572 		movw	r2, #1797
 261              		.loc 1 208 0
 262 00ae 9860     		str	r0, [r3, #8]
 263              		.loc 1 221 0
 264 00b0 0A60     		str	r2, [r1, #0]
 265              		.loc 1 227 0
 266 00b2 9968     		ldr	r1, [r3, #8]
 267 00b4 41F00200 		orr	r0, r1, #2
 268 00b8 9860     		str	r0, [r3, #8]
 269              	.L14:
 270              		.loc 1 228 0 discriminator 1
 271 00ba 9968     		ldr	r1, [r3, #8]
 272 00bc 01F00C00 		and	r0, r1, #12
 273 00c0 4FF46052 		mov	r2, #14336
 274 00c4 0828     		cmp	r0, #8
 275 00c6 C4F20202 		movt	r2, 16386
 276 00ca F6D1     		bne	.L14
 277              		.loc 1 235 0
 278 00cc 536C     		ldr	r3, [r2, #68]
 279 00ce 43F48041 		orr	r1, r3, #16384
 280 00d2 5164     		str	r1, [r2, #68]
 281 00d4 506E     		ldr	r0, [r2, #100]
 282 00d6 40F48043 		orr	r3, r0, #16384
 283 00da 5366     		str	r3, [r2, #100]
 284 00dc 7047     		bx	lr
ARM GAS  C:\Users\roob\AppData\Local\Temp\ccJ3POkO.s 			page 6


 285              		.cfi_endproc
 286              	.LFE120:
 287              		.size	stm32_clock_init, .-stm32_clock_init
 288 00de 00BF     		.text
 289              	.Letext0:
 290              		.file 2 "c:\\chibistudio\\tools\\gnu tools arm embedded\\4.7 2013q1\\bin\\../lib/gcc/arm-none-eabi
 291              		.file 3 "../../os/ports/common/ARMCMx/nvic.h"
 292              		.file 4 "../../os/ports/common/ARMCMx/CMSIS/include/core_cm4.h"
 293              		.file 5 "../../os/hal/platforms/STM32F4xx/stm32f4xx.h"
 294              		.file 6 "../../os/hal/platforms/STM32F4xx/stm32_dma.h"
