ARM GAS  C:\Users\roob\AppData\Local\Temp\ccWxNoMV.s 			page 1


   1              		.syntax unified
   2              		.cpu cortex-m4
   3              		.fpu softvfp
   4              		.eabi_attribute 20, 1
   5              		.eabi_attribute 21, 1
   6              		.eabi_attribute 23, 3
   7              		.eabi_attribute 24, 1
   8              		.eabi_attribute 25, 1
   9              		.eabi_attribute 26, 1
  10              		.eabi_attribute 30, 2
  11              		.eabi_attribute 34, 1
  12              		.eabi_attribute 18, 4
  13              		.thumb
  14              		.file	"mac_lld.c"
  15              		.text
  16              	.Ltext0:
  17              		.cfi_sections	.debug_frame
  18              		.section	.text.mac_lld_set_address,"ax",%progbits
  19              		.align	2
  20              		.p2align 4,,15
  21              		.thumb
  22              		.thumb_func
  23              		.type	mac_lld_set_address, %function
  24              	mac_lld_set_address:
  25              	.LFB121:
  26              		.file 1 "../../os/hal/platforms/STM32/mac_lld.c"
  27              		.loc 1 148 0
  28              		.cfi_startproc
  29              		@ args = 0, pretend = 0, frame = 0
  30              		@ frame_needed = 0, uses_anonymous_args = 0
  31              		@ link register save eliminated.
  32              	.LVL0:
  33 0000 30B4     		push	{r4, r5}
  34              	.LCFI0:
  35              		.cfi_def_cfa_offset 8
  36              		.cfi_offset 4, -8
  37              		.cfi_offset 5, -4
  38              		.loc 1 152 0
  39 0002 4FF40043 		mov	r3, #32768
  40 0006 4179     		ldrb	r1, [r0, #5]	@ zero_extendqisi2
  41              		.loc 1 153 0
  42 0008 0279     		ldrb	r2, [r0, #4]	@ zero_extendqisi2
  43              		.loc 1 152 0
  44 000a C4F20203 		movt	r3, 16386
  45 000e 42EA0124 		orr	r4, r2, r1, lsl #8
  46 0012 1C64     		str	r4, [r3, #64]
  47              		.loc 1 155 0
  48 0014 8478     		ldrb	r4, [r0, #2]	@ zero_extendqisi2
  49              		.loc 1 154 0
  50 0016 C178     		ldrb	r1, [r0, #3]	@ zero_extendqisi2
  51              		.loc 1 157 0
  52 0018 0278     		ldrb	r2, [r0, #0]	@ zero_extendqisi2
  53              		.loc 1 156 0
  54 001a 4578     		ldrb	r5, [r0, #1]	@ zero_extendqisi2
  55              		.loc 1 155 0
  56 001c 2004     		lsls	r0, r4, #16
  57              	.LVL1:
ARM GAS  C:\Users\roob\AppData\Local\Temp\ccWxNoMV.s 			page 2


  58              		.loc 1 154 0
  59 001e 40EA0164 		orr	r4, r0, r1, lsl #24
  60              		.loc 1 155 0
  61 0022 1443     		orrs	r4, r4, r2
  62              		.loc 1 158 0
  63 0024 4FF6FF71 		movw	r1, #65535
  64              		.loc 1 159 0
  65 0028 4FF0FF32 		mov	r2, #-1
  66              		.loc 1 164 0
  67 002c 0020     		movs	r0, #0
  68              		.loc 1 156 0
  69 002e 44EA0524 		orr	r4, r4, r5, lsl #8
  70              		.loc 1 154 0
  71 0032 5C64     		str	r4, [r3, #68]
  72              		.loc 1 158 0
  73 0034 9964     		str	r1, [r3, #72]
  74              		.loc 1 159 0
  75 0036 DA64     		str	r2, [r3, #76]
  76              		.loc 1 160 0
  77 0038 1965     		str	r1, [r3, #80]
  78              		.loc 1 161 0
  79 003a 5A65     		str	r2, [r3, #84]
  80              		.loc 1 162 0
  81 003c 9965     		str	r1, [r3, #88]
  82              		.loc 1 163 0
  83 003e DA65     		str	r2, [r3, #92]
  84              		.loc 1 164 0
  85 0040 9860     		str	r0, [r3, #8]
  86              		.loc 1 165 0
  87 0042 D860     		str	r0, [r3, #12]
  88              		.loc 1 166 0
  89 0044 30BC     		pop	{r4, r5}
  90 0046 7047     		bx	lr
  91              		.cfi_endproc
  92              	.LFE121:
  93              		.size	mac_lld_set_address, .-mac_lld_set_address
  94 0048 AFF30080 		.section	.text.Vector134,"ax",%progbits
  94      AFF30080 
  95              		.align	2
  96              		.p2align 4,,15
  97              		.global	Vector134
  98              		.thumb
  99              		.thumb_func
 100              		.type	Vector134, %function
 101              	Vector134:
 102              	.LFB122:
 103              		.loc 1 172 0
 104              		.cfi_startproc
 105              		@ args = 0, pretend = 0, frame = 0
 106              		@ frame_needed = 0, uses_anonymous_args = 0
 107              		.loc 1 177 0
 108 0000 4FF41043 		mov	r3, #36864
 109 0004 C4F20203 		movt	r3, 16386
 110              		.loc 1 172 0
 111 0008 10B5     		push	{r4, lr}
 112              	.LCFI1:
 113              		.cfi_def_cfa_offset 8
ARM GAS  C:\Users\roob\AppData\Local\Temp\ccWxNoMV.s 			page 3


 114              		.cfi_offset 4, -8
 115              		.cfi_offset 14, -4
 116              		.loc 1 177 0
 117 000a 5C69     		ldr	r4, [r3, #20]
 118              	.LVL2:
 119              		.loc 1 180 0
 120 000c 6206     		lsls	r2, r4, #25
 121              		.loc 1 178 0
 122 000e 5C61     		str	r4, [r3, #20]
 123              		.loc 1 180 0
 124 0010 0FD4     		bmi	.L12
 125              	.LVL3:
 126              	.L3:
 127              		.loc 1 190 0
 128 0012 E307     		lsls	r3, r4, #31
 129              	.LVL4:
 130 0014 09D5     		bpl	.L4
 131              	.LBB35:
 132              		.loc 1 192 0
 133 0016 2023     		movs	r3, #32
 134              	.LVL5:
 135              	@ 192 "../../os/hal/platforms/STM32/mac_lld.c" 1
 136 0018 83F31188 		msr     BASEPRI, r3
 137              	@ 0 "" 2
 138              	.LVL6:
 139              		.thumb
 140              	.LBE35:
 141              		.loc 1 193 0
 142 001c 0C48     		ldr	r0, .L13
 143 001e 0021     		movs	r1, #0
 144 0020 FFF7FEFF 		bl	chSemResetI
 145              	.LVL7:
 146              	.LBB36:
 147              		.loc 1 194 0
 148 0024 0023     		movs	r3, #0
 149              	.LVL8:
 150              	@ 194 "../../os/hal/platforms/STM32/mac_lld.c" 1
 151 0026 83F31188 		msr     BASEPRI, r3
 152              	@ 0 "" 2
 153              	.LVL9:
 154              		.thumb
 155              	.L4:
 156              	.LBE36:
 157              		.loc 1 198 0
 158 002a BDE81040 		pop	{r4, lr}
 159              		.loc 1 197 0
 160 002e FFF7FEBF 		b	_port_irq_epilogue
 161              	.LVL10:
 162              	.L12:
 163              	.LBB37:
 164              		.loc 1 182 0
 165 0032 2023     		movs	r3, #32
 166              	.LVL11:
 167              	@ 182 "../../os/hal/platforms/STM32/mac_lld.c" 1
 168 0034 83F31188 		msr     BASEPRI, r3
 169              	@ 0 "" 2
 170              	.LVL12:
ARM GAS  C:\Users\roob\AppData\Local\Temp\ccWxNoMV.s 			page 4


 171              		.thumb
 172              	.LBE37:
 173              		.loc 1 183 0
 174 0038 0021     		movs	r1, #0
 175 003a 0648     		ldr	r0, .L13+4
 176 003c FFF7FEFF 		bl	chSemResetI
 177              	.LVL13:
 178              		.loc 1 185 0
 179 0040 0548     		ldr	r0, .L13+8
 180 0042 0021     		movs	r1, #0
 181 0044 FFF7FEFF 		bl	chEvtBroadcastFlagsI
 182              	.LVL14:
 183              	.LBB38:
 184              		.loc 1 187 0
 185 0048 0023     		movs	r3, #0
 186              	@ 187 "../../os/hal/platforms/STM32/mac_lld.c" 1
 187 004a 83F31188 		msr     BASEPRI, r3
 188              	@ 0 "" 2
 189              	.LVL15:
 190              		.thumb
 191 004e E0E7     		b	.L3
 192              	.L14:
 193              		.align	2
 194              	.L13:
 195 0050 08000000 		.word	.LANCHOR0+8
 196 0054 14000000 		.word	.LANCHOR0+20
 197 0058 20000000 		.word	.LANCHOR0+32
 198              	.LBE38:
 199              		.cfi_endproc
 200              	.LFE122:
 201              		.size	Vector134, .-Vector134
 202 005c AFF30080 		.section	.text.mac_lld_init,"ax",%progbits
 203              		.align	2
 204              		.p2align 4,,15
 205              		.global	mac_lld_init
 206              		.thumb
 207              		.thumb_func
 208              		.type	mac_lld_init, %function
 209              	mac_lld_init:
 210              	.LFB123:
 211              		.loc 1 209 0
 212              		.cfi_startproc
 213              		@ args = 0, pretend = 0, frame = 0
 214              		@ frame_needed = 0, uses_anonymous_args = 0
 215 0000 2DE9F84F 		push	{r3, r4, r5, r6, r7, r8, r9, sl, fp, lr}
 216              	.LCFI2:
 217              		.cfi_def_cfa_offset 40
 218              		.cfi_offset 3, -40
 219              		.cfi_offset 4, -36
 220              		.cfi_offset 5, -32
 221              		.cfi_offset 6, -28
 222              		.cfi_offset 7, -24
 223              		.cfi_offset 8, -20
 224              		.cfi_offset 9, -16
 225              		.cfi_offset 10, -12
 226              		.cfi_offset 11, -8
 227              		.cfi_offset 14, -4
ARM GAS  C:\Users\roob\AppData\Local\Temp\ccWxNoMV.s 			page 5


 228              		.loc 1 212 0
 229 0004 664C     		ldr	r4, .L40
 230              		.loc 1 224 0
 231 0006 674E     		ldr	r6, .L40+4
 232              		.loc 1 212 0
 233 0008 2046     		mov	r0, r4
 234 000a FFF7FEFF 		bl	macObjectInit
 235              	.LVL16:
 236              		.loc 1 219 0
 237 000e 6649     		ldr	r1, .L40+8
 238              		.loc 1 218 0
 239 0010 664B     		ldr	r3, .L40+12
 240              		.loc 1 223 0
 241 0012 674A     		ldr	r2, .L40+16
 242              		.loc 1 219 0
 243 0014 01F58E55 		add	r5, r1, #4544
 244              		.loc 1 218 0
 245 0018 44F2F25E 		movw	lr, #17906
 246              		.loc 1 220 0
 247 001c 03F12009 		add	r9, r3, #32
 248              		.loc 1 219 0
 249 0020 01F6E838 		addw	r8, r1, #3048
 250              		.loc 1 220 0
 251 0024 03F1100B 		add	fp, r3, #16
 252              		.loc 1 219 0
 253 0028 01F2F45A 		addw	sl, r1, #1524
 254              		.loc 1 220 0
 255 002c 03F1300C 		add	ip, r3, #48
 256              		.loc 1 219 0
 257 0030 1C35     		adds	r5, r5, #28
 258              		.loc 1 237 0
 259 0032 4FF46050 		mov	r0, #14336
 260              		.loc 1 218 0
 261 0036 C3F804E0 		str	lr, [r3, #4]
 262              		.loc 1 213 0
 263 003a 0027     		movs	r7, #0
 264              		.loc 1 219 0
 265 003c 9960     		str	r1, [r3, #8]
 266              		.loc 1 237 0
 267 003e C4F20100 		movt	r0, 16385
 268              		.loc 1 220 0
 269 0042 C3F80CB0 		str	fp, [r3, #12]
 270              		.loc 1 225 0
 271 0046 02F11001 		add	r1, r2, #16
 272              		.loc 1 218 0
 273 004a C3F814E0 		str	lr, [r3, #20]
 274              		.loc 1 219 0
 275 004e C3F818A0 		str	sl, [r3, #24]
 276              		.loc 1 220 0
 277 0052 C3F81C90 		str	r9, [r3, #28]
 278              		.loc 1 218 0
 279 0056 C3F824E0 		str	lr, [r3, #36]
 280              		.loc 1 219 0
 281 005a C3F82880 		str	r8, [r3, #40]
 282              		.loc 1 220 0
 283 005e C3F82CC0 		str	ip, [r3, #44]
 284              		.loc 1 218 0
ARM GAS  C:\Users\roob\AppData\Local\Temp\ccWxNoMV.s 			page 6


 285 0062 C3F834E0 		str	lr, [r3, #52]
 286              		.loc 1 219 0
 287 0066 9D63     		str	r5, [r3, #56]
 288              		.loc 1 220 0
 289 0068 DB63     		str	r3, [r3, #60]
 290              		.loc 1 224 0
 291 006a 06F2F453 		addw	r3, r6, #1524
 292              		.loc 1 223 0
 293 006e 5760     		str	r7, [r2, #4]
 294              		.loc 1 224 0
 295 0070 9660     		str	r6, [r2, #8]
 296              		.loc 1 225 0
 297 0072 D160     		str	r1, [r2, #12]
 298              		.loc 1 223 0
 299 0074 5761     		str	r7, [r2, #20]
 300              		.loc 1 224 0
 301 0076 9361     		str	r3, [r2, #24]
 302              		.loc 1 225 0
 303 0078 D261     		str	r2, [r2, #28]
 304              		.loc 1 237 0
 305 007a 4268     		ldr	r2, [r0, #4]
 306              		.loc 1 213 0
 307 007c 84F82470 		strb	r7, [r4, #36]
 308              	.LVL17:
 309              		.loc 1 246 0
 310 0080 4FF46055 		mov	r5, #14336
 311 0084 C4F20205 		movt	r5, 16386
 312              		.loc 1 237 0
 313 0088 42F40001 		orr	r1, r2, #8388608
 314 008c 4160     		str	r1, [r0, #4]
 315              		.loc 1 246 0
 316 008e 2869     		ldr	r0, [r5, #16]
 317 0090 40F00073 		orr	r3, r0, #33554432
 318 0094 2B61     		str	r3, [r5, #16]
 319 0096 2F61     		str	r7, [r5, #16]
 320              		.loc 1 249 0
 321 0098 2F6B     		ldr	r7, [r5, #48]
 322              	.LBB53:
 323              	.LBB54:
 324              		.loc 1 122 0
 325 009a 4FF48052 		mov	r2, #4096
 326              	.LBE54:
 327              	.LBE53:
 328              		.loc 1 249 0
 329 009e 47F06061 		orr	r1, r7, #234881024
 330              	.LBB63:
 331              	.LBB61:
 332              		.loc 1 122 0
 333 00a2 CEF20002 		movt	r2, 57344
 334              	.LBE61:
 335              	.LBE63:
 336              		.loc 1 249 0
 337 00a6 2963     		str	r1, [r5, #48]
 338              	.LVL18:
 339              	.LBB64:
 340              	.LBB62:
 341              		.loc 1 122 0
ARM GAS  C:\Users\roob\AppData\Local\Temp\ccWxNoMV.s 			page 7


 342 00a8 5768     		ldr	r7, [r2, #4]
 343              	.LVL19:
 344              		.loc 1 123 0
 345 00aa 07F1807E 		add	lr, r7, #16777216
 346 00ae 0EF5B248 		add	r8, lr, #22784
 347              	.LVL20:
 348              		.loc 1 128 0
 349 00b2 4FF40045 		mov	r5, #32768
 350              		.loc 1 124 0
 351 00b6 3846     		mov	r0, r7
 352 00b8 4146     		mov	r1, r8
 353              		.loc 1 128 0
 354 00ba C4F20205 		movt	r5, 16386
 355              		.loc 1 129 0
 356 00be 41F21069 		movw	r9, #5648
 357              		.loc 1 124 0
 358 00c2 FFF7FEFF 		bl	halIsCounterWithin
 359              	.LVL21:
 360 00c6 E0B1     		cbz	r0, .L39
 361              	.L29:
 362 00c8 0026     		movs	r6, #0
 363              	.L19:
 364              		.loc 1 127 0
 365 00ca F102     		lsls	r1, r6, #11
 366              		.loc 1 128 0
 367 00cc B001     		lsls	r0, r6, #6
 368 00ce 40F01002 		orr	r2, r0, #16
 369              	.LBB55:
 370              	.LBB56:
 371              		.loc 1 106 0
 372 00d2 41F09103 		orr	r3, r1, #145
 373              	.LBE56:
 374              	.LBE55:
 375              		.loc 1 128 0
 376 00d6 6A61     		str	r2, [r5, #20]
 377              	.LVL22:
 378              	.LBB58:
 379              	.LBB57:
 380              		.loc 1 106 0
 381 00d8 2B61     		str	r3, [r5, #16]
 382              	.L17:
 383              		.loc 1 107 0
 384 00da 2869     		ldr	r0, [r5, #16]
 385 00dc 4FF40043 		mov	r3, #32768
 386 00e0 C007     		lsls	r0, r0, #31
 387 00e2 C4F20203 		movt	r3, 16386
 388 00e6 F8D4     		bmi	.L17
 389              		.loc 1 109 0
 390 00e8 5A69     		ldr	r2, [r3, #20]
 391              	.LBE57:
 392              	.LBE58:
 393              		.loc 1 129 0
 394 00ea 222A     		cmp	r2, #34
 395 00ec 0DD0     		beq	.L18
 396              	.L22:
 397              		.loc 1 126 0
 398 00ee 0136     		adds	r6, r6, #1
ARM GAS  C:\Users\roob\AppData\Local\Temp\ccWxNoMV.s 			page 8


 399              	.LVL23:
 400 00f0 1F2E     		cmp	r6, #31
 401 00f2 EAD1     		bne	.L19
 402 00f4 A162     		str	r1, [r4, #40]
 403              		.loc 1 124 0
 404 00f6 3846     		mov	r0, r7
 405 00f8 4146     		mov	r1, r8
 406 00fa FFF7FEFF 		bl	halIsCounterWithin
 407              	.LVL24:
 408 00fe 0028     		cmp	r0, #0
 409 0100 E2D1     		bne	.L29
 410              	.LVL25:
 411              	.L39:
 412              		.loc 1 138 0
 413 0102 FFF7FEFF 		bl	port_halt
 414              	.LVL26:
 415 0106 A16A     		ldr	r1, [r4, #40]
 416 0108 10E0     		b	.L23
 417              	.LVL27:
 418              	.L18:
 419              	.LBB59:
 420              	.LBB60:
 421              		.loc 1 106 0
 422 010a 41F0D100 		orr	r0, r1, #209
 423 010e 1861     		str	r0, [r3, #16]
 424              	.L21:
 425              		.loc 1 107 0
 426 0110 2A69     		ldr	r2, [r5, #16]
 427 0112 4FF40043 		mov	r3, #32768
 428 0116 D207     		lsls	r2, r2, #31
 429 0118 C4F20203 		movt	r3, 16386
 430 011c F8D4     		bmi	.L21
 431              		.loc 1 109 0
 432 011e 5869     		ldr	r0, [r3, #20]
 433              	.LBE60:
 434              	.LBE59:
 435              		.loc 1 130 0
 436 0120 4FF6F072 		movw	r2, #65520
 437 0124 0240     		ands	r2, r2, r0
 438              		.loc 1 129 0
 439 0126 4A45     		cmp	r2, r9
 440 0128 E1D1     		bne	.L22
 441 012a A162     		str	r1, [r4, #40]
 442              	.LVL28:
 443              	.L23:
 444              	.LBE62:
 445              	.LBE64:
 446              	.LBB65:
 447              	.LBB66:
 448              		.loc 1 89 0
 449 012c 4FF40043 		mov	r3, #32768
 450 0130 C4F20203 		movt	r3, 16386
 451              		.loc 1 91 0
 452 0134 41F01304 		orr	r4, r1, #19
 453              		.loc 1 89 0
 454 0138 4FF40040 		mov	r0, #32768
 455 013c 5861     		str	r0, [r3, #20]
ARM GAS  C:\Users\roob\AppData\Local\Temp\ccWxNoMV.s 			page 9


 456              		.loc 1 92 0
 457 013e 1A46     		mov	r2, r3
 458              		.loc 1 90 0
 459 0140 1C61     		str	r4, [r3, #16]
 460              	.L24:
 461              		.loc 1 92 0
 462 0142 1369     		ldr	r3, [r2, #16]
 463 0144 D807     		lsls	r0, r3, #31
 464 0146 FCD4     		bmi	.L24
 465              	.LBE66:
 466              	.LBE65:
 467              	.LBB67:
 468              	.LBB68:
 469              		.loc 1 106 0
 470 0148 4FF40040 		mov	r0, #32768
 471 014c 41F01101 		orr	r1, r1, #17
 472 0150 C4F20200 		movt	r0, 16386
 473              	.L26:
 474              	.LVL29:
 475              		.loc 1 106 0 is_stmt 0 discriminator 1
 476 0154 0161     		str	r1, [r0, #16]
 477              	.L25:
 478              		.loc 1 107 0 is_stmt 1
 479 0156 0269     		ldr	r2, [r0, #16]
 480 0158 4FF40043 		mov	r3, #32768
 481 015c D207     		lsls	r2, r2, #31
 482 015e C4F20203 		movt	r3, 16386
 483 0162 F8D4     		bmi	.L25
 484              		.loc 1 109 0
 485 0164 5A69     		ldr	r2, [r3, #20]
 486              	.LBE68:
 487              	.LBE67:
 488              		.loc 1 267 0
 489 0166 1204     		lsls	r2, r2, #16
 490 0168 F4D4     		bmi	.L26
 491              	.LVL30:
 492              	.LBB69:
 493              	.LBB70:
 494              		.loc 1 106 0
 495 016a 1961     		str	r1, [r3, #16]
 496              	.L27:
 497              		.loc 1 107 0
 498 016c 1869     		ldr	r0, [r3, #16]
 499 016e 4FF40042 		mov	r2, #32768
 500 0172 C107     		lsls	r1, r0, #31
 501 0174 C4F20202 		movt	r2, 16386
 502 0178 F8D4     		bmi	.L27
 503              		.loc 1 109 0
 504 017a 5169     		ldr	r1, [r2, #20]
 505              	.LBE70:
 506              	.LBE69:
 507              		.loc 1 273 0
 508 017c 41F40063 		orr	r3, r1, #2048
 509              	.LVL31:
 510              	.LBB71:
 511              	.LBB72:
 512              		.loc 1 89 0
ARM GAS  C:\Users\roob\AppData\Local\Temp\ccWxNoMV.s 			page 10


 513 0180 5361     		str	r3, [r2, #20]
 514              		.loc 1 92 0
 515 0182 1146     		mov	r1, r2
 516              		.loc 1 90 0
 517 0184 1461     		str	r4, [r2, #16]
 518              	.L28:
 519              		.loc 1 92 0
 520 0186 0869     		ldr	r0, [r1, #16]
 521 0188 C007     		lsls	r0, r0, #31
 522 018a FCD4     		bmi	.L28
 523              	.LBE72:
 524              	.LBE71:
 525              		.loc 1 277 0
 526 018c 4FF46053 		mov	r3, #14336
 527              	.LVL32:
 528 0190 C4F20203 		movt	r3, 16386
 529 0194 1A6B     		ldr	r2, [r3, #48]
 530 0196 22F06061 		bic	r1, r2, #234881024
 531              	.LVL33:
 532 019a 1963     		str	r1, [r3, #48]
 533 019c BDE8F88F 		pop	{r3, r4, r5, r6, r7, r8, r9, sl, fp, pc}
 534              	.L41:
 535              		.align	2
 536              	.L40:
 537 01a0 00000000 		.word	.LANCHOR0
 538 01a4 00000000 		.word	.LANCHOR4
 539 01a8 00000000 		.word	.LANCHOR2
 540 01ac 00000000 		.word	.LANCHOR1
 541 01b0 00000000 		.word	.LANCHOR3
 542              		.cfi_endproc
 543              	.LFE123:
 544              		.size	mac_lld_init, .-mac_lld_init
 545 01b4 AFF30080 		.section	.text.mac_lld_start,"ax",%progbits
 545      AFF30080 
 545      AFF30080 
 546              		.align	2
 547              		.p2align 4,,15
 548              		.global	mac_lld_start
 549              		.thumb
 550              		.thumb_func
 551              		.type	mac_lld_start, %function
 552              	mac_lld_start:
 553              	.LFB124:
 554              		.loc 1 287 0
 555              		.cfi_startproc
 556              		@ args = 0, pretend = 0, frame = 0
 557              		@ frame_needed = 0, uses_anonymous_args = 0
 558              	.LVL34:
 559 0000 F8B5     		push	{r3, r4, r5, r6, r7, lr}
 560              	.LCFI3:
 561              		.cfi_def_cfa_offset 24
 562              		.cfi_offset 3, -24
 563              		.cfi_offset 4, -20
 564              		.cfi_offset 5, -16
 565              		.cfi_offset 6, -12
 566              		.cfi_offset 7, -8
 567              		.cfi_offset 14, -4
ARM GAS  C:\Users\roob\AppData\Local\Temp\ccWxNoMV.s 			page 11


 568              		.loc 1 299 0
 569 0002 4FF46051 		mov	r1, #14336
 570              		.loc 1 292 0
 571 0006 3D4D     		ldr	r5, .L54
 572              		.loc 1 295 0
 573 0008 3D4E     		ldr	r6, .L54+4
 574              		.loc 1 292 0
 575 000a 4FF00043 		mov	r3, #-2147483648
 576              		.loc 1 295 0
 577 000e 4FF48012 		mov	r2, #1048576
 578              		.loc 1 299 0
 579 0012 C4F20201 		movt	r1, 16386
 580              		.loc 1 292 0
 581 0016 2B60     		str	r3, [r5, #0]
 582              	.LVL35:
 583 0018 2B61     		str	r3, [r5, #16]
 584              	.LVL36:
 585 001a 2B62     		str	r3, [r5, #32]
 586              	.LVL37:
 587 001c 2B63     		str	r3, [r5, #48]
 588              	.LVL38:
 589              		.loc 1 295 0
 590 001e 3260     		str	r2, [r6, #0]
 591 0020 3261     		str	r2, [r6, #16]
 592              		.loc 1 299 0
 593 0022 0C6B     		ldr	r4, [r1, #48]
 594              		.loc 1 287 0
 595 0024 0746     		mov	r7, r0
 596              		.loc 1 300 0
 597 0026 4FF41040 		mov	r0, #36864
 598              	.LVL39:
 599 002a C4F20200 		movt	r0, 16386
 600              		.loc 1 299 0
 601 002e 44F06063 		orr	r3, r4, #234881024
 602              		.loc 1 293 0
 603 0032 FD62     		str	r5, [r7, #44]
 604              	.LVL40:
 605              		.loc 1 296 0
 606 0034 3E63     		str	r6, [r7, #48]
 607              		.loc 1 299 0
 608 0036 0B63     		str	r3, [r1, #48]
 609              		.loc 1 300 0
 610 0038 0168     		ldr	r1, [r0, #0]
 611 003a 41F00102 		orr	r2, r1, #1
 612 003e 0260     		str	r2, [r0, #0]
 613              	.L43:
 614              		.loc 1 301 0 discriminator 1
 615 0040 0368     		ldr	r3, [r0, #0]
 616 0042 4FF40044 		mov	r4, #32768
 617 0046 DB07     		lsls	r3, r3, #31
 618 0048 C4F20204 		movt	r4, 16386
 619 004c F8D4     		bmi	.L43
 620              		.loc 1 305 0
 621 004e 3D20     		movs	r0, #61
 622 0050 D021     		movs	r1, #208
 623 0052 FFF7FEFF 		bl	nvicEnableVector
 624              	.LVL41:
ARM GAS  C:\Users\roob\AppData\Local\Temp\ccWxNoMV.s 			page 12


 625              	.LBB73:
 626              	.LBB74:
 627              		.loc 1 106 0
 628 0056 B96A     		ldr	r1, [r7, #40]
 629 0058 41F01100 		orr	r0, r1, #17
 630 005c 2061     		str	r0, [r4, #16]
 631              	.L44:
 632              		.loc 1 107 0
 633 005e 2269     		ldr	r2, [r4, #16]
 634 0060 4FF40043 		mov	r3, #32768
 635 0064 D007     		lsls	r0, r2, #31
 636 0066 C4F20203 		movt	r3, 16386
 637 006a F8D4     		bmi	.L44
 638              		.loc 1 109 0
 639 006c 5C69     		ldr	r4, [r3, #20]
 640              	.LBE74:
 641              	.LBE73:
 642              	.LBB75:
 643              	.LBB76:
 644              		.loc 1 91 0
 645 006e 41F01300 		orr	r0, r1, #19
 646              	.LBE76:
 647              	.LBE75:
 648              		.loc 1 310 0
 649 0072 24F40061 		bic	r1, r4, #2048
 650              	.LVL42:
 651              	.LBB78:
 652              	.LBB77:
 653              		.loc 1 89 0
 654 0076 5961     		str	r1, [r3, #20]
 655              		.loc 1 92 0
 656 0078 1C46     		mov	r4, r3
 657              		.loc 1 90 0
 658 007a 1861     		str	r0, [r3, #16]
 659              	.L45:
 660              		.loc 1 92 0
 661 007c 2369     		ldr	r3, [r4, #16]
 662 007e 4FF40042 		mov	r2, #32768
 663 0082 13F00103 		ands	r3, r3, #1
 664 0086 C4F20202 		movt	r2, 16386
 665 008a F7D1     		bne	.L45
 666              	.LBE77:
 667              	.LBE78:
 668              		.loc 1 319 0
 669 008c 7868     		ldr	r0, [r7, #4]
 670              		.loc 1 314 0
 671 008e 5360     		str	r3, [r2, #4]
 672              		.loc 1 319 0
 673 0090 0068     		ldr	r0, [r0, #0]
 674              		.loc 1 315 0
 675 0092 9361     		str	r3, [r2, #24]
 676              		.loc 1 316 0
 677 0094 D361     		str	r3, [r2, #28]
 678              		.loc 1 319 0
 679 0096 60B3     		cbz	r0, .L53
 680              		.loc 1 322 0
 681 0098 FFF7FEFF 		bl	mac_lld_set_address
ARM GAS  C:\Users\roob\AppData\Local\Temp\ccWxNoMV.s 			page 13


 682              	.LVL43:
 683              	.L47:
 684              		.loc 1 330 0
 685 009c 4FF40044 		mov	r4, #32768
 686              		.loc 1 335 0
 687 00a0 4FF41043 		mov	r3, #36864
 688 00a4 C4F20203 		movt	r3, 16386
 689              		.loc 1 330 0
 690 00a8 C4F20204 		movt	r4, 16386
 691 00ac 0C21     		movs	r1, #12
 692 00ae 2160     		str	r1, [r4, #0]
 693              		.loc 1 335 0
 694 00b0 DD60     		str	r5, [r3, #12]
 695              		.loc 1 336 0
 696 00b2 1E61     		str	r6, [r3, #16]
 697              		.loc 1 339 0
 698 00b4 5C69     		ldr	r4, [r3, #20]
 699              		.loc 1 340 0
 700 00b6 4120     		movs	r0, #65
 701 00b8 C0F20100 		movt	r0, 1
 702              		.loc 1 343 0
 703 00bc 4FF48072 		mov	r2, #256
 704              		.loc 1 339 0
 705 00c0 5C61     		str	r4, [r3, #20]
 706              		.loc 1 343 0
 707 00c2 C0F20222 		movt	r2, 514
 708              		.loc 1 340 0
 709 00c6 D861     		str	r0, [r3, #28]
 710              		.loc 1 347 0
 711 00c8 49F21801 		movw	r1, #36888
 712              		.loc 1 346 0
 713 00cc 4FF48010 		mov	r0, #1048576
 714              		.loc 1 343 0
 715 00d0 1A60     		str	r2, [r3, #0]
 716              		.loc 1 347 0
 717 00d2 C4F20201 		movt	r1, 16386
 718              		.loc 1 346 0
 719 00d6 9861     		str	r0, [r3, #24]
 720              	.L48:
 721              		.loc 1 347 0 discriminator 1
 722 00d8 0A68     		ldr	r2, [r1, #0]
 723 00da 49F21803 		movw	r3, #36888
 724 00de D202     		lsls	r2, r2, #11
 725 00e0 C4F20203 		movt	r3, 16386
 726 00e4 F8D4     		bmi	.L48
 727              		.loc 1 351 0
 728 00e6 42F20201 		movw	r1, #8194
 729 00ea C0F22061 		movt	r1, 1568
 730 00ee 1960     		str	r1, [r3, #0]
 731 00f0 F8BD     		pop	{r3, r4, r5, r6, r7, pc}
 732              	.LVL44:
 733              	.L53:
 734              		.loc 1 320 0
 735 00f2 0448     		ldr	r0, .L54+8
 736 00f4 FFF7FEFF 		bl	mac_lld_set_address
 737              	.LVL45:
 738 00f8 D0E7     		b	.L47
ARM GAS  C:\Users\roob\AppData\Local\Temp\ccWxNoMV.s 			page 14


 739              	.L55:
 740 00fa 00BF     		.align	2
 741              	.L54:
 742 00fc 00000000 		.word	.LANCHOR1
 743 0100 00000000 		.word	.LANCHOR3
 744 0104 00000000 		.word	.LANCHOR5
 745              		.cfi_endproc
 746              	.LFE124:
 747              		.size	mac_lld_start, .-mac_lld_start
 748 0108 AFF30080 		.section	.text.mac_lld_stop,"ax",%progbits
 748      AFF30080 
 749              		.align	2
 750              		.p2align 4,,15
 751              		.global	mac_lld_stop
 752              		.thumb
 753              		.thumb_func
 754              		.type	mac_lld_stop, %function
 755              	mac_lld_stop:
 756              	.LFB125:
 757              		.loc 1 362 0
 758              		.cfi_startproc
 759              		@ args = 0, pretend = 0, frame = 0
 760              		@ frame_needed = 0, uses_anonymous_args = 0
 761              		@ link register save eliminated.
 762              	.LVL46:
 763              		.loc 1 364 0
 764 0000 0378     		ldrb	r3, [r0, #0]	@ zero_extendqisi2
 765 0002 012B     		cmp	r3, #1
 766 0004 32D0     		beq	.L56
 767              	.LVL47:
 768              	.LBB79:
 769              	.LBB80:
 770              		.loc 1 106 0
 771 0006 806A     		ldr	r0, [r0, #40]
 772              	.LVL48:
 773 0008 4FF40041 		mov	r1, #32768
 774 000c C4F20201 		movt	r1, 16386
 775 0010 40F01102 		orr	r2, r0, #17
 776 0014 0A61     		str	r2, [r1, #16]
 777              	.L58:
 778              		.loc 1 107 0
 779 0016 0A69     		ldr	r2, [r1, #16]
 780 0018 4FF40043 		mov	r3, #32768
 781 001c D207     		lsls	r2, r2, #31
 782 001e C4F20203 		movt	r3, 16386
 783 0022 F8D4     		bmi	.L58
 784              		.loc 1 109 0
 785 0024 5969     		ldr	r1, [r3, #20]
 786              	.LBE80:
 787              	.LBE79:
 788              	.LBB81:
 789              	.LBB82:
 790              		.loc 1 91 0
 791 0026 40F01300 		orr	r0, r0, #19
 792              	.LBE82:
 793              	.LBE81:
 794              		.loc 1 367 0
ARM GAS  C:\Users\roob\AppData\Local\Temp\ccWxNoMV.s 			page 15


 795 002a 41F40062 		orr	r2, r1, #2048
 796              	.LVL49:
 797              	.LBB84:
 798              	.LBB83:
 799              		.loc 1 89 0
 800 002e 5A61     		str	r2, [r3, #20]
 801              		.loc 1 92 0
 802 0030 1946     		mov	r1, r3
 803              		.loc 1 90 0
 804 0032 1861     		str	r0, [r3, #16]
 805              	.LVL50:
 806              	.L59:
 807              		.loc 1 92 0
 808 0034 0B69     		ldr	r3, [r1, #16]
 809 0036 4FF40040 		mov	r0, #32768
 810 003a 13F00102 		ands	r2, r3, #1
 811 003e C4F20200 		movt	r0, 16386
 812 0042 F7D1     		bne	.L59
 813              	.LBE83:
 814              	.LBE84:
 815              		.loc 1 372 0
 816 0044 4FF41041 		mov	r1, #36864
 817              	.LVL51:
 818 0048 C4F20201 		movt	r1, 16386
 819              		.loc 1 371 0
 820 004c 0260     		str	r2, [r0, #0]
 821              		.loc 1 372 0
 822 004e 8A61     		str	r2, [r1, #24]
 823              		.loc 1 373 0
 824 0050 CA61     		str	r2, [r1, #28]
 825              		.loc 1 374 0
 826 0052 4869     		ldr	r0, [r1, #20]
 827              		.loc 1 377 0
 828 0054 4FF46053 		mov	r3, #14336
 829 0058 C4F20203 		movt	r3, 16386
 830              		.loc 1 374 0
 831 005c 4861     		str	r0, [r1, #20]
 832              		.loc 1 377 0
 833 005e 1A6B     		ldr	r2, [r3, #48]
 834              		.loc 1 380 0
 835 0060 3D20     		movs	r0, #61
 836              		.loc 1 377 0
 837 0062 22F06061 		bic	r1, r2, #234881024
 838 0066 1963     		str	r1, [r3, #48]
 839              		.loc 1 382 0
 840              		.loc 1 380 0
 841 0068 FFF7FEBF 		b	nvicDisableVector
 842              	.LVL52:
 843              	.L56:
 844 006c 7047     		bx	lr
 845              		.cfi_endproc
 846              	.LFE125:
 847              		.size	mac_lld_stop, .-mac_lld_stop
 848 006e 00BF     		.section	.text.mac_lld_get_transmit_descriptor,"ax",%progbits
 849              		.align	2
 850              		.p2align 4,,15
 851              		.global	mac_lld_get_transmit_descriptor
ARM GAS  C:\Users\roob\AppData\Local\Temp\ccWxNoMV.s 			page 16


 852              		.thumb
 853              		.thumb_func
 854              		.type	mac_lld_get_transmit_descriptor, %function
 855              	mac_lld_get_transmit_descriptor:
 856              	.LFB126:
 857              		.loc 1 398 0
 858              		.cfi_startproc
 859              		@ args = 0, pretend = 0, frame = 0
 860              		@ frame_needed = 0, uses_anonymous_args = 0
 861              		@ link register save eliminated.
 862              	.LVL53:
 863              		.loc 1 401 0
 864 0000 90F82430 		ldrb	r3, [r0, #36]	@ zero_extendqisi2
 865              		.loc 1 398 0
 866 0004 10B4     		push	{r4}
 867              	.LCFI4:
 868              		.cfi_def_cfa_offset 4
 869              		.cfi_offset 4, -4
 870              		.loc 1 401 0
 871 0006 BBB1     		cbz	r3, .L65
 872              	.LBB85:
 873              		.loc 1 404 0
 874 0008 2023     		movs	r3, #32
 875              	.LVL54:
 876              	@ 404 "../../os/hal/platforms/STM32/mac_lld.c" 1
 877 000a 83F31188 		msr     BASEPRI, r3
 878              	@ 0 "" 2
 879              	.LVL55:
 880              		.thumb
 881              	.LBE85:
 882              		.loc 1 407 0
 883 000e 026B     		ldr	r2, [r0, #48]
 884              	.LVL56:
 885              		.loc 1 411 0
 886 0010 1368     		ldr	r3, [r2, #0]
 887              	.LVL57:
 888 0012 13F00143 		ands	r3, r3, #-2130706432
 889 0016 12D1     		bne	.L66
 890              		.loc 1 417 0
 891 0018 1468     		ldr	r4, [r2, #0]
 892 001a 44F08074 		orr	r4, r4, #16777216
 893 001e 1460     		str	r4, [r2, #0]
 894              		.loc 1 420 0
 895 0020 D468     		ldr	r4, [r2, #12]
 896 0022 0463     		str	r4, [r0, #48]
 897              	.LBB86:
 898              		.loc 1 422 0
 899              	@ 422 "../../os/hal/platforms/STM32/mac_lld.c" 1
 900 0024 83F31188 		msr     BASEPRI, r3
 901              	@ 0 "" 2
 902              	.LVL58:
 903              		.thumb
 904              	.LBE86:
 905              		.loc 1 426 0
 906 0028 40F2F250 		movw	r0, #1522
 907              	.LVL59:
 908 002c 4860     		str	r0, [r1, #4]
ARM GAS  C:\Users\roob\AppData\Local\Temp\ccWxNoMV.s 			page 17


 909              		.loc 1 425 0
 910 002e 0B60     		str	r3, [r1, #0]
 911              		.loc 1 427 0
 912 0030 8A60     		str	r2, [r1, #8]
 913              		.loc 1 429 0
 914 0032 1846     		mov	r0, r3
 915              	.LVL60:
 916              	.L63:
 917              		.loc 1 430 0
 918 0034 10BC     		pop	{r4}
 919 0036 7047     		bx	lr
 920              	.LVL61:
 921              	.L65:
 922              		.loc 1 402 0
 923 0038 4FF0FF30 		mov	r0, #-1
 924              	.LVL62:
 925 003c FAE7     		b	.L63
 926              	.LVL63:
 927              	.L66:
 928              	.LBB87:
 929              		.loc 1 412 0
 930 003e 0023     		movs	r3, #0
 931              	@ 412 "../../os/hal/platforms/STM32/mac_lld.c" 1
 932 0040 83F31188 		msr     BASEPRI, r3
 933              	@ 0 "" 2
 934              	.LVL64:
 935              		.thumb
 936              	.LBE87:
 937              		.loc 1 413 0
 938 0044 4FF0FF30 		mov	r0, #-1
 939              	.LVL65:
 940 0048 F4E7     		b	.L63
 941              		.cfi_endproc
 942              	.LFE126:
 943              		.size	mac_lld_get_transmit_descriptor, .-mac_lld_get_transmit_descriptor
 944 004a 00BFAFF3 		.section	.text.mac_lld_release_transmit_descriptor,"ax",%progbits
 944      0080
 945              		.align	2
 946              		.p2align 4,,15
 947              		.global	mac_lld_release_transmit_descriptor
 948              		.thumb
 949              		.thumb_func
 950              		.type	mac_lld_release_transmit_descriptor, %function
 951              	mac_lld_release_transmit_descriptor:
 952              	.LFB127:
 953              		.loc 1 440 0
 954              		.cfi_startproc
 955              		@ args = 0, pretend = 0, frame = 0
 956              		@ frame_needed = 0, uses_anonymous_args = 0
 957              		@ link register save eliminated.
 958              	.LVL66:
 959              		.loc 1 442 0
 960 0000 8268     		ldr	r2, [r0, #8]
 961              	.LBB88:
 962              		.loc 1 446 0
 963 0002 2023     		movs	r3, #32
 964              	.LVL67:
ARM GAS  C:\Users\roob\AppData\Local\Temp\ccWxNoMV.s 			page 18


 965              	.LBE88:
 966              		.loc 1 442 0
 967 0004 1268     		ldr	r2, [r2, #0]
 968              	.LBB89:
 969              		.loc 1 446 0
 970              	@ 446 "../../os/hal/platforms/STM32/mac_lld.c" 1
 971 0006 83F31188 		msr     BASEPRI, r3
 972              	@ 0 "" 2
 973              	.LVL68:
 974              		.thumb
 975              	.LBE89:
 976              		.loc 1 450 0
 977 000a 0021     		movs	r1, #0
 978              		.loc 1 449 0
 979 000c 8268     		ldr	r2, [r0, #8]
 980 000e 0068     		ldr	r0, [r0, #0]
 981              	.LVL69:
 982              		.loc 1 455 0
 983 0010 4FF41043 		mov	r3, #36864
 984              	.LVL70:
 985              		.loc 1 450 0
 986 0014 CFF21001 		movt	r1, 61456
 987              		.loc 1 455 0
 988 0018 C4F20203 		movt	r3, 16386
 989              		.loc 1 449 0
 990 001c 5060     		str	r0, [r2, #4]
 991              		.loc 1 450 0
 992 001e 1160     		str	r1, [r2, #0]
 993              		.loc 1 455 0
 994 0020 5969     		ldr	r1, [r3, #20]
 995 0022 01F4E002 		and	r2, r1, #7340032
 996 0026 B2F5C00F 		cmp	r2, #6291456
 997 002a 02D1     		bne	.L68
 998              		.loc 1 456 0
 999 002c 0420     		movs	r0, #4
 1000 002e 5861     		str	r0, [r3, #20]
 1001              		.loc 1 457 0
 1002 0030 5860     		str	r0, [r3, #4]
 1003              	.L68:
 1004              	.LBB90:
 1005              		.loc 1 460 0
 1006 0032 0023     		movs	r3, #0
 1007              	.LVL71:
 1008              	@ 460 "../../os/hal/platforms/STM32/mac_lld.c" 1
 1009 0034 83F31188 		msr     BASEPRI, r3
 1010              	@ 0 "" 2
 1011              	.LVL72:
 1012              		.thumb
 1013 0038 7047     		bx	lr
 1014              	.LBE90:
 1015              		.cfi_endproc
 1016              	.LFE127:
 1017              		.size	mac_lld_release_transmit_descriptor, .-mac_lld_release_transmit_descriptor
 1018 003a 00BFAFF3 		.section	.text.mac_lld_get_receive_descriptor,"ax",%progbits
 1018      0080
 1019              		.align	2
 1020              		.p2align 4,,15
ARM GAS  C:\Users\roob\AppData\Local\Temp\ccWxNoMV.s 			page 19


 1021              		.global	mac_lld_get_receive_descriptor
 1022              		.thumb
 1023              		.thumb_func
 1024              		.type	mac_lld_get_receive_descriptor, %function
 1025              	mac_lld_get_receive_descriptor:
 1026              	.LFB128:
 1027              		.loc 1 475 0
 1028              		.cfi_startproc
 1029              		@ args = 0, pretend = 0, frame = 0
 1030              		@ frame_needed = 0, uses_anonymous_args = 0
 1031              		@ link register save eliminated.
 1032              	.LVL73:
 1033 0000 30B4     		push	{r4, r5}
 1034              	.LCFI5:
 1035              		.cfi_def_cfa_offset 8
 1036              		.cfi_offset 4, -8
 1037              		.cfi_offset 5, -4
 1038              	.LBB91:
 1039              		.loc 1 478 0
 1040 0002 2023     		movs	r3, #32
 1041              	.LVL74:
 1042              	@ 478 "../../os/hal/platforms/STM32/mac_lld.c" 1
 1043 0004 83F31188 		msr     BASEPRI, r3
 1044              	@ 0 "" 2
 1045              	.LVL75:
 1046              		.thumb
 1047              	.LBE91:
 1048              		.loc 1 481 0
 1049 0008 C26A     		ldr	r2, [r0, #44]
 1050              	.LVL76:
 1051              		.loc 1 485 0
 1052 000a 1368     		ldr	r3, [r2, #0]
 1053              	.LVL77:
 1054 000c 002B     		cmp	r3, #0
 1055 000e 15DB     		blt	.L70
 1056              		.loc 1 502 0
 1057 0010 4FF00045 		mov	r5, #-2147483648
 1058              	.L78:
 1059              		.loc 1 486 0
 1060 0014 1468     		ldr	r4, [r2, #0]
 1061 0016 4FF40043 		mov	r3, #32768
 1062 001a C4F20003 		movt	r3, 16384
 1063 001e 2340     		ands	r3, r3, r4
 1064 0020 3BB9     		cbnz	r3, .L71
 1065              		.loc 1 491 0
 1066 0022 1468     		ldr	r4, [r2, #0]
 1067 0024 14F4007F 		tst	r4, #512
 1068 0028 03D0     		beq	.L71
 1069              		.loc 1 491 0 is_stmt 0 discriminator 1
 1070 002a 1468     		ldr	r4, [r2, #0]
 1071 002c 14F4807F 		tst	r4, #256
 1072 0030 0CD1     		bne	.L82
 1073              	.L71:
 1074              		.loc 1 502 0 is_stmt 1
 1075 0032 1560     		str	r5, [r2, #0]
 1076              		.loc 1 503 0
 1077 0034 D268     		ldr	r2, [r2, #12]
ARM GAS  C:\Users\roob\AppData\Local\Temp\ccWxNoMV.s 			page 20


 1078              	.LVL78:
 1079              		.loc 1 485 0
 1080 0036 1368     		ldr	r3, [r2, #0]
 1081 0038 002B     		cmp	r3, #0
 1082 003a EBDA     		bge	.L78
 1083              	.L70:
 1084              		.loc 1 507 0
 1085 003c C262     		str	r2, [r0, #44]
 1086              	.LBB92:
 1087              		.loc 1 509 0
 1088 003e 0023     		movs	r3, #0
 1089              	.LVL79:
 1090              	@ 509 "../../os/hal/platforms/STM32/mac_lld.c" 1
 1091 0040 83F31188 		msr     BASEPRI, r3
 1092              	@ 0 "" 2
 1093              	.LVL80:
 1094              		.thumb
 1095              	.LBE92:
 1096              		.loc 1 510 0
 1097 0044 4FF0FF30 		mov	r0, #-1
 1098              	.LVL81:
 1099              	.L72:
 1100              		.loc 1 511 0
 1101 0048 30BC     		pop	{r4, r5}
 1102 004a 7047     		bx	lr
 1103              	.LVL82:
 1104              	.L82:
 1105              		.loc 1 494 0
 1106 004c 1568     		ldr	r5, [r2, #0]
 1107              		.loc 1 496 0
 1108 004e D468     		ldr	r4, [r2, #12]
 1109              		.loc 1 493 0
 1110 0050 0B60     		str	r3, [r1, #0]
 1111              		.loc 1 494 0
 1112 0052 C5F30D45 		ubfx	r5, r5, #16, #14
 1113 0056 043D     		subs	r5, r5, #4
 1114 0058 4D60     		str	r5, [r1, #4]
 1115              		.loc 1 495 0
 1116 005a 8A60     		str	r2, [r1, #8]
 1117              		.loc 1 496 0
 1118 005c C462     		str	r4, [r0, #44]
 1119              	.LBB93:
 1120              		.loc 1 498 0
 1121              	@ 498 "../../os/hal/platforms/STM32/mac_lld.c" 1
 1122 005e 83F31188 		msr     BASEPRI, r3
 1123              	@ 0 "" 2
 1124              	.LVL83:
 1125              		.thumb
 1126              	.LBE93:
 1127              		.loc 1 499 0
 1128 0062 1846     		mov	r0, r3
 1129              	.LVL84:
 1130 0064 F0E7     		b	.L72
 1131              		.cfi_endproc
 1132              	.LFE128:
 1133              		.size	mac_lld_get_receive_descriptor, .-mac_lld_get_receive_descriptor
 1134 0066 00BFAFF3 		.section	.text.mac_lld_release_receive_descriptor,"ax",%progbits
ARM GAS  C:\Users\roob\AppData\Local\Temp\ccWxNoMV.s 			page 21


 1134      0080AFF3 
 1134      0080
 1135              		.align	2
 1136              		.p2align 4,,15
 1137              		.global	mac_lld_release_receive_descriptor
 1138              		.thumb
 1139              		.thumb_func
 1140              		.type	mac_lld_release_receive_descriptor, %function
 1141              	mac_lld_release_receive_descriptor:
 1142              	.LFB129:
 1143              		.loc 1 522 0
 1144              		.cfi_startproc
 1145              		@ args = 0, pretend = 0, frame = 0
 1146              		@ frame_needed = 0, uses_anonymous_args = 0
 1147              		@ link register save eliminated.
 1148              	.LVL85:
 1149              		.loc 1 524 0
 1150 0000 8268     		ldr	r2, [r0, #8]
 1151              	.LBB94:
 1152              		.loc 1 528 0
 1153 0002 2023     		movs	r3, #32
 1154              	.LVL86:
 1155              	.LBE94:
 1156              		.loc 1 524 0
 1157 0004 1268     		ldr	r2, [r2, #0]
 1158              	.LBB95:
 1159              		.loc 1 528 0
 1160              	@ 528 "../../os/hal/platforms/STM32/mac_lld.c" 1
 1161 0006 83F31188 		msr     BASEPRI, r3
 1162              	@ 0 "" 2
 1163              	.LVL87:
 1164              		.thumb
 1165              	.LBE95:
 1166              		.loc 1 534 0
 1167 000a 4FF41043 		mov	r3, #36864
 1168              	.LVL88:
 1169              		.loc 1 531 0
 1170 000e 8068     		ldr	r0, [r0, #8]
 1171              	.LVL89:
 1172              		.loc 1 534 0
 1173 0010 C4F20203 		movt	r3, 16386
 1174              		.loc 1 531 0
 1175 0014 4FF00041 		mov	r1, #-2147483648
 1176 0018 0160     		str	r1, [r0, #0]
 1177              		.loc 1 534 0
 1178 001a 5A69     		ldr	r2, [r3, #20]
 1179 001c 02F46020 		and	r0, r2, #917504
 1180 0020 B0F5002F 		cmp	r0, #524288
 1181 0024 02D1     		bne	.L84
 1182              		.loc 1 535 0
 1183 0026 8021     		movs	r1, #128
 1184 0028 5961     		str	r1, [r3, #20]
 1185              		.loc 1 536 0
 1186 002a 9960     		str	r1, [r3, #8]
 1187              	.L84:
 1188              	.LBB96:
 1189              		.loc 1 539 0
ARM GAS  C:\Users\roob\AppData\Local\Temp\ccWxNoMV.s 			page 22


 1190 002c 0023     		movs	r3, #0
 1191              	.LVL90:
 1192              	@ 539 "../../os/hal/platforms/STM32/mac_lld.c" 1
 1193 002e 83F31188 		msr     BASEPRI, r3
 1194              	@ 0 "" 2
 1195              	.LVL91:
 1196              		.thumb
 1197 0032 7047     		bx	lr
 1198              	.LBE96:
 1199              		.cfi_endproc
 1200              	.LFE129:
 1201              		.size	mac_lld_release_receive_descriptor, .-mac_lld_release_receive_descriptor
 1202 0034 AFF30080 		.section	.text.mac_lld_poll_link_status,"ax",%progbits
 1202      AFF30080 
 1202      AFF30080 
 1203              		.align	2
 1204              		.p2align 4,,15
 1205              		.global	mac_lld_poll_link_status
 1206              		.thumb
 1207              		.thumb_func
 1208              		.type	mac_lld_poll_link_status, %function
 1209              	mac_lld_poll_link_status:
 1210              	.LFB130:
 1211              		.loc 1 552 0
 1212              		.cfi_startproc
 1213              		@ args = 0, pretend = 0, frame = 0
 1214              		@ frame_needed = 0, uses_anonymous_args = 0
 1215              		@ link register save eliminated.
 1216              	.LVL92:
 1217 0000 70B4     		push	{r4, r5, r6}
 1218              	.LCFI6:
 1219              		.cfi_def_cfa_offset 12
 1220              		.cfi_offset 4, -12
 1221              		.cfi_offset 5, -8
 1222              		.cfi_offset 6, -4
 1223              		.loc 1 555 0
 1224 0002 4FF40041 		mov	r1, #32768
 1225              	.LBB97:
 1226              	.LBB98:
 1227              		.loc 1 106 0
 1228 0006 846A     		ldr	r4, [r0, #40]
 1229              	.LBE98:
 1230              	.LBE97:
 1231              		.loc 1 555 0
 1232 0008 C4F20201 		movt	r1, 16386
 1233              		.loc 1 552 0
 1234 000c 0546     		mov	r5, r0
 1235              	.LBB101:
 1236              	.LBB99:
 1237              		.loc 1 106 0
 1238 000e 44F05100 		orr	r0, r4, #81
 1239              	.LVL93:
 1240              	.LBE99:
 1241              	.LBE101:
 1242              		.loc 1 555 0
 1243 0012 0E68     		ldr	r6, [r1, #0]
 1244              	.LVL94:
ARM GAS  C:\Users\roob\AppData\Local\Temp\ccWxNoMV.s 			page 23


 1245              	.LBB102:
 1246              	.LBB100:
 1247              		.loc 1 106 0
 1248 0014 0861     		str	r0, [r1, #16]
 1249              	.L86:
 1250              		.loc 1 107 0
 1251 0016 0A69     		ldr	r2, [r1, #16]
 1252 0018 4FF40043 		mov	r3, #32768
 1253 001c D207     		lsls	r2, r2, #31
 1254 001e C4F20203 		movt	r3, 16386
 1255 0022 F8D4     		bmi	.L86
 1256              		.loc 1 109 0
 1257 0024 5A69     		ldr	r2, [r3, #20]
 1258              	.LVL95:
 1259              	.LBE100:
 1260              	.LBE102:
 1261              	.LBB103:
 1262              	.LBB104:
 1263              		.loc 1 106 0
 1264 0026 1861     		str	r0, [r3, #16]
 1265              		.loc 1 107 0
 1266 0028 1946     		mov	r1, r3
 1267              	.L87:
 1268 002a 0869     		ldr	r0, [r1, #16]
 1269 002c 4FF40043 		mov	r3, #32768
 1270 0030 C207     		lsls	r2, r0, #31
 1271 0032 C4F20203 		movt	r3, 16386
 1272 0036 F8D4     		bmi	.L87
 1273              	.LBE104:
 1274              	.LBE103:
 1275              	.LBB106:
 1276              	.LBB107:
 1277              		.loc 1 106 0
 1278 0038 44F01102 		orr	r2, r4, #17
 1279              	.LBE107:
 1280              	.LBE106:
 1281              	.LBB109:
 1282              	.LBB105:
 1283              		.loc 1 109 0
 1284 003c 5869     		ldr	r0, [r3, #20]
 1285              	.LVL96:
 1286              	.LBE105:
 1287              	.LBE109:
 1288              	.LBB110:
 1289              	.LBB108:
 1290              		.loc 1 106 0
 1291 003e 1A61     		str	r2, [r3, #16]
 1292              		.loc 1 107 0
 1293 0040 1946     		mov	r1, r3
 1294              	.L88:
 1295 0042 0B69     		ldr	r3, [r1, #16]
 1296 0044 4FF40042 		mov	r2, #32768
 1297 0048 13F00103 		ands	r3, r3, #1
 1298 004c C4F20202 		movt	r2, 16386
 1299 0050 F7D1     		bne	.L88
 1300              		.loc 1 109 0
 1301 0052 5169     		ldr	r1, [r2, #20]
ARM GAS  C:\Users\roob\AppData\Local\Temp\ccWxNoMV.s 			page 24


 1302              	.LBE108:
 1303              	.LBE110:
 1304              		.loc 1 563 0
 1305 0054 11F4805F 		tst	r1, #4096
 1306 0058 08D0     		beq	.L89
 1307              	.LBB111:
 1308              		.loc 1 567 0
 1309 005a 00F03400 		and	r0, r0, #52
 1310 005e 2428     		cmp	r0, #36
 1311 0060 1BD0     		beq	.L90
 1312              		.loc 1 569 0
 1313 0062 85F82430 		strb	r3, [r5, #36]
 1314 0066 1846     		mov	r0, r3
 1315              	.L91:
 1316              	.LBE111:
 1317              		.loc 1 609 0
 1318 0068 70BC     		pop	{r4, r5, r6}
 1319 006a 7047     		bx	lr
 1320              	.L89:
 1321              		.loc 1 588 0
 1322 006c 10F00400 		ands	r0, r0, #4
 1323 0070 2DD0     		beq	.L106
 1324              		.loc 1 592 0
 1325 0072 8A04     		lsls	r2, r1, #18
 1326              		.loc 1 593 0
 1327 0074 4CBF     		ite	mi
 1328 0076 46F48046 		orrmi	r6, r6, #16384
 1329              	.LVL97:
 1330              		.loc 1 595 0
 1331 007a 26F48046 		bicpl	r6, r6, #16384
 1332              	.LVL98:
 1333              		.loc 1 598 0
 1334 007e CB05     		lsls	r3, r1, #23
 1335 0080 22D4     		bmi	.L105
 1336              	.L100:
 1337              		.loc 1 601 0
 1338 0082 26F40066 		bic	r6, r6, #2048
 1339              	.LVL99:
 1340              	.L96:
 1341              		.loc 1 605 0
 1342 0086 4FF40040 		mov	r0, #32768
 1343 008a C4F20200 		movt	r0, 16386
 1344              		.loc 1 608 0
 1345 008e 0121     		movs	r1, #1
 1346              		.loc 1 605 0
 1347 0090 0660     		str	r6, [r0, #0]
 1348              		.loc 1 608 0
 1349 0092 0846     		mov	r0, r1
 1350 0094 85F82410 		strb	r1, [r5, #36]
 1351 0098 E6E7     		b	.L91
 1352              	.L90:
 1353              	.LVL100:
 1354              	.LBB114:
 1355              	.LBB112:
 1356              	.LBB113:
 1357              		.loc 1 106 0
 1358 009a 44F4A874 		orr	r4, r4, #336
ARM GAS  C:\Users\roob\AppData\Local\Temp\ccWxNoMV.s 			page 25


 1359 009e 44F00104 		orr	r4, r4, #1
 1360 00a2 1461     		str	r4, [r2, #16]
 1361              	.L92:
 1362              		.loc 1 107 0
 1363 00a4 1169     		ldr	r1, [r2, #16]
 1364 00a6 4FF40043 		mov	r3, #32768
 1365 00aa C907     		lsls	r1, r1, #31
 1366 00ac C4F20203 		movt	r3, 16386
 1367 00b0 F8D4     		bmi	.L92
 1368              		.loc 1 109 0
 1369 00b2 5A69     		ldr	r2, [r3, #20]
 1370              	.LBE113:
 1371              	.LBE112:
 1372              		.loc 1 575 0
 1373 00b4 12F4607F 		tst	r2, #896
 1374              		.loc 1 576 0
 1375 00b8 14BF     		ite	ne
 1376 00ba 46F48046 		orrne	r6, r6, #16384
 1377              	.LVL101:
 1378              		.loc 1 578 0
 1379 00be 26F48046 		biceq	r6, r6, #16384
 1380              	.LVL102:
 1381              		.loc 1 581 0
 1382 00c2 12F4A07F 		tst	r2, #320
 1383 00c6 DCD0     		beq	.L100
 1384              	.LVL103:
 1385              	.L105:
 1386              	.LBE114:
 1387              		.loc 1 599 0
 1388 00c8 46F40066 		orr	r6, r6, #2048
 1389              	.LVL104:
 1390 00cc DBE7     		b	.L96
 1391              	.L106:
 1392              		.loc 1 589 0
 1393 00ce 85F82400 		strb	r0, [r5, #36]
 1394 00d2 C9E7     		b	.L91
 1395              		.cfi_endproc
 1396              	.LFE130:
 1397              		.size	mac_lld_poll_link_status, .-mac_lld_poll_link_status
 1398 00d4 AFF30080 		.section	.text.mac_lld_write_transmit_descriptor,"ax",%progbits
 1398      AFF30080 
 1398      AFF30080 
 1399              		.align	2
 1400              		.p2align 4,,15
 1401              		.global	mac_lld_write_transmit_descriptor
 1402              		.thumb
 1403              		.thumb_func
 1404              		.type	mac_lld_write_transmit_descriptor, %function
 1405              	mac_lld_write_transmit_descriptor:
 1406              	.LFB131:
 1407              		.loc 1 627 0
 1408              		.cfi_startproc
 1409              		@ args = 0, pretend = 0, frame = 0
 1410              		@ frame_needed = 0, uses_anonymous_args = 0
 1411              	.LVL105:
 1412 0000 38B5     		push	{r3, r4, r5, lr}
 1413              	.LCFI7:
ARM GAS  C:\Users\roob\AppData\Local\Temp\ccWxNoMV.s 			page 26


 1414              		.cfi_def_cfa_offset 16
 1415              		.cfi_offset 3, -16
 1416              		.cfi_offset 4, -12
 1417              		.cfi_offset 5, -8
 1418              		.cfi_offset 14, -4
 1419              		.loc 1 633 0
 1420 0002 90E82800 		ldmia	r0, {r3, r5}
 1421              		.loc 1 627 0
 1422 0006 0446     		mov	r4, r0
 1423              		.loc 1 633 0
 1424 0008 ED1A     		subs	r5, r5, r3
 1425              		.loc 1 629 0
 1426 000a 8068     		ldr	r0, [r0, #8]
 1427              	.LVL106:
 1428 000c AA42     		cmp	r2, r5
 1429 000e 38BF     		it	cc
 1430 0010 1546     		movcc	r5, r2
 1431              	.LVL107:
 1432 0012 0268     		ldr	r2, [r0, #0]
 1433              		.loc 1 636 0
 1434 0014 3DB1     		cbz	r5, .L108
 1435              		.loc 1 637 0
 1436 0016 8068     		ldr	r0, [r0, #8]
 1437 0018 2A46     		mov	r2, r5
 1438 001a C018     		adds	r0, r0, r3
 1439 001c FFF7FEFF 		bl	memcpy
 1440              	.LVL108:
 1441              		.loc 1 638 0
 1442 0020 2368     		ldr	r3, [r4, #0]
 1443 0022 5919     		adds	r1, r3, r5
 1444 0024 2160     		str	r1, [r4, #0]
 1445              	.L108:
 1446              		.loc 1 641 0
 1447 0026 2846     		mov	r0, r5
 1448 0028 38BD     		pop	{r3, r4, r5, pc}
 1449              		.cfi_endproc
 1450              	.LFE131:
 1451              		.size	mac_lld_write_transmit_descriptor, .-mac_lld_write_transmit_descriptor
 1452 002a 00BFAFF3 		.section	.text.mac_lld_read_receive_descriptor,"ax",%progbits
 1452      0080
 1453              		.align	2
 1454              		.p2align 4,,15
 1455              		.global	mac_lld_read_receive_descriptor
 1456              		.thumb
 1457              		.thumb_func
 1458              		.type	mac_lld_read_receive_descriptor, %function
 1459              	mac_lld_read_receive_descriptor:
 1460              	.LFB132:
 1461              		.loc 1 658 0
 1462              		.cfi_startproc
 1463              		@ args = 0, pretend = 0, frame = 0
 1464              		@ frame_needed = 0, uses_anonymous_args = 0
 1465              	.LVL109:
 1466 0000 70B5     		push	{r4, r5, r6, lr}
 1467              	.LCFI8:
 1468              		.cfi_def_cfa_offset 16
 1469              		.cfi_offset 4, -16
ARM GAS  C:\Users\roob\AppData\Local\Temp\ccWxNoMV.s 			page 27


 1470              		.cfi_offset 5, -12
 1471              		.cfi_offset 6, -8
 1472              		.cfi_offset 14, -4
 1473              		.loc 1 660 0
 1474 0002 90E86800 		ldmia	r0, {r3, r5, r6}
 1475              		.loc 1 664 0
 1476 0006 ED1A     		subs	r5, r5, r3
 1477 0008 AA42     		cmp	r2, r5
 1478 000a 38BF     		it	cc
 1479 000c 1546     		movcc	r5, r2
 1480              	.LVL110:
 1481              		.loc 1 658 0
 1482 000e 0446     		mov	r4, r0
 1483              		.loc 1 660 0
 1484 0010 3268     		ldr	r2, [r6, #0]
 1485              		.loc 1 667 0
 1486 0012 45B1     		cbz	r5, .L113
 1487              		.loc 1 668 0
 1488 0014 B268     		ldr	r2, [r6, #8]
 1489 0016 0846     		mov	r0, r1
 1490              	.LVL111:
 1491 0018 D118     		adds	r1, r2, r3
 1492              	.LVL112:
 1493 001a 2A46     		mov	r2, r5
 1494 001c FFF7FEFF 		bl	memcpy
 1495              	.LVL113:
 1496              		.loc 1 669 0
 1497 0020 2368     		ldr	r3, [r4, #0]
 1498 0022 5819     		adds	r0, r3, r5
 1499 0024 2060     		str	r0, [r4, #0]
 1500              	.L113:
 1501              		.loc 1 672 0
 1502 0026 2846     		mov	r0, r5
 1503 0028 70BD     		pop	{r4, r5, r6, pc}
 1504              		.cfi_endproc
 1505              	.LFE132:
 1506              		.size	mac_lld_read_receive_descriptor, .-mac_lld_read_receive_descriptor
 1507              		.global	ETHD1
 1508 002a 00BFAFF3 		.section	.rodata.default_mac_address,"a",%progbits
 1508      0080
 1509              		.align	2
 1510              		.set	.LANCHOR5,. + 0
 1511              		.type	default_mac_address, %object
 1512              		.size	default_mac_address, 6
 1513              	default_mac_address:
 1514 0000 AA       		.byte	-86
 1515 0001 55       		.byte	85
 1516 0002 13       		.byte	19
 1517 0003 37       		.byte	55
 1518 0004 01       		.byte	1
 1519 0005 10       		.byte	16
 1520 0006 0000     		.section	.bss.ETHD1,"aw",%nobits
 1521              		.align	2
 1522              		.set	.LANCHOR0,. + 0
 1523              		.type	ETHD1, %object
 1524              		.size	ETHD1, 52
 1525              	ETHD1:
ARM GAS  C:\Users\roob\AppData\Local\Temp\ccWxNoMV.s 			page 28


 1526 0000 00000000 		.space	52
 1526      00000000 
 1526      00000000 
 1526      00000000 
 1526      00000000 
 1527              		.section	.bss.rb,"aw",%nobits
 1528              		.align	2
 1529              		.set	.LANCHOR2,. + 0
 1530              		.type	rb, %object
 1531              		.size	rb, 6096
 1532              	rb:
 1533 0000 00000000 		.space	6096
 1533      00000000 
 1533      00000000 
 1533      00000000 
 1533      00000000 
 1534              		.section	.bss.rd,"aw",%nobits
 1535              		.align	2
 1536              		.set	.LANCHOR1,. + 0
 1537              		.type	rd, %object
 1538              		.size	rd, 64
 1539              	rd:
 1540 0000 00000000 		.space	64
 1540      00000000 
 1540      00000000 
 1540      00000000 
 1540      00000000 
 1541              		.section	.bss.tb,"aw",%nobits
 1542              		.align	2
 1543              		.set	.LANCHOR4,. + 0
 1544              		.type	tb, %object
 1545              		.size	tb, 3048
 1546              	tb:
 1547 0000 00000000 		.space	3048
 1547      00000000 
 1547      00000000 
 1547      00000000 
 1547      00000000 
 1548              		.section	.bss.td,"aw",%nobits
 1549              		.align	2
 1550              		.set	.LANCHOR3,. + 0
 1551              		.type	td, %object
 1552              		.size	td, 32
 1553              	td:
 1554 0000 00000000 		.space	32
 1554      00000000 
 1554      00000000 
 1554      00000000 
 1554      00000000 
 1555              		.text
 1556              	.Letext0:
 1557              		.file 2 "c:\\chibistudio\\tools\\gnu tools arm embedded\\4.7 2013q1\\bin\\../lib/gcc/arm-none-eabi
 1558              		.file 3 "c:\\chibistudio\\tools\\gnu tools arm embedded\\4.7 2013q1\\bin\\../lib/gcc/arm-none-eabi
 1559              		.file 4 "../../os/ports/GCC/ARMCMx/chtypes.h"
 1560              		.file 5 "../../os/kernel/include/chlists.h"
 1561              		.file 6 "../../os/kernel/include/chthreads.h"
 1562              		.file 7 "../../os/ports/GCC/ARMCMx/chcore_v7m.h"
ARM GAS  C:\Users\roob\AppData\Local\Temp\ccWxNoMV.s 			page 29


 1563              		.file 8 "../../os/ports/common/ARMCMx/nvic.h"
 1564              		.file 9 "../../os/kernel/include/chsem.h"
 1565              		.file 10 "../../os/kernel/include/chmtx.h"
 1566              		.file 11 "../../os/kernel/include/chevents.h"
 1567              		.file 12 "../../os/hal/platforms/STM32F4xx/stm32f4xx.h"
 1568              		.file 13 "../../os/hal/platforms/STM32F4xx/hal_lld.h"
 1569              		.file 14 "../../os/hal/include/mac.h"
 1570              		.file 15 "../../os/hal/platforms/STM32/mac_lld.h"
 1571              		.file 16 "../../os/ports/common/ARMCMx/CMSIS/include/core_cm4.h"
 1572              		.file 17 "../../os/hal/include/hal.h"
