ARM GAS  C:\Users\roob\AppData\Local\Temp\ccY9Houq.s 			page 1


   1              		.syntax unified
   2              		.cpu cortex-m4
   3              		.fpu softvfp
   4              		.eabi_attribute 20, 1
   5              		.eabi_attribute 21, 1
   6              		.eabi_attribute 23, 3
   7              		.eabi_attribute 24, 1
   8              		.eabi_attribute 25, 1
   9              		.eabi_attribute 26, 1
  10              		.eabi_attribute 30, 2
  11              		.eabi_attribute 34, 1
  12              		.eabi_attribute 18, 4
  13              		.thumb
  14              		.file	"sdc.c"
  15              		.text
  16              	.Ltext0:
  17              		.cfi_sections	.debug_frame
  18              		.section	.text.sdcGetInfo,"ax",%progbits
  19              		.align	2
  20              		.p2align 4,,15
  21              		.global	sdcGetInfo
  22              		.thumb
  23              		.thumb_func
  24              		.type	sdcGetInfo, %function
  25              	sdcGetInfo:
  26              	.LFB129:
  27              		.file 1 "../../os/hal/src/sdc.c"
  28              		.loc 1 507 0
  29              		.cfi_startproc
  30              		@ args = 0, pretend = 0, frame = 0
  31              		@ frame_needed = 0, uses_anonymous_args = 0
  32              		@ link register save eliminated.
  33              	.LVL0:
  34              		.loc 1 511 0
  35 0000 0379     		ldrb	r3, [r0, #4]	@ zero_extendqisi2
  36 0002 052B     		cmp	r3, #5
  37 0004 01D0     		beq	.L5
  38              		.loc 1 512 0
  39 0006 0120     		movs	r0, #1
  40              	.LVL1:
  41              		.loc 1 518 0
  42 0008 7047     		bx	lr
  43              	.LVL2:
  44              	.L5:
  45              		.loc 1 514 0
  46 000a 806A     		ldr	r0, [r0, #40]
  47              	.LVL3:
  48              		.loc 1 515 0
  49 000c 4FF40072 		mov	r2, #512
  50              		.loc 1 514 0
  51 0010 4860     		str	r0, [r1, #4]
  52              		.loc 1 515 0
  53 0012 0A60     		str	r2, [r1, #0]
  54              		.loc 1 517 0
  55 0014 0020     		movs	r0, #0
  56 0016 7047     		bx	lr
  57              		.cfi_endproc
ARM GAS  C:\Users\roob\AppData\Local\Temp\ccY9Houq.s 			page 2


  58              	.LFE129:
  59              		.size	sdcGetInfo, .-sdcGetInfo
  60 0018 AFF30080 		.section	.text.sdcConnect,"ax",%progbits
  60      AFF30080 
  61              		.align	2
  62              		.p2align 4,,15
  63              		.global	sdcConnect
  64              		.thumb
  65              		.thumb_func
  66              		.type	sdcConnect, %function
  67              	sdcConnect:
  68              	.LFB123:
  69              		.loc 1 198 0
  70              		.cfi_startproc
  71              		@ args = 0, pretend = 0, frame = 8
  72              		@ frame_needed = 0, uses_anonymous_args = 0
  73              	.LVL4:
  74 0000 F0B5     		push	{r4, r5, r6, r7, lr}
  75              	.LCFI0:
  76              		.cfi_def_cfa_offset 20
  77              		.cfi_offset 4, -20
  78              		.cfi_offset 5, -16
  79              		.cfi_offset 6, -12
  80              		.cfi_offset 7, -8
  81              		.cfi_offset 14, -4
  82              		.loc 1 206 0
  83 0002 0323     		movs	r3, #3
  84              		.loc 1 198 0
  85 0004 83B0     		sub	sp, sp, #12
  86              	.LCFI1:
  87              		.cfi_def_cfa_offset 32
  88              		.loc 1 206 0
  89 0006 0371     		strb	r3, [r0, #4]
  90              		.loc 1 198 0
  91 0008 0446     		mov	r4, r0
  92              		.loc 1 209 0
  93 000a FFF7FEFF 		bl	sdc_lld_start_clk
  94              	.LVL5:
  95              		.loc 1 212 0
  96 000e 0021     		movs	r1, #0
  97 0010 0A46     		mov	r2, r1
  98 0012 2046     		mov	r0, r4
  99 0014 FFF7FEFF 		bl	sdc_lld_send_cmd_none
 100              	.LVL6:
 101              		.loc 1 215 0
 102 0018 4FF4D572 		mov	r2, #426
 103 001c 2046     		mov	r0, r4
 104 001e 0821     		movs	r1, #8
 105 0020 01AB     		add	r3, sp, #4
 106 0022 FFF7FEFF 		bl	sdc_lld_send_cmd_short_crc
 107              	.LVL7:
 108 0026 0246     		mov	r2, r0
 109 0028 70B9     		cbnz	r0, .L7
 110              		.loc 1 219 0
 111 002a 0199     		ldr	r1, [sp, #4]
 112              		.loc 1 217 0
 113 002c 0120     		movs	r0, #1
ARM GAS  C:\Users\roob\AppData\Local\Temp\ccY9Houq.s 			page 3


 114              		.loc 1 219 0
 115 002e C1F30323 		ubfx	r3, r1, #8, #4
 116 0032 8342     		cmp	r3, r0
 117              		.loc 1 217 0
 118 0034 2063     		str	r0, [r4, #48]
 119              		.loc 1 219 0
 120 0036 6DD0     		beq	.L35
 121              	.L8:
 122              	.LDL1:
 123              		.loc 1 325 0
 124 0038 2046     		mov	r0, r4
 125 003a FFF7FEFF 		bl	sdc_lld_stop_clk
 126              	.LVL8:
 127              		.loc 1 326 0
 128 003e 0221     		movs	r1, #2
 129 0040 2171     		strb	r1, [r4, #4]
 130              		.loc 1 327 0
 131 0042 0120     		movs	r0, #1
 132              	.L17:
 133              		.loc 1 328 0
 134 0044 03B0     		add	sp, sp, #12
 135 0046 F0BD     		pop	{r4, r5, r6, r7, pc}
 136              	.L7:
 137              		.loc 1 233 0
 138 0048 0020     		movs	r0, #0
 139 004a 2063     		str	r0, [r4, #48]
 140              	.L10:
 141              	.LVL9:
 142              	.LBB5:
 143              		.loc 1 251 0
 144 004c 0025     		movs	r5, #0
 145 004e C8F21005 		movt	r5, 32784
 146              	.LVL10:
 147              	.L11:
 148 0052 6426     		movs	r6, #100
 149              	.LVL11:
 150              	.L14:
 151              		.loc 1 256 0
 152 0054 2046     		mov	r0, r4
 153 0056 3721     		movs	r1, #55
 154 0058 0022     		movs	r2, #0
 155 005a 01AB     		add	r3, sp, #4
 156 005c FFF7FEFF 		bl	sdc_lld_send_cmd_short_crc
 157              	.LVL12:
 158 0060 0028     		cmp	r0, #0
 159 0062 E9D1     		bne	.L8
 160              		.loc 1 257 0 discriminator 1
 161 0064 4EF20803 		movw	r3, #57352
 162 0068 0198     		ldr	r0, [sp, #4]
 163 006a CFF6FF53 		movt	r3, 65023
 164 006e 0340     		ands	r3, r3, r0
 165              		.loc 1 256 0 discriminator 1
 166 0070 002B     		cmp	r3, #0
 167 0072 E1D1     		bne	.L8
 168              		.loc 1 259 0
 169 0074 2046     		mov	r0, r4
 170 0076 2921     		movs	r1, #41
ARM GAS  C:\Users\roob\AppData\Local\Temp\ccY9Houq.s 			page 4


 171 0078 2A46     		mov	r2, r5
 172 007a 01AB     		add	r3, sp, #4
 173 007c FFF7FEFF 		bl	sdc_lld_send_cmd_short
 174              	.LVL13:
 175 0080 0746     		mov	r7, r0
 176 0082 0028     		cmp	r0, #0
 177 0084 D8D1     		bne	.L8
 178              		.loc 1 261 0
 179 0086 0199     		ldr	r1, [sp, #4]
 180 0088 0029     		cmp	r1, #0
 181 008a 5BDB     		blt	.L34
 182              		.loc 1 266 0
 183 008c 013E     		subs	r6, r6, #1
 184 008e D3D0     		beq	.L8
 185              		.loc 1 268 0
 186 0090 0A20     		movs	r0, #10
 187 0092 FFF7FEFF 		bl	chThdSleep
 188              	.LVL14:
 189              		.loc 1 256 0
 190 0096 2046     		mov	r0, r4
 191 0098 3721     		movs	r1, #55
 192 009a 3A46     		mov	r2, r7
 193 009c 01AB     		add	r3, sp, #4
 194 009e FFF7FEFF 		bl	sdc_lld_send_cmd_short_crc
 195              	.LVL15:
 196 00a2 0028     		cmp	r0, #0
 197 00a4 C8D1     		bne	.L8
 198              		.loc 1 257 0
 199 00a6 4EF20801 		movw	r1, #57352
 200 00aa 019A     		ldr	r2, [sp, #4]
 201 00ac CFF6FF51 		movt	r1, 65023
 202 00b0 1140     		ands	r1, r1, r2
 203              		.loc 1 256 0
 204 00b2 0029     		cmp	r1, #0
 205 00b4 C0D1     		bne	.L8
 206              		.loc 1 259 0
 207 00b6 2046     		mov	r0, r4
 208 00b8 2921     		movs	r1, #41
 209 00ba 2A46     		mov	r2, r5
 210 00bc 01AB     		add	r3, sp, #4
 211 00be FFF7FEFF 		bl	sdc_lld_send_cmd_short
 212              	.LVL16:
 213 00c2 0746     		mov	r7, r0
 214 00c4 0028     		cmp	r0, #0
 215 00c6 B7D1     		bne	.L8
 216              		.loc 1 261 0
 217 00c8 0199     		ldr	r1, [sp, #4]
 218 00ca 0029     		cmp	r1, #0
 219 00cc 3ADB     		blt	.L34
 220              		.loc 1 268 0
 221 00ce 0A20     		movs	r0, #10
 222 00d0 FFF7FEFF 		bl	chThdSleep
 223              	.LVL17:
 224              		.loc 1 256 0
 225 00d4 2046     		mov	r0, r4
 226 00d6 3721     		movs	r1, #55
 227 00d8 3A46     		mov	r2, r7
ARM GAS  C:\Users\roob\AppData\Local\Temp\ccY9Houq.s 			page 5


 228 00da 01AB     		add	r3, sp, #4
 229 00dc FFF7FEFF 		bl	sdc_lld_send_cmd_short_crc
 230              	.LVL18:
 231 00e0 0028     		cmp	r0, #0
 232 00e2 A9D1     		bne	.L8
 233              		.loc 1 257 0
 234 00e4 4EF20803 		movw	r3, #57352
 235 00e8 0198     		ldr	r0, [sp, #4]
 236 00ea CFF6FF53 		movt	r3, 65023
 237 00ee 0340     		ands	r3, r3, r0
 238              		.loc 1 256 0
 239 00f0 002B     		cmp	r3, #0
 240 00f2 A1D1     		bne	.L8
 241              		.loc 1 259 0
 242 00f4 2046     		mov	r0, r4
 243 00f6 2921     		movs	r1, #41
 244 00f8 2A46     		mov	r2, r5
 245 00fa 01AB     		add	r3, sp, #4
 246 00fc FFF7FEFF 		bl	sdc_lld_send_cmd_short
 247              	.LVL19:
 248 0100 0028     		cmp	r0, #0
 249 0102 99D1     		bne	.L8
 250              		.loc 1 261 0
 251 0104 0199     		ldr	r1, [sp, #4]
 252 0106 0029     		cmp	r1, #0
 253 0108 1CDB     		blt	.L34
 254              		.loc 1 268 0
 255 010a 0A20     		movs	r0, #10
 256 010c 023E     		subs	r6, r6, #2
 257 010e FFF7FEFF 		bl	chThdSleep
 258              	.LVL20:
 259 0112 9FE7     		b	.L14
 260              	.LVL21:
 261              	.L35:
 262              	.LBE5:
 263              		.loc 1 221 0
 264 0114 2046     		mov	r0, r4
 265 0116 3721     		movs	r1, #55
 266 0118 01AB     		add	r3, sp, #4
 267 011a FFF7FEFF 		bl	sdc_lld_send_cmd_short_crc
 268              	.LVL22:
 269 011e 0028     		cmp	r0, #0
 270 0120 8AD1     		bne	.L8
 271              		.loc 1 222 0 discriminator 1
 272 0122 4EF20801 		movw	r1, #57352
 273 0126 019A     		ldr	r2, [sp, #4]
 274 0128 CFF6FF51 		movt	r1, 65023
 275 012c 1140     		ands	r1, r1, r2
 276              		.loc 1 221 0 discriminator 1
 277 012e 0029     		cmp	r1, #0
 278 0130 82D1     		bne	.L8
 279              	.LBB6:
 280              		.loc 1 248 0
 281 0132 256B     		ldr	r5, [r4, #48]
 282 0134 05F00F06 		and	r6, r5, #15
 283 0138 012E     		cmp	r6, #1
 284 013a 87D1     		bne	.L10
ARM GAS  C:\Users\roob\AppData\Local\Temp\ccY9Houq.s 			page 6


 285              		.loc 1 249 0
 286 013c 0025     		movs	r5, #0
 287 013e CCF21005 		movt	r5, 49168
 288 0142 86E7     		b	.L11
 289              	.LVL23:
 290              	.L34:
 291              		.loc 1 262 0
 292 0144 4B00     		lsls	r3, r1, #1
 293 0146 03D5     		bpl	.L13
 294              		.loc 1 263 0
 295 0148 226B     		ldr	r2, [r4, #48]
 296 014a 42F01003 		orr	r3, r2, #16
 297 014e 2363     		str	r3, [r4, #48]
 298              	.L13:
 299              	.LBE6:
 300              		.loc 1 273 0
 301 0150 0022     		movs	r2, #0
 302 0152 2046     		mov	r0, r4
 303 0154 0221     		movs	r1, #2
 304 0156 04F10803 		add	r3, r4, #8
 305 015a FFF7FEFF 		bl	sdc_lld_send_cmd_long_crc
 306              	.LVL24:
 307 015e 0246     		mov	r2, r0
 308 0160 0028     		cmp	r0, #0
 309 0162 7FF469AF 		bne	.L8
 310              		.loc 1 277 0
 311 0166 2046     		mov	r0, r4
 312 0168 0321     		movs	r1, #3
 313 016a 04F13803 		add	r3, r4, #56
 314 016e FFF7FEFF 		bl	sdc_lld_send_cmd_short_crc
 315              	.LVL25:
 316 0172 0028     		cmp	r0, #0
 317 0174 7FF460AF 		bne	.L8
 318              		.loc 1 283 0
 319 0178 04F11805 		add	r5, r4, #24
 320              	.LVL26:
 321              		.loc 1 282 0
 322 017c 2046     		mov	r0, r4
 323 017e 0921     		movs	r1, #9
 324 0180 A26B     		ldr	r2, [r4, #56]
 325 0182 2B46     		mov	r3, r5
 326 0184 FFF7FEFF 		bl	sdc_lld_send_cmd_long_crc
 327              	.LVL27:
 328 0188 0028     		cmp	r0, #0
 329 018a 7FF455AF 		bne	.L8
 330              		.loc 1 287 0
 331 018e 2046     		mov	r0, r4
 332 0190 FFF7FEFF 		bl	sdc_lld_set_data_clk
 333              	.LVL28:
 334              		.loc 1 290 0
 335 0194 2046     		mov	r0, r4
 336 0196 0721     		movs	r1, #7
 337 0198 A26B     		ldr	r2, [r4, #56]
 338 019a 01AB     		add	r3, sp, #4
 339 019c FFF7FEFF 		bl	sdc_lld_send_cmd_short_crc
 340              	.LVL29:
 341 01a0 0028     		cmp	r0, #0
ARM GAS  C:\Users\roob\AppData\Local\Temp\ccY9Houq.s 			page 7


 342 01a2 7FF449AF 		bne	.L8
 343              		.loc 1 295 0
 344 01a6 2046     		mov	r0, r4
 345 01a8 1021     		movs	r1, #16
 346 01aa 4FF40072 		mov	r2, #512
 347 01ae 01AB     		add	r3, sp, #4
 348 01b0 FFF7FEFF 		bl	sdc_lld_send_cmd_short_crc
 349              	.LVL30:
 350 01b4 0028     		cmp	r0, #0
 351 01b6 7FF43FAF 		bne	.L8
 352              		.loc 1 297 0
 353 01ba 4EF20800 		movw	r0, #57352
 354 01be 0199     		ldr	r1, [sp, #4]
 355 01c0 CFF6FF50 		movt	r0, 65023
 356 01c4 0840     		ands	r0, r0, r1
 357              		.loc 1 296 0
 358 01c6 0028     		cmp	r0, #0
 359 01c8 7FF436AF 		bne	.L8
 360              		.loc 1 301 0
 361 01cc 226B     		ldr	r2, [r4, #48]
 362 01ce 02F00F03 		and	r3, r2, #15
 363 01d2 012B     		cmp	r3, #1
 364 01d4 27D8     		bhi	.L15
 365              		.loc 1 304 0
 366 01d6 0121     		movs	r1, #1
 367 01d8 2046     		mov	r0, r4
 368 01da FFF7FEFF 		bl	sdc_lld_set_bus_mode
 369              	.LVL31:
 370              		.loc 1 305 0
 371 01de 2046     		mov	r0, r4
 372 01e0 3721     		movs	r1, #55
 373 01e2 A26B     		ldr	r2, [r4, #56]
 374 01e4 01AB     		add	r3, sp, #4
 375 01e6 FFF7FEFF 		bl	sdc_lld_send_cmd_short_crc
 376              	.LVL32:
 377 01ea 0028     		cmp	r0, #0
 378 01ec 7FF424AF 		bne	.L8
 379              		.loc 1 306 0 discriminator 1
 380 01f0 4EF20800 		movw	r0, #57352
 381 01f4 0199     		ldr	r1, [sp, #4]
 382 01f6 CFF6FF50 		movt	r0, 65023
 383 01fa 0840     		ands	r0, r0, r1
 384              		.loc 1 305 0 discriminator 1
 385 01fc 0028     		cmp	r0, #0
 386 01fe 7FF41BAF 		bne	.L8
 387              		.loc 1 308 0
 388 0202 2046     		mov	r0, r4
 389 0204 0621     		movs	r1, #6
 390 0206 0222     		movs	r2, #2
 391 0208 01AB     		add	r3, sp, #4
 392 020a FFF7FEFF 		bl	sdc_lld_send_cmd_short_crc
 393              	.LVL33:
 394 020e 0028     		cmp	r0, #0
 395 0210 7FF412AF 		bne	.L8
 396              		.loc 1 309 0 discriminator 1
 397 0214 4EF20802 		movw	r2, #57352
 398 0218 019B     		ldr	r3, [sp, #4]
ARM GAS  C:\Users\roob\AppData\Local\Temp\ccY9Houq.s 			page 8


 399 021a CFF6FF52 		movt	r2, 65023
 400 021e 1A40     		ands	r2, r2, r3
 401              		.loc 1 308 0 discriminator 1
 402 0220 002A     		cmp	r2, #0
 403 0222 7FF409AF 		bne	.L8
 404              	.L15:
 405              		.loc 1 315 0
 406 0226 2846     		mov	r0, r5
 407 0228 FFF7FEFF 		bl	mmcsdGetCapacity
 408              	.LVL34:
 409 022c A062     		str	r0, [r4, #40]
 410              		.loc 1 316 0
 411 022e 0028     		cmp	r0, #0
 412 0230 3FF402AF 		beq	.L8
 413              		.loc 1 320 0
 414 0234 0520     		movs	r0, #5
 415 0236 2071     		strb	r0, [r4, #4]
 416              		.loc 1 321 0
 417 0238 0020     		movs	r0, #0
 418 023a 03E7     		b	.L17
 419              		.cfi_endproc
 420              	.LFE123:
 421              		.size	sdcConnect, .-sdcConnect
 422              		.section	.text.sdcSync,"ax",%progbits
 423              		.align	2
 424              		.p2align 4,,15
 425              		.global	sdcSync
 426              		.thumb
 427              		.thumb_func
 428              		.type	sdcSync, %function
 429              	sdcSync:
 430              	.LFB128:
 431              		.loc 1 477 0
 432              		.cfi_startproc
 433              		@ args = 0, pretend = 0, frame = 0
 434              		@ frame_needed = 0, uses_anonymous_args = 0
 435              	.LVL35:
 436 0000 38B5     		push	{r3, r4, r5, lr}
 437              	.LCFI2:
 438              		.cfi_def_cfa_offset 16
 439              		.cfi_offset 3, -16
 440              		.cfi_offset 4, -12
 441              		.cfi_offset 5, -8
 442              		.cfi_offset 14, -4
 443              		.loc 1 482 0
 444 0002 0579     		ldrb	r5, [r0, #4]	@ zero_extendqisi2
 445 0004 052D     		cmp	r5, #5
 446              		.loc 1 477 0
 447 0006 0446     		mov	r4, r0
 448              		.loc 1 482 0
 449 0008 01D0     		beq	.L39
 450              		.loc 1 483 0
 451 000a 0120     		movs	r0, #1
 452              	.LVL36:
 453              		.loc 1 493 0
 454 000c 38BD     		pop	{r3, r4, r5, pc}
 455              	.LVL37:
ARM GAS  C:\Users\roob\AppData\Local\Temp\ccY9Houq.s 			page 9


 456              	.L39:
 457              	.LBB9:
 458              	.LBB10:
 459              		.loc 1 486 0
 460 000e 0823     		movs	r3, #8
 461 0010 0371     		strb	r3, [r0, #4]
 462              		.loc 1 488 0
 463 0012 FFF7FEFF 		bl	sdc_lld_sync
 464              	.LVL38:
 465              		.loc 1 491 0
 466 0016 2571     		strb	r5, [r4, #4]
 467 0018 38BD     		pop	{r3, r4, r5, pc}
 468              	.LBE10:
 469              	.LBE9:
 470              		.cfi_endproc
 471              	.LFE128:
 472              		.size	sdcSync, .-sdcSync
 473 001a 00BFAFF3 		.section	.text.sdcWrite,"ax",%progbits
 473      0080
 474              		.align	2
 475              		.p2align 4,,15
 476              		.global	sdcWrite
 477              		.thumb
 478              		.thumb_func
 479              		.type	sdcWrite, %function
 480              	sdcWrite:
 481              	.LFB126:
 482              		.loc 1 423 0
 483              		.cfi_startproc
 484              		@ args = 0, pretend = 0, frame = 0
 485              		@ frame_needed = 0, uses_anonymous_args = 0
 486              	.LVL39:
 487 0000 70B5     		push	{r4, r5, r6, lr}
 488              	.LCFI3:
 489              		.cfi_def_cfa_offset 16
 490              		.cfi_offset 4, -16
 491              		.cfi_offset 5, -12
 492              		.cfi_offset 6, -8
 493              		.cfi_offset 14, -4
 494              		.loc 1 429 0
 495 0002 4E1E     		subs	r6, r1, #1
 496 0004 856A     		ldr	r5, [r0, #40]
 497 0006 F618     		adds	r6, r6, r3
 498 0008 AE42     		cmp	r6, r5
 499              		.loc 1 423 0
 500 000a 0446     		mov	r4, r0
 501              		.loc 1 429 0
 502 000c 05D9     		bls	.L41
 503              		.loc 1 430 0
 504 000e 406B     		ldr	r0, [r0, #52]
 505              	.LVL40:
 506 0010 40F08001 		orr	r1, r0, #128
 507              	.LVL41:
 508 0014 6163     		str	r1, [r4, #52]
 509              		.loc 1 431 0
 510 0016 0120     		movs	r0, #1
 511 0018 70BD     		pop	{r4, r5, r6, pc}
ARM GAS  C:\Users\roob\AppData\Local\Temp\ccY9Houq.s 			page 10


 512              	.LVL42:
 513              	.L41:
 514              	.LBB13:
 515              	.LBB14:
 516              		.loc 1 435 0
 517 001a 0725     		movs	r5, #7
 518 001c 0571     		strb	r5, [r0, #4]
 519              		.loc 1 437 0
 520 001e FFF7FEFF 		bl	sdc_lld_write
 521              	.LVL43:
 522              		.loc 1 440 0
 523 0022 0523     		movs	r3, #5
 524 0024 2371     		strb	r3, [r4, #4]
 525              	.LBE14:
 526              	.LBE13:
 527              		.loc 1 442 0
 528 0026 70BD     		pop	{r4, r5, r6, pc}
 529              		.cfi_endproc
 530              	.LFE126:
 531              		.size	sdcWrite, .-sdcWrite
 532 0028 AFF30080 		.section	.text.sdcRead,"ax",%progbits
 532      AFF30080 
 533              		.align	2
 534              		.p2align 4,,15
 535              		.global	sdcRead
 536              		.thumb
 537              		.thumb_func
 538              		.type	sdcRead, %function
 539              	sdcRead:
 540              	.LFB125:
 541              		.loc 1 385 0
 542              		.cfi_startproc
 543              		@ args = 0, pretend = 0, frame = 0
 544              		@ frame_needed = 0, uses_anonymous_args = 0
 545              	.LVL44:
 546 0000 70B5     		push	{r4, r5, r6, lr}
 547              	.LCFI4:
 548              		.cfi_def_cfa_offset 16
 549              		.cfi_offset 4, -16
 550              		.cfi_offset 5, -12
 551              		.cfi_offset 6, -8
 552              		.cfi_offset 14, -4
 553              		.loc 1 391 0
 554 0002 4E1E     		subs	r6, r1, #1
 555 0004 856A     		ldr	r5, [r0, #40]
 556 0006 F618     		adds	r6, r6, r3
 557 0008 AE42     		cmp	r6, r5
 558              		.loc 1 385 0
 559 000a 0446     		mov	r4, r0
 560              		.loc 1 391 0
 561 000c 05D9     		bls	.L44
 562              		.loc 1 392 0
 563 000e 406B     		ldr	r0, [r0, #52]
 564              	.LVL45:
 565 0010 40F08001 		orr	r1, r0, #128
 566              	.LVL46:
 567 0014 6163     		str	r1, [r4, #52]
ARM GAS  C:\Users\roob\AppData\Local\Temp\ccY9Houq.s 			page 11


 568              		.loc 1 393 0
 569 0016 0120     		movs	r0, #1
 570 0018 70BD     		pop	{r4, r5, r6, pc}
 571              	.LVL47:
 572              	.L44:
 573              	.LBB17:
 574              	.LBB18:
 575              		.loc 1 397 0
 576 001a 0625     		movs	r5, #6
 577 001c 0571     		strb	r5, [r0, #4]
 578              		.loc 1 399 0
 579 001e FFF7FEFF 		bl	sdc_lld_read
 580              	.LVL48:
 581              		.loc 1 402 0
 582 0022 0523     		movs	r3, #5
 583 0024 2371     		strb	r3, [r4, #4]
 584              	.LBE18:
 585              	.LBE17:
 586              		.loc 1 404 0
 587 0026 70BD     		pop	{r4, r5, r6, pc}
 588              		.cfi_endproc
 589              	.LFE125:
 590              		.size	sdcRead, .-sdcRead
 591 0028 AFF30080 		.section	.text._sdc_wait_for_transfer_state,"ax",%progbits
 591      AFF30080 
 592              		.align	2
 593              		.p2align 4,,15
 594              		.global	_sdc_wait_for_transfer_state
 595              		.thumb
 596              		.thumb_func
 597              		.type	_sdc_wait_for_transfer_state, %function
 598              	_sdc_wait_for_transfer_state:
 599              	.LFB118:
 600              		.loc 1 82 0
 601              		.cfi_startproc
 602              		@ args = 0, pretend = 0, frame = 8
 603              		@ frame_needed = 0, uses_anonymous_args = 0
 604              	.LVL49:
 605 0000 10B5     		push	{r4, lr}
 606              	.LCFI5:
 607              		.cfi_def_cfa_offset 8
 608              		.cfi_offset 4, -8
 609              		.cfi_offset 14, -4
 610 0002 0446     		mov	r4, r0
 611 0004 82B0     		sub	sp, sp, #8
 612              	.LCFI6:
 613              		.cfi_def_cfa_offset 16
 614              	.LVL50:
 615              	.L50:
 616              		.loc 1 86 0
 617 0006 01AB     		add	r3, sp, #4
 618 0008 2046     		mov	r0, r4
 619 000a 0D21     		movs	r1, #13
 620 000c A26B     		ldr	r2, [r4, #56]
 621 000e FFF7FEFF 		bl	sdc_lld_send_cmd_short_crc
 622              	.LVL51:
 623              		.loc 1 88 0
ARM GAS  C:\Users\roob\AppData\Local\Temp\ccY9Houq.s 			page 12


 624 0012 4EF20803 		movw	r3, #57352
 625 0016 CFF6FF53 		movt	r3, 65023
 626              		.loc 1 86 0
 627 001a 38B9     		cbnz	r0, .L53
 628              		.loc 1 88 0
 629 001c 019A     		ldr	r2, [sp, #4]
 630 001e 1340     		ands	r3, r3, r2
 631              		.loc 1 90 0
 632 0020 C2F34321 		ubfx	r1, r2, #9, #4
 633              		.loc 1 87 0
 634 0024 13B9     		cbnz	r3, .L53
 635              		.loc 1 90 0
 636 0026 0429     		cmp	r1, #4
 637 0028 09D0     		beq	.L48
 638 002a 02D2     		bcs	.L55
 639              	.L53:
 640              		.loc 1 103 0
 641 002c 0120     		movs	r0, #1
 642              	.L47:
 643              		.loc 1 108 0
 644 002e 02B0     		add	sp, sp, #8
 645 0030 10BD     		pop	{r4, pc}
 646              	.L55:
 647              		.loc 1 90 0
 648 0032 0729     		cmp	r1, #7
 649 0034 FAD8     		bhi	.L53
 650              		.loc 1 97 0
 651 0036 0120     		movs	r0, #1
 652 0038 FFF7FEFF 		bl	chThdSleep
 653              	.LVL52:
 654              		.loc 1 105 0
 655 003c E3E7     		b	.L50
 656              	.L48:
 657              		.loc 1 92 0
 658 003e 1846     		mov	r0, r3
 659 0040 F5E7     		b	.L47
 660              		.cfi_endproc
 661              	.LFE118:
 662              		.size	_sdc_wait_for_transfer_state, .-_sdc_wait_for_transfer_state
 663 0042 00BFAFF3 		.section	.text.sdcDisconnect,"ax",%progbits
 663      0080AFF3 
 663      0080AFF3 
 663      0080
 664              		.align	2
 665              		.p2align 4,,15
 666              		.global	sdcDisconnect
 667              		.thumb
 668              		.thumb_func
 669              		.type	sdcDisconnect, %function
 670              	sdcDisconnect:
 671              	.LFB124:
 672              		.loc 1 341 0
 673              		.cfi_startproc
 674              		@ args = 0, pretend = 0, frame = 0
 675              		@ frame_needed = 0, uses_anonymous_args = 0
 676              	.LVL53:
 677 0000 38B5     		push	{r3, r4, r5, lr}
ARM GAS  C:\Users\roob\AppData\Local\Temp\ccY9Houq.s 			page 13


 678              	.LCFI7:
 679              		.cfi_def_cfa_offset 16
 680              		.cfi_offset 3, -16
 681              		.cfi_offset 4, -12
 682              		.cfi_offset 5, -8
 683              		.cfi_offset 14, -4
 684              		.loc 1 341 0
 685 0002 0446     		mov	r4, r0
 686              	.LBB26:
 687              		.loc 1 345 0
 688 0004 2023     		movs	r3, #32
 689              	.LVL54:
 690              	@ 345 "../../os/hal/src/sdc.c" 1
 691 0006 83F31188 		msr     BASEPRI, r3
 692              	@ 0 "" 2
 693              	.LVL55:
 694              		.thumb
 695              	.LBE26:
 696              		.loc 1 348 0
 697 000a 0379     		ldrb	r3, [r0, #4]	@ zero_extendqisi2
 698              	.LVL56:
 699 000c 022B     		cmp	r3, #2
 700 000e 15D0     		beq	.L61
 701              	.LVL57:
 702              	.LBB27:
 703              	.LBB28:
 704              		.loc 1 352 0
 705 0010 0421     		movs	r1, #4
 706 0012 0171     		strb	r1, [r0, #4]
 707              	.LBB29:
 708              		.loc 1 353 0
 709 0014 0023     		movs	r3, #0
 710              	.LVL58:
 711              	@ 353 "../../os/hal/src/sdc.c" 1
 712 0016 83F31188 		msr     BASEPRI, r3
 713              	@ 0 "" 2
 714              	.LVL59:
 715              		.thumb
 716              	.LBE29:
 717              		.loc 1 356 0
 718 001a FFF7FEFF 		bl	_sdc_wait_for_transfer_state
 719              	.LVL60:
 720 001e 0546     		mov	r5, r0
 721              		.loc 1 357 0
 722 0020 2046     		mov	r0, r4
 723              		.loc 1 356 0
 724 0022 2DB9     		cbnz	r5, .L62
 725              		.loc 1 363 0
 726 0024 FFF7FEFF 		bl	sdc_lld_stop_clk
 727              	.LVL61:
 728              		.loc 1 364 0
 729 0028 0220     		movs	r0, #2
 730 002a 2071     		strb	r0, [r4, #4]
 731              		.loc 1 365 0
 732 002c 2846     		mov	r0, r5
 733              	.LBE28:
 734              	.LBE27:
ARM GAS  C:\Users\roob\AppData\Local\Temp\ccY9Houq.s 			page 14


 735              		.loc 1 366 0
 736 002e 38BD     		pop	{r3, r4, r5, pc}
 737              	.LVL62:
 738              	.L62:
 739              	.LBB31:
 740              	.LBB30:
 741              		.loc 1 357 0
 742 0030 FFF7FEFF 		bl	sdc_lld_stop_clk
 743              	.LVL63:
 744              		.loc 1 358 0
 745 0034 0222     		movs	r2, #2
 746 0036 2271     		strb	r2, [r4, #4]
 747              		.loc 1 359 0
 748 0038 0120     		movs	r0, #1
 749 003a 38BD     		pop	{r3, r4, r5, pc}
 750              	.LVL64:
 751              	.L61:
 752              	.LBE30:
 753              	.LBE31:
 754              	.LBB32:
 755              		.loc 1 349 0
 756 003c 0023     		movs	r3, #0
 757              	.LVL65:
 758              	@ 349 "../../os/hal/src/sdc.c" 1
 759 003e 83F31188 		msr     BASEPRI, r3
 760              	@ 0 "" 2
 761              	.LVL66:
 762              		.thumb
 763              	.LBE32:
 764              		.loc 1 350 0
 765 0042 1846     		mov	r0, r3
 766              	.LVL67:
 767 0044 38BD     		pop	{r3, r4, r5, pc}
 768              		.cfi_endproc
 769              	.LFE124:
 770              		.size	sdcDisconnect, .-sdcDisconnect
 771 0046 00BFAFF3 		.section	.text.sdcInit,"ax",%progbits
 771      0080AFF3 
 771      0080
 772              		.align	2
 773              		.p2align 4,,15
 774              		.global	sdcInit
 775              		.thumb
 776              		.thumb_func
 777              		.type	sdcInit, %function
 778              	sdcInit:
 779              	.LFB119:
 780              		.loc 1 121 0
 781              		.cfi_startproc
 782              		@ args = 0, pretend = 0, frame = 0
 783              		@ frame_needed = 0, uses_anonymous_args = 0
 784              		@ link register save eliminated.
 785              		.loc 1 124 0
 786              		.loc 1 123 0
 787 0000 FFF7FEBF 		b	sdc_lld_init
 788              	.LVL68:
 789              		.cfi_endproc
ARM GAS  C:\Users\roob\AppData\Local\Temp\ccY9Houq.s 			page 15


 790              	.LFE119:
 791              		.size	sdcInit, .-sdcInit
 792 0004 AFF30080 		.section	.text.sdcObjectInit,"ax",%progbits
 792      AFF30080 
 792      AFF30080 
 793              		.align	2
 794              		.p2align 4,,15
 795              		.global	sdcObjectInit
 796              		.thumb
 797              		.thumb_func
 798              		.type	sdcObjectInit, %function
 799              	sdcObjectInit:
 800              	.LFB120:
 801              		.loc 1 133 0
 802              		.cfi_startproc
 803              		@ args = 0, pretend = 0, frame = 0
 804              		@ frame_needed = 0, uses_anonymous_args = 0
 805              		@ link register save eliminated.
 806              	.LVL69:
 807              		.loc 1 135 0
 808 0000 40F20002 		movw	r2, #:lower16:.LANCHOR0
 809              		.loc 1 137 0
 810 0004 0023     		movs	r3, #0
 811              		.loc 1 135 0
 812 0006 C0F20002 		movt	r2, #:upper16:.LANCHOR0
 813              		.loc 1 136 0
 814 000a 0121     		movs	r1, #1
 815              		.loc 1 135 0
 816 000c 0260     		str	r2, [r0, #0]
 817              		.loc 1 136 0
 818 000e 0171     		strb	r1, [r0, #4]
 819              		.loc 1 137 0
 820 0010 4363     		str	r3, [r0, #52]
 821              		.loc 1 138 0
 822 0012 C362     		str	r3, [r0, #44]
 823              		.loc 1 139 0
 824 0014 8362     		str	r3, [r0, #40]
 825 0016 7047     		bx	lr
 826              		.cfi_endproc
 827              	.LFE120:
 828              		.size	sdcObjectInit, .-sdcObjectInit
 829 0018 AFF30080 		.section	.text.sdcStart,"ax",%progbits
 829      AFF30080 
 830              		.align	2
 831              		.p2align 4,,15
 832              		.global	sdcStart
 833              		.thumb
 834              		.thumb_func
 835              		.type	sdcStart, %function
 836              	sdcStart:
 837              	.LFB121:
 838              		.loc 1 152 0
 839              		.cfi_startproc
 840              		@ args = 0, pretend = 0, frame = 0
 841              		@ frame_needed = 0, uses_anonymous_args = 0
 842              	.LVL70:
 843 0000 10B5     		push	{r4, lr}
ARM GAS  C:\Users\roob\AppData\Local\Temp\ccY9Houq.s 			page 16


 844              	.LCFI8:
 845              		.cfi_def_cfa_offset 8
 846              		.cfi_offset 4, -8
 847              		.cfi_offset 14, -4
 848              	.LBB33:
 849              		.loc 1 156 0
 850 0002 2023     		movs	r3, #32
 851              	.LVL71:
 852              	.LBE33:
 853              		.loc 1 152 0
 854 0004 0446     		mov	r4, r0
 855              	.LBB34:
 856              		.loc 1 156 0
 857              	@ 156 "../../os/hal/src/sdc.c" 1
 858 0006 83F31188 		msr     BASEPRI, r3
 859              	@ 0 "" 2
 860              	.LVL72:
 861              		.thumb
 862              	.LBE34:
 863              		.loc 1 159 0
 864 000a C162     		str	r1, [r0, #44]
 865              		.loc 1 160 0
 866 000c FFF7FEFF 		bl	sdc_lld_start
 867              	.LVL73:
 868              		.loc 1 161 0
 869 0010 0223     		movs	r3, #2
 870 0012 2371     		strb	r3, [r4, #4]
 871              	.LBB35:
 872              		.loc 1 162 0
 873 0014 0023     		movs	r3, #0
 874              	.LVL74:
 875              	@ 162 "../../os/hal/src/sdc.c" 1
 876 0016 83F31188 		msr     BASEPRI, r3
 877              	@ 0 "" 2
 878              	.LVL75:
 879              		.thumb
 880 001a 10BD     		pop	{r4, pc}
 881              	.LBE35:
 882              		.cfi_endproc
 883              	.LFE121:
 884              		.size	sdcStart, .-sdcStart
 885 001c AFF30080 		.section	.text.sdcStop,"ax",%progbits
 886              		.align	2
 887              		.p2align 4,,15
 888              		.global	sdcStop
 889              		.thumb
 890              		.thumb_func
 891              		.type	sdcStop, %function
 892              	sdcStop:
 893              	.LFB122:
 894              		.loc 1 172 0
 895              		.cfi_startproc
 896              		@ args = 0, pretend = 0, frame = 0
 897              		@ frame_needed = 0, uses_anonymous_args = 0
 898              	.LVL76:
 899 0000 10B5     		push	{r4, lr}
 900              	.LCFI9:
ARM GAS  C:\Users\roob\AppData\Local\Temp\ccY9Houq.s 			page 17


 901              		.cfi_def_cfa_offset 8
 902              		.cfi_offset 4, -8
 903              		.cfi_offset 14, -4
 904              	.LBB36:
 905              		.loc 1 176 0
 906 0002 2023     		movs	r3, #32
 907              	.LVL77:
 908              	.LBE36:
 909              		.loc 1 172 0
 910 0004 0446     		mov	r4, r0
 911              	.LBB37:
 912              		.loc 1 176 0
 913              	@ 176 "../../os/hal/src/sdc.c" 1
 914 0006 83F31188 		msr     BASEPRI, r3
 915              	@ 0 "" 2
 916              	.LVL78:
 917              		.thumb
 918              	.LBE37:
 919              		.loc 1 179 0
 920 000a FFF7FEFF 		bl	sdc_lld_stop
 921              	.LVL79:
 922              		.loc 1 180 0
 923 000e 0123     		movs	r3, #1
 924 0010 2371     		strb	r3, [r4, #4]
 925              	.LBB38:
 926              		.loc 1 181 0
 927 0012 0023     		movs	r3, #0
 928              	.LVL80:
 929              	@ 181 "../../os/hal/src/sdc.c" 1
 930 0014 83F31188 		msr     BASEPRI, r3
 931              	@ 0 "" 2
 932              	.LVL81:
 933              		.thumb
 934 0018 10BD     		pop	{r4, pc}
 935              	.LBE38:
 936              		.cfi_endproc
 937              	.LFE122:
 938              		.size	sdcStop, .-sdcStop
 939 001a 00BFAFF3 		.section	.text.sdcGetAndClearErrors,"ax",%progbits
 939      0080
 940              		.align	2
 941              		.p2align 4,,15
 942              		.global	sdcGetAndClearErrors
 943              		.thumb
 944              		.thumb_func
 945              		.type	sdcGetAndClearErrors, %function
 946              	sdcGetAndClearErrors:
 947              	.LFB127:
 948              		.loc 1 452 0
 949              		.cfi_startproc
 950              		@ args = 0, pretend = 0, frame = 0
 951              		@ frame_needed = 0, uses_anonymous_args = 0
 952              		@ link register save eliminated.
 953              	.LVL82:
 954              		.loc 1 452 0
 955 0000 0246     		mov	r2, r0
 956              	.LBB39:
ARM GAS  C:\Users\roob\AppData\Local\Temp\ccY9Houq.s 			page 18


 957              		.loc 1 459 0
 958 0002 2023     		movs	r3, #32
 959              	.LVL83:
 960              	@ 459 "../../os/hal/src/sdc.c" 1
 961 0004 83F31188 		msr     BASEPRI, r3
 962              	@ 0 "" 2
 963              	.LVL84:
 964              		.thumb
 965              	.LBE39:
 966              		.loc 1 461 0
 967 0008 0023     		movs	r3, #0
 968              	.LVL85:
 969              		.loc 1 460 0
 970 000a 406B     		ldr	r0, [r0, #52]
 971              	.LVL86:
 972              		.loc 1 461 0
 973 000c 5363     		str	r3, [r2, #52]
 974              	.LBB40:
 975              		.loc 1 462 0
 976              	@ 462 "../../os/hal/src/sdc.c" 1
 977 000e 83F31188 		msr     BASEPRI, r3
 978              	@ 0 "" 2
 979              	.LVL87:
 980              		.thumb
 981              	.LBE40:
 982              		.loc 1 464 0
 983 0012 7047     		bx	lr
 984              		.cfi_endproc
 985              	.LFE127:
 986              		.size	sdcGetAndClearErrors, .-sdcGetAndClearErrors
 987 0014 AFF30080 		.section	.text.sdcErase,"ax",%progbits
 987      AFF30080 
 987      AFF30080 
 988              		.align	2
 989              		.p2align 4,,15
 990              		.global	sdcErase
 991              		.thumb
 992              		.thumb_func
 993              		.type	sdcErase, %function
 994              	sdcErase:
 995              	.LFB130:
 996              		.loc 1 534 0
 997              		.cfi_startproc
 998              		@ args = 0, pretend = 0, frame = 8
 999              		@ frame_needed = 0, uses_anonymous_args = 0
 1000              	.LVL88:
 1001 0000 70B5     		push	{r4, r5, r6, lr}
 1002              	.LCFI10:
 1003              		.cfi_def_cfa_offset 16
 1004              		.cfi_offset 4, -16
 1005              		.cfi_offset 5, -12
 1006              		.cfi_offset 6, -8
 1007              		.cfi_offset 14, -4
 1008              		.loc 1 544 0
 1009 0002 036B     		ldr	r3, [r0, #48]
 1010              		.loc 1 534 0
 1011 0004 0446     		mov	r4, r0
ARM GAS  C:\Users\roob\AppData\Local\Temp\ccY9Houq.s 			page 19


 1012 0006 1646     		mov	r6, r2
 1013              		.loc 1 541 0
 1014 0008 0720     		movs	r0, #7
 1015              	.LVL89:
 1016              		.loc 1 544 0
 1017 000a DA06     		lsls	r2, r3, #27
 1018              	.LVL90:
 1019              		.loc 1 534 0
 1020 000c 82B0     		sub	sp, sp, #8
 1021              	.LCFI11:
 1022              		.cfi_def_cfa_offset 24
 1023              		.loc 1 541 0
 1024 000e 2071     		strb	r0, [r4, #4]
 1025              		.loc 1 534 0
 1026 0010 0D46     		mov	r5, r1
 1027              		.loc 1 544 0
 1028 0012 01D4     		bmi	.L69
 1029              		.loc 1 545 0
 1030 0014 4D02     		lsls	r5, r1, #9
 1031              	.LVL91:
 1032              		.loc 1 546 0
 1033 0016 7602     		lsls	r6, r6, #9
 1034              	.LVL92:
 1035              	.L69:
 1036              		.loc 1 549 0
 1037 0018 2046     		mov	r0, r4
 1038 001a FFF7FEFF 		bl	_sdc_wait_for_transfer_state
 1039              	.LVL93:
 1040              		.loc 1 551 0
 1041 001e 2046     		mov	r0, r4
 1042 0020 2021     		movs	r1, #32
 1043 0022 2A46     		mov	r2, r5
 1044 0024 01AB     		add	r3, sp, #4
 1045 0026 FFF7FEFF 		bl	sdc_lld_send_cmd_short_crc
 1046              	.LVL94:
 1047 002a 30B9     		cbnz	r0, .L70
 1048              		.loc 1 553 0
 1049 002c 4EF20801 		movw	r1, #57352
 1050 0030 019A     		ldr	r2, [sp, #4]
 1051 0032 CFF6FF51 		movt	r1, 65023
 1052 0036 1140     		ands	r1, r1, r2
 1053              		.loc 1 552 0
 1054 0038 21B1     		cbz	r1, .L72
 1055              	.LVL95:
 1056              	.L70:
 1057              	.LDL2:
 1058              		.loc 1 576 0
 1059 003a 0522     		movs	r2, #5
 1060 003c 2271     		strb	r2, [r4, #4]
 1061              		.loc 1 577 0
 1062 003e 0120     		movs	r0, #1
 1063              	.L71:
 1064              		.loc 1 578 0
 1065 0040 02B0     		add	sp, sp, #8
 1066 0042 70BD     		pop	{r4, r5, r6, pc}
 1067              	.LVL96:
 1068              	.L72:
ARM GAS  C:\Users\roob\AppData\Local\Temp\ccY9Houq.s 			page 20


 1069              		.loc 1 556 0
 1070 0044 2046     		mov	r0, r4
 1071 0046 2121     		movs	r1, #33
 1072 0048 3246     		mov	r2, r6
 1073 004a 01AB     		add	r3, sp, #4
 1074 004c FFF7FEFF 		bl	sdc_lld_send_cmd_short_crc
 1075              	.LVL97:
 1076 0050 0028     		cmp	r0, #0
 1077 0052 F2D1     		bne	.L70
 1078              		.loc 1 558 0
 1079 0054 4EF20802 		movw	r2, #57352
 1080 0058 019B     		ldr	r3, [sp, #4]
 1081 005a CFF6FF52 		movt	r2, 65023
 1082 005e 1A40     		ands	r2, r2, r3
 1083              		.loc 1 557 0
 1084 0060 002A     		cmp	r2, #0
 1085 0062 EAD1     		bne	.L70
 1086              		.loc 1 561 0
 1087 0064 2046     		mov	r0, r4
 1088 0066 2621     		movs	r1, #38
 1089 0068 01AB     		add	r3, sp, #4
 1090 006a FFF7FEFF 		bl	sdc_lld_send_cmd_short_crc
 1091              	.LVL98:
 1092 006e 0028     		cmp	r0, #0
 1093 0070 E3D1     		bne	.L70
 1094              		.loc 1 563 0
 1095 0072 4EF20805 		movw	r5, #57352
 1096              	.LVL99:
 1097 0076 0198     		ldr	r0, [sp, #4]
 1098 0078 CFF6FF55 		movt	r5, 65023
 1099 007c 0540     		ands	r5, r5, r0
 1100              		.loc 1 562 0
 1101 007e 002D     		cmp	r5, #0
 1102 0080 DBD1     		bne	.L70
 1103              		.loc 1 570 0
 1104 0082 2046     		mov	r0, r4
 1105 0084 FFF7FEFF 		bl	_sdc_wait_for_transfer_state
 1106              	.LVL100:
 1107              		.loc 1 572 0
 1108 0088 0521     		movs	r1, #5
 1109 008a 2171     		strb	r1, [r4, #4]
 1110              		.loc 1 573 0
 1111 008c 2846     		mov	r0, r5
 1112 008e D7E7     		b	.L71
 1113              		.cfi_endproc
 1114              	.LFE130:
 1115              		.size	sdcErase, .-sdcErase
 1116              		.section	.rodata.sdc_vmt,"a",%progbits
 1117              		.align	2
 1118              		.set	.LANCHOR0,. + 0
 1119              		.type	sdc_vmt, %object
 1120              		.size	sdc_vmt, 32
 1121              	sdc_vmt:
 1122 0000 00000000 		.word	sdc_lld_is_card_inserted
 1123 0004 00000000 		.word	sdc_lld_is_write_protected
 1124 0008 00000000 		.word	sdcConnect
 1125 000c 00000000 		.word	sdcDisconnect
ARM GAS  C:\Users\roob\AppData\Local\Temp\ccY9Houq.s 			page 21


 1126 0010 00000000 		.word	sdcRead
 1127 0014 00000000 		.word	sdcWrite
 1128 0018 00000000 		.word	sdcSync
 1129 001c 00000000 		.word	sdcGetInfo
 1130              		.text
 1131              	.Letext0:
 1132              		.file 2 "c:\\chibistudio\\tools\\gnu tools arm embedded\\4.7 2013q1\\bin\\../lib/gcc/arm-none-eabi
 1133              		.file 3 "../../os/ports/GCC/ARMCMx/chtypes.h"
 1134              		.file 4 "../../os/kernel/include/chlists.h"
 1135              		.file 5 "../../os/kernel/include/chthreads.h"
 1136              		.file 6 "../../os/ports/GCC/ARMCMx/chcore_v7m.h"
 1137              		.file 7 "../../os/kernel/include/chmtx.h"
 1138              		.file 8 "../../os/hal/platforms/STM32F4xx/stm32f4xx.h"
 1139              		.file 9 "../../os/hal/platforms/STM32F4xx/stm32_dma.h"
 1140              		.file 10 "../../os/hal/include/io_block.h"
 1141              		.file 11 "../../os/hal/platforms/STM32/sdc_lld.h"
 1142              		.file 12 "../../os/hal/include/mmcsd.h"
 1143              		.file 13 "../../os/ports/common/ARMCMx/CMSIS/include/core_cm4.h"
