ARM GAS  C:\Users\roob\AppData\Local\Temp\ccdZJICl.s 			page 1


   1              		.syntax unified
   2              		.cpu cortex-m4
   3              		.fpu softvfp
   4              		.eabi_attribute 20, 1
   5              		.eabi_attribute 21, 1
   6              		.eabi_attribute 23, 3
   7              		.eabi_attribute 24, 1
   8              		.eabi_attribute 25, 1
   9              		.eabi_attribute 26, 1
  10              		.eabi_attribute 30, 2
  11              		.eabi_attribute 34, 1
  12              		.eabi_attribute 18, 4
  13              		.thumb
  14              		.file	"testmsg.c"
  15              		.text
  16              	.Ltext0:
  17              		.cfi_sections	.debug_frame
  18              		.section	.text.msg1_execute,"ax",%progbits
  19              		.align	2
  20              		.p2align 4,,15
  21              		.thumb
  22              		.thumb_func
  23              		.type	msg1_execute, %function
  24              	msg1_execute:
  25              	.LFB8:
  26              		.file 1 "../../test/testmsg.c"
  27              		.loc 1 67 0
  28              		.cfi_startproc
  29              		@ args = 0, pretend = 0, frame = 0
  30              		@ frame_needed = 0, uses_anonymous_args = 0
  31 0000 10B5     		push	{r4, lr}
  32              	.LCFI0:
  33              		.cfi_def_cfa_offset 8
  34              		.cfi_offset 4, -8
  35              		.cfi_offset 14, -4
  36              		.loc 1 74 0
  37 0002 40F20002 		movw	r2, #:lower16:rlist
  38 0006 C0F20002 		movt	r2, #:upper16:rlist
  39 000a 40F20003 		movw	r3, #:lower16:wa
  40 000e 9169     		ldr	r1, [r2, #24]
  41 0010 C0F20003 		movt	r3, #:upper16:wa
  42              		.loc 1 67 0
  43 0014 82B0     		sub	sp, sp, #8
  44              	.LCFI1:
  45              		.cfi_def_cfa_offset 16
  46              		.loc 1 74 0
  47 0016 8C68     		ldr	r4, [r1, #8]
  48 0018 1868     		ldr	r0, [r3, #0]
  49 001a 0091     		str	r1, [sp, #0]
  50 001c 40F20003 		movw	r3, #:lower16:thread
  51 0020 C0F20003 		movt	r3, #:upper16:thread
  52 0024 621C     		adds	r2, r4, #1
  53 0026 4FF49871 		mov	r1, #304
  54 002a FFF7FEFF 		bl	chThdCreateStatic
  55              	.LVL0:
  56 002e 40F20002 		movw	r2, #:lower16:threads
  57 0032 C0F20002 		movt	r2, #:upper16:threads
ARM GAS  C:\Users\roob\AppData\Local\Temp\ccdZJICl.s 			page 2


  58 0036 1060     		str	r0, [r2, #0]
  59              		.loc 1 76 0
  60 0038 FFF7FEFF 		bl	chMsgWait
  61              	.LVL1:
  62              		.loc 1 77 0
  63 003c 446B     		ldr	r4, [r0, #52]
  64              	.LVL2:
  65              		.loc 1 78 0
  66 003e 2146     		mov	r1, r4
  67 0040 FFF7FEFF 		bl	chMsgRelease
  68              	.LVL3:
  69              		.loc 1 79 0
  70 0044 E0B2     		uxtb	r0, r4
  71 0046 FFF7FEFF 		bl	test_emit_token
  72              	.LVL4:
  73              		.loc 1 80 0
  74 004a FFF7FEFF 		bl	chMsgWait
  75              	.LVL5:
  76              		.loc 1 81 0
  77 004e 446B     		ldr	r4, [r0, #52]
  78              	.LVL6:
  79              		.loc 1 82 0
  80 0050 2146     		mov	r1, r4
  81 0052 FFF7FEFF 		bl	chMsgRelease
  82              	.LVL7:
  83              		.loc 1 83 0
  84 0056 E0B2     		uxtb	r0, r4
  85 0058 FFF7FEFF 		bl	test_emit_token
  86              	.LVL8:
  87              		.loc 1 84 0
  88 005c FFF7FEFF 		bl	chMsgWait
  89              	.LVL9:
  90              		.loc 1 85 0
  91 0060 446B     		ldr	r4, [r0, #52]
  92              	.LVL10:
  93              		.loc 1 86 0
  94 0062 2146     		mov	r1, r4
  95 0064 FFF7FEFF 		bl	chMsgRelease
  96              	.LVL11:
  97              		.loc 1 87 0
  98 0068 E0B2     		uxtb	r0, r4
  99 006a FFF7FEFF 		bl	test_emit_token
 100              	.LVL12:
 101              		.loc 1 88 0
 102 006e 40F20001 		movw	r1, #:lower16:.LC0
 103 0072 0120     		movs	r0, #1
 104 0074 C0F20001 		movt	r1, #:upper16:.LC0
 105              		.loc 1 89 0
 106 0078 02B0     		add	sp, sp, #8
 107 007a BDE81040 		pop	{r4, lr}
 108              		.loc 1 88 0
 109 007e FFF7FEBF 		b	_test_assert_sequence
 110              	.LVL13:
 111              		.cfi_endproc
 112              	.LFE8:
 113              		.size	msg1_execute, .-msg1_execute
 114 0082 00BFAFF3 		.section	.text.thread,"ax",%progbits
ARM GAS  C:\Users\roob\AppData\Local\Temp\ccdZJICl.s 			page 3


 114      0080AFF3 
 114      0080AFF3 
 114      0080
 115              		.align	2
 116              		.p2align 4,,15
 117              		.thumb
 118              		.thumb_func
 119              		.type	thread, %function
 120              	thread:
 121              	.LFB7:
 122              		.loc 1 59 0
 123              		.cfi_startproc
 124              		@ args = 0, pretend = 0, frame = 0
 125              		@ frame_needed = 0, uses_anonymous_args = 0
 126              	.LVL14:
 127 0000 10B5     		push	{r4, lr}
 128              	.LCFI2:
 129              		.cfi_def_cfa_offset 8
 130              		.cfi_offset 4, -8
 131              		.cfi_offset 14, -4
 132              		.loc 1 61 0
 133 0002 4121     		movs	r1, #65
 134              		.loc 1 59 0
 135 0004 0446     		mov	r4, r0
 136              		.loc 1 61 0
 137 0006 FFF7FEFF 		bl	chMsgSend
 138              	.LVL15:
 139              		.loc 1 62 0
 140 000a 4221     		movs	r1, #66
 141 000c 2046     		mov	r0, r4
 142 000e FFF7FEFF 		bl	chMsgSend
 143              	.LVL16:
 144              		.loc 1 63 0
 145 0012 2046     		mov	r0, r4
 146 0014 4321     		movs	r1, #67
 147 0016 FFF7FEFF 		bl	chMsgSend
 148              	.LVL17:
 149              		.loc 1 65 0
 150 001a 0020     		movs	r0, #0
 151 001c 10BD     		pop	{r4, pc}
 152              		.cfi_endproc
 153              	.LFE7:
 154              		.size	thread, .-thread
 155              		.global	patternmsg
 156              		.global	testmsg1
 157 001e 00BF     		.section	.rodata.testmsg1,"a",%progbits
 158              		.align	2
 159              		.type	testmsg1, %object
 160              		.size	testmsg1, 16
 161              	testmsg1:
 162 0000 04000000 		.word	.LC1
 163 0004 00000000 		.word	0
 164 0008 00000000 		.word	0
 165 000c 00000000 		.word	msg1_execute
 166              		.section	.rodata.str1.4,"aMS",%progbits,1
 167              		.align	2
 168              	.LC0:
ARM GAS  C:\Users\roob\AppData\Local\Temp\ccdZJICl.s 			page 4


 169 0000 41424300 		.ascii	"ABC\000"
 170              	.LC1:
 171 0004 4D657373 		.ascii	"Messages, loop\000"
 171      61676573 
 171      2C206C6F 
 171      6F7000
 172 0013 00       		.section	.rodata.patternmsg,"a",%progbits
 173              		.align	2
 174              		.type	patternmsg, %object
 175              		.size	patternmsg, 8
 176              	patternmsg:
 177 0000 00000000 		.word	testmsg1
 178 0004 00000000 		.word	0
 179              		.text
 180              	.Letext0:
 181              		.file 2 "c:\\chibistudio\\tools\\gnu tools arm embedded\\4.7 2013q1\\bin\\../lib/gcc/arm-none-eabi
 182              		.file 3 "c:\\chibistudio\\tools\\gnu tools arm embedded\\4.7 2013q1\\bin\\../lib/gcc/arm-none-eabi
 183              		.file 4 "../../os/ports/GCC/ARMCMx/chtypes.h"
 184              		.file 5 "../../os/kernel/include/chlists.h"
 185              		.file 6 "../../os/kernel/include/chthreads.h"
 186              		.file 7 "../../os/ports/GCC/ARMCMx/chcore_v7m.h"
 187              		.file 8 "../../os/kernel/include/chschd.h"
 188              		.file 9 "../../os/kernel/include/chmtx.h"
 189              		.file 10 "../../test/test.h"
 190              		.file 11 "../../os/kernel/include/chmsg.h"
